{
  "address": "0x863616b4e5812D0163cC3e49137EA8252B75D91D",
  "abi": [
    {
      "inputs": [],
      "name": "NotPrivilegedSwapper",
      "type": "error"
    },
    {
      "inputs": [
        {
          "components": [
            {
              "internalType": "address",
              "name": "token",
              "type": "address"
            },
            {
              "internalType": "uint256",
              "name": "amount",
              "type": "uint256"
            }
          ],
          "internalType": "struct ThirdPartyDCAHubSwapper.AmountOfToken[]",
          "name": "amounts",
          "type": "tuple[]"
        }
      ],
      "name": "SwapResults",
      "type": "error"
    },
    {
      "inputs": [],
      "name": "TransactionTooOld",
      "type": "error"
    },
    {
      "inputs": [
        {
          "internalType": "address",
          "name": "",
          "type": "address"
        },
        {
          "components": [
            {
              "internalType": "address",
              "name": "token",
              "type": "address"
            },
            {
              "internalType": "uint256",
              "name": "reward",
              "type": "uint256"
            },
            {
              "internalType": "uint256",
              "name": "toProvide",
              "type": "uint256"
            },
            {
              "internalType": "uint256",
              "name": "platformFee",
              "type": "uint256"
            }
          ],
          "internalType": "struct IDCAHubSwapHandler.TokenInSwap[]",
          "name": "_tokens",
          "type": "tuple[]"
        },
        {
          "internalType": "uint256[]",
          "name": "",
          "type": "uint256[]"
        },
        {
          "internalType": "bytes",
          "name": "_data",
          "type": "bytes"
        }
      ],
      "name": "DCAHubSwapCall",
      "outputs": [],
      "stateMutability": "nonpayable",
      "type": "function"
    },
    {
      "inputs": [],
      "name": "PRIVILEGED_SWAPPER_ROLE",
      "outputs": [
        {
          "internalType": "bytes32",
          "name": "",
          "type": "bytes32"
        }
      ],
      "stateMutability": "view",
      "type": "function"
    },
    {
      "inputs": [
        {
          "internalType": "contract IDCAHubWithAccessControl",
          "name": "_hub",
          "type": "address"
        },
        {
          "internalType": "address[]",
          "name": "_tokens",
          "type": "address[]"
        },
        {
          "components": [
            {
              "internalType": "uint8",
              "name": "indexTokenA",
              "type": "uint8"
            },
            {
              "internalType": "uint8",
              "name": "indexTokenB",
              "type": "uint8"
            }
          ],
          "internalType": "struct IDCAHubSwapHandler.PairIndexes[]",
          "name": "_pairsToSwap",
          "type": "tuple[]"
        },
        {
          "internalType": "uint256[]",
          "name": "_borrow",
          "type": "uint256[]"
        },
        {
          "internalType": "bytes",
          "name": "_callbackData",
          "type": "bytes"
        },
        {
          "internalType": "bytes",
          "name": "_oracleData",
          "type": "bytes"
        }
      ],
      "name": "executeSwap",
      "outputs": [],
      "stateMutability": "payable",
      "type": "function"
    }
  ],
  "transactionHash": "0x2e5efd6aea3da81179478dd53b4a6cac126294ab3785c226741be7f8582de822",
  "args": [],
  "numDeployments": 1,
  "bytecode": "0x608060405234801561001057600080fd5b50611c5e806100206000396000f3fe6080604052600436106100345760003560e01c80635817c99e14610039578063648573701461005b578063d6347c1b146100a1575b600080fd5b34801561004557600080fd5b50610059610054366004610fae565b6100b4565b005b34801561006757600080fd5b5061008f7f052bd61fb293c90e13fa32c291e2dcb25630630baf169861d2a103dfe65025f481565b60405190815260200160405180910390f35b6100596100af3660046110d1565b61015d565b60006100c282840184611584565b90508060200151421115610102576040517fa83116fc00000000000000000000000000000000000000000000000000000000815260040160405180910390fd5b61010f8160400151610304565b61011c8160600151610556565b80511561013257610132878783608001516105f8565b61014187878360a001516108e4565b61015381608001518260a00151610a37565b5050505050505050565b6040517f91d148540000000000000000000000000000000000000000000000000000000081527f052bd61fb293c90e13fa32c291e2dcb25630630baf169861d2a103dfe65025f4600482015233602482015273ffffffffffffffffffffffffffffffffffffffff8c16906391d1485490604401602060405180830381865afa1580156101ed573d6000803e3d6000fd5b505050506040513d601f19601f820116820180604052508101906102119190611665565b610247576040517f1171cc3300000000000000000000000000000000000000000000000000000000815260040160405180910390fd5b6040517fb39461e500000000000000000000000000000000000000000000000000000000815273ffffffffffffffffffffffffffffffffffffffff8c169063b39461e5906102af908d908d908d908d90309081908f908f908f908f908f908f90600401611760565b6000604051808303816000875af11580156102ce573d6000803e3d6000fd5b505050506040513d6000823e601f3d908101601f191682016040526102f69190810190611941565b505050505050505050505050565b60005b815181101561055257600082828151811061032457610324611a6b565b6020908102919091018101518051918101516040517fdd62ed3e00000000000000000000000000000000000000000000000000000000815230600482015273ffffffffffffffffffffffffffffffffffffffff9182166024820152919350600092169063dd62ed3e90604401602060405180830381865afa1580156103ad573d6000803e3d6000fd5b505050506040513d601f19601f820116820180604052508101906103d19190611a9a565b9050816040015181101561054857801561048757815160208301516040517f095ea7b300000000000000000000000000000000000000000000000000000000815273ffffffffffffffffffffffffffffffffffffffff91821660048201526000602482015291169063095ea7b3906044016020604051808303816000875af1158015610461573d6000803e3d6000fd5b505050506040513d601f19601f820116820180604052508101906104859190611665565b505b815160208301516040517f095ea7b300000000000000000000000000000000000000000000000000000000815273ffffffffffffffffffffffffffffffffffffffff91821660048201527fffffffffffffffffffffffffffffffffffffffffffffffffffffffffffffffff602482015291169063095ea7b3906044016020604051808303816000875af1158015610522573d6000803e3d6000fd5b505050506040513d601f19601f820116820180604052508101906105469190611665565b505b5050600101610307565b5050565b60005b815181101561055257600082828151811061057657610576611a6b565b602002602001015190506105ee816040015182602001516040518060400160405280601681526020017f43616c6c20746f2073776170706572206661696c656400000000000000000000815250846000015173ffffffffffffffffffffffffffffffffffffffff16610b4b909392919063ffffffff16565b5050600101610559565b80516000906106079084611ae2565b67ffffffffffffffff81111561061f5761061f6111d8565b60405190808252806020026020018201604052801561066457816020015b604080518082019091526000808252602082015281526020019060019003908161063d5790505b50905060005b8381101561077257600085858381811061068657610686611a6b565b61069c9260206080909202019081019150611afb565b60408051808201825273ffffffffffffffffffffffffffffffffffffffff831680825291517f70a08231000000000000000000000000000000000000000000000000000000008152306004820152929350916020830191906370a0823190602401602060405180830381865afa15801561071a573d6000803e3d6000fd5b505050506040513d601f19601f8201168201806040525081019061073e9190611a9a565b81525083838151811061075357610753611a6b565b602002602001018190525050808061076a90611b18565b91505061066a565b5060005b82518110156108a657604051806040016040528084838151811061079c5761079c611a6b565b602002602001015173ffffffffffffffffffffffffffffffffffffffff1681526020018483815181106107d1576107d1611a6b565b60209081029190910101516040517f70a0823100000000000000000000000000000000000000000000000000000000815230600482015273ffffffffffffffffffffffffffffffffffffffff909116906370a0823190602401602060405180830381865afa158015610847573d6000803e3d6000fd5b505050506040513d601f19601f8201168201806040525081019061086b9190611a9a565b9052826108788684611ae2565b8151811061088857610888611a6b565b6020026020010181905250808061089e90611b18565b915050610776565b50806040517fac2836d80000000000000000000000000000000000000000000000000000000081526004016108db9190611b50565b60405180910390fd5b60005b82811015610a3157600084848381811061090357610903611a6b565b6109199260206080909202019081019150611afb565b6040517f70a0823100000000000000000000000000000000000000000000000000000000815230600482015290915060009073ffffffffffffffffffffffffffffffffffffffff8316906370a0823190602401602060405180830381865afa158015610989573d6000803e3d6000fd5b505050506040513d601f19601f820116820180604052508101906109ad9190611a9a565b90508015610a275760008686858181106109c9576109c9611a6b565b9050608002016040013590506000811115610a04576109ff73ffffffffffffffffffffffffffffffffffffffff84163384610ce1565b610a25565b610a2573ffffffffffffffffffffffffffffffffffffffff84168684610ce1565b505b50506001016108e7565b50505050565b60005b8251811015610b46576000838281518110610a5757610a57611a6b565b60209081029190910101516040517f70a0823100000000000000000000000000000000000000000000000000000000815230600482015273ffffffffffffffffffffffffffffffffffffffff909116906370a0823190602401602060405180830381865afa158015610acd573d6000803e3d6000fd5b505050506040513d601f19601f82011682018060405250810190610af19190611a9a565b90508015610b3d57610b3d8382868581518110610b1057610b10611a6b565b602002602001015173ffffffffffffffffffffffffffffffffffffffff16610ce19092919063ffffffff16565b50600101610a3a565b505050565b606082471015610bdd576040517f08c379a000000000000000000000000000000000000000000000000000000000815260206004820152602660248201527f416464726573733a20696e73756666696369656e742062616c616e636520666f60448201527f722063616c6c000000000000000000000000000000000000000000000000000060648201526084016108db565b73ffffffffffffffffffffffffffffffffffffffff85163b610c5b576040517f08c379a000000000000000000000000000000000000000000000000000000000815260206004820152601d60248201527f416464726573733a2063616c6c20746f206e6f6e2d636f6e747261637400000060448201526064016108db565b6000808673ffffffffffffffffffffffffffffffffffffffff168587604051610c849190611bd9565b60006040518083038185875af1925050503d8060008114610cc1576040519150601f19603f3d011682016040523d82523d6000602084013e610cc6565b606091505b5091509150610cd6828286610d6e565b979650505050505050565b6040805173ffffffffffffffffffffffffffffffffffffffff8416602482015260448082018490528251808303909101815260649091019091526020810180517bffffffffffffffffffffffffffffffffffffffffffffffffffffffff167fa9059cbb00000000000000000000000000000000000000000000000000000000179052610b46908490610dc8565b60608315610d7d575081610dc1565b825115610d8d5782518084602001fd5b816040517f08c379a00000000000000000000000000000000000000000000000000000000081526004016108db9190611bf5565b9392505050565b6000610e2a826040518060400160405280602081526020017f5361666545524332303a206c6f772d6c6576656c2063616c6c206661696c65648152508573ffffffffffffffffffffffffffffffffffffffff16610ed49092919063ffffffff16565b805190915015610b465780806020019051810190610e489190611665565b610b46576040517f08c379a000000000000000000000000000000000000000000000000000000000815260206004820152602a60248201527f5361666545524332303a204552433230206f7065726174696f6e20646964206e60448201527f6f7420737563636565640000000000000000000000000000000000000000000060648201526084016108db565b6060610ee38484600085610b4b565b949350505050565b73ffffffffffffffffffffffffffffffffffffffff81168114610f0d57600080fd5b50565b8035610f1b81610eeb565b919050565b60008083601f840112610f3257600080fd5b50813567ffffffffffffffff811115610f4a57600080fd5b6020830191508360208260051b8501011115610f6557600080fd5b9250929050565b60008083601f840112610f7e57600080fd5b50813567ffffffffffffffff811115610f9657600080fd5b602083019150836020828501011115610f6557600080fd5b60008060008060008060006080888a031215610fc957600080fd5b8735610fd481610eeb565b9650602088013567ffffffffffffffff80821115610ff157600080fd5b818a0191508a601f83011261100557600080fd5b81358181111561101457600080fd5b8b60208260071b850101111561102957600080fd5b6020830198508097505060408a013591508082111561104757600080fd5b6110538b838c01610f20565b909650945060608a013591508082111561106c57600080fd5b506110798a828b01610f6c565b989b979a50959850939692959293505050565b60008083601f84011261109e57600080fd5b50813567ffffffffffffffff8111156110b657600080fd5b6020830191508360208260061b8501011115610f6557600080fd5b600080600080600080600080600080600060c08c8e0312156110f257600080fd5b6110fb8c610f10565b9a5067ffffffffffffffff8060208e0135111561111757600080fd5b6111278e60208f01358f01610f20565b909b50995060408d013581101561113d57600080fd5b61114d8e60408f01358f0161108c565b909950975060608d013581101561116357600080fd5b6111738e60608f01358f01610f20565b909750955060808d013581101561118957600080fd5b6111998e60808f01358f01610f6c565b909550935060a08d01358110156111af57600080fd5b506111c08d60a08e01358e01610f6c565b81935080925050509295989b509295989b9093969950565b7f4e487b7100000000000000000000000000000000000000000000000000000000600052604160045260246000fd5b6040516060810167ffffffffffffffff8111828210171561122a5761122a6111d8565b60405290565b60405160c0810167ffffffffffffffff8111828210171561122a5761122a6111d8565b60405160e0810167ffffffffffffffff8111828210171561122a5761122a6111d8565b6040805190810167ffffffffffffffff8111828210171561122a5761122a6111d8565b6040516080810167ffffffffffffffff8111828210171561122a5761122a6111d8565b604051601f8201601f1916810167ffffffffffffffff811182821017156112e5576112e56111d8565b604052919050565b8015158114610f0d57600080fd5b8035610f1b816112ed565b600067ffffffffffffffff821115611320576113206111d8565b5060051b60200190565b600082601f83011261133b57600080fd5b8135602061135061134b83611306565b6112bc565b8281526060928302850182019282820191908785111561136f57600080fd5b8387015b858110156113c85781818a03121561138b5760008081fd5b611393611207565b813561139e81610eeb565b8152818601356113ad81610eeb565b81870152604082810135908201528452928401928101611373565b5090979650505050505050565b6000601f83818401126113e757600080fd5b823560206113f761134b83611306565b82815260059290921b8501810191818101908784111561141657600080fd5b8287015b8481101561150957803567ffffffffffffffff8082111561143b5760008081fd5b818a0191506060601f198181858f030112156114575760008081fd5b61145f611207565b8885013561146c81610eeb565b81526040858101358a83015292850135928484111561148b5760008081fd5b83860195508e603f8701126114a257600093508384fd5b898601359350848411156114b8576114b86111d8565b6114c78a848e870116016112bc565b94508385528e818588010111156114e057600092508283fd5b838187018b87013760009385018a0193909352918201929092528552505091830191830161141a565b50979650505050505050565b600082601f83011261152657600080fd5b8135602061153661134b83611306565b82815260059290921b8401810191818101908684111561155557600080fd5b8286015b8481101561157957803561156c81610eeb565b8352918301918301611559565b509695505050505050565b60006020828403121561159657600080fd5b813567ffffffffffffffff808211156115ae57600080fd5b9083019060c082860312156115c257600080fd5b6115ca611230565b6115d3836112fb565b8152602083013560208201526040830135828111156115f157600080fd5b6115fd8782860161132a565b60408301525060608301358281111561161557600080fd5b611621878286016113d5565b60608301525060808301358281111561163957600080fd5b61164587828601611515565b60808301525061165760a08401610f10565b60a082015295945050505050565b60006020828403121561167757600080fd5b8151610dc1816112ed565b803560ff81168114610f1b57600080fd5b8183526000602080850194508260005b858110156116df5760ff806116b784611682565b168852806116c6858501611682565b16888501525060409687019691909101906001016116a3565b509495945050505050565b81835260007f07ffffffffffffffffffffffffffffffffffffffffffffffffffffffffffffff83111561171c57600080fd5b8260051b80836020870137939093016020019392505050565b818352818160208501375060006020828401015260006020601f19601f840116840101905092915050565b60e080825281018c9052600061010082018e825b8f8110156117b2576117868235610eeb565b813573ffffffffffffffffffffffffffffffffffffffff16835260209283019290910190600101611774565b505082810360208401526117c7818d8f611693565b73ffffffffffffffffffffffffffffffffffffffff8c166040850152905073ffffffffffffffffffffffffffffffffffffffff8a166060840152828103608084015261181481898b6116ea565b905082810360a0840152611829818789611735565b905082810360c084015261183e818587611735565b9f9e505050505050505050505050505050565b600082601f83011261186257600080fd5b8151602061187261134b83611306565b82815260e0928302850182019282820191908785111561189157600080fd5b8387015b858110156113c85781818a0312156118ad5760008081fd5b6118b5611253565b81516118c081610eeb565b8152818601516118cf81610eeb565b8187015260408281015190820152606080830151908201526080808301519082015260a0808301519082015260c0808301517fff00000000000000000000000000000000000000000000000000000000000000811681146119305760008081fd5b908201528452928401928101611895565b6000602080838503121561195457600080fd5b825167ffffffffffffffff8082111561196c57600080fd5b8185019150604080838803121561198257600080fd5b61198a611276565b83518381111561199957600080fd5b8401601f810189136119aa57600080fd5b80516119b861134b82611306565b81815260079190911b8201870190878101908b8311156119d757600080fd5b928801925b82841015611a35576080848d0312156119f55760008081fd5b6119fd611299565b8451611a0881610eeb565b8152848a01518a8201528685015187820152606080860151908201528252608090930192908801906119dc565b845250505083850151915082821115611a4d57600080fd5b611a5988838601611851565b85820152809550505050505092915050565b7f4e487b7100000000000000000000000000000000000000000000000000000000600052603260045260246000fd5b600060208284031215611aac57600080fd5b5051919050565b7f4e487b7100000000000000000000000000000000000000000000000000000000600052601160045260246000fd5b80820180821115611af557611af5611ab3565b92915050565b600060208284031215611b0d57600080fd5b8135610dc181610eeb565b60007fffffffffffffffffffffffffffffffffffffffffffffffffffffffffffffffff8203611b4957611b49611ab3565b5060010190565b602080825282518282018190526000919060409081850190868401855b82811015611ba8578151805173ffffffffffffffffffffffffffffffffffffffff168552860151868501529284019290850190600101611b6d565b5091979650505050505050565b60005b83811015611bd0578181015183820152602001611bb8565b50506000910152565b60008251611beb818460208701611bb5565b9190910192915050565b6020815260008251806020840152611c14816040850160208701611bb5565b601f01601f1916919091016040019291505056fea264697066735822122054c1beb8f08628f85f537106bc998766a35421492ca0b1df7fdee47b8db763f764736f6c63430008100033"
}