{
  "address": "0x554D0292CD1E740123b360DD6D10037De00a0Bd7",
  "abi": [
    {
      "inputs": [
        {
          "internalType": "contract IDCAHub",
          "name": "_hub",
          "type": "address"
        },
        {
          "internalType": "contract IWrappedProtocolToken",
          "name": "_wToken",
          "type": "address"
        },
        {
          "internalType": "address",
          "name": "_governor",
          "type": "address"
        }
      ],
      "stateMutability": "nonpayable",
      "type": "constructor"
    },
    {
      "inputs": [],
      "name": "CallToDexFailed",
      "type": "error"
    },
    {
      "inputs": [],
      "name": "CallbackNotCalledByHub",
      "type": "error"
    },
    {
      "inputs": [],
      "name": "InvalidAmountOfProtocolTokenReceived",
      "type": "error"
    },
    {
      "inputs": [],
      "name": "InvalidMask",
      "type": "error"
    },
    {
      "inputs": [],
      "name": "InvalidTokenApprovalParams",
      "type": "error"
    },
    {
      "inputs": [],
      "name": "InvalidTokens",
      "type": "error"
    },
    {
      "inputs": [],
      "name": "RewardNotEnough",
      "type": "error"
    },
    {
      "inputs": [],
      "name": "SwapNotInitiatedByCompanion",
      "type": "error"
    },
    {
      "inputs": [],
      "name": "ToProvideIsTooMuch",
      "type": "error"
    },
    {
      "inputs": [],
      "name": "UnauthorizedCaller",
      "type": "error"
    },
    {
      "inputs": [],
      "name": "UnexpectedSwapPlan",
      "type": "error"
    },
    {
      "inputs": [],
      "name": "UnsupportedDex",
      "type": "error"
    },
    {
      "inputs": [],
      "name": "ZeroAddress",
      "type": "error"
    },
    {
      "anonymous": false,
      "inputs": [
        {
          "indexed": false,
          "internalType": "address",
          "name": "_to",
          "type": "address"
        },
        {
          "indexed": false,
          "internalType": "address",
          "name": "token",
          "type": "address"
        },
        {
          "indexed": false,
          "internalType": "uint256",
          "name": "amount",
          "type": "uint256"
        }
      ],
      "name": "DustSent",
      "type": "event"
    },
    {
      "anonymous": false,
      "inputs": [],
      "name": "PendingGovernorAccepted",
      "type": "event"
    },
    {
      "anonymous": false,
      "inputs": [
        {
          "indexed": false,
          "internalType": "address",
          "name": "_pendingGovernor",
          "type": "address"
        }
      ],
      "name": "PendingGovernorSet",
      "type": "event"
    },
    {
      "anonymous": false,
      "inputs": [
        {
          "indexed": false,
          "internalType": "address[]",
          "name": "addresses",
          "type": "address[]"
        },
        {
          "indexed": false,
          "internalType": "bool[]",
          "name": "hasIssue",
          "type": "bool[]"
        }
      ],
      "name": "TokenWithApprovalIssuesSet",
      "type": "event"
    },
    {
      "inputs": [
        {
          "internalType": "address",
          "name": "_sender",
          "type": "address"
        },
        {
          "components": [
            {
              "internalType": "address",
              "name": "token",
              "type": "address"
            },
            {
              "internalType": "uint256",
              "name": "reward",
              "type": "uint256"
            },
            {
              "internalType": "uint256",
              "name": "toProvide",
              "type": "uint256"
            },
            {
              "internalType": "uint256",
              "name": "platformFee",
              "type": "uint256"
            }
          ],
          "internalType": "struct IDCAHubSwapHandler.TokenInSwap[]",
          "name": "_tokens",
          "type": "tuple[]"
        },
        {
          "internalType": "uint256[]",
          "name": "",
          "type": "uint256[]"
        },
        {
          "internalType": "bytes",
          "name": "_data",
          "type": "bytes"
        }
      ],
      "name": "DCAHubSwapCall",
      "outputs": [],
      "stateMutability": "nonpayable",
      "type": "function"
    },
    {
      "inputs": [],
      "name": "PROTOCOL_TOKEN",
      "outputs": [
        {
          "internalType": "address",
          "name": "",
          "type": "address"
        }
      ],
      "stateMutability": "view",
      "type": "function"
    },
    {
      "inputs": [],
      "name": "acceptPendingGovernor",
      "outputs": [],
      "stateMutability": "nonpayable",
      "type": "function"
    },
    {
      "inputs": [],
      "name": "approveWTokenForHub",
      "outputs": [],
      "stateMutability": "nonpayable",
      "type": "function"
    },
    {
      "inputs": [
        {
          "internalType": "address",
          "name": "_dex",
          "type": "address"
        },
        {
          "internalType": "bool",
          "name": "_support",
          "type": "bool"
        }
      ],
      "name": "defineDexSupport",
      "outputs": [],
      "stateMutability": "nonpayable",
      "type": "function"
    },
    {
      "inputs": [
        {
          "internalType": "address",
          "name": "_from",
          "type": "address"
        },
        {
          "internalType": "address",
          "name": "_to",
          "type": "address"
        },
        {
          "internalType": "uint256",
          "name": "_amount",
          "type": "uint256"
        },
        {
          "internalType": "uint32",
          "name": "_amountOfSwaps",
          "type": "uint32"
        },
        {
          "internalType": "uint32",
          "name": "_swapInterval",
          "type": "uint32"
        },
        {
          "internalType": "address",
          "name": "_owner",
          "type": "address"
        },
        {
          "components": [
            {
              "internalType": "address",
              "name": "operator",
              "type": "address"
            },
            {
              "internalType": "enum IDCAPermissionManager.Permission[]",
              "name": "permissions",
              "type": "uint8[]"
            }
          ],
          "internalType": "struct IDCAPermissionManager.PermissionSet[]",
          "name": "_permissions",
          "type": "tuple[]"
        },
        {
          "internalType": "bytes",
          "name": "_miscellaneous",
          "type": "bytes"
        },
        {
          "internalType": "bool",
          "name": "_transferFromCaller",
          "type": "bool"
        }
      ],
      "name": "depositProxy",
      "outputs": [
        {
          "internalType": "uint256",
          "name": "_positionId",
          "type": "uint256"
        }
      ],
      "stateMutability": "nonpayable",
      "type": "function"
    },
    {
      "inputs": [
        {
          "internalType": "address",
          "name": "_from",
          "type": "address"
        },
        {
          "internalType": "address",
          "name": "_to",
          "type": "address"
        },
        {
          "internalType": "uint256",
          "name": "_amount",
          "type": "uint256"
        },
        {
          "internalType": "uint32",
          "name": "_amountOfSwaps",
          "type": "uint32"
        },
        {
          "internalType": "uint32",
          "name": "_swapInterval",
          "type": "uint32"
        },
        {
          "internalType": "address",
          "name": "_owner",
          "type": "address"
        },
        {
          "components": [
            {
              "internalType": "address",
              "name": "operator",
              "type": "address"
            },
            {
              "internalType": "enum IDCAPermissionManager.Permission[]",
              "name": "permissions",
              "type": "uint8[]"
            }
          ],
          "internalType": "struct IDCAPermissionManager.PermissionSet[]",
          "name": "_permissions",
          "type": "tuple[]"
        },
        {
          "internalType": "bytes",
          "name": "_miscellaneous",
          "type": "bytes"
        }
      ],
      "name": "depositUsingProtocolToken",
      "outputs": [
        {
          "internalType": "uint256",
          "name": "_positionId",
          "type": "uint256"
        }
      ],
      "stateMutability": "payable",
      "type": "function"
    },
    {
      "inputs": [
        {
          "components": [
            {
              "internalType": "address",
              "name": "tokenA",
              "type": "address"
            },
            {
              "internalType": "address",
              "name": "tokenB",
              "type": "address"
            }
          ],
          "internalType": "struct Pair[]",
          "name": "_pairs",
          "type": "tuple[]"
        }
      ],
      "name": "getNextSwapInfo",
      "outputs": [
        {
          "components": [
            {
              "components": [
                {
                  "internalType": "address",
                  "name": "token",
                  "type": "address"
                },
                {
                  "internalType": "uint256",
                  "name": "reward",
                  "type": "uint256"
                },
                {
                  "internalType": "uint256",
                  "name": "toProvide",
                  "type": "uint256"
                },
                {
                  "internalType": "uint256",
                  "name": "platformFee",
                  "type": "uint256"
                }
              ],
              "internalType": "struct IDCAHubSwapHandler.TokenInSwap[]",
              "name": "tokens",
              "type": "tuple[]"
            },
            {
              "components": [
                {
                  "internalType": "address",
                  "name": "tokenA",
                  "type": "address"
                },
                {
                  "internalType": "address",
                  "name": "tokenB",
                  "type": "address"
                },
                {
                  "internalType": "uint256",
                  "name": "ratioAToB",
                  "type": "uint256"
                },
                {
                  "internalType": "uint256",
                  "name": "ratioBToA",
                  "type": "uint256"
                },
                {
                  "internalType": "bytes1",
                  "name": "intervalsInSwap",
                  "type": "bytes1"
                }
              ],
              "internalType": "struct IDCAHubSwapHandler.PairInSwap[]",
              "name": "pairs",
              "type": "tuple[]"
            }
          ],
          "internalType": "struct IDCAHubSwapHandler.SwapInfo",
          "name": "",
          "type": "tuple"
        }
      ],
      "stateMutability": "view",
      "type": "function"
    },
    {
      "inputs": [],
      "name": "governor",
      "outputs": [
        {
          "internalType": "address",
          "name": "",
          "type": "address"
        }
      ],
      "stateMutability": "view",
      "type": "function"
    },
    {
      "inputs": [],
      "name": "hub",
      "outputs": [
        {
          "internalType": "contract IDCAHub",
          "name": "",
          "type": "address"
        }
      ],
      "stateMutability": "view",
      "type": "function"
    },
    {
      "inputs": [
        {
          "internalType": "uint256",
          "name": "_positionId",
          "type": "uint256"
        },
        {
          "internalType": "uint256",
          "name": "_amount",
          "type": "uint256"
        },
        {
          "internalType": "uint32",
          "name": "_newSwaps",
          "type": "uint32"
        },
        {
          "internalType": "bool",
          "name": "_transferFromCaller",
          "type": "bool"
        }
      ],
      "name": "increasePositionProxy",
      "outputs": [],
      "stateMutability": "nonpayable",
      "type": "function"
    },
    {
      "inputs": [
        {
          "internalType": "uint256",
          "name": "_positionId",
          "type": "uint256"
        },
        {
          "internalType": "uint256",
          "name": "_amount",
          "type": "uint256"
        },
        {
          "internalType": "uint32",
          "name": "_newSwaps",
          "type": "uint32"
        }
      ],
      "name": "increasePositionUsingProtocolToken",
      "outputs": [],
      "stateMutability": "payable",
      "type": "function"
    },
    {
      "inputs": [
        {
          "internalType": "address",
          "name": "",
          "type": "address"
        }
      ],
      "name": "isDexSupported",
      "outputs": [
        {
          "internalType": "bool",
          "name": "",
          "type": "bool"
        }
      ],
      "stateMutability": "view",
      "type": "function"
    },
    {
      "inputs": [
        {
          "internalType": "address",
          "name": "_account",
          "type": "address"
        }
      ],
      "name": "isGovernor",
      "outputs": [
        {
          "internalType": "bool",
          "name": "_isGovernor",
          "type": "bool"
        }
      ],
      "stateMutability": "view",
      "type": "function"
    },
    {
      "inputs": [
        {
          "internalType": "address",
          "name": "_account",
          "type": "address"
        }
      ],
      "name": "isPendingGovernor",
      "outputs": [
        {
          "internalType": "bool",
          "name": "_isPendingGovernor",
          "type": "bool"
        }
      ],
      "stateMutability": "view",
      "type": "function"
    },
    {
      "inputs": [
        {
          "internalType": "bytes[]",
          "name": "data",
          "type": "bytes[]"
        }
      ],
      "name": "multicall",
      "outputs": [
        {
          "internalType": "bytes[]",
          "name": "results",
          "type": "bytes[]"
        }
      ],
      "stateMutability": "nonpayable",
      "type": "function"
    },
    {
      "inputs": [],
      "name": "pendingGovernor",
      "outputs": [
        {
          "internalType": "address",
          "name": "",
          "type": "address"
        }
      ],
      "stateMutability": "view",
      "type": "function"
    },
    {
      "inputs": [],
      "name": "permissionManager",
      "outputs": [
        {
          "internalType": "contract IDCAPermissionManager",
          "name": "",
          "type": "address"
        }
      ],
      "stateMutability": "view",
      "type": "function"
    },
    {
      "inputs": [
        {
          "components": [
            {
              "internalType": "address",
              "name": "operator",
              "type": "address"
            },
            {
              "internalType": "enum IDCAPermissionManager.Permission[]",
              "name": "permissions",
              "type": "uint8[]"
            }
          ],
          "internalType": "struct IDCAPermissionManager.PermissionSet[]",
          "name": "_permissions",
          "type": "tuple[]"
        },
        {
          "internalType": "uint256",
          "name": "_tokenId",
          "type": "uint256"
        },
        {
          "internalType": "uint256",
          "name": "_deadline",
          "type": "uint256"
        },
        {
          "internalType": "uint8",
          "name": "_v",
          "type": "uint8"
        },
        {
          "internalType": "bytes32",
          "name": "_r",
          "type": "bytes32"
        },
        {
          "internalType": "bytes32",
          "name": "_s",
          "type": "bytes32"
        }
      ],
      "name": "permissionPermitProxy",
      "outputs": [],
      "stateMutability": "nonpayable",
      "type": "function"
    },
    {
      "inputs": [
        {
          "internalType": "uint256",
          "name": "_positionId",
          "type": "uint256"
        },
        {
          "internalType": "uint256",
          "name": "_amount",
          "type": "uint256"
        },
        {
          "internalType": "uint32",
          "name": "_newSwaps",
          "type": "uint32"
        },
        {
          "internalType": "address",
          "name": "_recipient",
          "type": "address"
        }
      ],
      "name": "reducePositionProxy",
      "outputs": [],
      "stateMutability": "nonpayable",
      "type": "function"
    },
    {
      "inputs": [
        {
          "internalType": "uint256",
          "name": "_positionId",
          "type": "uint256"
        },
        {
          "internalType": "uint256",
          "name": "_amount",
          "type": "uint256"
        },
        {
          "internalType": "uint32",
          "name": "_newSwaps",
          "type": "uint32"
        },
        {
          "internalType": "address payable",
          "name": "_recipient",
          "type": "address"
        }
      ],
      "name": "reducePositionUsingProtocolToken",
      "outputs": [],
      "stateMutability": "nonpayable",
      "type": "function"
    },
    {
      "inputs": [
        {
          "components": [
            {
              "internalType": "address",
              "name": "tokenA",
              "type": "address"
            },
            {
              "internalType": "address",
              "name": "tokenB",
              "type": "address"
            }
          ],
          "internalType": "struct Pair[]",
          "name": "_pairs",
          "type": "tuple[]"
        }
      ],
      "name": "secondsUntilNextSwap",
      "outputs": [
        {
          "internalType": "uint256[]",
          "name": "",
          "type": "uint256[]"
        }
      ],
      "stateMutability": "view",
      "type": "function"
    },
    {
      "inputs": [
        {
          "internalType": "address",
          "name": "_to",
          "type": "address"
        },
        {
          "internalType": "address",
          "name": "_token",
          "type": "address"
        },
        {
          "internalType": "uint256",
          "name": "_amount",
          "type": "uint256"
        }
      ],
      "name": "sendDust",
      "outputs": [],
      "stateMutability": "nonpayable",
      "type": "function"
    },
    {
      "inputs": [
        {
          "internalType": "address",
          "name": "__pendingGovernor",
          "type": "address"
        }
      ],
      "name": "setPendingGovernor",
      "outputs": [],
      "stateMutability": "nonpayable",
      "type": "function"
    },
    {
      "inputs": [
        {
          "internalType": "address[]",
          "name": "_addresses",
          "type": "address[]"
        },
        {
          "internalType": "bool[]",
          "name": "_hasIssue",
          "type": "bool[]"
        }
      ],
      "name": "setTokensWithApprovalIssues",
      "outputs": [],
      "stateMutability": "nonpayable",
      "type": "function"
    },
    {
      "inputs": [
        {
          "internalType": "address[]",
          "name": "_tokens",
          "type": "address[]"
        },
        {
          "components": [
            {
              "internalType": "uint8",
              "name": "indexTokenA",
              "type": "uint8"
            },
            {
              "internalType": "uint8",
              "name": "indexTokenB",
              "type": "uint8"
            }
          ],
          "internalType": "struct IDCAHubSwapHandler.PairIndexes[]",
          "name": "_pairsToSwap",
          "type": "tuple[]"
        },
        {
          "internalType": "uint256[]",
          "name": "_minimumOutput",
          "type": "uint256[]"
        },
        {
          "internalType": "uint256[]",
          "name": "_maximumInput",
          "type": "uint256[]"
        },
        {
          "internalType": "address",
          "name": "_recipient",
          "type": "address"
        },
        {
          "internalType": "uint256",
          "name": "_deadline",
          "type": "uint256"
        }
      ],
      "name": "swapForCaller",
      "outputs": [
        {
          "components": [
            {
              "components": [
                {
                  "internalType": "address",
                  "name": "token",
                  "type": "address"
                },
                {
                  "internalType": "uint256",
                  "name": "reward",
                  "type": "uint256"
                },
                {
                  "internalType": "uint256",
                  "name": "toProvide",
                  "type": "uint256"
                },
                {
                  "internalType": "uint256",
                  "name": "platformFee",
                  "type": "uint256"
                }
              ],
              "internalType": "struct IDCAHubSwapHandler.TokenInSwap[]",
              "name": "tokens",
              "type": "tuple[]"
            },
            {
              "components": [
                {
                  "internalType": "address",
                  "name": "tokenA",
                  "type": "address"
                },
                {
                  "internalType": "address",
                  "name": "tokenB",
                  "type": "address"
                },
                {
                  "internalType": "uint256",
                  "name": "ratioAToB",
                  "type": "uint256"
                },
                {
                  "internalType": "uint256",
                  "name": "ratioBToA",
                  "type": "uint256"
                },
                {
                  "internalType": "bytes1",
                  "name": "intervalsInSwap",
                  "type": "bytes1"
                }
              ],
              "internalType": "struct IDCAHubSwapHandler.PairInSwap[]",
              "name": "pairs",
              "type": "tuple[]"
            }
          ],
          "internalType": "struct IDCAHubSwapHandler.SwapInfo",
          "name": "_swapInfo",
          "type": "tuple"
        }
      ],
      "stateMutability": "payable",
      "type": "function"
    },
    {
      "inputs": [
        {
          "internalType": "address",
          "name": "_dex",
          "type": "address"
        },
        {
          "internalType": "address[]",
          "name": "_tokens",
          "type": "address[]"
        },
        {
          "components": [
            {
              "internalType": "uint8",
              "name": "indexTokenA",
              "type": "uint8"
            },
            {
              "internalType": "uint8",
              "name": "indexTokenB",
              "type": "uint8"
            }
          ],
          "internalType": "struct IDCAHubSwapHandler.PairIndexes[]",
          "name": "_pairsToSwap",
          "type": "tuple[]"
        },
        {
          "internalType": "bytes[]",
          "name": "_callsToDex",
          "type": "bytes[]"
        },
        {
          "internalType": "bool",
          "name": "_doDexSwapsIncludeTransferToHub",
          "type": "bool"
        },
        {
          "internalType": "address",
          "name": "_leftoverRecipient",
          "type": "address"
        },
        {
          "internalType": "uint256",
          "name": "_deadline",
          "type": "uint256"
        }
      ],
      "name": "swapWithDex",
      "outputs": [
        {
          "components": [
            {
              "components": [
                {
                  "internalType": "address",
                  "name": "token",
                  "type": "address"
                },
                {
                  "internalType": "uint256",
                  "name": "reward",
                  "type": "uint256"
                },
                {
                  "internalType": "uint256",
                  "name": "toProvide",
                  "type": "uint256"
                },
                {
                  "internalType": "uint256",
                  "name": "platformFee",
                  "type": "uint256"
                }
              ],
              "internalType": "struct IDCAHubSwapHandler.TokenInSwap[]",
              "name": "tokens",
              "type": "tuple[]"
            },
            {
              "components": [
                {
                  "internalType": "address",
                  "name": "tokenA",
                  "type": "address"
                },
                {
                  "internalType": "address",
                  "name": "tokenB",
                  "type": "address"
                },
                {
                  "internalType": "uint256",
                  "name": "ratioAToB",
                  "type": "uint256"
                },
                {
                  "internalType": "uint256",
                  "name": "ratioBToA",
                  "type": "uint256"
                },
                {
                  "internalType": "bytes1",
                  "name": "intervalsInSwap",
                  "type": "bytes1"
                }
              ],
              "internalType": "struct IDCAHubSwapHandler.PairInSwap[]",
              "name": "pairs",
              "type": "tuple[]"
            }
          ],
          "internalType": "struct IDCAHubSwapHandler.SwapInfo",
          "name": "",
          "type": "tuple"
        }
      ],
      "stateMutability": "nonpayable",
      "type": "function"
    },
    {
      "inputs": [
        {
          "internalType": "address",
          "name": "_dex",
          "type": "address"
        },
        {
          "internalType": "address[]",
          "name": "_tokens",
          "type": "address[]"
        },
        {
          "components": [
            {
              "internalType": "uint8",
              "name": "indexTokenA",
              "type": "uint8"
            },
            {
              "internalType": "uint8",
              "name": "indexTokenB",
              "type": "uint8"
            }
          ],
          "internalType": "struct IDCAHubSwapHandler.PairIndexes[]",
          "name": "_pairsToSwap",
          "type": "tuple[]"
        },
        {
          "internalType": "bytes[]",
          "name": "_callsToDex",
          "type": "bytes[]"
        },
        {
          "internalType": "bool",
          "name": "_doDexSwapsIncludeTransferToHub",
          "type": "bool"
        },
        {
          "internalType": "address",
          "name": "_leftoverRecipient",
          "type": "address"
        },
        {
          "internalType": "uint256",
          "name": "_deadline",
          "type": "uint256"
        }
      ],
      "name": "swapWithDexAndShareLeftoverWithHub",
      "outputs": [
        {
          "components": [
            {
              "components": [
                {
                  "internalType": "address",
                  "name": "token",
                  "type": "address"
                },
                {
                  "internalType": "uint256",
                  "name": "reward",
                  "type": "uint256"
                },
                {
                  "internalType": "uint256",
                  "name": "toProvide",
                  "type": "uint256"
                },
                {
                  "internalType": "uint256",
                  "name": "platformFee",
                  "type": "uint256"
                }
              ],
              "internalType": "struct IDCAHubSwapHandler.TokenInSwap[]",
              "name": "tokens",
              "type": "tuple[]"
            },
            {
              "components": [
                {
                  "internalType": "address",
                  "name": "tokenA",
                  "type": "address"
                },
                {
                  "internalType": "address",
                  "name": "tokenB",
                  "type": "address"
                },
                {
                  "internalType": "uint256",
                  "name": "ratioAToB",
                  "type": "uint256"
                },
                {
                  "internalType": "uint256",
                  "name": "ratioBToA",
                  "type": "uint256"
                },
                {
                  "internalType": "bytes1",
                  "name": "intervalsInSwap",
                  "type": "bytes1"
                }
              ],
              "internalType": "struct IDCAHubSwapHandler.PairInSwap[]",
              "name": "pairs",
              "type": "tuple[]"
            }
          ],
          "internalType": "struct IDCAHubSwapHandler.SwapInfo",
          "name": "",
          "type": "tuple"
        }
      ],
      "stateMutability": "nonpayable",
      "type": "function"
    },
    {
      "inputs": [
        {
          "internalType": "uint256",
          "name": "_positionId",
          "type": "uint256"
        },
        {
          "internalType": "address",
          "name": "_recipientUnswapped",
          "type": "address"
        },
        {
          "internalType": "address",
          "name": "_recipientSwapped",
          "type": "address"
        }
      ],
      "name": "terminateProxy",
      "outputs": [
        {
          "internalType": "uint256",
          "name": "_unswapped",
          "type": "uint256"
        },
        {
          "internalType": "uint256",
          "name": "_swapped",
          "type": "uint256"
        }
      ],
      "stateMutability": "nonpayable",
      "type": "function"
    },
    {
      "inputs": [
        {
          "internalType": "uint256",
          "name": "_positionId",
          "type": "uint256"
        },
        {
          "internalType": "address payable",
          "name": "_recipientUnswapped",
          "type": "address"
        },
        {
          "internalType": "address",
          "name": "_recipientSwapped",
          "type": "address"
        }
      ],
      "name": "terminateUsingProtocolTokenAsFrom",
      "outputs": [
        {
          "internalType": "uint256",
          "name": "_unswapped",
          "type": "uint256"
        },
        {
          "internalType": "uint256",
          "name": "_swapped",
          "type": "uint256"
        }
      ],
      "stateMutability": "nonpayable",
      "type": "function"
    },
    {
      "inputs": [
        {
          "internalType": "uint256",
          "name": "_positionId",
          "type": "uint256"
        },
        {
          "internalType": "address",
          "name": "_recipientUnswapped",
          "type": "address"
        },
        {
          "internalType": "address payable",
          "name": "_recipientSwapped",
          "type": "address"
        }
      ],
      "name": "terminateUsingProtocolTokenAsTo",
      "outputs": [
        {
          "internalType": "uint256",
          "name": "_unswapped",
          "type": "uint256"
        },
        {
          "internalType": "uint256",
          "name": "_swapped",
          "type": "uint256"
        }
      ],
      "stateMutability": "nonpayable",
      "type": "function"
    },
    {
      "inputs": [
        {
          "internalType": "address",
          "name": "",
          "type": "address"
        }
      ],
      "name": "tokenHasApprovalIssue",
      "outputs": [
        {
          "internalType": "bool",
          "name": "",
          "type": "bool"
        }
      ],
      "stateMutability": "view",
      "type": "function"
    },
    {
      "inputs": [],
      "name": "wToken",
      "outputs": [
        {
          "internalType": "contract IWrappedProtocolToken",
          "name": "",
          "type": "address"
        }
      ],
      "stateMutability": "view",
      "type": "function"
    },
    {
      "inputs": [
        {
          "components": [
            {
              "internalType": "address",
              "name": "token",
              "type": "address"
            },
            {
              "internalType": "uint256[]",
              "name": "positionIds",
              "type": "uint256[]"
            }
          ],
          "internalType": "struct IDCAHubPositionHandler.PositionSet[]",
          "name": "_positions",
          "type": "tuple[]"
        },
        {
          "internalType": "address",
          "name": "_recipient",
          "type": "address"
        }
      ],
      "name": "withdrawSwappedManyProxy",
      "outputs": [
        {
          "internalType": "uint256[]",
          "name": "_withdrawn",
          "type": "uint256[]"
        }
      ],
      "stateMutability": "nonpayable",
      "type": "function"
    },
    {
      "inputs": [
        {
          "internalType": "uint256[]",
          "name": "_positionIds",
          "type": "uint256[]"
        },
        {
          "internalType": "address payable",
          "name": "_recipient",
          "type": "address"
        }
      ],
      "name": "withdrawSwappedManyUsingProtocolToken",
      "outputs": [
        {
          "internalType": "uint256",
          "name": "_swapped",
          "type": "uint256"
        }
      ],
      "stateMutability": "nonpayable",
      "type": "function"
    },
    {
      "inputs": [
        {
          "internalType": "uint256",
          "name": "_positionId",
          "type": "uint256"
        },
        {
          "internalType": "address",
          "name": "_recipient",
          "type": "address"
        }
      ],
      "name": "withdrawSwappedProxy",
      "outputs": [
        {
          "internalType": "uint256",
          "name": "_swapped",
          "type": "uint256"
        }
      ],
      "stateMutability": "nonpayable",
      "type": "function"
    },
    {
      "inputs": [
        {
          "internalType": "uint256",
          "name": "_positionId",
          "type": "uint256"
        },
        {
          "internalType": "address payable",
          "name": "_recipient",
          "type": "address"
        }
      ],
      "name": "withdrawSwappedUsingProtocolToken",
      "outputs": [
        {
          "internalType": "uint256",
          "name": "_swapped",
          "type": "uint256"
        }
      ],
      "stateMutability": "nonpayable",
      "type": "function"
    },
    {
      "stateMutability": "payable",
      "type": "receive"
    }
  ],
  "transactionHash": "0x3cd448ac5d2fa4f20d222d169a6a1b3cb4e70e8b441f772ccf0f169b36b8f220",
  "args": [
    "0xcaCd0CCb258C2a9f98224f7602A65EBe80C2459F",
    "0x4200000000000000000000000000000000000006",
    "0x1a00e1E311009E56e3b0B9Ed6F86f5Ce128a1C01"
  ],
  "solcInputHash": "ae0bf16594d9ff878ea39d1bf32af892",
  "bytecode": "0x60e06040523480156200001157600080fd5b50604051620063dd380380620063dd83398101604081905262000034916200021d565b82836001600160a01b031663cc7a20496040518163ffffffff1660e01b8152600401602060405180830381865afa15801562000074573d6000803e3d6000fd5b505050506040513d601f19601f820116820180604052508101906200009a919062000271565b8383806001600160a01b038116620000f85760405162461bcd60e51b815260206004820152601860248201527f476f7665726e61626c653a207a65726f20616464726573730000000000000000604482015260640160405180910390fd5b600080546001600160a01b0319166001600160a01b03928316179055841615806200012a57506001600160a01b038316155b806200013d57506001600160a01b038216155b156200015c5760405163d92e233d60e01b815260040160405180910390fd5b506001600160a01b03928316608052821660c0521660a0526200017e62000187565b505050620002bc565b60c05160805160405163095ea7b360e01b81526001600160a01b039182166004820152600019602482015291169063095ea7b3906044016020604051808303816000875af1158015620001de573d6000803e3d6000fd5b505050506040513d601f19601f8201168201806040525081019062000204919062000298565b50565b6001600160a01b03811681146200020457600080fd5b6000806000606084860312156200023357600080fd5b8351620002408162000207565b6020850151909350620002538162000207565b6040850151909250620002668162000207565b809150509250925092565b6000602082840312156200028457600080fd5b8151620002918162000207565b9392505050565b600060208284031215620002ab57600080fd5b815180151581146200029157600080fd5b60805160a05160c051615fee620003ef600039600081816102b601528181610abf01528181610b7f015281816116fa01528181611dd701528181611f12015281816120a10152818161249501526124e20152600081816105fe015281816115d70152611e5b0152600081816103b8015281816107c0015281816108de0152818161098901528181610a9201528181610b5201528181610d9e01528181610e3f01528181610f0e01528181610fb00152818161103501528181611219015281816112e9015281816117aa01528181611898015281816118f20152818161197501528181611a2a01528181611ad201528181611b8a01528181611d0801528181611da7015281816125d201528181612a0d01528181612a6c01528181612aa501528181612bfc0152612fae0152615fee6000f3fe60806040526004361061021e5760003560e01c8063a2c346ec11610123578063d6d2d0b7116100ab578063e581a3be1161006f578063e581a3be146106ef578063f0261ac41461070f578063f235757f1461072f578063f50b098e1461074f578063fe62b6201461076f57600080fd5b8063d6d2d0b714610640578063d7752a0c14610660578063df08aed514610673578063e3056a34146106a2578063e43581b8146106c057600080fd5b8063b715b93d116100f2578063b715b93d1461058c578063baa791a5146105ac578063c95cb387146105cc578063cc7a2049146105ec578063cc944c2e1461062057600080fd5b8063a2c346ec146104ef578063a8bf39fd1461051c578063ac9650d81461052f578063b452cdc41461055c57600080fd5b8063365a86fc116101a6578063535af43011610175578063535af4301461043a5780635817c99e1461045a578063585cc6a51461047a57806382643589146104a25780638d203345146104c257600080fd5b8063365a86fc146103a657806337be507e146103da5780633e9820f1146103fa578063479e8fac1461041a57600080fd5b806313f6986d116101ed57806313f6986d1461030e57806318b5769c146103255780631cd701f11461034557806328c756b0146103665780632db8c1291461038657600080fd5b8063065f957d1461022a5780630a12aa481461026f5780630babd864146102a45780630c340a24146102f057600080fd5b3661022557005b600080fd5b34801561023657600080fd5b5061025a61024536600461408c565b60026020526000908152604090205460ff1681565b60405190151581526020015b60405180910390f35b34801561027b57600080fd5b5061028f61028a3660046140a9565b610784565b60408051928352602083019190915201610266565b3480156102b057600080fd5b506102d87f000000000000000000000000000000000000000000000000000000000000000081565b6040516001600160a01b039091168152602001610266565b3480156102fc57600080fd5b506000546001600160a01b03166102d8565b34801561031a57600080fd5b50610323610845565b005b34801561033157600080fd5b50610323610340366004614121565b6108b8565b6103586103533660046141f7565b6109f7565b604051908152602001610266565b34801561037257600080fd5b506103236103813660046142d0565b610c0a565b34801561039257600080fd5b506103236103a136600461433b565b610d2f565b3480156103b257600080fd5b506102d87f000000000000000000000000000000000000000000000000000000000000000081565b3480156103e657600080fd5b506103586103f536600461437c565b610d69565b34801561040657600080fd5b5061035861041536600461437c565b610e14565b34801561042657600080fd5b506103236104353660046143ac565b610ec8565b34801561044657600080fd5b5061028f6104553660046140a9565b610f72565b34801561046657600080fd5b506103236104753660046143eb565b61102a565b34801561048657600080fd5b506102d873eeeeeeeeeeeeeeeeeeeeeeeeeeeeeeeeeeeeeeee81565b3480156104ae57600080fd5b506103236104bd3660046144c8565b611127565b3480156104ce57600080fd5b506104e26104dd36600461453a565b6111a3565b604051610266919061468c565b3480156104fb57600080fd5b5061050f61050a366004614712565b611212565b6040516102669190614783565b6104e261052a366004614796565b611246565b34801561053b57600080fd5b5061054f61054a366004614873565b6114cc565b6040516102669190614900565b34801561056857600080fd5b5061025a61057736600461408c565b60036020526000908152604090205460ff1681565b34801561059857600080fd5b506103236105a7366004614973565b6115c0565b3480156105b857600080fd5b506104e26105c736600461453a565b611618565b3480156105d857600080fd5b506103586105e73660046149ec565b611675565b3480156105f857600080fd5b506102d87f000000000000000000000000000000000000000000000000000000000000000081565b34801561062c57600080fd5b5061035861063b366004614a37565b61186f565b34801561064c57600080fd5b5061032361065b3660046143ac565b611939565b61032361066e366004614b20565b6119eb565b34801561067f57600080fd5b5061025a61068e36600461408c565b6001546001600160a01b0391821691161490565b3480156106ae57600080fd5b506001546001600160a01b03166102d8565b3480156106cc57600080fd5b5061025a6106db36600461408c565b6000546001600160a01b0391821691161490565b3480156106fb57600080fd5b506104e261070a366004614712565b611a95565b34801561071b57600080fd5b5061028f61072a3660046140a9565b611b4e565b34801561073b57600080fd5b5061032361074a36600461408c565b611c05565b34801561075b57600080fd5b5061050f61076a3660046149ec565b611c3b565b34801561077b57600080fd5b50610323611d90565b6000808460036107948282611e44565b6040516372ada4c560e01b8152600481018890526001600160a01b0387811660248301523060448301527f000000000000000000000000000000000000000000000000000000000000000016906372ada4c59060640160408051808303816000875af1158015610808573d6000803e3d6000fd5b505050506040513d601f19601f8201168201806040525081019061082c9190614b4e565b909450925061083b8386611ef6565b5050935093915050565b6001546001600160a01b031633146108ae5760405162461bcd60e51b815260206004820152602160248201527f476f7665726e61626c653a206f6e6c792070656e64696e6720676f7665726e6f6044820152603960f91b60648201526084015b60405180910390fd5b6108b6611fac565b565b8360006108c58282611e44565b604051635b6fd01d60e01b8152600481018790526000907f00000000000000000000000000000000000000000000000000000000000000006001600160a01b031690635b6fd01d9060240161010060405180830381865afa15801561092e573d6000803e3d6000fd5b505050506040513d601f19601f820116820180604052508101906109529190614c59565b519050610960818786612054565b604051636f6b805360e11b8152600481018890526024810187905263ffffffff861660448201527f00000000000000000000000000000000000000000000000000000000000000006001600160a01b03169063ded700a6906064015b600060405180830381600087803b1580156109d657600080fd5b505af11580156109ea573d6000803e3d6000fd5b5050505050505050505050565b60006001600160a01b038b1673eeeeeeeeeeeeeeeeeeeeeeeeeeeeeeeeeeeeeeee141580610a4157506001600160a01b038a1673eeeeeeeeeeeeeeeeeeeeeeeeeeeeeeeeeeeeeeee145b15610a5f576040516333910aef60e11b815260040160405180910390fd5b610a6889612079565b6000610a74868661210e565b905082610b3b57604051636b29e1bd60e01b81526001600160a01b037f00000000000000000000000000000000000000000000000000000000000000001690636b29e1bd90610af3907f0000000000000000000000000000000000000000000000000000000000000000908f908f908f908f908f908a90600401614de2565b6020604051808303816000875af1158015610b12573d6000803e3d6000fd5b505050506040513d601f19601f82011682018060405250810190610b369190614e31565b610bfa565b60405163b2b513c160e01b81526001600160a01b037f0000000000000000000000000000000000000000000000000000000000000000169063b2b513c190610bb7907f0000000000000000000000000000000000000000000000000000000000000000908f908f908f908f908f908a908e908e90600401614e73565b6020604051808303816000875af1158015610bd6573d6000803e3d6000fd5b505050506040513d601f19601f82011682018060405250810190610bfa9190614e31565b9c9b505050505050505050505050565b6000546001600160a01b03163314610c345760405162461bcd60e51b81526004016108a590614ed8565b828114610c54576040516305d5c8c960e51b815260040160405180910390fd5b60005b83811015610ceb57828282818110610c7157610c71614f0f565b9050602002016020810190610c869190614f25565b60026000878785818110610c9c57610c9c614f0f565b9050602002016020810190610cb1919061408c565b6001600160a01b031681526020810191909152604001600020805460ff191691151591909117905580610ce381614f58565b915050610c57565b507f03f0491d4ac1dcd8629e84f9f0d6af60220d6d3e6ce76dc9750959b580cf75e884848484604051610d219493929190614fb1565b60405180910390a150505050565b6000546001600160a01b03163314610d595760405162461bcd60e51b81526004016108a590614ed8565b610d648383836122b3565b505050565b6000826002610d788282611e44565b604051630176218960e41b8152600481018690526001600160a01b0385811660248301527f000000000000000000000000000000000000000000000000000000000000000016906317621890906044016020604051808303816000875af1158015610de7573d6000803e3d6000fd5b505050506040513d601f19601f82011682018060405250810190610e0b9190614e31565b95945050505050565b6000826002610e238282611e44565b604051630176218960e41b8152600481018690523060248201527f00000000000000000000000000000000000000000000000000000000000000006001600160a01b0316906317621890906044016020604051808303816000875af1158015610e90573d6000803e3d6000fd5b505050506040513d601f19601f82011682018060405250810190610eb49190614e31565b9250610ec08385611ef6565b505092915050565b836001610ed58282611e44565b60405163f1accf3960e01b8152600481018790526024810186905263ffffffff851660448201526001600160a01b0384811660648301527f0000000000000000000000000000000000000000000000000000000000000000169063f1accf3990608401600060405180830381600087803b158015610f5257600080fd5b505af1158015610f66573d6000803e3d6000fd5b50505050505050505050565b600080846003610f828282611e44565b6040516372ada4c560e01b8152600481018890526001600160a01b03878116602483015286811660448301527f000000000000000000000000000000000000000000000000000000000000000016906372ada4c59060640160408051808303816000875af1158015610ff8573d6000803e3d6000fd5b505050506040513d601f19601f8201168201806040525081019061101c9190614b4e565b909890975095505050505050565b336001600160a01b037f00000000000000000000000000000000000000000000000000000000000000001614611073576040516301bb2f1560e21b815260040160405180910390fd5b6001600160a01b038716301461109c5760405163d219c5db60e01b815260040160405180910390fd5b60006110aa8284018461508c565b90506001815160028111156110c1576110c1614d14565b14156110db576110d687878360200151612439565b61111d565b6002815160028111156110f0576110f0614d14565b1415611105576110d687878360200151612611565b6040516225941760e31b815260040160405180910390fd5b5050505050505050565b6000546001600160a01b031633146111515760405162461bcd60e51b81526004016108a590614ed8565b6001600160a01b0382166111785760405163d92e233d60e01b815260040160405180910390fd5b6001600160a01b03919091166000908152600360205260409020805460ff1916911515919091179055565b604080518082019091526060808252602082015260006040518060a001604052808d6001600160a01b031681526020016000151581526020018615158152602001856001600160a01b031681526020018888906112009190615132565b90529050610bfa8b8b8b8b8588612b1f565b606061123f7f00000000000000000000000000000000000000000000000000000000000000008484612d09565b9392505050565b604080518082019091526060808252602082015281804211156112a15760405162461bcd60e51b8152602060048201526013602482015272151c985b9cd858dd1a5bdb881d1bdbc81bdb19606a1b60448201526064016108a5565b60008b6001600160401b038111156112bb576112bb614b72565b6040519080825280602002602001820160405280156112e4578160200160208202803683370190505b5090507f00000000000000000000000000000000000000000000000000000000000000006001600160a01b0316632a2a1a748e8e8e8e8a308860405180604001604052806001600281111561133b5761133b614d14565b81526040805180820182523380825234602092830190815283518084019290925251818401528251808203840181526060909101835292810192909252516113849291016151a5565b6040516020818303038152906040526040518963ffffffff1660e01b81526004016113b69897969594939291906151dc565b6000604051808303816000875af11580156113d5573d6000803e3d6000fd5b505050506040513d6000823e601f3d908101601f191682016040526113fd9190810190615370565b925060005b8351518110156114bb5760008460000151828151811061142457611424614f0f565b602002602001015190508a8a8381811061144057611440614f0f565b905060200201358160200151101561146b5760405163861aeb1f60e01b815260040160405180910390fd5b88888381811061147d5761147d614f0f565b90506020020135816040015111156114a85760405163edddba2760e01b815260040160405180910390fd5b50806114b381614f58565b915050611402565b5050509a9950505050505050505050565b6060816001600160401b038111156114e6576114e6614b72565b60405190808252806020026020018201604052801561151957816020015b60608152602001906001900390816115045790505b50905060005b828110156115b9576115893085858481811061153d5761153d614f0f565b905060200281019061154f9190615499565b8080601f016020809104026020016040519081016040528093929190818152602001838380828437600092019190915250612dec92505050565b82828151811061159b5761159b614f0f565b602002602001018190525080806115b190614f58565b91505061151f565b5092915050565b604051634faa388360e01b81526001600160a01b037f00000000000000000000000000000000000000000000000000000000000000001690634faa3883906109bc908a908a908a908a908a908a908a90600401615602565b604080518082019091526060808252602082015260006040518060a001604052808d6001600160a01b031681526020016001151581526020018615158152602001856001600160a01b031681526020018888906112009190615132565b6000805b838110156116b6576116a485858381811061169657611696614f0f565b905060200201356002611e44565b806116ae81614f58565b915050611679565b50604080516001808252818301909252600091816020015b6040805180820190915260008152606060208201528152602001906001900390816116ce5790505090507f00000000000000000000000000000000000000000000000000000000000000008160008151811061172c5761172c614f0f565b6020026020010151600001906001600160a01b031690816001600160a01b031681525050848480806020026020016040519081016040528093929190818152602001838360200280828437600092018290525085518694509092501515905061179757611797614f0f565b60200260200101516020018190525060007f00000000000000000000000000000000000000000000000000000000000000006001600160a01b031663480b379683306040518363ffffffff1660e01b81526004016117f6929190615643565b6000604051808303816000875af1158015611815573d6000803e3d6000fd5b505050506040513d6000823e601f3d908101601f1916820160405261183d91908101906156d3565b90508060008151811061185257611852614f0f565b602002602001015192506118668385611ef6565b50509392505050565b600061187c8c8b84612054565b826118db57604051636b29e1bd60e01b81526001600160a01b037f00000000000000000000000000000000000000000000000000000000000000001690636b29e1bd90610af3908f908f908f908f908f908f908f908f90600401615758565b60405163b2b513c160e01b81526001600160a01b037f0000000000000000000000000000000000000000000000000000000000000000169063b2b513c190610bb7908f908f908f908f908f908f908f908f908f908f906004016157b6565b8360016119468282611e44565b60405163f1accf3960e01b8152600481018790526024810186905263ffffffff851660448201523060648201527f00000000000000000000000000000000000000000000000000000000000000006001600160a01b03169063f1accf3990608401600060405180830381600087803b1580156119c157600080fd5b505af11580156119d5573d6000803e3d6000fd5b505050506119e38584611ef6565b505050505050565b8260006119f88282611e44565b611a0184612079565b604051636f6b805360e11b8152600481018690526024810185905263ffffffff841660448201527f00000000000000000000000000000000000000000000000000000000000000006001600160a01b03169063ded700a690606401600060405180830381600087803b158015611a7657600080fd5b505af1158015611a8a573d6000803e3d6000fd5b505050505050505050565b6040805180820190915260608082526020820152600080611ab68585612e11565b60405163d2d95b2d60e01b815291935091506001600160a01b037f0000000000000000000000000000000000000000000000000000000000000000169063d2d95b2d90611b09908590859060040161582d565b600060405180830381865afa158015611b26573d6000803e3d6000fd5b505050506040513d6000823e601f3d908101601f19168201604052610e0b9190810190615370565b600080846003611b5e8282611e44565b6040516372ada4c560e01b8152600481018890523060248201526001600160a01b0386811660448301527f000000000000000000000000000000000000000000000000000000000000000016906372ada4c59060640160408051808303816000875af1158015611bd2573d6000803e3d6000fd5b505050506040513d601f19601f82011682018060405250810190611bf69190614b4e565b909450925061083b8487611ef6565b6000546001600160a01b03163314611c2f5760405162461bcd60e51b81526004016108a590614ed8565b611c3881612e72565b50565b606060005b83811015611cf05760005b858583818110611c5d57611c5d614f0f565b9050602002810190611c6f91906158c3565b611c7d9060208101906158e3565b9050811015611cdd57611ccb868684818110611c9b57611c9b614f0f565b9050602002810190611cad91906158c3565b611cbb9060208101906158e3565b8381811061169657611696614f0f565b80611cd581614f58565b915050611c4b565b5080611ce881614f58565b915050611c40565b506040516324059bcb60e11b81526001600160a01b037f0000000000000000000000000000000000000000000000000000000000000000169063480b379690611d419087908790879060040161592c565b6000604051808303816000875af1158015611d60573d6000803e3d6000fd5b505050506040513d6000823e601f3d908101601f19168201604052611d8891908101906156d3565b949350505050565b60405163095ea7b360e01b81526001600160a01b037f00000000000000000000000000000000000000000000000000000000000000008116600483015260001960248301527f0000000000000000000000000000000000000000000000000000000000000000169063095ea7b3906044016020604051808303816000875af1158015611e20573d6000803e3d6000fd5b505050506040513d601f19601f82011682018060405250810190611c3891906159ee565b60405163823abfd960e01b81526001600160a01b037f0000000000000000000000000000000000000000000000000000000000000000169063823abfd990611e9490859033908690600401615a0b565b602060405180830381865afa158015611eb1573d6000803e3d6000fd5b505050506040513d601f19601f82011682018060405250810190611ed591906159ee565b611ef257604051635c427cd960e01b815260040160405180910390fd5b5050565b8115611ef257604051632e1a7d4d60e01b8152600481018390527f00000000000000000000000000000000000000000000000000000000000000006001600160a01b031690632e1a7d4d90602401600060405180830381600087803b158015611f5e57600080fd5b505af1158015611f72573d6000803e3d6000fd5b50506040516001600160a01b038416925084156108fc02915084906000818181858888f19350505050158015610d64573d6000803e3d6000fd5b6001546001600160a01b03166120045760405162461bcd60e51b815260206004820152601f60248201527f476f7665726e61626c653a206e6f2070656e64696e6720676f7665726e6f720060448201526064016108a5565b60018054600080546001600160a01b03199081166001600160a01b0384161782559091169091556040517fdc57ca23c46d823853915ed5a090ca0ee9db5eb6a46f5c58e1c9158de861fd769190a1565b801561206f5761206f6001600160a01b038416333085612f1c565b610d648383612f8d565b803414612099576040516397d71f5d60e01b815260040160405180910390fd5b8015611c38577f00000000000000000000000000000000000000000000000000000000000000006001600160a01b031663d0e30db0826040518263ffffffff1660e01b81526004016000604051808303818588803b1580156120fa57600080fd5b505af11580156119e3573d6000803e3d6000fd5b606061211b826001615a2e565b6001600160401b0381111561213257612132614b72565b60405190808252806020026020018201604052801561217857816020015b6040805180820190915260008152606060208201528152602001906001900390816121505790505b50905060005b828110156121e35783838281811061219857612198614f0f565b90506020028101906121aa91906158c3565b6121b390615a46565b8282815181106121c5576121c5614f0f565b602002602001018190525080806121db90614f58565b91505061217e565b5060408051600480825260a082019092526000916020820160808036833701905050905060005b60048110156122785780600381111561222557612225614d14565b82828151811061223757612237614f0f565b6020026020010190600381111561225057612250614d14565b9081600381111561226357612263614d14565b9052508061227081614f58565b91505061220a565b50604080518082019091523081526020810182905282518390859081106122a1576122a1614f0f565b60200260200101819052505092915050565b6001600160a01b0383166123095760405162461bcd60e51b815260206004820152601d60248201527f436f6c6c65637461626c65447573743a207a65726f206164647265737300000060448201526064016108a5565b612314600483613056565b156123745760405162461bcd60e51b815260206004820152602a60248201527f436f6c6c65637461626c65447573743a20746f6b656e2069732070617274206f60448201526919881c1c9bdd1bd8dbdb60b21b60648201526084016108a5565b6001600160a01b03821673eeeeeeeeeeeeeeeeeeeeeeeeeeeeeeeeeeeeeeee14156123d5576040516001600160a01b0384169082156108fc029083906000818181858888f193505050501580156123cf573d6000803e3d6000fd5b506123e9565b6123e96001600160a01b0383168483613078565b604080516001600160a01b038086168252841660208201529081018290527f1e34c1aee8e83c2dcc14c21bb4bfeea7f46c0c998cb797ac7cc4d7a18f5c656b9060600160405180910390a1505050565b60008180602001905181019061244f9190615afb565b905060005b8381101561260a57600085858381811061247057612470614f0f565b9050608002018036038101906124869190615b35565b6040810151909150156125f7577f00000000000000000000000000000000000000000000000000000000000000006001600160a01b031681600001516001600160a01b03161480156124db5750602083015115155b156125b7577f00000000000000000000000000000000000000000000000000000000000000006001600160a01b031663d0e30db082604001516040518263ffffffff1660e01b81526004016000604051808303818588803b15801561253f57600080fd5b505af1158015612553573d6000803e3d6000fd5b50505050508060400151836020015111156125b75782600001516001600160a01b03166108fc8260400151856020015161258d9190615b86565b6040518115909202916000818181858888f193505050501580156125b5573d6000803e3d6000fd5b505b8251604082015182516125f7926001600160a01b03909116917f000000000000000000000000000000000000000000000000000000000000000090612f1c565b508061260281614f58565b915050612454565b5050505050565b6000818060200190518101906126279190615b9d565b905060005b838110156128c957600085858381811061264857612648614f0f565b90506080020180360381019061265e9190615b35565b6020810151909150156128b65780516001600160a01b03811660009081526002602052604090205460ff168061272657845160208401516001600160a01b0384169163095ea7b3916126b1906001615a2e565b6040516001600160e01b031960e085901b1681526001600160a01b03909216600483015260248201526044016020604051808303816000875af11580156126fc573d6000803e3d6000fd5b505050506040513d601f19601f8201168201806040525081019061272091906159ee565b506128b3565b8451604051636eb1769f60e11b81523060048201526001600160a01b03918216602482015260009184169063dd62ed3e90604401602060405180830381865afa158015612777573d6000803e3d6000fd5b505050506040513d601f19601f8201168201806040525081019061279b9190614e31565b905083602001518110156128b157801561282757855160405163095ea7b360e01b81526001600160a01b039182166004820152600060248201529084169063095ea7b3906044016020604051808303816000875af1158015612801573d6000803e3d6000fd5b505050506040513d601f19601f8201168201806040525081019061282591906159ee565b505b8551602085015160405163095ea7b360e01b81526001600160a01b0386169263095ea7b39261286c926004016001600160a01b03929092168252602082015260400190565b6020604051808303816000875af115801561288b573d6000803e3d6000fd5b505050506040513d601f19601f820116820180604052508101906128af91906159ee565b505b505b50505b50806128c181614f58565b91505061262c565b5060005b816080015151811015612917576129058260000151836080015183815181106128f8576128f8614f0f565b60200260200101516130a8565b8061290f81614f58565b9150506128cd565b5060005b8381101561260a57600085858381811061293757612937614f0f565b61294d926020608090920201908101915061408c565b6040516370a0823160e01b81523060048201529091506000906001600160a01b038316906370a0823190602401602060405180830381865afa158015612997573d6000803e3d6000fd5b505050506040513d601f19601f820116820180604052508101906129bb9190614e31565b90508015612b0a5760008787858181106129d7576129d7614f0f565b9050608002016040013590506000811115612aee57846040015115612a495760008560200151612a0b578560600151612a2d565b7f00000000000000000000000000000000000000000000000000000000000000005b9050612a436001600160a01b0385168285613078565b50612b08565b846020015180612a5857508082145b15612a9657612a916001600160a01b0384167f000000000000000000000000000000000000000000000000000000000000000084613078565b612b08565b612aca6001600160a01b0384167f000000000000000000000000000000000000000000000000000000000000000083613078565b6060850151612a9190612add8385615b86565b6001600160a01b0386169190613078565b6060850151612b08906001600160a01b0385169084613078565b505b50508080612b1790614f58565b91505061291b565b60408051808201909152606080825260208201528180421115612b7a5760405162461bcd60e51b8152602060048201526013602482015272151c985b9cd858dd1a5bdb881d1bdbc81bdb19606a1b60448201526064016108a5565b83516001600160a01b031660009081526003602052604090205460ff16612bb457604051632974f28d60e21b815260040160405180910390fd5b6000876001600160401b03811115612bce57612bce614b72565b604051908082528060200260200182016040528015612bf7578160200160208202803683370190505b5090507f00000000000000000000000000000000000000000000000000000000000000006001600160a01b0316632a2a1a748a8a8a8a3030886040518060400160405280600280811115612c4d57612c4d614d14565b81526020018f604051602001612c639190615d00565b60408051601f19818403018152918152915251612c8391906020016151a5565b6040516020818303038152906040526040518963ffffffff1660e01b8152600401612cb59897969594939291906151dc565b6000604051808303816000875af1158015612cd4573d6000803e3d6000fd5b505050506040513d6000823e601f3d908101601f19168201604052612cfc9190810190615370565b9998505050505050505050565b6060816001600160401b03811115612d2357612d23614b72565b604051908082528060200260200182016040528015612d4c578160200160208202803683370190505b50905060005b82811015612de457612db585858584818110612d7057612d70614f0f565b612d86926020604090920201908101915061408c565b868685818110612d9857612d98614f0f565b9050604002016020016020810190612db0919061408c565b613128565b828281518110612dc757612dc7614f0f565b602090810291909101015280612ddc81614f58565b915050612d52565b509392505050565b606061123f8383604051806060016040528060278152602001615f9260279139613373565b606080612e6684846000604051908082528060200260200182016040528015612e6057816020015b6040805180820190915260008082526020820152815260200190600190039081612e395790505b50613447565b50909590945092505050565b6001600160a01b038116612ec85760405162461bcd60e51b815260206004820152601860248201527f476f7665726e61626c653a207a65726f2061646472657373000000000000000060448201526064016108a5565b600180546001600160a01b0319166001600160a01b0383169081179091556040519081527f56bddfa0cee9697cebddf9acd7f23dc6583663b05e007b877056d05017994def9060200160405180910390a150565b6040516001600160a01b0380851660248301528316604482015260648101829052612f879085906323b872dd60e01b906084015b60408051601f198184030181529190526020810180516001600160e01b03166001600160e01b0319909316929092179091526134cc565b50505050565b6001600160a01b03821660008181526002602052604090205463095ea7b3907f00000000000000000000000000000000000000000000000000000000000000009060ff16612fe557612fe0846001615a2e565b612fe7565b835b6040516001600160e01b031960e085901b1681526001600160a01b03909216600483015260248201526044016020604051808303816000875af1158015613032573d6000803e3d6000fd5b505050506040513d601f19601f82011682018060405250810190610d6491906159ee565b6001600160a01b0381166000908152600183016020526040812054151561123f565b6040516001600160a01b038316602482015260448101829052610d6490849063a9059cbb60e01b90606401612f50565b6000826001600160a01b03166000836040516130c49190615d96565b60006040518083038185875af1925050503d8060008114613101576040519150601f19603f3d011682016040523d82523d6000602084013e613106565b606091505b5050905080610d645760405163254a88ad60e01b815260040160405180910390fd5b6000806000613137858561359e565b60405163582cf84b60e01b81526001600160a01b038084166004830152808316602483015292945090925060009188169063582cf84b90604401602060405180830381865afa15801561318e573d6000803e3d6000fd5b505050506040513d601f19601f820116820180604052508101906131b29190615da8565b9050600160f81b60005b6001600160f81b0319808316908416108015906131e257506001600160f81b0319821615155b1561336357816001600160f81b0319168284166001600160f81b031916141561334d576040516304045d4760e51b81526001600160a01b03898116600483015288811660248301526001600160f81b031984166044830152600091908b169063808ba8e090606401608060405180830381865afa158015613267573d6000803e3d6000fd5b505050506040513d601f19601f8201168201806040525081019061328b9190615dda565b90506000613298846135cf565b90506000818284604001516132ad9190615e3d565b6132b8906001615e6e565b6132c29190615e96565b63ffffffff169050600083602001516001600160e01b031611806132f35750600083606001516001600160e01b0316115b156133285742811161330f57839850505050505050505061123f565b6133194282615b86565b9850505050505050505061123f565b4281111561334957831561333c5783613346565b6133464282615b86565b93505b5050505b6001826001600160f81b031916901b91506131bc565b5060001998975050505050505050565b6060833b6133d25760405162461bcd60e51b815260206004820152602660248201527f416464726573733a2064656c65676174652063616c6c20746f206e6f6e2d636f6044820152651b9d1c9858dd60d21b60648201526084016108a5565b600080856001600160a01b0316856040516133ed9190615d96565b600060405180830381855af49150503d8060008114613428576040519150601f19603f3d011682016040523d82523d6000602084013e61342d565b606091505b509150915061343d8282866136e3565b9695505050505050565b60608060606134a88686808060200260200160405190810160405280939291908181526020016000905b8282101561349d5761348e60408302860136819003810190615ec2565b81526020019060010190613471565b50505050508561371c565b92506134b5868685613bff565b91506134c18484613e90565b905093509350939050565b6000613521826040518060400160405280602081526020017f5361666545524332303a206c6f772d6c6576656c2063616c6c206661696c6564815250856001600160a01b0316613f959092919063ffffffff16565b805190915015610d64578080602001905181019061353f91906159ee565b610d645760405162461bcd60e51b815260206004820152602a60248201527f5361666545524332303a204552433230206f7065726174696f6e20646964206e6044820152691bdd081cdd58d8d9595960b21b60648201526084016108a5565b600080826001600160a01b0316846001600160a01b0316106135c15782846135c4565b83835b909590945092505050565b6000600160f81b6001600160f81b0319831614156135ef5750603c919050565b600160f91b6001600160f81b03198316141561360e575061012c919050565b600160fa1b6001600160f81b03198316141561362d5750610384919050565b600160fb1b6001600160f81b03198316141561364c5750610708919050565b600160fc1b6001600160f81b03198316141561366b5750610e10919050565b600160fd1b6001600160f81b03198316141561368a5750613840919050565b600160fe1b6001600160f81b0319831614156136aa575062015180919050565b600160ff1b6001600160f81b0319831614156136ca575062093a80919050565b60405163bf3cad0b60e01b815260040160405180910390fd5b606083156136f257508161123f565b8251156137025782518084602001fd5b8160405162461bcd60e51b81526004016108a59190615f03565b60606000808351855160026137319190615f16565b61373b9190615a2e565b6001600160401b0381111561375257613752614b72565b60405190808252806020026020018201604052801561377b578160200160208202803683370190505b50905060005b85518110156139555760008060005b85811080156137a657508280156137a45750815b155b1561387b578215801561380057508884815181106137c6576137c6614f0f565b6020026020010151600001516001600160a01b03168582815181106137ed576137ed614f0f565b60200260200101516001600160a01b0316145b1561380a57600192505b8115801561385f575088848151811061382557613825614f0f565b6020026020010151602001516001600160a01b031685828151811061384c5761384c614f0f565b60200260200101516001600160a01b0316145b1561386957600191505b8061387381614f58565b915050613790565b50816138de5787838151811061389357613893614f0f565b6020026020010151600001518486806138ab90614f58565b9750815181106138bd576138bd614f0f565b60200260200101906001600160a01b031690816001600160a01b0316815250505b80613940578783815181106138f5576138f5614f0f565b60200260200101516020015184868061390d90614f58565b97508151811061391f5761391f614f0f565b60200260200101906001600160a01b031690816001600160a01b0316815250505b5050808061394d90614f58565b915050613781565b5060005b8451811015613a55576000805b8481108015613973575081155b156139df5786838151811061398a5761398a614f0f565b6020026020010151600001516001600160a01b03168482815181106139b1576139b1614f0f565b60200260200101516001600160a01b031614156139cd57600191505b806139d781614f58565b915050613966565b5080613a42578582815181106139f7576139f7614f0f565b602002602001015160000151838580613a0f90614f58565b965081518110613a2157613a21614f0f565b60200260200101906001600160a01b031690816001600160a01b0316815250505b5080613a4d81614f58565b915050613959565b50816001600160401b03811115613a6e57613a6e614b72565b604051908082528060200260200182016040528015613a97578160200160208202803683370190505b50925060005b82811015613bf6576000828281518110613ab957613ab9614f0f565b6020026020010151905060005b816001600160a01b0316868281518110613ae257613ae2614f0f565b60200260200101516001600160a01b0316108015613b2c575060006001600160a01b0316868281518110613b1857613b18614f0f565b60200260200101516001600160a01b031614155b15613b435780613b3b81614f58565b915050613ac6565b825b81811115613bad5786613b59600183615b86565b81518110613b6957613b69614f0f565b6020026020010151878281518110613b8357613b83614f0f565b6001600160a01b039092166020928302919091019091015280613ba581615f35565b915050613b45565b5081868281518110613bc157613bc1614f0f565b60200260200101906001600160a01b031690816001600160a01b03168152505050508080613bee90614f58565b915050613a9d565b50505092915050565b6060826001600160401b03811115613c1957613c19614b72565b604051908082528060200260200182016040528015613c5e57816020015b6040805180820190915260008082526020820152815260200190600190039081613c375790505b5090506000805b83518160ff161015611866576000613c7e826001615f4c565b90505b84518160ff161015613e7d5760005b86811015613e6a57878782818110613caa57613caa614f0f565b613cc0926020604090920201908101915061408c565b6001600160a01b0316868460ff1681518110613cde57613cde614f0f565b60200260200101516001600160a01b0316148015613d525750878782818110613d0957613d09614f0f565b9050604002016020016020810190613d21919061408c565b6001600160a01b0316868360ff1681518110613d3f57613d3f614f0f565b60200260200101516001600160a01b0316145b80613e125750878782818110613d6a57613d6a614f0f565b9050604002016020016020810190613d82919061408c565b6001600160a01b0316868460ff1681518110613da057613da0614f0f565b60200260200101516001600160a01b0316148015613e125750878782818110613dcb57613dcb614f0f565b613de1926020604090920201908101915061408c565b6001600160a01b0316868360ff1681518110613dff57613dff614f0f565b60200260200101516001600160a01b0316145b15613e58576040805180820190915260ff8085168252831660208201528585613e3a81614f58565b965081518110613e4c57613e4c614f0f565b60200260200101819052505b80613e6281614f58565b915050613c90565b5080613e7581615f71565b915050613c81565b5080613e8881615f71565b915050613c65565b606081516001600160401b03811115613eab57613eab614b72565b604051908082528060200260200182016040528015613ed4578160200160208202803683370190505b50905060005b83518110156115b95760005b848281518110613ef857613ef8614f0f565b6020026020010151600001516001600160a01b0316848281518110613f1f57613f1f614f0f565b60200260200101516001600160a01b031614613f475780613f3f81614f58565b915050613ee6565b848281518110613f5957613f59614f0f565b602002602001015160200151838281518110613f7757613f77614f0f565b60209081029190910101525080613f8d81614f58565b915050613eda565b6060611d88848460008585843b613fee5760405162461bcd60e51b815260206004820152601d60248201527f416464726573733a2063616c6c20746f206e6f6e2d636f6e747261637400000060448201526064016108a5565b600080866001600160a01b0316858760405161400a9190615d96565b60006040518083038185875af1925050503d8060008114614047576040519150601f19603f3d011682016040523d82523d6000602084013e61404c565b606091505b509150915061405c8282866136e3565b979650505050505050565b6001600160a01b0381168114611c3857600080fd5b803561408781614067565b919050565b60006020828403121561409e57600080fd5b813561123f81614067565b6000806000606084860312156140be57600080fd5b8335925060208401356140d081614067565b915060408401356140e081614067565b809150509250925092565b63ffffffff81168114611c3857600080fd5b8035614087816140eb565b8015158114611c3857600080fd5b803561408781614108565b6000806000806080858703121561413757600080fd5b84359350602085013592506040850135614150816140eb565b9150606085013561416081614108565b939692955090935050565b60008083601f84011261417d57600080fd5b5081356001600160401b0381111561419457600080fd5b6020830191508360208260051b85010111156141af57600080fd5b9250929050565b60008083601f8401126141c857600080fd5b5081356001600160401b038111156141df57600080fd5b6020830191508360208285010111156141af57600080fd5b6000806000806000806000806000806101008b8d03121561421757600080fd5b8a3561422281614067565b995060208b013561423281614067565b985060408b0135975060608b0135614249816140eb565b965060808b0135614259816140eb565b955060a08b013561426981614067565b945060c08b01356001600160401b038082111561428557600080fd5b6142918e838f0161416b565b909650945060e08d01359150808211156142aa57600080fd5b506142b78d828e016141b6565b915080935050809150509295989b9194979a5092959850565b600080600080604085870312156142e657600080fd5b84356001600160401b03808211156142fd57600080fd5b6143098883890161416b565b9096509450602087013591508082111561432257600080fd5b5061432f8782880161416b565b95989497509550505050565b60008060006060848603121561435057600080fd5b833561435b81614067565b9250602084013561436b81614067565b929592945050506040919091013590565b6000806040838503121561438f57600080fd5b8235915060208301356143a181614067565b809150509250929050565b600080600080608085870312156143c257600080fd5b843593506020850135925060408501356143db816140eb565b9150606085013561416081614067565b60008060008060008060006080888a03121561440657600080fd5b873561441181614067565b965060208801356001600160401b038082111561442d57600080fd5b818a0191508a601f83011261444157600080fd5b81358181111561445057600080fd5b8b60208260071b850101111561446557600080fd5b6020830198508097505060408a013591508082111561448357600080fd5b61448f8b838c0161416b565b909650945060608a01359150808211156144a857600080fd5b506144b58a828b016141b6565b989b979a50959850939692959293505050565b600080604083850312156144db57600080fd5b82356144e681614067565b915060208301356143a181614108565b60008083601f84011261450857600080fd5b5081356001600160401b0381111561451f57600080fd5b6020830191508360208260061b85010111156141af57600080fd5b60008060008060008060008060008060e08b8d03121561455957600080fd5b8a3561456481614067565b995060208b01356001600160401b038082111561458057600080fd5b61458c8e838f0161416b565b909b50995060408d01359150808211156145a557600080fd5b6145b18e838f016144f6565b909950975060608d01359150808211156145ca57600080fd5b506145d78d828e0161416b565b90965094505060808b01356145eb81614108565b92506145f960a08c0161407c565b915060c08b013590509295989b9194979a5092959850565b600081518084526020808501945080840160005b8381101561468157815180516001600160a01b03908116895284820151168489015260408082015190890152606080820151908901526080908101516001600160f81b0319169088015260a09096019590820190600101614625565b509495945050505050565b600060208083526060808401855160408085880152828251808552608094508489019150868401935060005b818110156146f657845180516001600160a01b03168452888101518985015284810151858501528701518784015293870193918501916001016146b8565b505094880151878603601f19018289015294612cfc8187614611565b6000806020838503121561472557600080fd5b82356001600160401b0381111561473b57600080fd5b614747858286016144f6565b90969095509350505050565b600081518084526020808501945080840160005b8381101561468157815187529582019590820190600101614767565b60208152600061123f6020830184614753565b60008060008060008060008060008060c08b8d0312156147b557600080fd5b8a356001600160401b03808211156147cc57600080fd5b6147d88e838f0161416b565b909c509a5060208d01359150808211156147f157600080fd5b6147fd8e838f016144f6565b909a50985060408d013591508082111561481657600080fd5b6148228e838f0161416b565b909850965060608d013591508082111561483b57600080fd5b506148488d828e0161416b565b909550935061485b905060808c0161407c565b915060a08b013590509295989b9194979a5092959850565b6000806020838503121561488657600080fd5b82356001600160401b0381111561489c57600080fd5b6147478582860161416b565b60005b838110156148c35781810151838201526020016148ab565b83811115612f875750506000910152565b600081518084526148ec8160208601602086016148a8565b601f01601f19169290920160200192915050565b6000602080830181845280855180835260408601915060408160051b870101925083870160005b8281101561495557603f198886030184526149438583516148d4565b94509285019290850190600101614927565b5092979650505050505050565b803560ff8116811461408757600080fd5b600080600080600080600060c0888a03121561498e57600080fd5b87356001600160401b038111156149a457600080fd5b6149b08a828b0161416b565b90985096505060208801359450604088013593506149d060608901614962565b92506080880135915060a0880135905092959891949750929550565b600080600060408486031215614a0157600080fd5b83356001600160401b03811115614a1757600080fd5b614a238682870161416b565b90945092505060208401356140e081614067565b60008060008060008060008060008060006101208c8e031215614a5957600080fd5b614a638c35614067565b8b359a50614a7460208d0135614067565b60208c0135995060408c01359850614a8e60608d016140fd565b9750614a9c60808d016140fd565b9650614aaa60a08d0161407c565b95506001600160401b038060c08e01351115614ac557600080fd5b614ad58e60c08f01358f0161416b565b909650945060e08d0135811015614aeb57600080fd5b50614afc8d60e08e01358e016141b6565b9093509150614b0e6101008d01614116565b90509295989b509295989b9093969950565b600080600060608486031215614b3557600080fd5b833592506020840135915060408401356140e0816140eb565b60008060408385031215614b6157600080fd5b505080516020909101519092909150565b634e487b7160e01b600052604160045260246000fd5b604080519081016001600160401b0381118282101715614baa57614baa614b72565b60405290565b60405160a081016001600160401b0381118282101715614baa57614baa614b72565b604051608081016001600160401b0381118282101715614baa57614baa614b72565b604051601f8201601f191681016001600160401b0381118282101715614c1c57614c1c614b72565b604052919050565b805161408781614067565b8051614087816140eb565b80516effffffffffffffffffffffffffffff8116811461408757600080fd5b6000610100808385031215614c6d57600080fd5b604051908101906001600160401b0382118183101715614c8f57614c8f614b72565b8160405283519150614ca082614067565b818152614caf60208501614c24565b6020820152614cc060408501614c2f565b6040820152614cd160608501614c2f565b606082015260808401516080820152614cec60a08501614c2f565b60a082015260c084015160c0820152614d0760e08501614c3a565b60e0820152949350505050565b634e487b7160e01b600052602160045260246000fd5b60048110614d3a57614d3a614d14565b9052565b600081518084526020808501808196508360051b810191508286016000805b86811015614dd4578385038a52825180516001600160a01b031686528601516040878701819052815190870181905290870190606087019084905b80821015614dbf57614dab838551614d2a565b928901929189019160019190910190614d98565b50509a87019a95505091850191600101614d5d565b509298975050505050505050565b6001600160a01b03888116825287811660208301526040820187905263ffffffff868116606084015285166080830152831660a082015260e060c08201819052600090612cfc90830184614d3e565b600060208284031215614e4357600080fd5b5051919050565b81835281816020850137506000828201602090810191909152601f909101601f19169091010190565b6001600160a01b038a8116825289811660208301526040820189905263ffffffff888116606084015287166080830152851660a082015261010060c08201819052600090614ec383820187614d3e565b905082810360e0840152610bfa818587614e4a565b60208082526019908201527f476f7665726e61626c653a206f6e6c7920676f7665726e6f7200000000000000604082015260600190565b634e487b7160e01b600052603260045260246000fd5b600060208284031215614f3757600080fd5b813561123f81614108565b634e487b7160e01b600052601160045260246000fd5b6000600019821415614f6c57614f6c614f42565b5060010190565b8183526000602080850194508260005b85811015614681578135614f9681614067565b6001600160a01b031687529582019590820190600101614f83565b604081526000614fc5604083018688614f73565b8281036020848101919091528482528591810160005b86811015615002578335614fee81614108565b151582529282019290820190600101614fdb565b5098975050505050505050565b60006001600160401b0382111561502857615028614b72565b50601f01601f191660200190565b600082601f83011261504757600080fd5b813561505a6150558261500f565b614bf4565b81815284602083860101111561506f57600080fd5b816020850160208301376000918101602001919091529392505050565b60006020828403121561509e57600080fd5b81356001600160401b03808211156150b557600080fd5b90830190604082860312156150c957600080fd5b6150d1614b88565b8235600381106150e057600080fd5b81526020830135828111156150f457600080fd5b61510087828601615036565b60208301525095945050505050565b60006001600160401b0382111561512857615128614b72565b5060051b60200190565b60006151406150558461510f565b80848252602080830192508560051b85013681111561515e57600080fd5b855b818110156151995780356001600160401b0381111561517f5760008081fd5b61518b36828a01615036565b865250938201938201615160565b50919695505050505050565b6020815260008251600381106151bd576151bd614d14565b806020840152506020830151604080840152611d8860608401826148d4565b60c0815260006151f060c083018a8c614f73565b8281036020848101919091528882528991810160005b8a8110156152415760ff8061521a86614962565b16835280615229858701614962565b16838501525060409384019390910190600101615206565b506001600160a01b03891660408601526001600160a01b038816606086015284810360808601526152728188614753565b9250505082810360a084015261528881856148d4565b9b9a5050505050505050505050565b80516001600160f81b03198116811461408757600080fd5b600082601f8301126152c057600080fd5b815160206152d06150558361510f565b82815260a092830285018201928282019190878511156152ef57600080fd5b8387015b858110156153635781818a03121561530b5760008081fd5b615313614bb0565b815161531e81614067565b81528186015161532d81614067565b8187015260408281015190820152606080830151908201526080615352818401615297565b9082015284529284019281016152f3565b5090979650505050505050565b6000602080838503121561538357600080fd5b82516001600160401b038082111561539a57600080fd5b818501915060408083880312156153b057600080fd5b6153b8614b88565b8351838111156153c757600080fd5b8401601f810189136153d857600080fd5b80516153e66150558261510f565b81815260079190911b8201870190878101908b83111561540557600080fd5b928801925b82841015615463576080848d0312156154235760008081fd5b61542b614bd2565b845161543681614067565b8152848a01518a82015286850151878201526060808601519082015282526080909301929088019061540a565b84525050508385015191508282111561547b57600080fd5b615487888386016152af565b85820152809550505050505092915050565b6000808335601e198436030181126154b057600080fd5b8301803591506001600160401b038211156154ca57600080fd5b6020019150368190038213156141af57600080fd5b6000808335601e198436030181126154f657600080fd5b83016020810192503590506001600160401b0381111561551557600080fd5b8060051b36038313156141af57600080fd5b80356004811061408757600080fd5b60008235603e1983360301811261554c57600080fd5b90910192915050565b81835260006020808501808196508560051b81019150846000805b88811015614dd4578385038a526155878389615536565b6040808701823561559781614067565b6001600160a01b031688526155ae838a01846154df565b898b0193909352908290529091506060870190845b838110156155ed576155dd836155d884615527565b614d2a565b91890191908901906001016155c3565b50509a87019a95505091850191600101615570565b60c08152600061561660c08301898b615555565b602083019790975250604081019490945260ff929092166060840152608083015260a09091015292915050565b6000604080830181845280865180835260608601915060608160051b8701019250602080890160005b838110156156b457888603605f19018552815180516001600160a01b031687528301518387018890526156a188880182614753565b965050938201939082019060010161566c565b50506001600160a01b0397909716959096019490945295945050505050565b600060208083850312156156e657600080fd5b82516001600160401b038111156156fc57600080fd5b8301601f8101851361570d57600080fd5b805161571b6150558261510f565b81815260059190911b8201830190838101908783111561573a57600080fd5b928401925b8284101561405c5783518252928401929084019061573f565b6001600160a01b03898116825288811660208301526040820188905263ffffffff878116606084015286166080830152841660a082015260e060c082018190526000906157a89083018486615555565b9a9950505050505050505050565b6001600160a01b038b811682528a81166020830152604082018a905263ffffffff898116606084015288166080830152861660a082015261010060c082018190526000906158078382018789615555565b905082810360e084015261581c818587614e4a565b9d9c50505050505050505050505050565b60408082528351828201819052600091906020906060850190828801855b828110156158705781516001600160a01b03168452928401929084019060010161584b565b5050508481038286015285518082528683019183019060005b818110156158b5578351805160ff90811685529086015116858401529284019291850191600101615889565b509098975050505050505050565b60008235603e198336030181126158d957600080fd5b9190910192915050565b6000808335601e198436030181126158fa57600080fd5b8301803591506001600160401b0382111561591457600080fd5b6020019150600581901b36038213156141af57600080fd5b60408082528181018490526000906060808401600587811b860183018986805b8b8110156159d057898403605f19018652615967838e615536565b803561597281614067565b6001600160a01b03168552602061598b828201836154df565b8783018c9052878c0181905292506001600160fb1b038311156159ac578485fd5b91871b918281888c013750940187018281529584019593929092019160010161594c565b5050506001600160a01b03881660208801529450611d889350505050565b600060208284031215615a0057600080fd5b815161123f81614108565b8381526001600160a01b038316602082015260608101611d886040830184614d2a565b60008219821115615a4157615a41614f42565b500190565b600060408236031215615a5857600080fd5b615a60614b88565b8235615a6b81614067565b81526020838101356001600160401b03811115615a8757600080fd5b840136601f820112615a9857600080fd5b8035615aa66150558261510f565b81815260059190911b82018301908381019036831115615ac557600080fd5b928401925b82841015615aea57615adb84615527565b82529284019290840190615aca565b938501939093525091949350505050565b600060408284031215615b0d57600080fd5b615b15614b88565b8251615b2081614067565b81526020928301519281019290925250919050565b600060808284031215615b4757600080fd5b615b4f614bd2565b8235615b5a81614067565b808252506020830135602082015260408301356040820152606083013560608201528091505092915050565b600082821015615b9857615b98614f42565b500390565b60006020808385031215615bb057600080fd5b82516001600160401b0380821115615bc757600080fd5b9084019060a08287031215615bdb57600080fd5b615be3614bb0565b8251615bee81614067565b815282840151615bfd81614108565b81850152604083810151615c1081614108565b828201526060840151615c2281614067565b6060830152608084015183811115615c3957600080fd5b80850194505087601f850112615c4e57600080fd5b8351615c5c6150558261510f565b81815260059190911b8501860190868101908a831115615c7b57600080fd5b8787015b83811015615cec57805187811115615c975760008081fd5b8801603f81018d13615ca95760008081fd5b89810151615cb96150558261500f565b8181528e88838501011115615cce5760008081fd5b615cdd828d83018a86016148a8565b85525050918801918801615c7f565b506080850152509198975050505050505050565b6000602080835260c0830160018060a01b038086511683860152828601511515604086015260408601511515606086015280606087015116608086015250608085015160a08086015281815180845260e08701915060e08160051b8801019350848301925060005b818110156149555760df19888603018352615d848585516148d4565b94509285019291850191600101615d68565b600082516158d98184602087016148a8565b600060208284031215615dba57600080fd5b61123f82615297565b80516001600160e01b038116811461408757600080fd5b600060808284031215615dec57600080fd5b615df4614bd2565b8251615dff816140eb565b8152615e0d60208401615dc3565b60208201526040830151615e20816140eb565b6040820152615e3160608401615dc3565b60608201529392505050565b600063ffffffff80841680615e6257634e487b7160e01b600052601260045260246000fd5b92169190910492915050565b600063ffffffff808316818516808303821115615e8d57615e8d614f42565b01949350505050565b600063ffffffff80831681851681830481118215151615615eb957615eb9614f42565b02949350505050565b600060408284031215615ed457600080fd5b615edc614b88565b8235615ee781614067565b81526020830135615ef781614067565b60208201529392505050565b60208152600061123f60208301846148d4565b6000816000190483118215151615615f3057615f30614f42565b500290565b600081615f4457615f44614f42565b506000190190565b600060ff821660ff84168060ff03821115615f6957615f69614f42565b019392505050565b600060ff821660ff811415615f8857615f88614f42565b6001019291505056fe416464726573733a206c6f772d6c6576656c2064656c65676174652063616c6c206661696c6564a2646970667358221220e2b27868e8f0bbf50ee64ccc78d959cbc6fa2383130e91be5573f653c51e100f64736f6c634300080a0033",
  "devdoc": {
    "kind": "dev",
    "methods": {
      "approveWTokenForHub()": {
        "details": "Anyone can call this method"
      },
      "defineDexSupport(address,bool)": {
        "details": "Will revert with `ZeroAddress` if the zero address if given",
        "params": {
          "_dex": "The address of the DEX",
          "_support": "Whether the Companion should support swaps with the given DEX"
        }
      },
      "depositProxy(address,address,uint256,uint32,uint32,address,(address,uint8[])[],bytes,bool)": {
        "details": "Meant to be used as part of a multicall",
        "params": {
          "_amount": "How many \"from\" tokens will be swapped in total",
          "_amountOfSwaps": "How many swaps to execute for this position",
          "_from": "The address of the \"from\" token",
          "_miscellaneous": "Bytes that will be emitted, and associated with the position. If empty, no event will be emitted",
          "_owner": "The address of the owner of the position being created",
          "_swapInterval": "How frequently the position's swaps should be executed",
          "_to": "The address of the \"to\" token",
          "_transferFromCaller": "Determines if the funds should be transfered from the caller"
        },
        "returns": {
          "_positionId": "The id of the created position"
        }
      },
      "depositUsingProtocolToken(address,address,uint256,uint32,uint32,address,(address,uint8[])[],bytes)": {
        "details": "This function will also give all permissions to this contract, so that it can then withdraw/terminate and convert back to protocol's token. Will revert with InvalidTokens unless only one of the tokens is the protocol token",
        "params": {
          "_amount": "How many \"from\" tokens will be swapped in total",
          "_amountOfSwaps": "How many swaps to execute for this position",
          "_from": "The address of the \"from\" token",
          "_miscellaneous": "Bytes that will be emitted, and associated with the position. If empty, no event will be emitted",
          "_owner": "The address of the owner of the position being created",
          "_permissions": "Extra permissions to add to the position. Can be empty",
          "_swapInterval": "How frequently the position's swaps should be executed",
          "_to": "The address of the \"to\" token"
        },
        "returns": {
          "_positionId": "The id of the created position"
        }
      },
      "getNextSwapInfo((address,address)[])": {
        "details": "Please note that this function is very expensive. Ideally, it would be used for off-chain purposes",
        "params": {
          "_pairs": "The pairs to be involved in the swap"
        },
        "returns": {
          "_0": "How executing a swap for all the given pairs would look like"
        }
      },
      "increasePositionProxy(uint256,uint256,uint32,bool)": {
        "details": "Meant to be used as part of a multicall",
        "params": {
          "_amount": "Amount of funds to add to the position",
          "_newSwaps": "The new amount of swaps",
          "_positionId": "The position's id",
          "_transferFromCaller": "Determines if the funds should be transfered from the caller"
        }
      },
      "increasePositionUsingProtocolToken(uint256,uint256,uint32)": {
        "params": {
          "_amount": "Amount of funds to add to the position",
          "_newSwaps": "The new amount of swaps",
          "_positionId": "The position's id"
        }
      },
      "multicall(bytes[])": {
        "details": "Receives and executes a batch of function calls on this contract."
      },
      "permissionPermitProxy((address,uint8[])[],uint256,uint256,uint8,bytes32,bytes32)": {
        "params": {
          "_deadline": "The deadline timestamp by which the call must be mined for the approve to work",
          "_permissions": "The permissions to set",
          "_r": "Must produce valid secp256k1 signature from the holder along with `v` and `s`",
          "_s": "Must produce valid secp256k1 signature from the holder along with `r` and `v`",
          "_tokenId": "The token's id",
          "_v": "Must produce valid secp256k1 signature from the holder along with `r` and `s`"
        }
      },
      "reducePositionProxy(uint256,uint256,uint32,address)": {
        "details": "Meant to be used as part of a multicall",
        "params": {
          "_amount": "Amount of funds to withdraw from the position",
          "_newSwaps": "The new amount of swaps",
          "_positionId": "The position's id",
          "_recipient": "The address to send tokens to"
        }
      },
      "reducePositionUsingProtocolToken(uint256,uint256,uint32,address)": {
        "params": {
          "_amount": "Amount of funds to withdraw from the position",
          "_newSwaps": "The new amount of swaps",
          "_positionId": "The position's id",
          "_recipient": "The address to send tokens to"
        }
      },
      "secondsUntilNextSwap((address,address)[])": {
        "details": "Tokens in pairs may be passed in either tokenA/tokenB or tokenB/tokenA order",
        "params": {
          "_pairs": "Pairs to check"
        },
        "returns": {
          "_0": "The amount of seconds until next swap for each of the pairs"
        }
      },
      "setTokensWithApprovalIssues(address[],bool[])": {
        "details": "Will revert with `InvalidTokenApprovalParams` if the length of the given arrays differ",
        "params": {
          "_addresses": "The addresses of the tokens",
          "_hasIssue": "Wether they have issues or not"
        }
      },
      "swapForCaller(address[],(uint8,uint8)[],uint256[],uint256[],address,uint256)": {
        "details": "Will revert: With RewardNotEnough if the minimum output is not met With ToProvideIsTooMuch if the hub swap requires more than the given maximum input",
        "params": {
          "_deadline": "Deadline when the swap becomes invalid",
          "_maximumInput": "The maximum amount of tokens to provide as part of the swap",
          "_minimumOutput": "The minimum amount of tokens to receive as part of the swap",
          "_pairsToSwap": "The pairs to swap",
          "_recipient": "Address that will receive all the tokens from the swap",
          "_tokens": "The tokens involved in the swap"
        },
        "returns": {
          "_swapInfo": "The information about the executed swap"
        }
      },
      "swapWithDex(address,address[],(uint8,uint8)[],bytes[],bool,address,uint256)": {
        "params": {
          "_callsToDex": "The bytes to send to the DEX to execute swaps",
          "_deadline": "Deadline when the swap becomes invalid",
          "_dex": "The DEX that will be used in the swap",
          "_doDexSwapsIncludeTransferToHub": "Some DEXes support swap & transfer, which would be cheaper in terms of gas If this feature is used, then the flag should be true",
          "_leftoverRecipient": "Address that will receive all unspent tokens",
          "_pairsToSwap": "The pairs to swap",
          "_tokens": "The tokens involved in the swap"
        },
        "returns": {
          "_0": "The information about the executed swap"
        }
      },
      "swapWithDexAndShareLeftoverWithHub(address,address[],(uint8,uint8)[],bytes[],bool,address,uint256)": {
        "params": {
          "_callsToDex": "The bytes to send to the DEX to execute swaps",
          "_deadline": "Deadline when the swap becomes invalid",
          "_dex": "The DEX that will be used in the swap",
          "_doDexSwapsIncludeTransferToHub": "Some DEXes support swap & transfer, which would be cheaper in terms of gas If this feature is used, then the flag should be true",
          "_leftoverRecipient": "Address that will receive `reward` unspent tokens",
          "_pairsToSwap": "The pairs to swap",
          "_tokens": "The tokens involved in the swap"
        },
        "returns": {
          "_0": "The information about the executed swap"
        }
      },
      "terminateProxy(uint256,address,address)": {
        "details": "Meant to be used as part of a multicall",
        "params": {
          "_positionId": "The position's id",
          "_recipientSwapped": "The address to withdraw swapped tokens to",
          "_recipientUnswapped": "The address to withdraw unswapped tokens to"
        },
        "returns": {
          "_swapped": "The swapped balance sent to `_recipientSwapped`",
          "_unswapped": "The unswapped balance sent to `_recipientUnswapped`"
        }
      },
      "terminateUsingProtocolTokenAsFrom(uint256,address,address)": {
        "params": {
          "_positionId": "The position's id",
          "_recipientSwapped": "The address to withdraw swapped tokens to",
          "_recipientUnswapped": "The address to withdraw unswapped tokens to"
        },
        "returns": {
          "_swapped": "The swapped balance sent to `_recipientSwapped`",
          "_unswapped": "The unswapped balance sent to `_recipientUnswapped`"
        }
      },
      "terminateUsingProtocolTokenAsTo(uint256,address,address)": {
        "params": {
          "_positionId": "The position's id",
          "_recipientSwapped": "The address to withdraw swapped tokens to",
          "_recipientUnswapped": "The address to withdraw unswapped tokens to"
        },
        "returns": {
          "_swapped": "The swapped balance sent to `_recipientSwapped`",
          "_unswapped": "The unswapped balance sent to `_recipientUnswapped`"
        }
      },
      "withdrawSwappedManyProxy((address,uint256[])[],address)": {
        "details": "Meant to be used as part of a multicall",
        "params": {
          "_positions": "A list positions, grouped by `to` token",
          "_recipient": "The address to withdraw swapped tokens to"
        },
        "returns": {
          "_withdrawn": "How much was withdrawn for each token"
        }
      },
      "withdrawSwappedManyUsingProtocolToken(uint256[],address)": {
        "params": {
          "_positionIds": "A list positions whose 'to' token is the wToken",
          "_recipient": "The address to withdraw swapped tokens to"
        },
        "returns": {
          "_swapped": "How much was withdrawn in total"
        }
      },
      "withdrawSwappedProxy(uint256,address)": {
        "details": "Meant to be used as part of a multicall",
        "params": {
          "_positionId": "The position's id",
          "_recipient": "The address to withdraw swapped tokens to"
        },
        "returns": {
          "_swapped": "How much was withdrawn"
        }
      },
      "withdrawSwappedUsingProtocolToken(uint256,address)": {
        "params": {
          "_positionId": "The position's id",
          "_recipient": "The address to withdraw swapped tokens to"
        },
        "returns": {
          "_swapped": "How much was withdrawn"
        }
      }
    },
    "version": 1
  },
  "userdoc": {
    "errors": {
      "CallToDexFailed()": [
        {
          "notice": "Thrown when a call to the given DEX fails"
        }
      ],
      "CallbackNotCalledByHub()": [
        {
          "notice": "Thrown when callback is not called by the hub"
        }
      ],
      "InvalidAmountOfProtocolTokenReceived()": [
        {
          "notice": "Thrown when the user sends more or less of the protocol token than is actually necessary"
        }
      ],
      "InvalidMask()": [
        {
          "notice": "Thrown when a user tries convert and invalid byte representation to an interval"
        }
      ],
      "InvalidTokenApprovalParams()": [
        {
          "notice": "Thrown when the given parameters are invalid"
        }
      ],
      "InvalidTokens()": [
        {
          "notice": "Thrown when the user tries to make a deposit where neither or both of the tokens are the protocol token"
        }
      ],
      "RewardNotEnough()": [
        {
          "notice": "Thrown when the reward is less that the specified minimum"
        }
      ],
      "SwapNotInitiatedByCompanion()": [
        {
          "notice": "Thrown when swap was not initiated by the companion"
        }
      ],
      "ToProvideIsTooMuch()": [
        {
          "notice": "Thrown when the amount to provide is more than the specified maximum"
        }
      ],
      "UnauthorizedCaller()": [
        {
          "notice": "Thrown when a user tries operate on a position that they don't have access to"
        }
      ],
      "UnexpectedSwapPlan()": [
        {
          "notice": "Thrown when the callback is executed with an unexpected swap plan"
        }
      ],
      "UnsupportedDex()": [
        {
          "notice": "Thrown when a swap is executed with a DEX that is not supported"
        }
      ],
      "ZeroAddress()": [
        {
          "notice": "Thrown when one of the parameters is a zero address"
        }
      ]
    },
    "events": {
      "TokenWithApprovalIssuesSet(address[],bool[])": {
        "notice": "Emitted when tokens with approval issues are set"
      }
    },
    "kind": "user",
    "methods": {
      "PROTOCOL_TOKEN()": {
        "notice": "Returns the address used to represent the protocol token (f.e. ETH/MATIC)"
      },
      "approveWTokenForHub()": {
        "notice": "Increases the allowance of wToken to the max, for the DCAHub"
      },
      "defineDexSupport(address,bool)": {
        "notice": "Defines whether a specific DEX will be supported for swaps"
      },
      "depositProxy(address,address,uint256,uint32,uint32,address,(address,uint8[])[],bytes,bool)": {
        "notice": "Creates a new position"
      },
      "depositUsingProtocolToken(address,address,uint256,uint32,uint32,address,(address,uint8[])[],bytes)": {
        "notice": "Creates a new position by converting the protocol's base token to its wrapped version"
      },
      "getNextSwapInfo((address,address)[])": {
        "notice": "Takes a list of pairs and returns how it would look like to execute a swap for all of them"
      },
      "hub()": {
        "notice": "Returns the DCA Hub's address"
      },
      "increasePositionProxy(uint256,uint256,uint32,bool)": {
        "notice": "Call the hub and takes the unswapped balance, adds the new deposited funds and modifies the position so that it is executed in _newSwaps swaps"
      },
      "increasePositionUsingProtocolToken(uint256,uint256,uint32)": {
        "notice": "Takes the unswapped balance, adds the new deposited funds and modifies the position so that it is executed in _newSwaps swaps"
      },
      "isDexSupported(address)": {
        "notice": "Returns whether the given DEX can be used for swaps for not"
      },
      "permissionManager()": {
        "notice": "Returns the permission manager contract"
      },
      "permissionPermitProxy((address,uint8[])[],uint256,uint256,uint8,bytes32,bytes32)": {
        "notice": "Calls the permission manager and sets permissions via signature"
      },
      "reducePositionProxy(uint256,uint256,uint32,address)": {
        "notice": "Call the hub and withdraws the specified amount from the unswapped balance and modifies the position so that it is executed in _newSwaps swaps"
      },
      "reducePositionUsingProtocolToken(uint256,uint256,uint32,address)": {
        "notice": "Withdraws the specified amount from the unswapped balance and modifies the position so that it is executed in _newSwaps swaps"
      },
      "secondsUntilNextSwap((address,address)[])": {
        "notice": "Returns how many seconds left until the next swap is available for a list of pairs"
      },
      "setTokensWithApprovalIssues(address[],bool[])": {
        "notice": "Sets whether specific addresses have issues with approvals, like USDT"
      },
      "swapForCaller(address[],(uint8,uint8)[],uint256[],uint256[],address,uint256)": {
        "notice": "Executes a swap for the caller, by sending them the reward, and taking from them the needed tokens"
      },
      "swapWithDex(address,address[],(uint8,uint8)[],bytes[],bool,address,uint256)": {
        "notice": "Executes a swap with the given DEX, and sends all unspent tokens to the given recipient"
      },
      "swapWithDexAndShareLeftoverWithHub(address,address[],(uint8,uint8)[],bytes[],bool,address,uint256)": {
        "notice": "Executes a swap with the given DEX and sends all `reward` unspent tokens to the given recipient. All positive slippage for tokens that need to be returned to the hub is also sent to the hub"
      },
      "terminateProxy(uint256,address,address)": {
        "notice": "Calls the hub and terminates the position and sends all unswapped and swapped balance to the specified recipients"
      },
      "terminateUsingProtocolTokenAsFrom(uint256,address,address)": {
        "notice": "Terminates the position and sends all unswapped and swapped balance to the specified recipients"
      },
      "terminateUsingProtocolTokenAsTo(uint256,address,address)": {
        "notice": "Terminates the position and sends all unswapped and swapped balance to the specified recipients"
      },
      "tokenHasApprovalIssue(address)": {
        "notice": "Returns whether the given address has issues with approvals, like USDT"
      },
      "wToken()": {
        "notice": "Returns the address of the wrapped token"
      },
      "withdrawSwappedManyProxy((address,uint256[])[],address)": {
        "notice": "Call the hub and withdraws all swapped tokens from multiple positions"
      },
      "withdrawSwappedManyUsingProtocolToken(uint256[],address)": {
        "notice": "Withdraws all swapped tokens from multiple positions"
      },
      "withdrawSwappedProxy(uint256,address)": {
        "notice": "Call the hub and withdraws all swapped tokens from a position to a recipient"
      },
      "withdrawSwappedUsingProtocolToken(uint256,address)": {
        "notice": "Withdraws all swapped tokens from a position to a recipient"
      }
    },
    "version": 1
  },
  "storageLayout": {
    "storage": [
      {
        "astId": 8935,
        "contract": "contracts/DCAHubCompanion/DCAHubCompanion.sol:DCAHubCompanion",
        "label": "_governor",
        "offset": 0,
        "slot": "0",
        "type": "t_address"
      },
      {
        "astId": 8937,
        "contract": "contracts/DCAHubCompanion/DCAHubCompanion.sol:DCAHubCompanion",
        "label": "_pendingGovernor",
        "offset": 0,
        "slot": "1",
        "type": "t_address"
      },
      {
        "astId": 4223,
        "contract": "contracts/DCAHubCompanion/DCAHubCompanion.sol:DCAHubCompanion",
        "label": "tokenHasApprovalIssue",
        "offset": 0,
        "slot": "2",
        "type": "t_mapping(t_address,t_bool)"
      },
      {
        "astId": 4432,
        "contract": "contracts/DCAHubCompanion/DCAHubCompanion.sol:DCAHubCompanion",
        "label": "isDexSupported",
        "offset": 0,
        "slot": "3",
        "type": "t_mapping(t_address,t_bool)"
      },
      {
        "astId": 8829,
        "contract": "contracts/DCAHubCompanion/DCAHubCompanion.sol:DCAHubCompanion",
        "label": "_protocolTokens",
        "offset": 0,
        "slot": "4",
        "type": "t_struct(AddressSet)3442_storage"
      }
    ],
    "types": {
      "t_address": {
        "encoding": "inplace",
        "label": "address",
        "numberOfBytes": "20"
      },
      "t_array(t_bytes32)dyn_storage": {
        "base": "t_bytes32",
        "encoding": "dynamic_array",
        "label": "bytes32[]",
        "numberOfBytes": "32"
      },
      "t_bool": {
        "encoding": "inplace",
        "label": "bool",
        "numberOfBytes": "1"
      },
      "t_bytes32": {
        "encoding": "inplace",
        "label": "bytes32",
        "numberOfBytes": "32"
      },
      "t_mapping(t_address,t_bool)": {
        "encoding": "mapping",
        "key": "t_address",
        "label": "mapping(address => bool)",
        "numberOfBytes": "32",
        "value": "t_bool"
      },
      "t_mapping(t_bytes32,t_uint256)": {
        "encoding": "mapping",
        "key": "t_bytes32",
        "label": "mapping(bytes32 => uint256)",
        "numberOfBytes": "32",
        "value": "t_uint256"
      },
      "t_struct(AddressSet)3442_storage": {
        "encoding": "inplace",
        "label": "struct EnumerableSet.AddressSet",
        "members": [
          {
            "astId": 3441,
            "contract": "contracts/DCAHubCompanion/DCAHubCompanion.sol:DCAHubCompanion",
            "label": "_inner",
            "offset": 0,
            "slot": "0",
            "type": "t_struct(Set)3141_storage"
          }
        ],
        "numberOfBytes": "64"
      },
      "t_struct(Set)3141_storage": {
        "encoding": "inplace",
        "label": "struct EnumerableSet.Set",
        "members": [
          {
            "astId": 3136,
            "contract": "contracts/DCAHubCompanion/DCAHubCompanion.sol:DCAHubCompanion",
            "label": "_values",
            "offset": 0,
            "slot": "0",
            "type": "t_array(t_bytes32)dyn_storage"
          },
          {
            "astId": 3140,
            "contract": "contracts/DCAHubCompanion/DCAHubCompanion.sol:DCAHubCompanion",
            "label": "_indexes",
            "offset": 0,
            "slot": "1",
            "type": "t_mapping(t_bytes32,t_uint256)"
          }
        ],
        "numberOfBytes": "64"
      },
      "t_uint256": {
        "encoding": "inplace",
        "label": "uint256",
        "numberOfBytes": "32"
      }
    }
  }
}