{
  "address": "0xC3D6c3395F0C9432E875e50d07B07dA81A636192",
  "abi": [
    {
      "inputs": [
        {
          "internalType": "contract IDCAHub",
          "name": "_hub",
          "type": "address"
        },
        {
          "internalType": "contract IWrappedProtocolToken",
          "name": "_wToken",
          "type": "address"
        },
        {
          "internalType": "address",
          "name": "_governor",
          "type": "address"
        }
      ],
      "stateMutability": "nonpayable",
      "type": "constructor"
    },
    {
      "inputs": [],
      "name": "CallToDexFailed",
      "type": "error"
    },
    {
      "inputs": [],
      "name": "CallbackNotCalledByHub",
      "type": "error"
    },
    {
      "inputs": [],
      "name": "InvalidAmountOfProtocolTokenReceived",
      "type": "error"
    },
    {
      "inputs": [],
      "name": "InvalidMask",
      "type": "error"
    },
    {
      "inputs": [],
      "name": "InvalidTokenApprovalParams",
      "type": "error"
    },
    {
      "inputs": [],
      "name": "InvalidTokens",
      "type": "error"
    },
    {
      "inputs": [],
      "name": "RewardNotEnough",
      "type": "error"
    },
    {
      "inputs": [],
      "name": "SwapNotInitiatedByCompanion",
      "type": "error"
    },
    {
      "inputs": [],
      "name": "ToProvideIsTooMuch",
      "type": "error"
    },
    {
      "inputs": [],
      "name": "UnauthorizedCaller",
      "type": "error"
    },
    {
      "inputs": [],
      "name": "UnexpectedSwapPlan",
      "type": "error"
    },
    {
      "inputs": [],
      "name": "UnsupportedDex",
      "type": "error"
    },
    {
      "inputs": [],
      "name": "ZeroAddress",
      "type": "error"
    },
    {
      "anonymous": false,
      "inputs": [
        {
          "indexed": false,
          "internalType": "uint256",
          "name": "positionId",
          "type": "uint256"
        },
        {
          "indexed": false,
          "internalType": "address",
          "name": "originalTokenFrom",
          "type": "address"
        },
        {
          "indexed": false,
          "internalType": "address",
          "name": "convertedTokenFrom",
          "type": "address"
        },
        {
          "indexed": false,
          "internalType": "address",
          "name": "originalTokenTo",
          "type": "address"
        },
        {
          "indexed": false,
          "internalType": "address",
          "name": "convertedTokenTo",
          "type": "address"
        }
      ],
      "name": "ConvertedDeposit",
      "type": "event"
    },
    {
      "anonymous": false,
      "inputs": [
        {
          "indexed": false,
          "internalType": "address",
          "name": "_to",
          "type": "address"
        },
        {
          "indexed": false,
          "internalType": "address",
          "name": "token",
          "type": "address"
        },
        {
          "indexed": false,
          "internalType": "uint256",
          "name": "amount",
          "type": "uint256"
        }
      ],
      "name": "DustSent",
      "type": "event"
    },
    {
      "anonymous": false,
      "inputs": [],
      "name": "PendingGovernorAccepted",
      "type": "event"
    },
    {
      "anonymous": false,
      "inputs": [
        {
          "indexed": false,
          "internalType": "address",
          "name": "_pendingGovernor",
          "type": "address"
        }
      ],
      "name": "PendingGovernorSet",
      "type": "event"
    },
    {
      "anonymous": false,
      "inputs": [
        {
          "indexed": false,
          "internalType": "address[]",
          "name": "addresses",
          "type": "address[]"
        },
        {
          "indexed": false,
          "internalType": "bool[]",
          "name": "hasIssue",
          "type": "bool[]"
        }
      ],
      "name": "TokenWithApprovalIssuesSet",
      "type": "event"
    },
    {
      "inputs": [
        {
          "internalType": "address",
          "name": "_sender",
          "type": "address"
        },
        {
          "components": [
            {
              "internalType": "address",
              "name": "token",
              "type": "address"
            },
            {
              "internalType": "uint256",
              "name": "reward",
              "type": "uint256"
            },
            {
              "internalType": "uint256",
              "name": "toProvide",
              "type": "uint256"
            },
            {
              "internalType": "uint256",
              "name": "platformFee",
              "type": "uint256"
            }
          ],
          "internalType": "struct IDCAHubSwapHandler.TokenInSwap[]",
          "name": "_tokens",
          "type": "tuple[]"
        },
        {
          "internalType": "uint256[]",
          "name": "",
          "type": "uint256[]"
        },
        {
          "internalType": "bytes",
          "name": "_data",
          "type": "bytes"
        }
      ],
      "name": "DCAHubSwapCall",
      "outputs": [],
      "stateMutability": "nonpayable",
      "type": "function"
    },
    {
      "inputs": [],
      "name": "PROTOCOL_TOKEN",
      "outputs": [
        {
          "internalType": "address",
          "name": "",
          "type": "address"
        }
      ],
      "stateMutability": "view",
      "type": "function"
    },
    {
      "inputs": [],
      "name": "acceptPendingGovernor",
      "outputs": [],
      "stateMutability": "nonpayable",
      "type": "function"
    },
    {
      "inputs": [],
      "name": "approveWTokenForHub",
      "outputs": [],
      "stateMutability": "nonpayable",
      "type": "function"
    },
    {
      "inputs": [
        {
          "internalType": "address",
          "name": "_dex",
          "type": "address"
        },
        {
          "internalType": "bool",
          "name": "_support",
          "type": "bool"
        }
      ],
      "name": "defineDexSupport",
      "outputs": [],
      "stateMutability": "nonpayable",
      "type": "function"
    },
    {
      "inputs": [
        {
          "internalType": "address",
          "name": "_from",
          "type": "address"
        },
        {
          "internalType": "address",
          "name": "_to",
          "type": "address"
        },
        {
          "internalType": "uint256",
          "name": "_amount",
          "type": "uint256"
        },
        {
          "internalType": "uint32",
          "name": "_amountOfSwaps",
          "type": "uint32"
        },
        {
          "internalType": "uint32",
          "name": "_swapInterval",
          "type": "uint32"
        },
        {
          "internalType": "address",
          "name": "_owner",
          "type": "address"
        },
        {
          "components": [
            {
              "internalType": "address",
              "name": "operator",
              "type": "address"
            },
            {
              "internalType": "enum IDCAPermissionManager.Permission[]",
              "name": "permissions",
              "type": "uint8[]"
            }
          ],
          "internalType": "struct IDCAPermissionManager.PermissionSet[]",
          "name": "_permissions",
          "type": "tuple[]"
        },
        {
          "internalType": "bool",
          "name": "_transferFromCaller",
          "type": "bool"
        }
      ],
      "name": "depositProxy",
      "outputs": [
        {
          "internalType": "uint256",
          "name": "_positionId",
          "type": "uint256"
        }
      ],
      "stateMutability": "nonpayable",
      "type": "function"
    },
    {
      "inputs": [
        {
          "internalType": "address",
          "name": "_from",
          "type": "address"
        },
        {
          "internalType": "address",
          "name": "_to",
          "type": "address"
        },
        {
          "internalType": "uint256",
          "name": "_amount",
          "type": "uint256"
        },
        {
          "internalType": "uint32",
          "name": "_amountOfSwaps",
          "type": "uint32"
        },
        {
          "internalType": "uint32",
          "name": "_swapInterval",
          "type": "uint32"
        },
        {
          "internalType": "address",
          "name": "_owner",
          "type": "address"
        },
        {
          "components": [
            {
              "internalType": "address",
              "name": "operator",
              "type": "address"
            },
            {
              "internalType": "enum IDCAPermissionManager.Permission[]",
              "name": "permissions",
              "type": "uint8[]"
            }
          ],
          "internalType": "struct IDCAPermissionManager.PermissionSet[]",
          "name": "_permissions",
          "type": "tuple[]"
        }
      ],
      "name": "depositUsingProtocolToken",
      "outputs": [
        {
          "internalType": "uint256",
          "name": "_positionId",
          "type": "uint256"
        }
      ],
      "stateMutability": "payable",
      "type": "function"
    },
    {
      "inputs": [
        {
          "components": [
            {
              "internalType": "address",
              "name": "tokenA",
              "type": "address"
            },
            {
              "internalType": "address",
              "name": "tokenB",
              "type": "address"
            }
          ],
          "internalType": "struct Pair[]",
          "name": "_pairs",
          "type": "tuple[]"
        }
      ],
      "name": "getNextSwapInfo",
      "outputs": [
        {
          "components": [
            {
              "components": [
                {
                  "internalType": "address",
                  "name": "token",
                  "type": "address"
                },
                {
                  "internalType": "uint256",
                  "name": "reward",
                  "type": "uint256"
                },
                {
                  "internalType": "uint256",
                  "name": "toProvide",
                  "type": "uint256"
                },
                {
                  "internalType": "uint256",
                  "name": "platformFee",
                  "type": "uint256"
                }
              ],
              "internalType": "struct IDCAHubSwapHandler.TokenInSwap[]",
              "name": "tokens",
              "type": "tuple[]"
            },
            {
              "components": [
                {
                  "internalType": "address",
                  "name": "tokenA",
                  "type": "address"
                },
                {
                  "internalType": "address",
                  "name": "tokenB",
                  "type": "address"
                },
                {
                  "internalType": "uint256",
                  "name": "ratioAToB",
                  "type": "uint256"
                },
                {
                  "internalType": "uint256",
                  "name": "ratioBToA",
                  "type": "uint256"
                },
                {
                  "internalType": "bytes1",
                  "name": "intervalsInSwap",
                  "type": "bytes1"
                }
              ],
              "internalType": "struct IDCAHubSwapHandler.PairInSwap[]",
              "name": "pairs",
              "type": "tuple[]"
            }
          ],
          "internalType": "struct IDCAHubSwapHandler.SwapInfo",
          "name": "",
          "type": "tuple"
        }
      ],
      "stateMutability": "view",
      "type": "function"
    },
    {
      "inputs": [],
      "name": "governor",
      "outputs": [
        {
          "internalType": "address",
          "name": "",
          "type": "address"
        }
      ],
      "stateMutability": "view",
      "type": "function"
    },
    {
      "inputs": [],
      "name": "hub",
      "outputs": [
        {
          "internalType": "contract IDCAHub",
          "name": "",
          "type": "address"
        }
      ],
      "stateMutability": "view",
      "type": "function"
    },
    {
      "inputs": [
        {
          "internalType": "uint256",
          "name": "_positionId",
          "type": "uint256"
        },
        {
          "internalType": "uint256",
          "name": "_amount",
          "type": "uint256"
        },
        {
          "internalType": "uint32",
          "name": "_newSwaps",
          "type": "uint32"
        },
        {
          "internalType": "bool",
          "name": "_transferFromCaller",
          "type": "bool"
        }
      ],
      "name": "increasePositionProxy",
      "outputs": [],
      "stateMutability": "nonpayable",
      "type": "function"
    },
    {
      "inputs": [
        {
          "internalType": "uint256",
          "name": "_positionId",
          "type": "uint256"
        },
        {
          "internalType": "uint256",
          "name": "_amount",
          "type": "uint256"
        },
        {
          "internalType": "uint32",
          "name": "_newSwaps",
          "type": "uint32"
        }
      ],
      "name": "increasePositionUsingProtocolToken",
      "outputs": [],
      "stateMutability": "payable",
      "type": "function"
    },
    {
      "inputs": [
        {
          "internalType": "address",
          "name": "",
          "type": "address"
        }
      ],
      "name": "isDexSupported",
      "outputs": [
        {
          "internalType": "bool",
          "name": "",
          "type": "bool"
        }
      ],
      "stateMutability": "view",
      "type": "function"
    },
    {
      "inputs": [
        {
          "internalType": "address",
          "name": "_account",
          "type": "address"
        }
      ],
      "name": "isGovernor",
      "outputs": [
        {
          "internalType": "bool",
          "name": "_isGovernor",
          "type": "bool"
        }
      ],
      "stateMutability": "view",
      "type": "function"
    },
    {
      "inputs": [
        {
          "internalType": "address",
          "name": "_account",
          "type": "address"
        }
      ],
      "name": "isPendingGovernor",
      "outputs": [
        {
          "internalType": "bool",
          "name": "_isPendingGovernor",
          "type": "bool"
        }
      ],
      "stateMutability": "view",
      "type": "function"
    },
    {
      "inputs": [
        {
          "internalType": "bytes[]",
          "name": "data",
          "type": "bytes[]"
        }
      ],
      "name": "multicall",
      "outputs": [
        {
          "internalType": "bytes[]",
          "name": "results",
          "type": "bytes[]"
        }
      ],
      "stateMutability": "nonpayable",
      "type": "function"
    },
    {
      "inputs": [],
      "name": "pendingGovernor",
      "outputs": [
        {
          "internalType": "address",
          "name": "",
          "type": "address"
        }
      ],
      "stateMutability": "view",
      "type": "function"
    },
    {
      "inputs": [],
      "name": "permissionManager",
      "outputs": [
        {
          "internalType": "contract IDCAPermissionManager",
          "name": "",
          "type": "address"
        }
      ],
      "stateMutability": "view",
      "type": "function"
    },
    {
      "inputs": [
        {
          "components": [
            {
              "internalType": "address",
              "name": "operator",
              "type": "address"
            },
            {
              "internalType": "enum IDCAPermissionManager.Permission[]",
              "name": "permissions",
              "type": "uint8[]"
            }
          ],
          "internalType": "struct IDCAPermissionManager.PermissionSet[]",
          "name": "_permissions",
          "type": "tuple[]"
        },
        {
          "internalType": "uint256",
          "name": "_tokenId",
          "type": "uint256"
        },
        {
          "internalType": "uint256",
          "name": "_deadline",
          "type": "uint256"
        },
        {
          "internalType": "uint8",
          "name": "_v",
          "type": "uint8"
        },
        {
          "internalType": "bytes32",
          "name": "_r",
          "type": "bytes32"
        },
        {
          "internalType": "bytes32",
          "name": "_s",
          "type": "bytes32"
        }
      ],
      "name": "permissionPermitProxy",
      "outputs": [],
      "stateMutability": "nonpayable",
      "type": "function"
    },
    {
      "inputs": [
        {
          "internalType": "uint256",
          "name": "_positionId",
          "type": "uint256"
        },
        {
          "internalType": "uint256",
          "name": "_amount",
          "type": "uint256"
        },
        {
          "internalType": "uint32",
          "name": "_newSwaps",
          "type": "uint32"
        },
        {
          "internalType": "address",
          "name": "_recipient",
          "type": "address"
        }
      ],
      "name": "reducePositionProxy",
      "outputs": [],
      "stateMutability": "nonpayable",
      "type": "function"
    },
    {
      "inputs": [
        {
          "internalType": "uint256",
          "name": "_positionId",
          "type": "uint256"
        },
        {
          "internalType": "uint256",
          "name": "_amount",
          "type": "uint256"
        },
        {
          "internalType": "uint32",
          "name": "_newSwaps",
          "type": "uint32"
        },
        {
          "internalType": "address payable",
          "name": "_recipient",
          "type": "address"
        }
      ],
      "name": "reducePositionUsingProtocolToken",
      "outputs": [],
      "stateMutability": "nonpayable",
      "type": "function"
    },
    {
      "inputs": [
        {
          "components": [
            {
              "internalType": "address",
              "name": "tokenA",
              "type": "address"
            },
            {
              "internalType": "address",
              "name": "tokenB",
              "type": "address"
            }
          ],
          "internalType": "struct Pair[]",
          "name": "_pairs",
          "type": "tuple[]"
        }
      ],
      "name": "secondsUntilNextSwap",
      "outputs": [
        {
          "internalType": "uint256[]",
          "name": "",
          "type": "uint256[]"
        }
      ],
      "stateMutability": "view",
      "type": "function"
    },
    {
      "inputs": [
        {
          "internalType": "address",
          "name": "_to",
          "type": "address"
        },
        {
          "internalType": "address",
          "name": "_token",
          "type": "address"
        },
        {
          "internalType": "uint256",
          "name": "_amount",
          "type": "uint256"
        }
      ],
      "name": "sendDust",
      "outputs": [],
      "stateMutability": "nonpayable",
      "type": "function"
    },
    {
      "inputs": [
        {
          "internalType": "address",
          "name": "__pendingGovernor",
          "type": "address"
        }
      ],
      "name": "setPendingGovernor",
      "outputs": [],
      "stateMutability": "nonpayable",
      "type": "function"
    },
    {
      "inputs": [
        {
          "internalType": "address[]",
          "name": "_addresses",
          "type": "address[]"
        },
        {
          "internalType": "bool[]",
          "name": "_hasIssue",
          "type": "bool[]"
        }
      ],
      "name": "setTokensWithApprovalIssues",
      "outputs": [],
      "stateMutability": "nonpayable",
      "type": "function"
    },
    {
      "inputs": [
        {
          "internalType": "address[]",
          "name": "_tokens",
          "type": "address[]"
        },
        {
          "components": [
            {
              "internalType": "uint8",
              "name": "indexTokenA",
              "type": "uint8"
            },
            {
              "internalType": "uint8",
              "name": "indexTokenB",
              "type": "uint8"
            }
          ],
          "internalType": "struct IDCAHubSwapHandler.PairIndexes[]",
          "name": "_pairsToSwap",
          "type": "tuple[]"
        },
        {
          "internalType": "uint256[]",
          "name": "_minimumOutput",
          "type": "uint256[]"
        },
        {
          "internalType": "uint256[]",
          "name": "_maximumInput",
          "type": "uint256[]"
        },
        {
          "internalType": "address",
          "name": "_recipient",
          "type": "address"
        },
        {
          "internalType": "uint256",
          "name": "_deadline",
          "type": "uint256"
        }
      ],
      "name": "swapForCaller",
      "outputs": [
        {
          "components": [
            {
              "components": [
                {
                  "internalType": "address",
                  "name": "token",
                  "type": "address"
                },
                {
                  "internalType": "uint256",
                  "name": "reward",
                  "type": "uint256"
                },
                {
                  "internalType": "uint256",
                  "name": "toProvide",
                  "type": "uint256"
                },
                {
                  "internalType": "uint256",
                  "name": "platformFee",
                  "type": "uint256"
                }
              ],
              "internalType": "struct IDCAHubSwapHandler.TokenInSwap[]",
              "name": "tokens",
              "type": "tuple[]"
            },
            {
              "components": [
                {
                  "internalType": "address",
                  "name": "tokenA",
                  "type": "address"
                },
                {
                  "internalType": "address",
                  "name": "tokenB",
                  "type": "address"
                },
                {
                  "internalType": "uint256",
                  "name": "ratioAToB",
                  "type": "uint256"
                },
                {
                  "internalType": "uint256",
                  "name": "ratioBToA",
                  "type": "uint256"
                },
                {
                  "internalType": "bytes1",
                  "name": "intervalsInSwap",
                  "type": "bytes1"
                }
              ],
              "internalType": "struct IDCAHubSwapHandler.PairInSwap[]",
              "name": "pairs",
              "type": "tuple[]"
            }
          ],
          "internalType": "struct IDCAHubSwapHandler.SwapInfo",
          "name": "_swapInfo",
          "type": "tuple"
        }
      ],
      "stateMutability": "payable",
      "type": "function"
    },
    {
      "inputs": [
        {
          "internalType": "address",
          "name": "_dex",
          "type": "address"
        },
        {
          "internalType": "address[]",
          "name": "_tokens",
          "type": "address[]"
        },
        {
          "components": [
            {
              "internalType": "uint8",
              "name": "indexTokenA",
              "type": "uint8"
            },
            {
              "internalType": "uint8",
              "name": "indexTokenB",
              "type": "uint8"
            }
          ],
          "internalType": "struct IDCAHubSwapHandler.PairIndexes[]",
          "name": "_pairsToSwap",
          "type": "tuple[]"
        },
        {
          "internalType": "bytes[]",
          "name": "_callsToDex",
          "type": "bytes[]"
        },
        {
          "internalType": "bool",
          "name": "_doDexSwapsIncludeTransferToHub",
          "type": "bool"
        },
        {
          "internalType": "address",
          "name": "_leftoverRecipient",
          "type": "address"
        },
        {
          "internalType": "uint256",
          "name": "_deadline",
          "type": "uint256"
        }
      ],
      "name": "swapWithDex",
      "outputs": [
        {
          "components": [
            {
              "components": [
                {
                  "internalType": "address",
                  "name": "token",
                  "type": "address"
                },
                {
                  "internalType": "uint256",
                  "name": "reward",
                  "type": "uint256"
                },
                {
                  "internalType": "uint256",
                  "name": "toProvide",
                  "type": "uint256"
                },
                {
                  "internalType": "uint256",
                  "name": "platformFee",
                  "type": "uint256"
                }
              ],
              "internalType": "struct IDCAHubSwapHandler.TokenInSwap[]",
              "name": "tokens",
              "type": "tuple[]"
            },
            {
              "components": [
                {
                  "internalType": "address",
                  "name": "tokenA",
                  "type": "address"
                },
                {
                  "internalType": "address",
                  "name": "tokenB",
                  "type": "address"
                },
                {
                  "internalType": "uint256",
                  "name": "ratioAToB",
                  "type": "uint256"
                },
                {
                  "internalType": "uint256",
                  "name": "ratioBToA",
                  "type": "uint256"
                },
                {
                  "internalType": "bytes1",
                  "name": "intervalsInSwap",
                  "type": "bytes1"
                }
              ],
              "internalType": "struct IDCAHubSwapHandler.PairInSwap[]",
              "name": "pairs",
              "type": "tuple[]"
            }
          ],
          "internalType": "struct IDCAHubSwapHandler.SwapInfo",
          "name": "",
          "type": "tuple"
        }
      ],
      "stateMutability": "nonpayable",
      "type": "function"
    },
    {
      "inputs": [
        {
          "internalType": "address",
          "name": "_dex",
          "type": "address"
        },
        {
          "internalType": "address[]",
          "name": "_tokens",
          "type": "address[]"
        },
        {
          "components": [
            {
              "internalType": "uint8",
              "name": "indexTokenA",
              "type": "uint8"
            },
            {
              "internalType": "uint8",
              "name": "indexTokenB",
              "type": "uint8"
            }
          ],
          "internalType": "struct IDCAHubSwapHandler.PairIndexes[]",
          "name": "_pairsToSwap",
          "type": "tuple[]"
        },
        {
          "internalType": "bytes[]",
          "name": "_callsToDex",
          "type": "bytes[]"
        },
        {
          "internalType": "bool",
          "name": "_doDexSwapsIncludeTransferToHub",
          "type": "bool"
        },
        {
          "internalType": "address",
          "name": "_leftoverRecipient",
          "type": "address"
        },
        {
          "internalType": "uint256",
          "name": "_deadline",
          "type": "uint256"
        }
      ],
      "name": "swapWithDexAndShareLeftoverWithHub",
      "outputs": [
        {
          "components": [
            {
              "components": [
                {
                  "internalType": "address",
                  "name": "token",
                  "type": "address"
                },
                {
                  "internalType": "uint256",
                  "name": "reward",
                  "type": "uint256"
                },
                {
                  "internalType": "uint256",
                  "name": "toProvide",
                  "type": "uint256"
                },
                {
                  "internalType": "uint256",
                  "name": "platformFee",
                  "type": "uint256"
                }
              ],
              "internalType": "struct IDCAHubSwapHandler.TokenInSwap[]",
              "name": "tokens",
              "type": "tuple[]"
            },
            {
              "components": [
                {
                  "internalType": "address",
                  "name": "tokenA",
                  "type": "address"
                },
                {
                  "internalType": "address",
                  "name": "tokenB",
                  "type": "address"
                },
                {
                  "internalType": "uint256",
                  "name": "ratioAToB",
                  "type": "uint256"
                },
                {
                  "internalType": "uint256",
                  "name": "ratioBToA",
                  "type": "uint256"
                },
                {
                  "internalType": "bytes1",
                  "name": "intervalsInSwap",
                  "type": "bytes1"
                }
              ],
              "internalType": "struct IDCAHubSwapHandler.PairInSwap[]",
              "name": "pairs",
              "type": "tuple[]"
            }
          ],
          "internalType": "struct IDCAHubSwapHandler.SwapInfo",
          "name": "",
          "type": "tuple"
        }
      ],
      "stateMutability": "nonpayable",
      "type": "function"
    },
    {
      "inputs": [
        {
          "internalType": "uint256",
          "name": "_positionId",
          "type": "uint256"
        },
        {
          "internalType": "address",
          "name": "_recipientUnswapped",
          "type": "address"
        },
        {
          "internalType": "address",
          "name": "_recipientSwapped",
          "type": "address"
        }
      ],
      "name": "terminateProxy",
      "outputs": [
        {
          "internalType": "uint256",
          "name": "_unswapped",
          "type": "uint256"
        },
        {
          "internalType": "uint256",
          "name": "_swapped",
          "type": "uint256"
        }
      ],
      "stateMutability": "nonpayable",
      "type": "function"
    },
    {
      "inputs": [
        {
          "internalType": "uint256",
          "name": "_positionId",
          "type": "uint256"
        },
        {
          "internalType": "address payable",
          "name": "_recipientUnswapped",
          "type": "address"
        },
        {
          "internalType": "address",
          "name": "_recipientSwapped",
          "type": "address"
        }
      ],
      "name": "terminateUsingProtocolTokenAsFrom",
      "outputs": [
        {
          "internalType": "uint256",
          "name": "_unswapped",
          "type": "uint256"
        },
        {
          "internalType": "uint256",
          "name": "_swapped",
          "type": "uint256"
        }
      ],
      "stateMutability": "nonpayable",
      "type": "function"
    },
    {
      "inputs": [
        {
          "internalType": "uint256",
          "name": "_positionId",
          "type": "uint256"
        },
        {
          "internalType": "address",
          "name": "_recipientUnswapped",
          "type": "address"
        },
        {
          "internalType": "address payable",
          "name": "_recipientSwapped",
          "type": "address"
        }
      ],
      "name": "terminateUsingProtocolTokenAsTo",
      "outputs": [
        {
          "internalType": "uint256",
          "name": "_unswapped",
          "type": "uint256"
        },
        {
          "internalType": "uint256",
          "name": "_swapped",
          "type": "uint256"
        }
      ],
      "stateMutability": "nonpayable",
      "type": "function"
    },
    {
      "inputs": [
        {
          "internalType": "address",
          "name": "",
          "type": "address"
        }
      ],
      "name": "tokenHasApprovalIssue",
      "outputs": [
        {
          "internalType": "bool",
          "name": "",
          "type": "bool"
        }
      ],
      "stateMutability": "view",
      "type": "function"
    },
    {
      "inputs": [],
      "name": "wToken",
      "outputs": [
        {
          "internalType": "contract IWrappedProtocolToken",
          "name": "",
          "type": "address"
        }
      ],
      "stateMutability": "view",
      "type": "function"
    },
    {
      "inputs": [
        {
          "components": [
            {
              "internalType": "address",
              "name": "token",
              "type": "address"
            },
            {
              "internalType": "uint256[]",
              "name": "positionIds",
              "type": "uint256[]"
            }
          ],
          "internalType": "struct IDCAHubPositionHandler.PositionSet[]",
          "name": "_positions",
          "type": "tuple[]"
        },
        {
          "internalType": "address",
          "name": "_recipient",
          "type": "address"
        }
      ],
      "name": "withdrawSwappedManyProxy",
      "outputs": [
        {
          "internalType": "uint256[]",
          "name": "_withdrawn",
          "type": "uint256[]"
        }
      ],
      "stateMutability": "nonpayable",
      "type": "function"
    },
    {
      "inputs": [
        {
          "internalType": "uint256[]",
          "name": "_positionIds",
          "type": "uint256[]"
        },
        {
          "internalType": "address payable",
          "name": "_recipient",
          "type": "address"
        }
      ],
      "name": "withdrawSwappedManyUsingProtocolToken",
      "outputs": [
        {
          "internalType": "uint256",
          "name": "_swapped",
          "type": "uint256"
        }
      ],
      "stateMutability": "nonpayable",
      "type": "function"
    },
    {
      "inputs": [
        {
          "internalType": "uint256",
          "name": "_positionId",
          "type": "uint256"
        },
        {
          "internalType": "address",
          "name": "_recipient",
          "type": "address"
        }
      ],
      "name": "withdrawSwappedProxy",
      "outputs": [
        {
          "internalType": "uint256",
          "name": "_swapped",
          "type": "uint256"
        }
      ],
      "stateMutability": "nonpayable",
      "type": "function"
    },
    {
      "inputs": [
        {
          "internalType": "uint256",
          "name": "_positionId",
          "type": "uint256"
        },
        {
          "internalType": "address payable",
          "name": "_recipient",
          "type": "address"
        }
      ],
      "name": "withdrawSwappedUsingProtocolToken",
      "outputs": [
        {
          "internalType": "uint256",
          "name": "_swapped",
          "type": "uint256"
        }
      ],
      "stateMutability": "nonpayable",
      "type": "function"
    },
    {
      "stateMutability": "payable",
      "type": "receive"
    }
  ],
  "transactionHash": "0xf535c0e089c03e452ad90a008cac2f2339ead7386f94f687be53b7ce87c8bdb5",
  "args": [
    "0x2aCb69a8f2Ab6b496D482073eB70573A345a3272",
    "0x4200000000000000000000000000000000000006",
    "0x1a00e1E311009E56e3b0B9Ed6F86f5Ce128a1C01"
  ],
  "solcInputHash": "1a9bed6a79fb267c003f94bd7c75e605",
  "bytecode": "0x60e06040523480156200001157600080fd5b506040516200629c3803806200629c83398101604081905262000034916200021d565b82836001600160a01b031663cc7a20496040518163ffffffff1660e01b8152600401602060405180830381865afa15801562000074573d6000803e3d6000fd5b505050506040513d601f19601f820116820180604052508101906200009a919062000271565b8383806001600160a01b038116620000f85760405162461bcd60e51b815260206004820152601860248201527f476f7665726e61626c653a207a65726f20616464726573730000000000000000604482015260640160405180910390fd5b600080546001600160a01b0319166001600160a01b03928316179055841615806200012a57506001600160a01b038316155b806200013d57506001600160a01b038216155b156200015c5760405163d92e233d60e01b815260040160405180910390fd5b506001600160a01b03928316608052821660c0521660a0526200017e62000187565b505050620002bc565b60c05160805160405163095ea7b360e01b81526001600160a01b039182166004820152600019602482015291169063095ea7b3906044016020604051808303816000875af1158015620001de573d6000803e3d6000fd5b505050506040513d601f19601f8201168201806040525081019062000204919062000298565b50565b6001600160a01b03811681146200020457600080fd5b6000806000606084860312156200023357600080fd5b8351620002408162000207565b6020850151909350620002538162000207565b6040850151909250620002668162000207565b809150509250925092565b6000602082840312156200028457600080fd5b8151620002918162000207565b9392505050565b600060208284031215620002ab57600080fd5b815180151581146200029157600080fd5b60805160a05160c051615ebb620003e1600039600081816102b601528181610d4901528181610d910152818161170201528181611d1501528181611f1c01528181612340015281816125ae01526125fb0152600081816105fe015281816115df0152611e6b015260008181610397015281816107c0015281816108de015281816109a301528181610ba501528181610c4601528181610db301528181610f0601528181610fa80152818161102d01528181611221015281816112f1015281816117b2015281816118b30152818161196801528181611a1001528181611ac801528181611c4601528181611ce501528181611dc0015281816120f0015281816126eb01528181612b2601528181612b8501528181612bbe0152612d150152615ebb6000f3fe60806040526004361061021e5760003560e01c8063a2c346ec11610123578063d7752a0c116100ab578063f0261ac41161006f578063f0261ac4146106ef578063f235757f1461070f578063f50b098e1461072f578063fe62b6201461074f578063ff42fb251461076457600080fd5b8063d7752a0c14610640578063df08aed514610653578063e3056a3414610682578063e43581b8146106a0578063e581a3be146106cf57600080fd5b8063b715b93d116100f2578063b715b93d1461058c578063baa791a5146105ac578063c95cb387146105cc578063cc7a2049146105ec578063d6d2d0b71461062057600080fd5b8063a2c346ec146104ef578063a8bf39fd1461051c578063ac9650d81461052f578063b452cdc41461055c57600080fd5b806337be507e116101a6578063535af43011610175578063535af4301461043a5780635817c99e1461045a578063585cc6a51461047a57806382643589146104a25780638d203345146104c257600080fd5b806337be507e146103b95780633e9820f1146103e75780634782c82a14610407578063479e8fac1461041a57600080fd5b806313f6986d116101ed57806313f6986d1461030e57806318b5769c1461032557806328c756b0146103455780632db8c12914610365578063365a86fc1461038557600080fd5b8063065f957d1461022a5780630a12aa481461026f5780630babd864146102a45780630c340a24146102f057600080fd5b3661022557005b600080fd5b34801561023657600080fd5b5061025a6102453660046140d0565b60026020526000908152604090205460ff1681565b60405190151581526020015b60405180910390f35b34801561027b57600080fd5b5061028f61028a3660046140ed565b610784565b60408051928352602083019190915201610266565b3480156102b057600080fd5b506102d87f000000000000000000000000000000000000000000000000000000000000000081565b6040516001600160a01b039091168152602001610266565b3480156102fc57600080fd5b506000546001600160a01b03166102d8565b34801561031a57600080fd5b50610323610845565b005b34801561033157600080fd5b5061032361034036600461414f565b6108b8565b34801561035157600080fd5b506103236103603660046141e4565b610a11565b34801561037157600080fd5b5061032361038036600461424f565b610b36565b34801561039157600080fd5b506102d87f000000000000000000000000000000000000000000000000000000000000000081565b3480156103c557600080fd5b506103d96103d4366004614290565b610b70565b604051908152602001610266565b3480156103f357600080fd5b506103d9610402366004614290565b610c1b565b6103d96104153660046142c0565b610ccf565b34801561042657600080fd5b50610323610435366004614369565b610ec0565b34801561044657600080fd5b5061028f6104553660046140ed565b610f6a565b34801561046657600080fd5b506103236104753660046143e9565b611022565b34801561048657600080fd5b506102d873eeeeeeeeeeeeeeeeeeeeeeeeeeeeeeeeeeeeeeee81565b3480156104ae57600080fd5b506103236104bd3660046144c6565b61111f565b3480156104ce57600080fd5b506104e26104dd366004614538565b61119b565b604051610266919061468a565b3480156104fb57600080fd5b5061050f61050a366004614710565b61121a565b6040516102669190614781565b6104e261052a366004614794565b61124e565b34801561053b57600080fd5b5061054f61054a366004614871565b6114d4565b60405161026691906148fe565b34801561056857600080fd5b5061025a6105773660046140d0565b60036020526000908152604090205460ff1681565b34801561059857600080fd5b506103236105a7366004614971565b6115c8565b3480156105b857600080fd5b506104e26105c7366004614538565b611620565b3480156105d857600080fd5b506103d96105e73660046149ea565b61167d565b3480156105f857600080fd5b506102d87f000000000000000000000000000000000000000000000000000000000000000081565b34801561062c57600080fd5b5061032361063b366004614369565b611877565b61032361064e366004614a35565b611929565b34801561065f57600080fd5b5061025a61066e3660046140d0565b6001546001600160a01b0391821691161490565b34801561068e57600080fd5b506001546001600160a01b03166102d8565b3480156106ac57600080fd5b5061025a6106bb3660046140d0565b6000546001600160a01b0391821691161490565b3480156106db57600080fd5b506104e26106ea366004614710565b6119d3565b3480156106fb57600080fd5b5061028f61070a3660046140ed565b611a8c565b34801561071b57600080fd5b5061032361072a3660046140d0565b611b43565b34801561073b57600080fd5b5061050f61074a3660046149ea565b611b79565b34801561075b57600080fd5b50610323611cce565b34801561077057600080fd5b506103d961077f366004614a63565b611d82565b6000808460036107948282611e54565b6040516372ada4c560e01b8152600481018890526001600160a01b0387811660248301523060448301527f000000000000000000000000000000000000000000000000000000000000000016906372ada4c59060640160408051808303816000875af1158015610808573d6000803e3d6000fd5b505050506040513d601f19601f8201168201806040525081019061082c9190614b20565b909450925061083b8386611f06565b5050935093915050565b6001546001600160a01b031633146108ae5760405162461bcd60e51b815260206004820152602160248201527f476f7665726e61626c653a206f6e6c792070656e64696e6720676f7665726e6f6044820152603960f91b60648201526084015b60405180910390fd5b6108b6611fb6565b565b8360006108c58282611e54565b604051635b6fd01d60e01b8152600481018790526000907f00000000000000000000000000000000000000000000000000000000000000006001600160a01b031690635b6fd01d9060240161010060405180830381865afa15801561092e573d6000803e3d6000fd5b505050506040513d601f19601f820116820180604052508101906109529190614c2b565b5190508315610970576109706001600160a01b03821633308961205e565b61097a81876120cf565b604051636f6b805360e11b8152600481018890526024810187905263ffffffff861660448201527f00000000000000000000000000000000000000000000000000000000000000006001600160a01b03169063ded700a6906064015b600060405180830381600087803b1580156109f057600080fd5b505af1158015610a04573d6000803e3d6000fd5b5050505050505050505050565b6000546001600160a01b03163314610a3b5760405162461bcd60e51b81526004016108a590614ce6565b828114610a5b576040516305d5c8c960e51b815260040160405180910390fd5b60005b83811015610af257828282818110610a7857610a78614d1d565b9050602002016020810190610a8d9190614d33565b60026000878785818110610aa357610aa3614d1d565b9050602002016020810190610ab891906140d0565b6001600160a01b031681526020810191909152604001600020805460ff191691151591909117905580610aea81614d66565b915050610a5e565b507f03f0491d4ac1dcd8629e84f9f0d6af60220d6d3e6ce76dc9750959b580cf75e884848484604051610b289493929190614dbf565b60405180910390a150505050565b6000546001600160a01b03163314610b605760405162461bcd60e51b81526004016108a590614ce6565b610b6b838383612198565b505050565b6000826002610b7f8282611e54565b604051630176218960e41b8152600481018690526001600160a01b0385811660248301527f000000000000000000000000000000000000000000000000000000000000000016906317621890906044016020604051808303816000875af1158015610bee573d6000803e3d6000fd5b505050506040513d601f19601f82011682018060405250810190610c129190614e1d565b95945050505050565b6000826002610c2a8282611e54565b604051630176218960e41b8152600481018690523060248201527f00000000000000000000000000000000000000000000000000000000000000006001600160a01b0316906317621890906044016020604051808303816000875af1158015610c97573d6000803e3d6000fd5b505050506040513d601f19601f82011682018060405250810190610cbb9190614e1d565b9250610cc78385611f06565b505092915050565b60006001600160a01b0389811673eeeeeeeeeeeeeeeeeeeeeeeeeeeeeeeeeeeeeeee908114918a16141415610d17576040516333910aef60e11b815260040160405180910390fd5b88886001600160a01b03821673eeeeeeeeeeeeeeeeeeeeeeeeeeeeeeeeeeeeeeee1415610d6f57610d478961231e565b7f00000000000000000000000000000000000000000000000000000000000000009150610db1565b610d846001600160a01b038c1633308c61205e565b610d8e8b8a6120cf565b507f00000000000000000000000000000000000000000000000000000000000000005b7f00000000000000000000000000000000000000000000000000000000000000006001600160a01b0316636b29e1bd83838c8c8c8c610df08d8d6123ad565b6040518863ffffffff1660e01b8152600401610e129796959493929190614e60565b6020604051808303816000875af1158015610e31573d6000803e3d6000fd5b505050506040513d601f19601f82011682018060405250810190610e559190614e1d565b604080518281526001600160a01b038e81166020830152858116828401528d811660608301528416608082015290519194507f5d1f4d7c07147efcb2ae3ff0e9d58684918220c4cf2e5495a8fa5760658be83f919081900360a00190a1505098975050505050505050565b836001610ecd8282611e54565b60405163f1accf3960e01b8152600481018790526024810186905263ffffffff851660448201526001600160a01b0384811660648301527f0000000000000000000000000000000000000000000000000000000000000000169063f1accf3990608401600060405180830381600087803b158015610f4a57600080fd5b505af1158015610f5e573d6000803e3d6000fd5b50505050505050505050565b600080846003610f7a8282611e54565b6040516372ada4c560e01b8152600481018890526001600160a01b03878116602483015286811660448301527f000000000000000000000000000000000000000000000000000000000000000016906372ada4c59060640160408051808303816000875af1158015610ff0573d6000803e3d6000fd5b505050506040513d601f19601f820116820180604052508101906110149190614b20565b909890975095505050505050565b336001600160a01b037f0000000000000000000000000000000000000000000000000000000000000000161461106b576040516301bb2f1560e21b815260040160405180910390fd5b6001600160a01b03871630146110945760405163d219c5db60e01b815260040160405180910390fd5b60006110a282840184614fd0565b90506001815160028111156110b9576110b9614e36565b14156110d3576110ce87878360200151612552565b611115565b6002815160028111156110e8576110e8614e36565b14156110fd576110ce8787836020015161272a565b6040516225941760e31b815260040160405180910390fd5b5050505050505050565b6000546001600160a01b031633146111495760405162461bcd60e51b81526004016108a590614ce6565b6001600160a01b0382166111705760405163d92e233d60e01b815260040160405180910390fd5b6001600160a01b03919091166000908152600360205260409020805460ff1916911515919091179055565b604080518082019091526060808252602082015260006040518060a001604052808d6001600160a01b031681526020016000151581526020018615158152602001856001600160a01b031681526020018888906111f89190615076565b9052905061120a8b8b8b8b8588612c38565b9c9b505050505050505050505050565b60606112477f00000000000000000000000000000000000000000000000000000000000000008484612e22565b9392505050565b604080518082019091526060808252602082015281804211156112a95760405162461bcd60e51b8152602060048201526013602482015272151c985b9cd858dd1a5bdb881d1bdbc81bdb19606a1b60448201526064016108a5565b60008b6001600160401b038111156112c3576112c3614b44565b6040519080825280602002602001820160405280156112ec578160200160208202803683370190505b5090507f00000000000000000000000000000000000000000000000000000000000000006001600160a01b0316632a2a1a748e8e8e8e8a308860405180604001604052806001600281111561134357611343614e36565b815260408051808201825233808252346020928301908152835180840192909252518184015282518082038401815260609091018352928101929092525161138c9291016150e9565b6040516020818303038152906040526040518963ffffffff1660e01b81526004016113be989796959493929190615120565b6000604051808303816000875af11580156113dd573d6000803e3d6000fd5b505050506040513d6000823e601f3d908101601f1916820160405261140591908101906152b4565b925060005b8351518110156114c35760008460000151828151811061142c5761142c614d1d565b602002602001015190508a8a8381811061144857611448614d1d565b90506020020135816020015110156114735760405163861aeb1f60e01b815260040160405180910390fd5b88888381811061148557611485614d1d565b90506020020135816040015111156114b05760405163edddba2760e01b815260040160405180910390fd5b50806114bb81614d66565b91505061140a565b5050509a9950505050505050505050565b6060816001600160401b038111156114ee576114ee614b44565b60405190808252806020026020018201604052801561152157816020015b606081526020019060019003908161150c5790505b50905060005b828110156115c1576115913085858481811061154557611545614d1d565b905060200281019061155791906153dd565b8080601f016020809104026020016040519081016040528093929190818152602001838380828437600092019190915250612f0592505050565b8282815181106115a3576115a3614d1d565b602002602001018190525080806115b990614d66565b915050611527565b5092915050565b604051634faa388360e01b81526001600160a01b037f00000000000000000000000000000000000000000000000000000000000000001690634faa3883906109d6908a908a908a908a908a908a908a90600401615554565b604080518082019091526060808252602082015260006040518060a001604052808d6001600160a01b031681526020016001151581526020018615158152602001856001600160a01b031681526020018888906111f89190615076565b6000805b838110156116be576116ac85858381811061169e5761169e614d1d565b905060200201356002611e54565b806116b681614d66565b915050611681565b50604080516001808252818301909252600091816020015b6040805180820190915260008152606060208201528152602001906001900390816116d65790505090507f00000000000000000000000000000000000000000000000000000000000000008160008151811061173457611734614d1d565b6020026020010151600001906001600160a01b031690816001600160a01b031681525050848480806020026020016040519081016040528093929190818152602001838360200280828437600092018290525085518694509092501515905061179f5761179f614d1d565b60200260200101516020018190525060007f00000000000000000000000000000000000000000000000000000000000000006001600160a01b031663480b379683306040518363ffffffff1660e01b81526004016117fe929190615595565b6000604051808303816000875af115801561181d573d6000803e3d6000fd5b505050506040513d6000823e601f3d908101601f191682016040526118459190810190615625565b90508060008151811061185a5761185a614d1d565b6020026020010151925061186e8385611f06565b50509392505050565b8360016118848282611e54565b60405163f1accf3960e01b8152600481018790526024810186905263ffffffff851660448201523060648201527f00000000000000000000000000000000000000000000000000000000000000006001600160a01b03169063f1accf3990608401600060405180830381600087803b1580156118ff57600080fd5b505af1158015611913573d6000803e3d6000fd5b505050506119218584611f06565b505050505050565b8260006119368282611e54565b61193f8461231e565b604051636f6b805360e11b8152600481018690526024810185905263ffffffff841660448201527f00000000000000000000000000000000000000000000000000000000000000006001600160a01b03169063ded700a690606401600060405180830381600087803b1580156119b457600080fd5b505af11580156119c8573d6000803e3d6000fd5b505050505050505050565b60408051808201909152606080825260208201526000806119f48585612f2a565b60405163d2d95b2d60e01b815291935091506001600160a01b037f0000000000000000000000000000000000000000000000000000000000000000169063d2d95b2d90611a4790859085906004016156aa565b600060405180830381865afa158015611a64573d6000803e3d6000fd5b505050506040513d6000823e601f3d908101601f19168201604052610c1291908101906152b4565b600080846003611a9c8282611e54565b6040516372ada4c560e01b8152600481018890523060248201526001600160a01b0386811660448301527f000000000000000000000000000000000000000000000000000000000000000016906372ada4c59060640160408051808303816000875af1158015611b10573d6000803e3d6000fd5b505050506040513d601f19601f82011682018060405250810190611b349190614b20565b909450925061083b8487611f06565b6000546001600160a01b03163314611b6d5760405162461bcd60e51b81526004016108a590614ce6565b611b7681612f8b565b50565b606060005b83811015611c2e5760005b858583818110611b9b57611b9b614d1d565b9050602002810190611bad9190615740565b611bbb906020810190615760565b9050811015611c1b57611c09868684818110611bd957611bd9614d1d565b9050602002810190611beb9190615740565b611bf9906020810190615760565b8381811061169e5761169e614d1d565b80611c1381614d66565b915050611b89565b5080611c2681614d66565b915050611b7e565b506040516324059bcb60e11b81526001600160a01b037f0000000000000000000000000000000000000000000000000000000000000000169063480b379690611c7f908790879087906004016157a9565b6000604051808303816000875af1158015611c9e573d6000803e3d6000fd5b505050506040513d6000823e601f3d908101601f19168201604052611cc69190810190615625565b949350505050565b60405163095ea7b360e01b81526001600160a01b037f00000000000000000000000000000000000000000000000000000000000000008116600483015260001960248301527f0000000000000000000000000000000000000000000000000000000000000000169063095ea7b3906044016020604051808303816000875af1158015611d5e573d6000803e3d6000fd5b505050506040513d601f19601f82011682018060405250810190611b76919061586b565b60008115611d9f57611d9f6001600160a01b038b1633308b61205e565b611da98a896120cf565b604051636b29e1bd60e01b81526001600160a01b037f00000000000000000000000000000000000000000000000000000000000000001690636b29e1bd90611e03908d908d908d908d908d908d908d908d90600401615888565b6020604051808303816000875af1158015611e22573d6000803e3d6000fd5b505050506040513d601f19601f82011682018060405250810190611e469190614e1d565b9a9950505050505050505050565b60405163823abfd960e01b81526001600160a01b037f0000000000000000000000000000000000000000000000000000000000000000169063823abfd990611ea4908590339086906004016158d8565b602060405180830381865afa158015611ec1573d6000803e3d6000fd5b505050506040513d601f19601f82011682018060405250810190611ee5919061586b565b611f0257604051635c427cd960e01b815260040160405180910390fd5b5050565b604051632e1a7d4d60e01b8152600481018390527f00000000000000000000000000000000000000000000000000000000000000006001600160a01b031690632e1a7d4d90602401600060405180830381600087803b158015611f6857600080fd5b505af1158015611f7c573d6000803e3d6000fd5b50506040516001600160a01b038416925084156108fc02915084906000818181858888f19350505050158015610b6b573d6000803e3d6000fd5b6001546001600160a01b031661200e5760405162461bcd60e51b815260206004820152601f60248201527f476f7665726e61626c653a206e6f2070656e64696e6720676f7665726e6f720060448201526064016108a5565b60018054600080546001600160a01b03199081166001600160a01b0384161782559091169091556040517fdc57ca23c46d823853915ed5a090ca0ee9db5eb6a46f5c58e1c9158de861fd769190a1565b6040516001600160a01b03808516602483015283166044820152606481018290526120c99085906323b872dd60e01b906084015b60408051601f198184030181529190526020810180516001600160e01b03166001600160e01b031990931692909217909152613035565b50505050565b6001600160a01b03821660008181526002602052604090205463095ea7b3907f00000000000000000000000000000000000000000000000000000000000000009060ff16612127576121228460016158fb565b612129565b835b6040516001600160e01b031960e085901b1681526001600160a01b03909216600483015260248201526044016020604051808303816000875af1158015612174573d6000803e3d6000fd5b505050506040513d601f19601f82011682018060405250810190610b6b919061586b565b6001600160a01b0383166121ee5760405162461bcd60e51b815260206004820152601d60248201527f436f6c6c65637461626c65447573743a207a65726f206164647265737300000060448201526064016108a5565b6121f9600483613107565b156122595760405162461bcd60e51b815260206004820152602a60248201527f436f6c6c65637461626c65447573743a20746f6b656e2069732070617274206f60448201526919881c1c9bdd1bd8dbdb60b21b60648201526084016108a5565b6001600160a01b03821673eeeeeeeeeeeeeeeeeeeeeeeeeeeeeeeeeeeeeeee14156122ba576040516001600160a01b0384169082156108fc029083906000818181858888f193505050501580156122b4573d6000803e3d6000fd5b506122ce565b6122ce6001600160a01b0383168483613129565b604080516001600160a01b038086168252841660208201529081018290527f1e34c1aee8e83c2dcc14c21bb4bfeea7f46c0c998cb797ac7cc4d7a18f5c656b9060600160405180910390a1505050565b80341461233e576040516397d71f5d60e01b815260040160405180910390fd5b7f00000000000000000000000000000000000000000000000000000000000000006001600160a01b031663d0e30db0826040518263ffffffff1660e01b81526004016000604051808303818588803b15801561239957600080fd5b505af1158015611921573d6000803e3d6000fd5b60606123ba8260016158fb565b6001600160401b038111156123d1576123d1614b44565b60405190808252806020026020018201604052801561241757816020015b6040805180820190915260008152606060208201528152602001906001900390816123ef5790505b50905060005b828110156124825783838281811061243757612437614d1d565b90506020028101906124499190615740565b61245290615913565b82828151811061246457612464614d1d565b6020026020010181905250808061247a90614d66565b91505061241d565b5060408051600480825260a082019092526000916020820160808036833701905050905060005b6004811015612517578060038111156124c4576124c4614e36565b8282815181106124d6576124d6614d1d565b602002602001019060038111156124ef576124ef614e36565b9081600381111561250257612502614e36565b9052508061250f81614d66565b9150506124a9565b506040805180820190915230815260208101829052825183908590811061254057612540614d1d565b60200260200101819052505092915050565b60008180602001905181019061256891906159c8565b905060005b8381101561272357600085858381811061258957612589614d1d565b90506080020180360381019061259f9190615a02565b604081015190915015612710577f00000000000000000000000000000000000000000000000000000000000000006001600160a01b031681600001516001600160a01b03161480156125f45750602083015115155b156126d0577f00000000000000000000000000000000000000000000000000000000000000006001600160a01b031663d0e30db082604001516040518263ffffffff1660e01b81526004016000604051808303818588803b15801561265857600080fd5b505af115801561266c573d6000803e3d6000fd5b50505050508060400151836020015111156126d05782600001516001600160a01b03166108fc826040015185602001516126a69190615a53565b6040518115909202916000818181858888f193505050501580156126ce573d6000803e3d6000fd5b505b825160408201518251612710926001600160a01b03909116917f00000000000000000000000000000000000000000000000000000000000000009061205e565b508061271b81614d66565b91505061256d565b5050505050565b6000818060200190518101906127409190615a6a565b905060005b838110156129e257600085858381811061276157612761614d1d565b9050608002018036038101906127779190615a02565b6020810151909150156129cf5780516001600160a01b03811660009081526002602052604090205460ff168061283f57845160208401516001600160a01b0384169163095ea7b3916127ca9060016158fb565b6040516001600160e01b031960e085901b1681526001600160a01b03909216600483015260248201526044016020604051808303816000875af1158015612815573d6000803e3d6000fd5b505050506040513d601f19601f82011682018060405250810190612839919061586b565b506129cc565b8451604051636eb1769f60e11b81523060048201526001600160a01b03918216602482015260009184169063dd62ed3e90604401602060405180830381865afa158015612890573d6000803e3d6000fd5b505050506040513d601f19601f820116820180604052508101906128b49190614e1d565b905083602001518110156129ca57801561294057855160405163095ea7b360e01b81526001600160a01b039182166004820152600060248201529084169063095ea7b3906044016020604051808303816000875af115801561291a573d6000803e3d6000fd5b505050506040513d601f19601f8201168201806040525081019061293e919061586b565b505b8551602085015160405163095ea7b360e01b81526001600160a01b0386169263095ea7b392612985926004016001600160a01b03929092168252602082015260400190565b6020604051808303816000875af11580156129a4573d6000803e3d6000fd5b505050506040513d601f19601f820116820180604052508101906129c8919061586b565b505b505b50505b50806129da81614d66565b915050612745565b5060005b816080015151811015612a3057612a1e826000015183608001518381518110612a1157612a11614d1d565b6020026020010151613159565b80612a2881614d66565b9150506129e6565b5060005b83811015612723576000858583818110612a5057612a50614d1d565b612a6692602060809092020190810191506140d0565b6040516370a0823160e01b81523060048201529091506000906001600160a01b038316906370a0823190602401602060405180830381865afa158015612ab0573d6000803e3d6000fd5b505050506040513d601f19601f82011682018060405250810190612ad49190614e1d565b90508015612c23576000878785818110612af057612af0614d1d565b9050608002016040013590506000811115612c0757846040015115612b625760008560200151612b24578560600151612b46565b7f00000000000000000000000000000000000000000000000000000000000000005b9050612b5c6001600160a01b0385168285613129565b50612c21565b846020015180612b7157508082145b15612baf57612baa6001600160a01b0384167f000000000000000000000000000000000000000000000000000000000000000084613129565b612c21565b612be36001600160a01b0384167f000000000000000000000000000000000000000000000000000000000000000083613129565b6060850151612baa90612bf68385615a53565b6001600160a01b0386169190613129565b6060850151612c21906001600160a01b0385169084613129565b505b50508080612c3090614d66565b915050612a34565b60408051808201909152606080825260208201528180421115612c935760405162461bcd60e51b8152602060048201526013602482015272151c985b9cd858dd1a5bdb881d1bdbc81bdb19606a1b60448201526064016108a5565b83516001600160a01b031660009081526003602052604090205460ff16612ccd57604051632974f28d60e21b815260040160405180910390fd5b6000876001600160401b03811115612ce757612ce7614b44565b604051908082528060200260200182016040528015612d10578160200160208202803683370190505b5090507f00000000000000000000000000000000000000000000000000000000000000006001600160a01b0316632a2a1a748a8a8a8a3030886040518060400160405280600280811115612d6657612d66614e36565b81526020018f604051602001612d7c9190615bcd565b60408051601f19818403018152918152915251612d9c91906020016150e9565b6040516020818303038152906040526040518963ffffffff1660e01b8152600401612dce989796959493929190615120565b6000604051808303816000875af1158015612ded573d6000803e3d6000fd5b505050506040513d6000823e601f3d908101601f19168201604052612e1591908101906152b4565b9998505050505050505050565b6060816001600160401b03811115612e3c57612e3c614b44565b604051908082528060200260200182016040528015612e65578160200160208202803683370190505b50905060005b82811015612efd57612ece85858584818110612e8957612e89614d1d565b612e9f92602060409092020190810191506140d0565b868685818110612eb157612eb1614d1d565b9050604002016020016020810190612ec991906140d0565b6131d9565b828281518110612ee057612ee0614d1d565b602090810291909101015280612ef581614d66565b915050612e6b565b509392505050565b60606112478383604051806060016040528060278152602001615e5f60279139613424565b606080612f7f84846000604051908082528060200260200182016040528015612f7957816020015b6040805180820190915260008082526020820152815260200190600190039081612f525790505b506134f8565b50909590945092505050565b6001600160a01b038116612fe15760405162461bcd60e51b815260206004820152601860248201527f476f7665726e61626c653a207a65726f2061646472657373000000000000000060448201526064016108a5565b600180546001600160a01b0319166001600160a01b0383169081179091556040519081527f56bddfa0cee9697cebddf9acd7f23dc6583663b05e007b877056d05017994def9060200160405180910390a150565b600061308a826040518060400160405280602081526020017f5361666545524332303a206c6f772d6c6576656c2063616c6c206661696c6564815250856001600160a01b031661357d9092919063ffffffff16565b805190915015610b6b57808060200190518101906130a8919061586b565b610b6b5760405162461bcd60e51b815260206004820152602a60248201527f5361666545524332303a204552433230206f7065726174696f6e20646964206e6044820152691bdd081cdd58d8d9595960b21b60648201526084016108a5565b6001600160a01b03811660009081526001830160205260408120541515611247565b6040516001600160a01b038316602482015260448101829052610b6b90849063a9059cbb60e01b90606401612092565b6000826001600160a01b03166000836040516131759190615c63565b60006040518083038185875af1925050503d80600081146131b2576040519150601f19603f3d011682016040523d82523d6000602084013e6131b7565b606091505b5050905080610b6b5760405163254a88ad60e01b815260040160405180910390fd5b60008060006131e8858561358c565b60405163582cf84b60e01b81526001600160a01b038084166004830152808316602483015292945090925060009188169063582cf84b90604401602060405180830381865afa15801561323f573d6000803e3d6000fd5b505050506040513d601f19601f820116820180604052508101906132639190615c75565b9050600160f81b60005b6001600160f81b03198083169084161080159061329357506001600160f81b0319821615155b1561341457816001600160f81b0319168284166001600160f81b03191614156133fe576040516304045d4760e51b81526001600160a01b03898116600483015288811660248301526001600160f81b031984166044830152600091908b169063808ba8e090606401608060405180830381865afa158015613318573d6000803e3d6000fd5b505050506040513d601f19601f8201168201806040525081019061333c9190615ca7565b90506000613349846135bd565b905060008182846040015161335e9190615d0a565b613369906001615d3b565b6133739190615d63565b63ffffffff169050600083602001516001600160e01b031611806133a45750600083606001516001600160e01b0316115b156133d9574281116133c0578398505050505050505050611247565b6133ca4282615a53565b98505050505050505050611247565b428111156133fa5783156133ed57836133f7565b6133f74282615a53565b93505b5050505b6001826001600160f81b031916901b915061326d565b5060001998975050505050505050565b6060833b6134835760405162461bcd60e51b815260206004820152602660248201527f416464726573733a2064656c65676174652063616c6c20746f206e6f6e2d636f6044820152651b9d1c9858dd60d21b60648201526084016108a5565b600080856001600160a01b03168560405161349e9190615c63565b600060405180830381855af49150503d80600081146134d9576040519150601f19603f3d011682016040523d82523d6000602084013e6134de565b606091505b50915091506134ee8282866136d1565b9695505050505050565b60608060606135598686808060200260200160405190810160405280939291908181526020016000905b8282101561354e5761353f60408302860136819003810190615d8f565b81526020019060010190613522565b50505050508561370a565b9250613566868685613bed565b91506135728484613e7e565b905093509350939050565b6060611cc68484600085613f83565b600080826001600160a01b0316846001600160a01b0316106135af5782846135b2565b83835b909590945092505050565b6000600160f81b6001600160f81b0319831614156135dd5750603c919050565b600160f91b6001600160f81b0319831614156135fc575061012c919050565b600160fa1b6001600160f81b03198316141561361b5750610384919050565b600160fb1b6001600160f81b03198316141561363a5750610708919050565b600160fc1b6001600160f81b0319831614156136595750610e10919050565b600160fd1b6001600160f81b0319831614156136785750613840919050565b600160fe1b6001600160f81b031983161415613698575062015180919050565b600160ff1b6001600160f81b0319831614156136b8575062093a80919050565b60405163bf3cad0b60e01b815260040160405180910390fd5b606083156136e0575081611247565b8251156136f05782518084602001fd5b8160405162461bcd60e51b81526004016108a59190615dd0565b606060008083518551600261371f9190615de3565b61372991906158fb565b6001600160401b0381111561374057613740614b44565b604051908082528060200260200182016040528015613769578160200160208202803683370190505b50905060005b85518110156139435760008060005b858110801561379457508280156137925750815b155b1561386957821580156137ee57508884815181106137b4576137b4614d1d565b6020026020010151600001516001600160a01b03168582815181106137db576137db614d1d565b60200260200101516001600160a01b0316145b156137f857600192505b8115801561384d575088848151811061381357613813614d1d565b6020026020010151602001516001600160a01b031685828151811061383a5761383a614d1d565b60200260200101516001600160a01b0316145b1561385757600191505b8061386181614d66565b91505061377e565b50816138cc5787838151811061388157613881614d1d565b60200260200101516000015184868061389990614d66565b9750815181106138ab576138ab614d1d565b60200260200101906001600160a01b031690816001600160a01b0316815250505b8061392e578783815181106138e3576138e3614d1d565b6020026020010151602001518486806138fb90614d66565b97508151811061390d5761390d614d1d565b60200260200101906001600160a01b031690816001600160a01b0316815250505b5050808061393b90614d66565b91505061376f565b5060005b8451811015613a43576000805b8481108015613961575081155b156139cd5786838151811061397857613978614d1d565b6020026020010151600001516001600160a01b031684828151811061399f5761399f614d1d565b60200260200101516001600160a01b031614156139bb57600191505b806139c581614d66565b915050613954565b5080613a30578582815181106139e5576139e5614d1d565b6020026020010151600001518385806139fd90614d66565b965081518110613a0f57613a0f614d1d565b60200260200101906001600160a01b031690816001600160a01b0316815250505b5080613a3b81614d66565b915050613947565b50816001600160401b03811115613a5c57613a5c614b44565b604051908082528060200260200182016040528015613a85578160200160208202803683370190505b50925060005b82811015613be4576000828281518110613aa757613aa7614d1d565b6020026020010151905060005b816001600160a01b0316868281518110613ad057613ad0614d1d565b60200260200101516001600160a01b0316108015613b1a575060006001600160a01b0316868281518110613b0657613b06614d1d565b60200260200101516001600160a01b031614155b15613b315780613b2981614d66565b915050613ab4565b825b81811115613b9b5786613b47600183615a53565b81518110613b5757613b57614d1d565b6020026020010151878281518110613b7157613b71614d1d565b6001600160a01b039092166020928302919091019091015280613b9381615e02565b915050613b33565b5081868281518110613baf57613baf614d1d565b60200260200101906001600160a01b031690816001600160a01b03168152505050508080613bdc90614d66565b915050613a8b565b50505092915050565b6060826001600160401b03811115613c0757613c07614b44565b604051908082528060200260200182016040528015613c4c57816020015b6040805180820190915260008082526020820152815260200190600190039081613c255790505b5090506000805b83518160ff16101561186e576000613c6c826001615e19565b90505b84518160ff161015613e6b5760005b86811015613e5857878782818110613c9857613c98614d1d565b613cae92602060409092020190810191506140d0565b6001600160a01b0316868460ff1681518110613ccc57613ccc614d1d565b60200260200101516001600160a01b0316148015613d405750878782818110613cf757613cf7614d1d565b9050604002016020016020810190613d0f91906140d0565b6001600160a01b0316868360ff1681518110613d2d57613d2d614d1d565b60200260200101516001600160a01b0316145b80613e005750878782818110613d5857613d58614d1d565b9050604002016020016020810190613d7091906140d0565b6001600160a01b0316868460ff1681518110613d8e57613d8e614d1d565b60200260200101516001600160a01b0316148015613e005750878782818110613db957613db9614d1d565b613dcf92602060409092020190810191506140d0565b6001600160a01b0316868360ff1681518110613ded57613ded614d1d565b60200260200101516001600160a01b0316145b15613e46576040805180820190915260ff8085168252831660208201528585613e2881614d66565b965081518110613e3a57613e3a614d1d565b60200260200101819052505b80613e5081614d66565b915050613c7e565b5080613e6381615e3e565b915050613c6f565b5080613e7681615e3e565b915050613c53565b606081516001600160401b03811115613e9957613e99614b44565b604051908082528060200260200182016040528015613ec2578160200160208202803683370190505b50905060005b83518110156115c15760005b848281518110613ee657613ee6614d1d565b6020026020010151600001516001600160a01b0316848281518110613f0d57613f0d614d1d565b60200260200101516001600160a01b031614613f355780613f2d81614d66565b915050613ed4565b848281518110613f4757613f47614d1d565b602002602001015160200151838281518110613f6557613f65614d1d565b60209081029190910101525080613f7b81614d66565b915050613ec8565b606082471015613fe45760405162461bcd60e51b815260206004820152602660248201527f416464726573733a20696e73756666696369656e742062616c616e636520666f6044820152651c8818d85b1b60d21b60648201526084016108a5565b843b6140325760405162461bcd60e51b815260206004820152601d60248201527f416464726573733a2063616c6c20746f206e6f6e2d636f6e747261637400000060448201526064016108a5565b600080866001600160a01b0316858760405161404e9190615c63565b60006040518083038185875af1925050503d806000811461408b576040519150601f19603f3d011682016040523d82523d6000602084013e614090565b606091505b50915091506140a08282866136d1565b979650505050505050565b6001600160a01b0381168114611b7657600080fd5b80356140cb816140ab565b919050565b6000602082840312156140e257600080fd5b8135611247816140ab565b60008060006060848603121561410257600080fd5b833592506020840135614114816140ab565b91506040840135614124816140ab565b809150509250925092565b63ffffffff81168114611b7657600080fd5b8015158114611b7657600080fd5b6000806000806080858703121561416557600080fd5b8435935060208501359250604085013561417e8161412f565b9150606085013561418e81614141565b939692955090935050565b60008083601f8401126141ab57600080fd5b5081356001600160401b038111156141c257600080fd5b6020830191508360208260051b85010111156141dd57600080fd5b9250929050565b600080600080604085870312156141fa57600080fd5b84356001600160401b038082111561421157600080fd5b61421d88838901614199565b9096509450602087013591508082111561423657600080fd5b5061424387828801614199565b95989497509550505050565b60008060006060848603121561426457600080fd5b833561426f816140ab565b9250602084013561427f816140ab565b929592945050506040919091013590565b600080604083850312156142a357600080fd5b8235915060208301356142b5816140ab565b809150509250929050565b60008060008060008060008060e0898b0312156142dc57600080fd5b88356142e7816140ab565b975060208901356142f7816140ab565b965060408901359550606089013561430e8161412f565b9450608089013561431e8161412f565b935060a089013561432e816140ab565b925060c08901356001600160401b0381111561434957600080fd5b6143558b828c01614199565b999c989b5096995094979396929594505050565b6000806000806080858703121561437f57600080fd5b843593506020850135925060408501356143988161412f565b9150606085013561418e816140ab565b60008083601f8401126143ba57600080fd5b5081356001600160401b038111156143d157600080fd5b6020830191508360208285010111156141dd57600080fd5b60008060008060008060006080888a03121561440457600080fd5b873561440f816140ab565b965060208801356001600160401b038082111561442b57600080fd5b818a0191508a601f83011261443f57600080fd5b81358181111561444e57600080fd5b8b60208260071b850101111561446357600080fd5b6020830198508097505060408a013591508082111561448157600080fd5b61448d8b838c01614199565b909650945060608a01359150808211156144a657600080fd5b506144b38a828b016143a8565b989b979a50959850939692959293505050565b600080604083850312156144d957600080fd5b82356144e4816140ab565b915060208301356142b581614141565b60008083601f84011261450657600080fd5b5081356001600160401b0381111561451d57600080fd5b6020830191508360208260061b85010111156141dd57600080fd5b60008060008060008060008060008060e08b8d03121561455757600080fd5b8a35614562816140ab565b995060208b01356001600160401b038082111561457e57600080fd5b61458a8e838f01614199565b909b50995060408d01359150808211156145a357600080fd5b6145af8e838f016144f4565b909950975060608d01359150808211156145c857600080fd5b506145d58d828e01614199565b90965094505060808b01356145e981614141565b92506145f760a08c016140c0565b915060c08b013590509295989b9194979a5092959850565b600081518084526020808501945080840160005b8381101561467f57815180516001600160a01b03908116895284820151168489015260408082015190890152606080820151908901526080908101516001600160f81b0319169088015260a09096019590820190600101614623565b509495945050505050565b600060208083526060808401855160408085880152828251808552608094508489019150868401935060005b818110156146f457845180516001600160a01b03168452888101518985015284810151858501528701518784015293870193918501916001016146b6565b505094880151878603601f19018289015294612e15818761460f565b6000806020838503121561472357600080fd5b82356001600160401b0381111561473957600080fd5b614745858286016144f4565b90969095509350505050565b600081518084526020808501945080840160005b8381101561467f57815187529582019590820190600101614765565b6020815260006112476020830184614751565b60008060008060008060008060008060c08b8d0312156147b357600080fd5b8a356001600160401b03808211156147ca57600080fd5b6147d68e838f01614199565b909c509a5060208d01359150808211156147ef57600080fd5b6147fb8e838f016144f4565b909a50985060408d013591508082111561481457600080fd5b6148208e838f01614199565b909850965060608d013591508082111561483957600080fd5b506148468d828e01614199565b9095509350614859905060808c016140c0565b915060a08b013590509295989b9194979a5092959850565b6000806020838503121561488457600080fd5b82356001600160401b0381111561489a57600080fd5b61474585828601614199565b60005b838110156148c15781810151838201526020016148a9565b838111156120c95750506000910152565b600081518084526148ea8160208601602086016148a6565b601f01601f19169290920160200192915050565b6000602080830181845280855180835260408601915060408160051b870101925083870160005b8281101561495357603f198886030184526149418583516148d2565b94509285019290850190600101614925565b5092979650505050505050565b803560ff811681146140cb57600080fd5b600080600080600080600060c0888a03121561498c57600080fd5b87356001600160401b038111156149a257600080fd5b6149ae8a828b01614199565b90985096505060208801359450604088013593506149ce60608901614960565b92506080880135915060a0880135905092959891949750929550565b6000806000604084860312156149ff57600080fd5b83356001600160401b03811115614a1557600080fd5b614a2186828701614199565b9094509250506020840135614124816140ab565b600080600060608486031215614a4a57600080fd5b833592506020840135915060408401356141248161412f565b60008060008060008060008060006101008a8c031215614a8257600080fd5b8935614a8d816140ab565b985060208a0135614a9d816140ab565b975060408a0135965060608a0135614ab48161412f565b955060808a0135614ac48161412f565b945060a08a0135614ad4816140ab565b935060c08a01356001600160401b03811115614aef57600080fd5b614afb8c828d01614199565b90945092505060e08a0135614b0f81614141565b809150509295985092959850929598565b60008060408385031215614b3357600080fd5b505080516020909101519092909150565b634e487b7160e01b600052604160045260246000fd5b604080519081016001600160401b0381118282101715614b7c57614b7c614b44565b60405290565b60405160a081016001600160401b0381118282101715614b7c57614b7c614b44565b604051608081016001600160401b0381118282101715614b7c57614b7c614b44565b604051601f8201601f191681016001600160401b0381118282101715614bee57614bee614b44565b604052919050565b80516140cb816140ab565b80516140cb8161412f565b80516effffffffffffffffffffffffffffff811681146140cb57600080fd5b6000610100808385031215614c3f57600080fd5b604051908101906001600160401b0382118183101715614c6157614c61614b44565b8160405283519150614c72826140ab565b818152614c8160208501614bf6565b6020820152614c9260408501614c01565b6040820152614ca360608501614c01565b606082015260808401516080820152614cbe60a08501614c01565b60a082015260c084015160c0820152614cd960e08501614c0c565b60e0820152949350505050565b60208082526019908201527f476f7665726e61626c653a206f6e6c7920676f7665726e6f7200000000000000604082015260600190565b634e487b7160e01b600052603260045260246000fd5b600060208284031215614d4557600080fd5b813561124781614141565b634e487b7160e01b600052601160045260246000fd5b6000600019821415614d7a57614d7a614d50565b5060010190565b8183526000602080850194508260005b8581101561467f578135614da4816140ab565b6001600160a01b031687529582019590820190600101614d91565b604081526000614dd3604083018688614d81565b8281036020848101919091528482528591810160005b86811015614e10578335614dfc81614141565b151582529282019290820190600101614de9565b5098975050505050505050565b600060208284031215614e2f57600080fd5b5051919050565b634e487b7160e01b600052602160045260246000fd5b60048110614e5c57614e5c614e36565b9052565b600060e0820160018060a01b03808b1684526020818b168186015260408a81870152606063ffffffff808c1682890152808b1660808901525083891660a088015260e060c088015284885180875261010096508689019150868160051b8a01019650848a016000805b83811015614f3a578b8a0360ff19018552825180518a168b52880151888b018890528051888c01819052908901908390888d01905b80831015614f2557614f11828551614e4c565b928b019260019290920191908b0190614efe565b509b5050509387019391870191600101614ec9565b5050505050505050508091505098975050505050505050565b60006001600160401b03821115614f6c57614f6c614b44565b50601f01601f191660200190565b600082601f830112614f8b57600080fd5b8135614f9e614f9982614f53565b614bc6565b818152846020838601011115614fb357600080fd5b816020850160208301376000918101602001919091529392505050565b600060208284031215614fe257600080fd5b81356001600160401b0380821115614ff957600080fd5b908301906040828603121561500d57600080fd5b615015614b5a565b82356003811061502457600080fd5b815260208301358281111561503857600080fd5b61504487828601614f7a565b60208301525095945050505050565b60006001600160401b0382111561506c5761506c614b44565b5060051b60200190565b6000615084614f9984615053565b80848252602080830192508560051b8501368111156150a257600080fd5b855b818110156150dd5780356001600160401b038111156150c35760008081fd5b6150cf36828a01614f7a565b8652509382019382016150a4565b50919695505050505050565b60208152600082516003811061510157615101614e36565b806020840152506020830151604080840152611cc660608401826148d2565b60c08152600061513460c083018a8c614d81565b8281036020848101919091528882528991810160005b8a8110156151855760ff8061515e86614960565b1683528061516d858701614960565b1683850152506040938401939091019060010161514a565b506001600160a01b03891660408601526001600160a01b038816606086015284810360808601526151b68188614751565b9250505082810360a08401526151cc81856148d2565b9b9a5050505050505050505050565b80516001600160f81b0319811681146140cb57600080fd5b600082601f83011261520457600080fd5b81516020615214614f9983615053565b82815260a0928302850182019282820191908785111561523357600080fd5b8387015b858110156152a75781818a03121561524f5760008081fd5b615257614b82565b8151615262816140ab565b815281860151615271816140ab565b81870152604082810151908201526060808301519082015260806152968184016151db565b908201528452928401928101615237565b5090979650505050505050565b600060208083850312156152c757600080fd5b82516001600160401b03808211156152de57600080fd5b818501915060408083880312156152f457600080fd5b6152fc614b5a565b83518381111561530b57600080fd5b8401601f8101891361531c57600080fd5b805161532a614f9982615053565b81815260079190911b8201870190878101908b83111561534957600080fd5b928801925b828410156153a7576080848d0312156153675760008081fd5b61536f614ba4565b845161537a816140ab565b8152848a01518a82015286850151878201526060808601519082015282526080909301929088019061534e565b8452505050838501519150828211156153bf57600080fd5b6153cb888386016151f3565b85820152809550505050505092915050565b6000808335601e198436030181126153f457600080fd5b8301803591506001600160401b0382111561540e57600080fd5b6020019150368190038213156141dd57600080fd5b6000808335601e1984360301811261543a57600080fd5b83016020810192503590506001600160401b0381111561545957600080fd5b8060051b36038313156141dd57600080fd5b8035600481106140cb57600080fd5b60008235603e1983360301811261549057600080fd5b90910192915050565b81835260006020808501808196508560051b81019150846000805b88811015615546578385038a526154cb838961547a565b604080870182356154db816140ab565b6001600160a01b031688526154f2838a0184615423565b898b0193909352908290529091506060870190845b83811015615531576155218361551c8461546b565b614e4c565b9189019190890190600101615507565b50509a87019a955050918501916001016154b4565b509298975050505050505050565b60c08152600061556860c08301898b615499565b602083019790975250604081019490945260ff929092166060840152608083015260a09091015292915050565b6000604080830181845280865180835260608601915060608160051b8701019250602080890160005b8381101561560657888603605f19018552815180516001600160a01b031687528301518387018890526155f388880182614751565b96505093820193908201906001016155be565b50506001600160a01b0397909716959096019490945295945050505050565b6000602080838503121561563857600080fd5b82516001600160401b0381111561564e57600080fd5b8301601f8101851361565f57600080fd5b805161566d614f9982615053565b81815260059190911b8201830190838101908783111561568c57600080fd5b928401925b828410156140a057835182529284019290840190615691565b60408082528351828201819052600091906020906060850190828801855b828110156156ed5781516001600160a01b0316845292840192908401906001016156c8565b5050508481038286015285518082528683019183019060005b81811015615732578351805160ff90811685529086015116858401529284019291850191600101615706565b509098975050505050505050565b60008235603e1983360301811261575657600080fd5b9190910192915050565b6000808335601e1984360301811261577757600080fd5b8301803591506001600160401b0382111561579157600080fd5b6020019150600581901b36038213156141dd57600080fd5b60408082528181018490526000906060808401600587811b860183018986805b8b81101561584d57898403605f190186526157e4838e61547a565b80356157ef816140ab565b6001600160a01b03168552602061580882820183615423565b8783018c9052878c0181905292506001600160fb1b03831115615829578485fd5b91871b918281888c01375094018701828152958401959392909201916001016157c9565b5050506001600160a01b03881660208801529450611cc69350505050565b60006020828403121561587d57600080fd5b815161124781614141565b6001600160a01b03898116825288811660208301526040820188905263ffffffff878116606084015286166080830152841660a082015260e060c08201819052600090611e469083018486615499565b8381526001600160a01b038316602082015260608101611cc66040830184614e4c565b6000821982111561590e5761590e614d50565b500190565b60006040823603121561592557600080fd5b61592d614b5a565b8235615938816140ab565b81526020838101356001600160401b0381111561595457600080fd5b840136601f82011261596557600080fd5b8035615973614f9982615053565b81815260059190911b8201830190838101903683111561599257600080fd5b928401925b828410156159b7576159a88461546b565b82529284019290840190615997565b938501939093525091949350505050565b6000604082840312156159da57600080fd5b6159e2614b5a565b82516159ed816140ab565b81526020928301519281019290925250919050565b600060808284031215615a1457600080fd5b615a1c614ba4565b8235615a27816140ab565b808252506020830135602082015260408301356040820152606083013560608201528091505092915050565b600082821015615a6557615a65614d50565b500390565b60006020808385031215615a7d57600080fd5b82516001600160401b0380821115615a9457600080fd5b9084019060a08287031215615aa857600080fd5b615ab0614b82565b8251615abb816140ab565b815282840151615aca81614141565b81850152604083810151615add81614141565b828201526060840151615aef816140ab565b6060830152608084015183811115615b0657600080fd5b80850194505087601f850112615b1b57600080fd5b8351615b29614f9982615053565b81815260059190911b8501860190868101908a831115615b4857600080fd5b8787015b83811015615bb957805187811115615b645760008081fd5b8801603f81018d13615b765760008081fd5b89810151615b86614f9982614f53565b8181528e88838501011115615b9b5760008081fd5b615baa828d83018a86016148a6565b85525050918801918801615b4c565b506080850152509198975050505050505050565b6000602080835260c0830160018060a01b038086511683860152828601511515604086015260408601511515606086015280606087015116608086015250608085015160a08086015281815180845260e08701915060e08160051b8801019350848301925060005b818110156149535760df19888603018352615c518585516148d2565b94509285019291850191600101615c35565b600082516157568184602087016148a6565b600060208284031215615c8757600080fd5b611247826151db565b80516001600160e01b03811681146140cb57600080fd5b600060808284031215615cb957600080fd5b615cc1614ba4565b8251615ccc8161412f565b8152615cda60208401615c90565b60208201526040830151615ced8161412f565b6040820152615cfe60608401615c90565b60608201529392505050565b600063ffffffff80841680615d2f57634e487b7160e01b600052601260045260246000fd5b92169190910492915050565b600063ffffffff808316818516808303821115615d5a57615d5a614d50565b01949350505050565b600063ffffffff80831681851681830481118215151615615d8657615d86614d50565b02949350505050565b600060408284031215615da157600080fd5b615da9614b5a565b8235615db4816140ab565b81526020830135615dc4816140ab565b60208201529392505050565b60208152600061124760208301846148d2565b6000816000190483118215151615615dfd57615dfd614d50565b500290565b600081615e1157615e11614d50565b506000190190565b600060ff821660ff84168060ff03821115615e3657615e36614d50565b019392505050565b600060ff821660ff811415615e5557615e55614d50565b6001019291505056fe416464726573733a206c6f772d6c6576656c2064656c65676174652063616c6c206661696c6564a2646970667358221220563fbeacd2d70bd8d8e9feb786060d51dfe54a1f9380c65e43de11d0679c736164736f6c634300080a0033",
  "devdoc": {
    "kind": "dev",
    "methods": {
      "approveWTokenForHub()": {
        "details": "Anyone can call this method"
      },
      "depositProxy(address,address,uint256,uint32,uint32,address,(address,uint8[])[],bool)": {
        "details": "Meant to be used as part of a multicall",
        "params": {
          "_amount": "How many \"from\" tokens will be swapped in total",
          "_amountOfSwaps": "How many swaps to execute for this position",
          "_from": "The address of the \"from\" token",
          "_owner": "The address of the owner of the position being created",
          "_swapInterval": "How frequently the position's swaps should be executed",
          "_to": "The address of the \"to\" token",
          "_transferFromCaller": "Determines if the funds should be transfered from the caller"
        },
        "returns": {
          "_positionId": "The id of the created position"
        }
      },
      "depositUsingProtocolToken(address,address,uint256,uint32,uint32,address,(address,uint8[])[])": {
        "details": "This function will also give all permissions to this contract, so that it can then withdraw/terminate and convert back to protocol's token. Will revert with InvalidTokens unless only one of the tokens is the protocol token",
        "params": {
          "_amount": "How many \"from\" tokens will be swapped in total",
          "_amountOfSwaps": "How many swaps to execute for this position",
          "_from": "The address of the \"from\" token",
          "_owner": "The address of the owner of the position being created",
          "_permissions": "Extra permissions to add to the position. Can be empty",
          "_swapInterval": "How frequently the position's swaps should be executed",
          "_to": "The address of the \"to\" token"
        },
        "returns": {
          "_positionId": "The id of the created position"
        }
      },
      "getNextSwapInfo((address,address)[])": {
        "details": "Please note that this function is very expensive. Ideally, it would be used for off-chain purposes",
        "params": {
          "_pairs": "The pairs to be involved in the swap"
        },
        "returns": {
          "_0": "How executing a swap for all the given pairs would look like"
        }
      },
      "increasePositionProxy(uint256,uint256,uint32,bool)": {
        "details": "Meant to be used as part of a multicall",
        "params": {
          "_amount": "Amount of funds to add to the position",
          "_newSwaps": "The new amount of swaps",
          "_positionId": "The position's id",
          "_transferFromCaller": "Determines if the funds should be transfered from the caller"
        }
      },
      "increasePositionUsingProtocolToken(uint256,uint256,uint32)": {
        "params": {
          "_amount": "Amount of funds to add to the position",
          "_newSwaps": "The new amount of swaps",
          "_positionId": "The position's id"
        }
      },
      "multicall(bytes[])": {
        "details": "Receives and executes a batch of function calls on this contract."
      },
      "permissionPermitProxy((address,uint8[])[],uint256,uint256,uint8,bytes32,bytes32)": {
        "params": {
          "_deadline": "The deadline timestamp by which the call must be mined for the approve to work",
          "_permissions": "The permissions to set",
          "_r": "Must produce valid secp256k1 signature from the holder along with `v` and `s`",
          "_s": "Must produce valid secp256k1 signature from the holder along with `r` and `v`",
          "_tokenId": "The token's id",
          "_v": "Must produce valid secp256k1 signature from the holder along with `r` and `s`"
        }
      },
      "reducePositionProxy(uint256,uint256,uint32,address)": {
        "details": "Meant to be used as part of a multicall",
        "params": {
          "_amount": "Amount of funds to withdraw from the position",
          "_newSwaps": "The new amount of swaps",
          "_positionId": "The position's id",
          "_recipient": "The address to send tokens to"
        }
      },
      "reducePositionUsingProtocolToken(uint256,uint256,uint32,address)": {
        "params": {
          "_amount": "Amount of funds to withdraw from the position",
          "_newSwaps": "The new amount of swaps",
          "_positionId": "The position's id",
          "_recipient": "The address to send tokens to"
        }
      },
      "secondsUntilNextSwap((address,address)[])": {
        "details": "Tokens in pairs may be passed in either tokenA/tokenB or tokenB/tokenA order",
        "params": {
          "_pairs": "Pairs to check"
        },
        "returns": {
          "_0": "The amount of seconds until next swap for each of the pairs"
        }
      },
      "setTokensWithApprovalIssues(address[],bool[])": {
        "details": "Will revert with `InvalidTokenApprovalParams` if the length of the given arrays differ",
        "params": {
          "_addresses": "The addresses of the tokens",
          "_hasIssue": "Wether they have issues or not"
        }
      },
      "swapForCaller(address[],(uint8,uint8)[],uint256[],uint256[],address,uint256)": {
        "details": "Will revert: With RewardNotEnough if the minimum output is not met With ToProvideIsTooMuch if the hub swap requires more than the given maximum input",
        "params": {
          "_deadline": "Deadline when the swap becomes invalid",
          "_maximumInput": "The maximum amount of tokens to provide as part of the swap",
          "_minimumOutput": "The minimum amount of tokens to receive as part of the swap",
          "_pairsToSwap": "The pairs to swap",
          "_recipient": "Address that will receive all the tokens from the swap",
          "_tokens": "The tokens involved in the swap"
        },
        "returns": {
          "_swapInfo": "The information about the executed swap"
        }
      },
      "swapWithDex(address,address[],(uint8,uint8)[],bytes[],bool,address,uint256)": {
        "params": {
          "_callsToDex": "The bytes to send to the DEX to execute swaps",
          "_deadline": "Deadline when the swap becomes invalid",
          "_dex": "The DEX that will be used in the swap",
          "_doDexSwapsIncludeTransferToHub": "Some DEXes support swap & transfer, which would be cheaper in terms of gas If this feature is used, then the flag should be true",
          "_leftoverRecipient": "Address that will receive all unspent tokens",
          "_pairsToSwap": "The pairs to swap",
          "_tokens": "The tokens involved in the swap"
        },
        "returns": {
          "_0": "The information about the executed swap"
        }
      },
      "swapWithDexAndShareLeftoverWithHub(address,address[],(uint8,uint8)[],bytes[],bool,address,uint256)": {
        "params": {
          "_callsToDex": "The bytes to send to the DEX to execute swaps",
          "_deadline": "Deadline when the swap becomes invalid",
          "_dex": "The DEX that will be used in the swap",
          "_doDexSwapsIncludeTransferToHub": "Some DEXes support swap & transfer, which would be cheaper in terms of gas If this feature is used, then the flag should be true",
          "_leftoverRecipient": "Address that will receive `reward` unspent tokens",
          "_pairsToSwap": "The pairs to swap",
          "_tokens": "The tokens involved in the swap"
        },
        "returns": {
          "_0": "The information about the executed swap"
        }
      },
      "terminateProxy(uint256,address,address)": {
        "details": "Meant to be used as part of a multicall",
        "params": {
          "_positionId": "The position's id",
          "_recipientSwapped": "The address to withdraw swapped tokens to",
          "_recipientUnswapped": "The address to withdraw unswapped tokens to"
        },
        "returns": {
          "_swapped": "The swapped balance sent to `_recipientSwapped`",
          "_unswapped": "The unswapped balance sent to `_recipientUnswapped`"
        }
      },
      "terminateUsingProtocolTokenAsFrom(uint256,address,address)": {
        "params": {
          "_positionId": "The position's id",
          "_recipientSwapped": "The address to withdraw swapped tokens to",
          "_recipientUnswapped": "The address to withdraw unswapped tokens to"
        },
        "returns": {
          "_swapped": "The swapped balance sent to `_recipientSwapped`",
          "_unswapped": "The unswapped balance sent to `_recipientUnswapped`"
        }
      },
      "terminateUsingProtocolTokenAsTo(uint256,address,address)": {
        "params": {
          "_positionId": "The position's id",
          "_recipientSwapped": "The address to withdraw swapped tokens to",
          "_recipientUnswapped": "The address to withdraw unswapped tokens to"
        },
        "returns": {
          "_swapped": "The swapped balance sent to `_recipientSwapped`",
          "_unswapped": "The unswapped balance sent to `_recipientUnswapped`"
        }
      },
      "withdrawSwappedManyProxy((address,uint256[])[],address)": {
        "details": "Meant to be used as part of a multicall",
        "params": {
          "_positions": "A list positions, grouped by `to` token",
          "_recipient": "The address to withdraw swapped tokens to"
        },
        "returns": {
          "_withdrawn": "How much was withdrawn for each token"
        }
      },
      "withdrawSwappedManyUsingProtocolToken(uint256[],address)": {
        "params": {
          "_positionIds": "A list positions whose 'to' token is the wToken",
          "_recipient": "The address to withdraw swapped tokens to"
        },
        "returns": {
          "_swapped": "How much was withdrawn in total"
        }
      },
      "withdrawSwappedProxy(uint256,address)": {
        "details": "Meant to be used as part of a multicall",
        "params": {
          "_positionId": "The position's id",
          "_recipient": "The address to withdraw swapped tokens to"
        },
        "returns": {
          "_swapped": "How much was withdrawn"
        }
      },
      "withdrawSwappedUsingProtocolToken(uint256,address)": {
        "params": {
          "_positionId": "The position's id",
          "_recipient": "The address to withdraw swapped tokens to"
        },
        "returns": {
          "_swapped": "How much was withdrawn"
        }
      }
    },
    "version": 1
  },
  "userdoc": {
    "errors": {
      "CallToDexFailed()": [
        {
          "notice": "Thrown when a call to the given DEX fails"
        }
      ],
      "CallbackNotCalledByHub()": [
        {
          "notice": "Thrown when callback is not called by the hub"
        }
      ],
      "InvalidAmountOfProtocolTokenReceived()": [
        {
          "notice": "Thrown when the user sends more or less of the protocol token than is actually necessary"
        }
      ],
      "InvalidMask()": [
        {
          "notice": "Thrown when a user tries convert and invalid byte representation to an interval"
        }
      ],
      "InvalidTokenApprovalParams()": [
        {
          "notice": "Thrown when the given parameters are invalid"
        }
      ],
      "InvalidTokens()": [
        {
          "notice": "Thrown when the user tries to make a deposit where neither or both of the tokens are the protocol token"
        }
      ],
      "RewardNotEnough()": [
        {
          "notice": "Thrown when the reward is less that the specified minimum"
        }
      ],
      "SwapNotInitiatedByCompanion()": [
        {
          "notice": "Thrown when swap was not initiated by the companion"
        }
      ],
      "ToProvideIsTooMuch()": [
        {
          "notice": "Thrown when the amount to provide is more than the specified maximum"
        }
      ],
      "UnauthorizedCaller()": [
        {
          "notice": "Thrown when a user tries operate on a position that they don't have access to"
        }
      ],
      "UnexpectedSwapPlan()": [
        {
          "notice": "Thrown when the callback is executed with an unexpected swap plan"
        }
      ],
      "UnsupportedDex()": [
        {
          "notice": "Thrown when a swap is executed with a DEX that is not supported"
        }
      ],
      "ZeroAddress()": [
        {
          "notice": "Thrown when one of the parameters is a zero address"
        }
      ]
    },
    "events": {
      "ConvertedDeposit(uint256,address,address,address,address)": {
        "notice": "Emitted when a deposit is made by converting one of the user's tokens for another asset"
      },
      "TokenWithApprovalIssuesSet(address[],bool[])": {
        "notice": "Emitted when tokens with approval issues are set"
      }
    },
    "kind": "user",
    "methods": {
      "PROTOCOL_TOKEN()": {
        "notice": "Returns the address used to represent the protocol token (f.e. ETH/MATIC)"
      },
      "approveWTokenForHub()": {
        "notice": "Increases the allowance of wToken to the max, for the DCAHub"
      },
      "depositProxy(address,address,uint256,uint32,uint32,address,(address,uint8[])[],bool)": {
        "notice": "Creates a new position"
      },
      "depositUsingProtocolToken(address,address,uint256,uint32,uint32,address,(address,uint8[])[])": {
        "notice": "Creates a new position by converting the protocol's base token to its wrapped version"
      },
      "getNextSwapInfo((address,address)[])": {
        "notice": "Takes a list of pairs and returns how it would look like to execute a swap for all of them"
      },
      "hub()": {
        "notice": "Returns the DCA Hub's address"
      },
      "increasePositionProxy(uint256,uint256,uint32,bool)": {
        "notice": "Call the hub and takes the unswapped balance, adds the new deposited funds and modifies the position so that it is executed in _newSwaps swaps"
      },
      "increasePositionUsingProtocolToken(uint256,uint256,uint32)": {
        "notice": "Takes the unswapped balance, adds the new deposited funds and modifies the position so that it is executed in _newSwaps swaps"
      },
      "permissionManager()": {
        "notice": "Returns the permission manager contract"
      },
      "permissionPermitProxy((address,uint8[])[],uint256,uint256,uint8,bytes32,bytes32)": {
        "notice": "Calls the permission manager and sets permissions via signature"
      },
      "reducePositionProxy(uint256,uint256,uint32,address)": {
        "notice": "Call the hub and withdraws the specified amount from the unswapped balance and modifies the position so that it is executed in _newSwaps swaps"
      },
      "reducePositionUsingProtocolToken(uint256,uint256,uint32,address)": {
        "notice": "Withdraws the specified amount from the unswapped balance and modifies the position so that it is executed in _newSwaps swaps"
      },
      "secondsUntilNextSwap((address,address)[])": {
        "notice": "Returns how many seconds left until the next swap is available for a list of pairs"
      },
      "setTokensWithApprovalIssues(address[],bool[])": {
        "notice": "Sets whether specific addresses have issues with approvals, like USDT"
      },
      "swapForCaller(address[],(uint8,uint8)[],uint256[],uint256[],address,uint256)": {
        "notice": "Executes a swap for the caller, by sending them the reward, and taking from them the needed tokens"
      },
      "swapWithDex(address,address[],(uint8,uint8)[],bytes[],bool,address,uint256)": {
        "notice": "Executes a swap with the given DEX, and sends all unspent tokens to the given recipient"
      },
      "swapWithDexAndShareLeftoverWithHub(address,address[],(uint8,uint8)[],bytes[],bool,address,uint256)": {
        "notice": "Executes a swap with the given DEX and sends all `reward` unspent tokens to the given recipient. All positive slippage for tokens that need to be returned to the hub is also sent to the hub"
      },
      "terminateProxy(uint256,address,address)": {
        "notice": "Calls the hub and terminates the position and sends all unswapped and swapped balance to the specified recipients"
      },
      "terminateUsingProtocolTokenAsFrom(uint256,address,address)": {
        "notice": "Terminates the position and sends all unswapped and swapped balance to the specified recipients"
      },
      "terminateUsingProtocolTokenAsTo(uint256,address,address)": {
        "notice": "Terminates the position and sends all unswapped and swapped balance to the specified recipients"
      },
      "tokenHasApprovalIssue(address)": {
        "notice": "Returns whether the given address has issues with approvals, like USDT"
      },
      "wToken()": {
        "notice": "Returns the address of the wrapped token"
      },
      "withdrawSwappedManyProxy((address,uint256[])[],address)": {
        "notice": "Call the hub and withdraws all swapped tokens from multiple positions"
      },
      "withdrawSwappedManyUsingProtocolToken(uint256[],address)": {
        "notice": "Withdraws all swapped tokens from multiple positions"
      },
      "withdrawSwappedProxy(uint256,address)": {
        "notice": "Call the hub and withdraws all swapped tokens from a position to a recipient"
      },
      "withdrawSwappedUsingProtocolToken(uint256,address)": {
        "notice": "Withdraws all swapped tokens from a position to a recipient"
      }
    },
    "version": 1
  },
  "storageLayout": {
    "storage": [
      {
        "astId": 8438,
        "contract": "contracts/DCAHubCompanion/DCAHubCompanion.sol:DCAHubCompanion",
        "label": "_governor",
        "offset": 0,
        "slot": "0",
        "type": "t_address"
      },
      {
        "astId": 8440,
        "contract": "contracts/DCAHubCompanion/DCAHubCompanion.sol:DCAHubCompanion",
        "label": "_pendingGovernor",
        "offset": 0,
        "slot": "1",
        "type": "t_address"
      },
      {
        "astId": 3914,
        "contract": "contracts/DCAHubCompanion/DCAHubCompanion.sol:DCAHubCompanion",
        "label": "tokenHasApprovalIssue",
        "offset": 0,
        "slot": "2",
        "type": "t_mapping(t_address,t_bool)"
      },
      {
        "astId": 4121,
        "contract": "contracts/DCAHubCompanion/DCAHubCompanion.sol:DCAHubCompanion",
        "label": "isDexSupported",
        "offset": 0,
        "slot": "3",
        "type": "t_mapping(t_address,t_bool)"
      },
      {
        "astId": 8332,
        "contract": "contracts/DCAHubCompanion/DCAHubCompanion.sol:DCAHubCompanion",
        "label": "_protocolTokens",
        "offset": 0,
        "slot": "4",
        "type": "t_struct(AddressSet)3170_storage"
      }
    ],
    "types": {
      "t_address": {
        "encoding": "inplace",
        "label": "address",
        "numberOfBytes": "20"
      },
      "t_array(t_bytes32)dyn_storage": {
        "base": "t_bytes32",
        "encoding": "dynamic_array",
        "label": "bytes32[]",
        "numberOfBytes": "32"
      },
      "t_bool": {
        "encoding": "inplace",
        "label": "bool",
        "numberOfBytes": "1"
      },
      "t_bytes32": {
        "encoding": "inplace",
        "label": "bytes32",
        "numberOfBytes": "32"
      },
      "t_mapping(t_address,t_bool)": {
        "encoding": "mapping",
        "key": "t_address",
        "label": "mapping(address => bool)",
        "numberOfBytes": "32",
        "value": "t_bool"
      },
      "t_mapping(t_bytes32,t_uint256)": {
        "encoding": "mapping",
        "key": "t_bytes32",
        "label": "mapping(bytes32 => uint256)",
        "numberOfBytes": "32",
        "value": "t_uint256"
      },
      "t_struct(AddressSet)3170_storage": {
        "encoding": "inplace",
        "label": "struct EnumerableSet.AddressSet",
        "members": [
          {
            "astId": 3169,
            "contract": "contracts/DCAHubCompanion/DCAHubCompanion.sol:DCAHubCompanion",
            "label": "_inner",
            "offset": 0,
            "slot": "0",
            "type": "t_struct(Set)2869_storage"
          }
        ],
        "numberOfBytes": "64"
      },
      "t_struct(Set)2869_storage": {
        "encoding": "inplace",
        "label": "struct EnumerableSet.Set",
        "members": [
          {
            "astId": 2864,
            "contract": "contracts/DCAHubCompanion/DCAHubCompanion.sol:DCAHubCompanion",
            "label": "_values",
            "offset": 0,
            "slot": "0",
            "type": "t_array(t_bytes32)dyn_storage"
          },
          {
            "astId": 2868,
            "contract": "contracts/DCAHubCompanion/DCAHubCompanion.sol:DCAHubCompanion",
            "label": "_indexes",
            "offset": 0,
            "slot": "1",
            "type": "t_mapping(t_bytes32,t_uint256)"
          }
        ],
        "numberOfBytes": "64"
      },
      "t_uint256": {
        "encoding": "inplace",
        "label": "uint256",
        "numberOfBytes": "32"
      }
    }
  }
}