{
  "address": "0xFEf5273501db0cc5113858dE749443E055c38096",
  "abi": [
    {
      "inputs": [
        {
          "internalType": "contract IDCAHub",
          "name": "_hub",
          "type": "address"
        },
        {
          "internalType": "contract IWrappedProtocolToken",
          "name": "_wToken",
          "type": "address"
        },
        {
          "internalType": "address",
          "name": "_governor",
          "type": "address"
        }
      ],
      "stateMutability": "nonpayable",
      "type": "constructor"
    },
    {
      "inputs": [],
      "name": "CallToDexFailed",
      "type": "error"
    },
    {
      "inputs": [],
      "name": "CallbackNotCalledByHub",
      "type": "error"
    },
    {
      "inputs": [],
      "name": "InvalidMask",
      "type": "error"
    },
    {
      "inputs": [],
      "name": "InvalidTokenApprovalParams",
      "type": "error"
    },
    {
      "inputs": [],
      "name": "InvalidTokens",
      "type": "error"
    },
    {
      "inputs": [],
      "name": "RewardNotEnough",
      "type": "error"
    },
    {
      "inputs": [],
      "name": "SwapNotInitiatedByCompanion",
      "type": "error"
    },
    {
      "inputs": [],
      "name": "ToProvideIsTooMuch",
      "type": "error"
    },
    {
      "inputs": [],
      "name": "UnauthorizedCaller",
      "type": "error"
    },
    {
      "inputs": [],
      "name": "UnexpectedSwapPlan",
      "type": "error"
    },
    {
      "inputs": [],
      "name": "UnsupportedDex",
      "type": "error"
    },
    {
      "inputs": [],
      "name": "ZeroAddress",
      "type": "error"
    },
    {
      "anonymous": false,
      "inputs": [
        {
          "indexed": false,
          "internalType": "address",
          "name": "_to",
          "type": "address"
        },
        {
          "indexed": false,
          "internalType": "address",
          "name": "token",
          "type": "address"
        },
        {
          "indexed": false,
          "internalType": "uint256",
          "name": "amount",
          "type": "uint256"
        }
      ],
      "name": "DustSent",
      "type": "event"
    },
    {
      "anonymous": false,
      "inputs": [],
      "name": "PendingGovernorAccepted",
      "type": "event"
    },
    {
      "anonymous": false,
      "inputs": [
        {
          "indexed": false,
          "internalType": "address",
          "name": "_pendingGovernor",
          "type": "address"
        }
      ],
      "name": "PendingGovernorSet",
      "type": "event"
    },
    {
      "anonymous": false,
      "inputs": [
        {
          "indexed": false,
          "internalType": "address[]",
          "name": "addresses",
          "type": "address[]"
        },
        {
          "indexed": false,
          "internalType": "bool[]",
          "name": "hasIssue",
          "type": "bool[]"
        }
      ],
      "name": "TokenWithApprovalIssuesSet",
      "type": "event"
    },
    {
      "inputs": [
        {
          "internalType": "address",
          "name": "_sender",
          "type": "address"
        },
        {
          "components": [
            {
              "internalType": "address",
              "name": "token",
              "type": "address"
            },
            {
              "internalType": "uint256",
              "name": "reward",
              "type": "uint256"
            },
            {
              "internalType": "uint256",
              "name": "toProvide",
              "type": "uint256"
            },
            {
              "internalType": "uint256",
              "name": "platformFee",
              "type": "uint256"
            }
          ],
          "internalType": "struct IDCAHubSwapHandler.TokenInSwap[]",
          "name": "_tokens",
          "type": "tuple[]"
        },
        {
          "internalType": "uint256[]",
          "name": "",
          "type": "uint256[]"
        },
        {
          "internalType": "bytes",
          "name": "_data",
          "type": "bytes"
        }
      ],
      "name": "DCAHubSwapCall",
      "outputs": [],
      "stateMutability": "nonpayable",
      "type": "function"
    },
    {
      "inputs": [],
      "name": "PROTOCOL_TOKEN",
      "outputs": [
        {
          "internalType": "address",
          "name": "",
          "type": "address"
        }
      ],
      "stateMutability": "view",
      "type": "function"
    },
    {
      "inputs": [],
      "name": "acceptPendingGovernor",
      "outputs": [],
      "stateMutability": "nonpayable",
      "type": "function"
    },
    {
      "inputs": [],
      "name": "approveWTokenForHub",
      "outputs": [],
      "stateMutability": "nonpayable",
      "type": "function"
    },
    {
      "inputs": [
        {
          "internalType": "address",
          "name": "_dex",
          "type": "address"
        },
        {
          "internalType": "bool",
          "name": "_support",
          "type": "bool"
        }
      ],
      "name": "defineDexSupport",
      "outputs": [],
      "stateMutability": "nonpayable",
      "type": "function"
    },
    {
      "inputs": [
        {
          "internalType": "address",
          "name": "_from",
          "type": "address"
        },
        {
          "internalType": "address",
          "name": "_to",
          "type": "address"
        },
        {
          "internalType": "uint256",
          "name": "_amount",
          "type": "uint256"
        },
        {
          "internalType": "uint32",
          "name": "_amountOfSwaps",
          "type": "uint32"
        },
        {
          "internalType": "uint32",
          "name": "_swapInterval",
          "type": "uint32"
        },
        {
          "internalType": "address",
          "name": "_owner",
          "type": "address"
        },
        {
          "components": [
            {
              "internalType": "address",
              "name": "operator",
              "type": "address"
            },
            {
              "internalType": "enum IDCAPermissionManager.Permission[]",
              "name": "permissions",
              "type": "uint8[]"
            }
          ],
          "internalType": "struct IDCAPermissionManager.PermissionSet[]",
          "name": "_permissions",
          "type": "tuple[]"
        },
        {
          "internalType": "bytes",
          "name": "_miscellaneous",
          "type": "bytes"
        },
        {
          "internalType": "bool",
          "name": "_transferFromCaller",
          "type": "bool"
        }
      ],
      "name": "depositProxy",
      "outputs": [
        {
          "internalType": "uint256",
          "name": "_positionId",
          "type": "uint256"
        }
      ],
      "stateMutability": "payable",
      "type": "function"
    },
    {
      "inputs": [
        {
          "internalType": "address",
          "name": "_from",
          "type": "address"
        },
        {
          "internalType": "address",
          "name": "_to",
          "type": "address"
        },
        {
          "internalType": "uint256",
          "name": "_amount",
          "type": "uint256"
        },
        {
          "internalType": "uint32",
          "name": "_amountOfSwaps",
          "type": "uint32"
        },
        {
          "internalType": "uint32",
          "name": "_swapInterval",
          "type": "uint32"
        },
        {
          "internalType": "address",
          "name": "_owner",
          "type": "address"
        },
        {
          "components": [
            {
              "internalType": "address",
              "name": "operator",
              "type": "address"
            },
            {
              "internalType": "enum IDCAPermissionManager.Permission[]",
              "name": "permissions",
              "type": "uint8[]"
            }
          ],
          "internalType": "struct IDCAPermissionManager.PermissionSet[]",
          "name": "_permissions",
          "type": "tuple[]"
        },
        {
          "internalType": "bytes",
          "name": "_miscellaneous",
          "type": "bytes"
        }
      ],
      "name": "depositUsingProtocolToken",
      "outputs": [
        {
          "internalType": "uint256",
          "name": "_positionId",
          "type": "uint256"
        }
      ],
      "stateMutability": "payable",
      "type": "function"
    },
    {
      "inputs": [
        {
          "components": [
            {
              "internalType": "address",
              "name": "tokenA",
              "type": "address"
            },
            {
              "internalType": "address",
              "name": "tokenB",
              "type": "address"
            }
          ],
          "internalType": "struct Pair[]",
          "name": "_pairs",
          "type": "tuple[]"
        }
      ],
      "name": "getNextSwapInfo",
      "outputs": [
        {
          "components": [
            {
              "components": [
                {
                  "internalType": "address",
                  "name": "token",
                  "type": "address"
                },
                {
                  "internalType": "uint256",
                  "name": "reward",
                  "type": "uint256"
                },
                {
                  "internalType": "uint256",
                  "name": "toProvide",
                  "type": "uint256"
                },
                {
                  "internalType": "uint256",
                  "name": "platformFee",
                  "type": "uint256"
                }
              ],
              "internalType": "struct IDCAHubSwapHandler.TokenInSwap[]",
              "name": "tokens",
              "type": "tuple[]"
            },
            {
              "components": [
                {
                  "internalType": "address",
                  "name": "tokenA",
                  "type": "address"
                },
                {
                  "internalType": "address",
                  "name": "tokenB",
                  "type": "address"
                },
                {
                  "internalType": "uint256",
                  "name": "ratioAToB",
                  "type": "uint256"
                },
                {
                  "internalType": "uint256",
                  "name": "ratioBToA",
                  "type": "uint256"
                },
                {
                  "internalType": "bytes1",
                  "name": "intervalsInSwap",
                  "type": "bytes1"
                }
              ],
              "internalType": "struct IDCAHubSwapHandler.PairInSwap[]",
              "name": "pairs",
              "type": "tuple[]"
            }
          ],
          "internalType": "struct IDCAHubSwapHandler.SwapInfo",
          "name": "",
          "type": "tuple"
        }
      ],
      "stateMutability": "view",
      "type": "function"
    },
    {
      "inputs": [],
      "name": "governor",
      "outputs": [
        {
          "internalType": "address",
          "name": "",
          "type": "address"
        }
      ],
      "stateMutability": "view",
      "type": "function"
    },
    {
      "inputs": [],
      "name": "hub",
      "outputs": [
        {
          "internalType": "contract IDCAHub",
          "name": "",
          "type": "address"
        }
      ],
      "stateMutability": "view",
      "type": "function"
    },
    {
      "inputs": [
        {
          "internalType": "uint256",
          "name": "_positionId",
          "type": "uint256"
        },
        {
          "internalType": "uint256",
          "name": "_amount",
          "type": "uint256"
        },
        {
          "internalType": "uint32",
          "name": "_newSwaps",
          "type": "uint32"
        },
        {
          "internalType": "bool",
          "name": "_transferFromCaller",
          "type": "bool"
        }
      ],
      "name": "increasePositionProxy",
      "outputs": [],
      "stateMutability": "payable",
      "type": "function"
    },
    {
      "inputs": [
        {
          "internalType": "uint256",
          "name": "_positionId",
          "type": "uint256"
        },
        {
          "internalType": "uint256",
          "name": "_amount",
          "type": "uint256"
        },
        {
          "internalType": "uint32",
          "name": "_newSwaps",
          "type": "uint32"
        }
      ],
      "name": "increasePositionUsingProtocolToken",
      "outputs": [],
      "stateMutability": "payable",
      "type": "function"
    },
    {
      "inputs": [
        {
          "internalType": "address",
          "name": "",
          "type": "address"
        }
      ],
      "name": "isDexSupported",
      "outputs": [
        {
          "internalType": "bool",
          "name": "",
          "type": "bool"
        }
      ],
      "stateMutability": "view",
      "type": "function"
    },
    {
      "inputs": [
        {
          "internalType": "address",
          "name": "_account",
          "type": "address"
        }
      ],
      "name": "isGovernor",
      "outputs": [
        {
          "internalType": "bool",
          "name": "_isGovernor",
          "type": "bool"
        }
      ],
      "stateMutability": "view",
      "type": "function"
    },
    {
      "inputs": [
        {
          "internalType": "address",
          "name": "_account",
          "type": "address"
        }
      ],
      "name": "isPendingGovernor",
      "outputs": [
        {
          "internalType": "bool",
          "name": "_isPendingGovernor",
          "type": "bool"
        }
      ],
      "stateMutability": "view",
      "type": "function"
    },
    {
      "inputs": [
        {
          "internalType": "bytes[]",
          "name": "data",
          "type": "bytes[]"
        }
      ],
      "name": "multicall",
      "outputs": [
        {
          "internalType": "bytes[]",
          "name": "results",
          "type": "bytes[]"
        }
      ],
      "stateMutability": "payable",
      "type": "function"
    },
    {
      "inputs": [],
      "name": "pendingGovernor",
      "outputs": [
        {
          "internalType": "address",
          "name": "",
          "type": "address"
        }
      ],
      "stateMutability": "view",
      "type": "function"
    },
    {
      "inputs": [],
      "name": "permissionManager",
      "outputs": [
        {
          "internalType": "contract IDCAPermissionManager",
          "name": "",
          "type": "address"
        }
      ],
      "stateMutability": "view",
      "type": "function"
    },
    {
      "inputs": [
        {
          "components": [
            {
              "internalType": "address",
              "name": "operator",
              "type": "address"
            },
            {
              "internalType": "enum IDCAPermissionManager.Permission[]",
              "name": "permissions",
              "type": "uint8[]"
            }
          ],
          "internalType": "struct IDCAPermissionManager.PermissionSet[]",
          "name": "_permissions",
          "type": "tuple[]"
        },
        {
          "internalType": "uint256",
          "name": "_tokenId",
          "type": "uint256"
        },
        {
          "internalType": "uint256",
          "name": "_deadline",
          "type": "uint256"
        },
        {
          "internalType": "uint8",
          "name": "_v",
          "type": "uint8"
        },
        {
          "internalType": "bytes32",
          "name": "_r",
          "type": "bytes32"
        },
        {
          "internalType": "bytes32",
          "name": "_s",
          "type": "bytes32"
        }
      ],
      "name": "permissionPermitProxy",
      "outputs": [],
      "stateMutability": "payable",
      "type": "function"
    },
    {
      "inputs": [
        {
          "internalType": "uint256",
          "name": "_positionId",
          "type": "uint256"
        },
        {
          "internalType": "uint256",
          "name": "_amount",
          "type": "uint256"
        },
        {
          "internalType": "uint32",
          "name": "_newSwaps",
          "type": "uint32"
        },
        {
          "internalType": "address",
          "name": "_recipient",
          "type": "address"
        }
      ],
      "name": "reducePositionProxy",
      "outputs": [],
      "stateMutability": "payable",
      "type": "function"
    },
    {
      "inputs": [
        {
          "internalType": "uint256",
          "name": "_positionId",
          "type": "uint256"
        },
        {
          "internalType": "uint256",
          "name": "_amount",
          "type": "uint256"
        },
        {
          "internalType": "uint32",
          "name": "_newSwaps",
          "type": "uint32"
        },
        {
          "internalType": "address payable",
          "name": "_recipient",
          "type": "address"
        }
      ],
      "name": "reducePositionUsingProtocolToken",
      "outputs": [],
      "stateMutability": "payable",
      "type": "function"
    },
    {
      "inputs": [
        {
          "components": [
            {
              "internalType": "address",
              "name": "tokenA",
              "type": "address"
            },
            {
              "internalType": "address",
              "name": "tokenB",
              "type": "address"
            }
          ],
          "internalType": "struct Pair[]",
          "name": "_pairs",
          "type": "tuple[]"
        }
      ],
      "name": "secondsUntilNextSwap",
      "outputs": [
        {
          "internalType": "uint256[]",
          "name": "",
          "type": "uint256[]"
        }
      ],
      "stateMutability": "view",
      "type": "function"
    },
    {
      "inputs": [
        {
          "internalType": "address",
          "name": "_to",
          "type": "address"
        },
        {
          "internalType": "address",
          "name": "_token",
          "type": "address"
        },
        {
          "internalType": "uint256",
          "name": "_amount",
          "type": "uint256"
        }
      ],
      "name": "sendDust",
      "outputs": [],
      "stateMutability": "nonpayable",
      "type": "function"
    },
    {
      "inputs": [
        {
          "internalType": "address",
          "name": "__pendingGovernor",
          "type": "address"
        }
      ],
      "name": "setPendingGovernor",
      "outputs": [],
      "stateMutability": "nonpayable",
      "type": "function"
    },
    {
      "inputs": [
        {
          "internalType": "address[]",
          "name": "_addresses",
          "type": "address[]"
        },
        {
          "internalType": "bool[]",
          "name": "_hasIssue",
          "type": "bool[]"
        }
      ],
      "name": "setTokensWithApprovalIssues",
      "outputs": [],
      "stateMutability": "nonpayable",
      "type": "function"
    },
    {
      "inputs": [
        {
          "internalType": "address[]",
          "name": "_tokens",
          "type": "address[]"
        },
        {
          "components": [
            {
              "internalType": "uint8",
              "name": "indexTokenA",
              "type": "uint8"
            },
            {
              "internalType": "uint8",
              "name": "indexTokenB",
              "type": "uint8"
            }
          ],
          "internalType": "struct IDCAHubSwapHandler.PairIndexes[]",
          "name": "_pairsToSwap",
          "type": "tuple[]"
        },
        {
          "internalType": "uint256[]",
          "name": "_minimumOutput",
          "type": "uint256[]"
        },
        {
          "internalType": "uint256[]",
          "name": "_maximumInput",
          "type": "uint256[]"
        },
        {
          "internalType": "address",
          "name": "_recipient",
          "type": "address"
        },
        {
          "internalType": "uint256",
          "name": "_deadline",
          "type": "uint256"
        }
      ],
      "name": "swapForCaller",
      "outputs": [
        {
          "components": [
            {
              "components": [
                {
                  "internalType": "address",
                  "name": "token",
                  "type": "address"
                },
                {
                  "internalType": "uint256",
                  "name": "reward",
                  "type": "uint256"
                },
                {
                  "internalType": "uint256",
                  "name": "toProvide",
                  "type": "uint256"
                },
                {
                  "internalType": "uint256",
                  "name": "platformFee",
                  "type": "uint256"
                }
              ],
              "internalType": "struct IDCAHubSwapHandler.TokenInSwap[]",
              "name": "tokens",
              "type": "tuple[]"
            },
            {
              "components": [
                {
                  "internalType": "address",
                  "name": "tokenA",
                  "type": "address"
                },
                {
                  "internalType": "address",
                  "name": "tokenB",
                  "type": "address"
                },
                {
                  "internalType": "uint256",
                  "name": "ratioAToB",
                  "type": "uint256"
                },
                {
                  "internalType": "uint256",
                  "name": "ratioBToA",
                  "type": "uint256"
                },
                {
                  "internalType": "bytes1",
                  "name": "intervalsInSwap",
                  "type": "bytes1"
                }
              ],
              "internalType": "struct IDCAHubSwapHandler.PairInSwap[]",
              "name": "pairs",
              "type": "tuple[]"
            }
          ],
          "internalType": "struct IDCAHubSwapHandler.SwapInfo",
          "name": "_swapInfo",
          "type": "tuple"
        }
      ],
      "stateMutability": "payable",
      "type": "function"
    },
    {
      "inputs": [
        {
          "internalType": "address",
          "name": "_dex",
          "type": "address"
        },
        {
          "internalType": "address[]",
          "name": "_tokens",
          "type": "address[]"
        },
        {
          "components": [
            {
              "internalType": "uint8",
              "name": "indexTokenA",
              "type": "uint8"
            },
            {
              "internalType": "uint8",
              "name": "indexTokenB",
              "type": "uint8"
            }
          ],
          "internalType": "struct IDCAHubSwapHandler.PairIndexes[]",
          "name": "_pairsToSwap",
          "type": "tuple[]"
        },
        {
          "internalType": "bytes[]",
          "name": "_callsToDex",
          "type": "bytes[]"
        },
        {
          "internalType": "bool",
          "name": "_doDexSwapsIncludeTransferToHub",
          "type": "bool"
        },
        {
          "internalType": "address",
          "name": "_leftoverRecipient",
          "type": "address"
        },
        {
          "internalType": "uint256",
          "name": "_deadline",
          "type": "uint256"
        }
      ],
      "name": "swapWithDex",
      "outputs": [
        {
          "components": [
            {
              "components": [
                {
                  "internalType": "address",
                  "name": "token",
                  "type": "address"
                },
                {
                  "internalType": "uint256",
                  "name": "reward",
                  "type": "uint256"
                },
                {
                  "internalType": "uint256",
                  "name": "toProvide",
                  "type": "uint256"
                },
                {
                  "internalType": "uint256",
                  "name": "platformFee",
                  "type": "uint256"
                }
              ],
              "internalType": "struct IDCAHubSwapHandler.TokenInSwap[]",
              "name": "tokens",
              "type": "tuple[]"
            },
            {
              "components": [
                {
                  "internalType": "address",
                  "name": "tokenA",
                  "type": "address"
                },
                {
                  "internalType": "address",
                  "name": "tokenB",
                  "type": "address"
                },
                {
                  "internalType": "uint256",
                  "name": "ratioAToB",
                  "type": "uint256"
                },
                {
                  "internalType": "uint256",
                  "name": "ratioBToA",
                  "type": "uint256"
                },
                {
                  "internalType": "bytes1",
                  "name": "intervalsInSwap",
                  "type": "bytes1"
                }
              ],
              "internalType": "struct IDCAHubSwapHandler.PairInSwap[]",
              "name": "pairs",
              "type": "tuple[]"
            }
          ],
          "internalType": "struct IDCAHubSwapHandler.SwapInfo",
          "name": "",
          "type": "tuple"
        }
      ],
      "stateMutability": "nonpayable",
      "type": "function"
    },
    {
      "inputs": [
        {
          "internalType": "address",
          "name": "_dex",
          "type": "address"
        },
        {
          "internalType": "address[]",
          "name": "_tokens",
          "type": "address[]"
        },
        {
          "components": [
            {
              "internalType": "uint8",
              "name": "indexTokenA",
              "type": "uint8"
            },
            {
              "internalType": "uint8",
              "name": "indexTokenB",
              "type": "uint8"
            }
          ],
          "internalType": "struct IDCAHubSwapHandler.PairIndexes[]",
          "name": "_pairsToSwap",
          "type": "tuple[]"
        },
        {
          "internalType": "bytes[]",
          "name": "_callsToDex",
          "type": "bytes[]"
        },
        {
          "internalType": "bool",
          "name": "_doDexSwapsIncludeTransferToHub",
          "type": "bool"
        },
        {
          "internalType": "address",
          "name": "_leftoverRecipient",
          "type": "address"
        },
        {
          "internalType": "uint256",
          "name": "_deadline",
          "type": "uint256"
        }
      ],
      "name": "swapWithDexAndShareLeftoverWithHub",
      "outputs": [
        {
          "components": [
            {
              "components": [
                {
                  "internalType": "address",
                  "name": "token",
                  "type": "address"
                },
                {
                  "internalType": "uint256",
                  "name": "reward",
                  "type": "uint256"
                },
                {
                  "internalType": "uint256",
                  "name": "toProvide",
                  "type": "uint256"
                },
                {
                  "internalType": "uint256",
                  "name": "platformFee",
                  "type": "uint256"
                }
              ],
              "internalType": "struct IDCAHubSwapHandler.TokenInSwap[]",
              "name": "tokens",
              "type": "tuple[]"
            },
            {
              "components": [
                {
                  "internalType": "address",
                  "name": "tokenA",
                  "type": "address"
                },
                {
                  "internalType": "address",
                  "name": "tokenB",
                  "type": "address"
                },
                {
                  "internalType": "uint256",
                  "name": "ratioAToB",
                  "type": "uint256"
                },
                {
                  "internalType": "uint256",
                  "name": "ratioBToA",
                  "type": "uint256"
                },
                {
                  "internalType": "bytes1",
                  "name": "intervalsInSwap",
                  "type": "bytes1"
                }
              ],
              "internalType": "struct IDCAHubSwapHandler.PairInSwap[]",
              "name": "pairs",
              "type": "tuple[]"
            }
          ],
          "internalType": "struct IDCAHubSwapHandler.SwapInfo",
          "name": "",
          "type": "tuple"
        }
      ],
      "stateMutability": "nonpayable",
      "type": "function"
    },
    {
      "inputs": [
        {
          "internalType": "uint256",
          "name": "_positionId",
          "type": "uint256"
        },
        {
          "internalType": "address",
          "name": "_recipientUnswapped",
          "type": "address"
        },
        {
          "internalType": "address",
          "name": "_recipientSwapped",
          "type": "address"
        }
      ],
      "name": "terminateProxy",
      "outputs": [
        {
          "internalType": "uint256",
          "name": "_unswapped",
          "type": "uint256"
        },
        {
          "internalType": "uint256",
          "name": "_swapped",
          "type": "uint256"
        }
      ],
      "stateMutability": "payable",
      "type": "function"
    },
    {
      "inputs": [
        {
          "internalType": "uint256",
          "name": "_positionId",
          "type": "uint256"
        },
        {
          "internalType": "address payable",
          "name": "_recipientUnswapped",
          "type": "address"
        },
        {
          "internalType": "address",
          "name": "_recipientSwapped",
          "type": "address"
        }
      ],
      "name": "terminateUsingProtocolTokenAsFrom",
      "outputs": [
        {
          "internalType": "uint256",
          "name": "_unswapped",
          "type": "uint256"
        },
        {
          "internalType": "uint256",
          "name": "_swapped",
          "type": "uint256"
        }
      ],
      "stateMutability": "payable",
      "type": "function"
    },
    {
      "inputs": [
        {
          "internalType": "uint256",
          "name": "_positionId",
          "type": "uint256"
        },
        {
          "internalType": "address",
          "name": "_recipientUnswapped",
          "type": "address"
        },
        {
          "internalType": "address payable",
          "name": "_recipientSwapped",
          "type": "address"
        }
      ],
      "name": "terminateUsingProtocolTokenAsTo",
      "outputs": [
        {
          "internalType": "uint256",
          "name": "_unswapped",
          "type": "uint256"
        },
        {
          "internalType": "uint256",
          "name": "_swapped",
          "type": "uint256"
        }
      ],
      "stateMutability": "payable",
      "type": "function"
    },
    {
      "inputs": [
        {
          "internalType": "address",
          "name": "",
          "type": "address"
        }
      ],
      "name": "tokenHasApprovalIssue",
      "outputs": [
        {
          "internalType": "bool",
          "name": "",
          "type": "bool"
        }
      ],
      "stateMutability": "view",
      "type": "function"
    },
    {
      "inputs": [],
      "name": "wToken",
      "outputs": [
        {
          "internalType": "contract IWrappedProtocolToken",
          "name": "",
          "type": "address"
        }
      ],
      "stateMutability": "view",
      "type": "function"
    },
    {
      "inputs": [
        {
          "components": [
            {
              "internalType": "address",
              "name": "token",
              "type": "address"
            },
            {
              "internalType": "uint256[]",
              "name": "positionIds",
              "type": "uint256[]"
            }
          ],
          "internalType": "struct IDCAHubPositionHandler.PositionSet[]",
          "name": "_positions",
          "type": "tuple[]"
        },
        {
          "internalType": "address",
          "name": "_recipient",
          "type": "address"
        }
      ],
      "name": "withdrawSwappedManyProxy",
      "outputs": [
        {
          "internalType": "uint256[]",
          "name": "_withdrawn",
          "type": "uint256[]"
        }
      ],
      "stateMutability": "payable",
      "type": "function"
    },
    {
      "inputs": [
        {
          "internalType": "uint256[]",
          "name": "_positionIds",
          "type": "uint256[]"
        },
        {
          "internalType": "address payable",
          "name": "_recipient",
          "type": "address"
        }
      ],
      "name": "withdrawSwappedManyUsingProtocolToken",
      "outputs": [
        {
          "internalType": "uint256",
          "name": "_swapped",
          "type": "uint256"
        }
      ],
      "stateMutability": "payable",
      "type": "function"
    },
    {
      "inputs": [
        {
          "internalType": "uint256",
          "name": "_positionId",
          "type": "uint256"
        },
        {
          "internalType": "address",
          "name": "_recipient",
          "type": "address"
        }
      ],
      "name": "withdrawSwappedProxy",
      "outputs": [
        {
          "internalType": "uint256",
          "name": "_swapped",
          "type": "uint256"
        }
      ],
      "stateMutability": "payable",
      "type": "function"
    },
    {
      "inputs": [
        {
          "internalType": "uint256",
          "name": "_positionId",
          "type": "uint256"
        },
        {
          "internalType": "address payable",
          "name": "_recipient",
          "type": "address"
        }
      ],
      "name": "withdrawSwappedUsingProtocolToken",
      "outputs": [
        {
          "internalType": "uint256",
          "name": "_swapped",
          "type": "uint256"
        }
      ],
      "stateMutability": "payable",
      "type": "function"
    },
    {
      "stateMutability": "payable",
      "type": "receive"
    }
  ],
  "transactionHash": "0x2d94950bdf8ef0300ddf263f50a3c0f896124e84f1a17f56413b0c6def4dd2a4",
  "args": [
    "0xB1EDC6ea9011bCC5318e2b36954008357b59292F",
    "0x4200000000000000000000000000000000000006",
    "0x1a00e1E311009E56e3b0B9Ed6F86f5Ce128a1C01"
  ],
  "solcInputHash": "2cebe29afc54d58deb3f4a7c8ae1ba75",
  "bytecode": "0x60e06040523480156200001157600080fd5b50604051620063143803806200631483398101604081905262000034916200021d565b82836001600160a01b031663cc7a20496040518163ffffffff1660e01b8152600401602060405180830381865afa15801562000074573d6000803e3d6000fd5b505050506040513d601f19601f820116820180604052508101906200009a919062000271565b8383806001600160a01b038116620000f85760405162461bcd60e51b815260206004820152601860248201527f476f7665726e61626c653a207a65726f20616464726573730000000000000000604482015260640160405180910390fd5b600080546001600160a01b0319166001600160a01b03928316179055841615806200012a57506001600160a01b038316155b806200013d57506001600160a01b038216155b156200015c5760405163d92e233d60e01b815260040160405180910390fd5b506001600160a01b03928316608052821660c0521660a0526200017e62000187565b505050620002bc565b60c05160805160405163095ea7b360e01b81526001600160a01b039182166004820152600019602482015291169063095ea7b3906044016020604051808303816000875af1158015620001de573d6000803e3d6000fd5b505050506040513d601f19601f8201168201806040525081019062000204919062000298565b50565b6001600160a01b03811681146200020457600080fd5b6000806000606084860312156200023357600080fd5b8351620002408162000207565b6020850151909350620002538162000207565b6040850151909250620002668162000207565b809150509250925092565b6000602082840312156200028457600080fd5b8151620002918162000207565b9392505050565b600060208284031215620002ab57600080fd5b815180151581146200029157600080fd5b60805160a05160c051615f25620003ef600039600081816102a901528181610a1601528181610ad60152818161165101528181611d2e01528181611e6901528181611fd8015281816123cc01526124190152600081816105890152818161152e0152611db201526000818161039e0152818161071701528181610835015281816108e0015281816109e901528181610aa901528181610cf501528181610d9601528181610e6501528181610f0701528181610f8c015281816111700152818161124001528181611701015281816117ef01528181611849015281816118cc0152818161198101528181611a2901528181611ae101528181611c5f01528181611cfe0152818161250901528181612944015281816129a3015281816129dc01528181612b330152612ee50152615f256000f3fe60806040526004361061021e5760003560e01c8063a2c346ec11610123578063d6d2d0b7116100ab578063e581a3be1161006f578063e581a3be14610660578063f0261ac414610680578063f235757f14610693578063f50b098e146106b3578063fe62b620146106c657600080fd5b8063d6d2d0b7146105be578063d7752a0c146105d1578063df08aed5146105e4578063e3056a3414610613578063e43581b81461063157600080fd5b8063b715b93d116100f2578063b715b93d14610531578063baa791a514610544578063c95cb38714610564578063cc7a204914610577578063cc944c2e146105ab57600080fd5b8063a2c346ec146104a1578063a8bf39fd146104ce578063ac9650d8146104e1578063b452cdc41461050157600080fd5b8063365a86fc116101a6578063535af43011610175578063535af430146103f95780635817c99e1461040c578063585cc6a51461042c57806382643589146104545780638d2033451461047457600080fd5b8063365a86fc1461038c57806337be507e146103c05780633e9820f1146103d3578063479e8fac146103e657600080fd5b806313f6986d116101ed57806313f6986d1461030157806318b5769c146103185780631cd701f11461032b57806328c756b01461034c5780632db8c1291461036c57600080fd5b8063065f957d1461022a5780630a12aa481461026f5780630babd864146102975780630c340a24146102e357600080fd5b3661022557005b600080fd5b34801561023657600080fd5b5061025a610245366004613fc3565b60026020526000908152604090205460ff1681565b60405190151581526020015b60405180910390f35b61028261027d366004613fe0565b6106db565b60408051928352602083019190915201610266565b3480156102a357600080fd5b506102cb7f000000000000000000000000000000000000000000000000000000000000000081565b6040516001600160a01b039091168152602001610266565b3480156102ef57600080fd5b506000546001600160a01b03166102cb565b34801561030d57600080fd5b5061031661079c565b005b610316610326366004614058565b61080f565b61033e61033936600461412e565b61094e565b604051908152602001610266565b34801561035857600080fd5b50610316610367366004614207565b610b61565b34801561037857600080fd5b50610316610387366004614272565b610c86565b34801561039857600080fd5b506102cb7f000000000000000000000000000000000000000000000000000000000000000081565b61033e6103ce3660046142b3565b610cc0565b61033e6103e13660046142b3565b610d6b565b6103166103f43660046142e3565b610e1f565b610282610407366004613fe0565b610ec9565b34801561041857600080fd5b50610316610427366004614322565b610f81565b34801561043857600080fd5b506102cb73eeeeeeeeeeeeeeeeeeeeeeeeeeeeeeeeeeeeeeee81565b34801561046057600080fd5b5061031661046f3660046143ff565b61107e565b34801561048057600080fd5b5061049461048f366004614471565b6110fa565b60405161026691906145c3565b3480156104ad57600080fd5b506104c16104bc366004614649565b611169565b60405161026691906146ba565b6104946104dc3660046146cd565b61119d565b6104f46104ef3660046147aa565b611423565b6040516102669190614837565b34801561050d57600080fd5b5061025a61051c366004613fc3565b60036020526000908152604090205460ff1681565b61031661053f3660046148aa565b611517565b34801561055057600080fd5b5061049461055f366004614471565b61156f565b61033e610572366004614923565b6115cc565b34801561058357600080fd5b506102cb7f000000000000000000000000000000000000000000000000000000000000000081565b61033e6105b936600461496e565b6117c6565b6103166105cc3660046142e3565b611890565b6103166105df366004614a57565b611942565b3480156105f057600080fd5b5061025a6105ff366004613fc3565b6001546001600160a01b0391821691161490565b34801561061f57600080fd5b506001546001600160a01b03166102cb565b34801561063d57600080fd5b5061025a61064c366004613fc3565b6000546001600160a01b0391821691161490565b34801561066c57600080fd5b5061049461067b366004614649565b6119ec565b61028261068e366004613fe0565b611aa5565b34801561069f57600080fd5b506103166106ae366004613fc3565b611b5c565b6104c16106c1366004614923565b611b92565b3480156106d257600080fd5b50610316611ce7565b6000808460036106eb8282611d9b565b6040516372ada4c560e01b8152600481018890526001600160a01b0387811660248301523060448301527f000000000000000000000000000000000000000000000000000000000000000016906372ada4c59060640160408051808303816000875af115801561075f573d6000803e3d6000fd5b505050506040513d601f19601f820116820180604052508101906107839190614a85565b90945092506107928386611e4d565b5050935093915050565b6001546001600160a01b031633146108055760405162461bcd60e51b815260206004820152602160248201527f476f7665726e61626c653a206f6e6c792070656e64696e6720676f7665726e6f6044820152603960f91b60648201526084015b60405180910390fd5b61080d611f03565b565b83600061081c8282611d9b565b604051635b6fd01d60e01b8152600481018790526000907f00000000000000000000000000000000000000000000000000000000000000006001600160a01b031690635b6fd01d9060240161010060405180830381865afa158015610885573d6000803e3d6000fd5b505050506040513d601f19601f820116820180604052508101906108a99190614b90565b5190506108b7818786611fab565b604051636f6b805360e11b8152600481018890526024810187905263ffffffff861660448201527f00000000000000000000000000000000000000000000000000000000000000006001600160a01b03169063ded700a6906064015b600060405180830381600087803b15801561092d57600080fd5b505af1158015610941573d6000803e3d6000fd5b5050505050505050505050565b60006001600160a01b038b1673eeeeeeeeeeeeeeeeeeeeeeeeeeeeeeeeeeeeeeee14158061099857506001600160a01b038a1673eeeeeeeeeeeeeeeeeeeeeeeeeeeeeeeeeeeeeeee145b156109b6576040516333910aef60e11b815260040160405180910390fd5b6109bf89611fd0565b60006109cb8686612045565b905082610a9257604051636b29e1bd60e01b81526001600160a01b037f00000000000000000000000000000000000000000000000000000000000000001690636b29e1bd90610a4a907f0000000000000000000000000000000000000000000000000000000000000000908f908f908f908f908f908a90600401614d19565b6020604051808303816000875af1158015610a69573d6000803e3d6000fd5b505050506040513d601f19601f82011682018060405250810190610a8d9190614d68565b610b51565b60405163b2b513c160e01b81526001600160a01b037f0000000000000000000000000000000000000000000000000000000000000000169063b2b513c190610b0e907f0000000000000000000000000000000000000000000000000000000000000000908f908f908f908f908f908a908e908e90600401614daa565b6020604051808303816000875af1158015610b2d573d6000803e3d6000fd5b505050506040513d601f19601f82011682018060405250810190610b519190614d68565b9c9b505050505050505050505050565b6000546001600160a01b03163314610b8b5760405162461bcd60e51b81526004016107fc90614e0f565b828114610bab576040516305d5c8c960e51b815260040160405180910390fd5b60005b83811015610c4257828282818110610bc857610bc8614e46565b9050602002016020810190610bdd9190614e5c565b60026000878785818110610bf357610bf3614e46565b9050602002016020810190610c089190613fc3565b6001600160a01b031681526020810191909152604001600020805460ff191691151591909117905580610c3a81614e8f565b915050610bae565b507f03f0491d4ac1dcd8629e84f9f0d6af60220d6d3e6ce76dc9750959b580cf75e884848484604051610c789493929190614ee8565b60405180910390a150505050565b6000546001600160a01b03163314610cb05760405162461bcd60e51b81526004016107fc90614e0f565b610cbb8383836121ea565b505050565b6000826002610ccf8282611d9b565b604051630176218960e41b8152600481018690526001600160a01b0385811660248301527f000000000000000000000000000000000000000000000000000000000000000016906317621890906044016020604051808303816000875af1158015610d3e573d6000803e3d6000fd5b505050506040513d601f19601f82011682018060405250810190610d629190614d68565b95945050505050565b6000826002610d7a8282611d9b565b604051630176218960e41b8152600481018690523060248201527f00000000000000000000000000000000000000000000000000000000000000006001600160a01b0316906317621890906044016020604051808303816000875af1158015610de7573d6000803e3d6000fd5b505050506040513d601f19601f82011682018060405250810190610e0b9190614d68565b9250610e178385611e4d565b505092915050565b836001610e2c8282611d9b565b60405163f1accf3960e01b8152600481018790526024810186905263ffffffff851660448201526001600160a01b0384811660648301527f0000000000000000000000000000000000000000000000000000000000000000169063f1accf3990608401600060405180830381600087803b158015610ea957600080fd5b505af1158015610ebd573d6000803e3d6000fd5b50505050505050505050565b600080846003610ed98282611d9b565b6040516372ada4c560e01b8152600481018890526001600160a01b03878116602483015286811660448301527f000000000000000000000000000000000000000000000000000000000000000016906372ada4c59060640160408051808303816000875af1158015610f4f573d6000803e3d6000fd5b505050506040513d601f19601f82011682018060405250810190610f739190614a85565b909890975095505050505050565b336001600160a01b037f00000000000000000000000000000000000000000000000000000000000000001614610fca576040516301bb2f1560e21b815260040160405180910390fd5b6001600160a01b0387163014610ff35760405163d219c5db60e01b815260040160405180910390fd5b600061100182840184614fc3565b905060018151600281111561101857611018614c4b565b14156110325761102d87878360200151612370565b611074565b60028151600281111561104757611047614c4b565b141561105c5761102d87878360200151612548565b6040516225941760e31b815260040160405180910390fd5b5050505050505050565b6000546001600160a01b031633146110a85760405162461bcd60e51b81526004016107fc90614e0f565b6001600160a01b0382166110cf5760405163d92e233d60e01b815260040160405180910390fd5b6001600160a01b03919091166000908152600360205260409020805460ff1916911515919091179055565b604080518082019091526060808252602082015260006040518060a001604052808d6001600160a01b031681526020016000151581526020018615158152602001856001600160a01b031681526020018888906111579190615069565b90529050610b518b8b8b8b8588612a56565b60606111967f00000000000000000000000000000000000000000000000000000000000000008484612c40565b9392505050565b604080518082019091526060808252602082015281804211156111f85760405162461bcd60e51b8152602060048201526013602482015272151c985b9cd858dd1a5bdb881d1bdbc81bdb19606a1b60448201526064016107fc565b60008b6001600160401b0381111561121257611212614aa9565b60405190808252806020026020018201604052801561123b578160200160208202803683370190505b5090507f00000000000000000000000000000000000000000000000000000000000000006001600160a01b0316632a2a1a748e8e8e8e8a308860405180604001604052806001600281111561129257611292614c4b565b81526040805180820182523380825234602092830190815283518084019290925251818401528251808203840181526060909101835292810192909252516112db9291016150dc565b6040516020818303038152906040526040518963ffffffff1660e01b815260040161130d989796959493929190615113565b6000604051808303816000875af115801561132c573d6000803e3d6000fd5b505050506040513d6000823e601f3d908101601f1916820160405261135491908101906152a7565b925060005b8351518110156114125760008460000151828151811061137b5761137b614e46565b602002602001015190508a8a8381811061139757611397614e46565b90506020020135816020015110156113c25760405163861aeb1f60e01b815260040160405180910390fd5b8888838181106113d4576113d4614e46565b90506020020135816040015111156113ff5760405163edddba2760e01b815260040160405180910390fd5b508061140a81614e8f565b915050611359565b5050509a9950505050505050505050565b6060816001600160401b0381111561143d5761143d614aa9565b60405190808252806020026020018201604052801561147057816020015b606081526020019060019003908161145b5790505b50905060005b82811015611510576114e03085858481811061149457611494614e46565b90506020028101906114a691906153d0565b8080601f016020809104026020016040519081016040528093929190818152602001838380828437600092019190915250612d2392505050565b8282815181106114f2576114f2614e46565b6020026020010181905250808061150890614e8f565b915050611476565b5092915050565b604051634faa388360e01b81526001600160a01b037f00000000000000000000000000000000000000000000000000000000000000001690634faa388390610913908a908a908a908a908a908a908a90600401615539565b604080518082019091526060808252602082015260006040518060a001604052808d6001600160a01b031681526020016001151581526020018615158152602001856001600160a01b031681526020018888906111579190615069565b6000805b8381101561160d576115fb8585838181106115ed576115ed614e46565b905060200201356002611d9b565b8061160581614e8f565b9150506115d0565b50604080516001808252818301909252600091816020015b6040805180820190915260008152606060208201528152602001906001900390816116255790505090507f00000000000000000000000000000000000000000000000000000000000000008160008151811061168357611683614e46565b6020026020010151600001906001600160a01b031690816001600160a01b03168152505084848080602002602001604051908101604052809392919081815260200183836020028082843760009201829052508551869450909250151590506116ee576116ee614e46565b60200260200101516020018190525060007f00000000000000000000000000000000000000000000000000000000000000006001600160a01b031663480b379683306040518363ffffffff1660e01b815260040161174d92919061557a565b6000604051808303816000875af115801561176c573d6000803e3d6000fd5b505050506040513d6000823e601f3d908101601f19168201604052611794919081019061560a565b9050806000815181106117a9576117a9614e46565b602002602001015192506117bd8385611e4d565b50509392505050565b60006117d38c8b84611fab565b8261183257604051636b29e1bd60e01b81526001600160a01b037f00000000000000000000000000000000000000000000000000000000000000001690636b29e1bd90610a4a908f908f908f908f908f908f908f908f9060040161568f565b60405163b2b513c160e01b81526001600160a01b037f0000000000000000000000000000000000000000000000000000000000000000169063b2b513c190610b0e908f908f908f908f908f908f908f908f908f908f906004016156ed565b83600161189d8282611d9b565b60405163f1accf3960e01b8152600481018790526024810186905263ffffffff851660448201523060648201527f00000000000000000000000000000000000000000000000000000000000000006001600160a01b03169063f1accf3990608401600060405180830381600087803b15801561191857600080fd5b505af115801561192c573d6000803e3d6000fd5b5050505061193a8584611e4d565b505050505050565b82600061194f8282611d9b565b61195884611fd0565b604051636f6b805360e11b8152600481018690526024810185905263ffffffff841660448201527f00000000000000000000000000000000000000000000000000000000000000006001600160a01b03169063ded700a690606401600060405180830381600087803b1580156119cd57600080fd5b505af11580156119e1573d6000803e3d6000fd5b505050505050505050565b6040805180820190915260608082526020820152600080611a0d8585612d48565b60405163d2d95b2d60e01b815291935091506001600160a01b037f0000000000000000000000000000000000000000000000000000000000000000169063d2d95b2d90611a609085908590600401615764565b600060405180830381865afa158015611a7d573d6000803e3d6000fd5b505050506040513d6000823e601f3d908101601f19168201604052610d6291908101906152a7565b600080846003611ab58282611d9b565b6040516372ada4c560e01b8152600481018890523060248201526001600160a01b0386811660448301527f000000000000000000000000000000000000000000000000000000000000000016906372ada4c59060640160408051808303816000875af1158015611b29573d6000803e3d6000fd5b505050506040513d601f19601f82011682018060405250810190611b4d9190614a85565b90945092506107928487611e4d565b6000546001600160a01b03163314611b865760405162461bcd60e51b81526004016107fc90614e0f565b611b8f81612da9565b50565b606060005b83811015611c475760005b858583818110611bb457611bb4614e46565b9050602002810190611bc691906157fa565b611bd490602081019061581a565b9050811015611c3457611c22868684818110611bf257611bf2614e46565b9050602002810190611c0491906157fa565b611c1290602081019061581a565b838181106115ed576115ed614e46565b80611c2c81614e8f565b915050611ba2565b5080611c3f81614e8f565b915050611b97565b506040516324059bcb60e11b81526001600160a01b037f0000000000000000000000000000000000000000000000000000000000000000169063480b379690611c9890879087908790600401615863565b6000604051808303816000875af1158015611cb7573d6000803e3d6000fd5b505050506040513d6000823e601f3d908101601f19168201604052611cdf919081019061560a565b949350505050565b60405163095ea7b360e01b81526001600160a01b037f00000000000000000000000000000000000000000000000000000000000000008116600483015260001960248301527f0000000000000000000000000000000000000000000000000000000000000000169063095ea7b3906044016020604051808303816000875af1158015611d77573d6000803e3d6000fd5b505050506040513d601f19601f82011682018060405250810190611b8f9190615925565b60405163823abfd960e01b81526001600160a01b037f0000000000000000000000000000000000000000000000000000000000000000169063823abfd990611deb90859033908690600401615942565b602060405180830381865afa158015611e08573d6000803e3d6000fd5b505050506040513d601f19601f82011682018060405250810190611e2c9190615925565b611e4957604051635c427cd960e01b815260040160405180910390fd5b5050565b8115611e4957604051632e1a7d4d60e01b8152600481018390527f00000000000000000000000000000000000000000000000000000000000000006001600160a01b031690632e1a7d4d90602401600060405180830381600087803b158015611eb557600080fd5b505af1158015611ec9573d6000803e3d6000fd5b50506040516001600160a01b038416925084156108fc02915084906000818181858888f19350505050158015610cbb573d6000803e3d6000fd5b6001546001600160a01b0316611f5b5760405162461bcd60e51b815260206004820152601f60248201527f476f7665726e61626c653a206e6f2070656e64696e6720676f7665726e6f720060448201526064016107fc565b60018054600080546001600160a01b03199081166001600160a01b0384161782559091169091556040517fdc57ca23c46d823853915ed5a090ca0ee9db5eb6a46f5c58e1c9158de861fd769190a1565b8015611fc657611fc66001600160a01b038416333085612e53565b610cbb8383612ec4565b8015611b8f577f00000000000000000000000000000000000000000000000000000000000000006001600160a01b031663d0e30db0826040518263ffffffff1660e01b81526004016000604051808303818588803b15801561203157600080fd5b505af115801561193a573d6000803e3d6000fd5b6060612052826001615965565b6001600160401b0381111561206957612069614aa9565b6040519080825280602002602001820160405280156120af57816020015b6040805180820190915260008152606060208201528152602001906001900390816120875790505b50905060005b8281101561211a578383828181106120cf576120cf614e46565b90506020028101906120e191906157fa565b6120ea9061597d565b8282815181106120fc576120fc614e46565b6020026020010181905250808061211290614e8f565b9150506120b5565b5060408051600480825260a082019092526000916020820160808036833701905050905060005b60048110156121af5780600381111561215c5761215c614c4b565b82828151811061216e5761216e614e46565b6020026020010190600381111561218757612187614c4b565b9081600381111561219a5761219a614c4b565b905250806121a781614e8f565b915050612141565b50604080518082019091523081526020810182905282518390859081106121d8576121d8614e46565b60200260200101819052505092915050565b6001600160a01b0383166122405760405162461bcd60e51b815260206004820152601d60248201527f436f6c6c65637461626c65447573743a207a65726f206164647265737300000060448201526064016107fc565b61224b600483612f8d565b156122ab5760405162461bcd60e51b815260206004820152602a60248201527f436f6c6c65637461626c65447573743a20746f6b656e2069732070617274206f60448201526919881c1c9bdd1bd8dbdb60b21b60648201526084016107fc565b6001600160a01b03821673eeeeeeeeeeeeeeeeeeeeeeeeeeeeeeeeeeeeeeee141561230c576040516001600160a01b0384169082156108fc029083906000818181858888f19350505050158015612306573d6000803e3d6000fd5b50612320565b6123206001600160a01b0383168483612faf565b604080516001600160a01b038086168252841660208201529081018290527f1e34c1aee8e83c2dcc14c21bb4bfeea7f46c0c998cb797ac7cc4d7a18f5c656b9060600160405180910390a1505050565b6000818060200190518101906123869190615a32565b905060005b838110156125415760008585838181106123a7576123a7614e46565b9050608002018036038101906123bd9190615a6c565b60408101519091501561252e577f00000000000000000000000000000000000000000000000000000000000000006001600160a01b031681600001516001600160a01b03161480156124125750602083015115155b156124ee577f00000000000000000000000000000000000000000000000000000000000000006001600160a01b031663d0e30db082604001516040518263ffffffff1660e01b81526004016000604051808303818588803b15801561247657600080fd5b505af115801561248a573d6000803e3d6000fd5b50505050508060400151836020015111156124ee5782600001516001600160a01b03166108fc826040015185602001516124c49190615abd565b6040518115909202916000818181858888f193505050501580156124ec573d6000803e3d6000fd5b505b82516040820151825161252e926001600160a01b03909116917f000000000000000000000000000000000000000000000000000000000000000090612e53565b508061253981614e8f565b91505061238b565b5050505050565b60008180602001905181019061255e9190615ad4565b905060005b8381101561280057600085858381811061257f5761257f614e46565b9050608002018036038101906125959190615a6c565b6020810151909150156127ed5780516001600160a01b03811660009081526002602052604090205460ff168061265d57845160208401516001600160a01b0384169163095ea7b3916125e8906001615965565b6040516001600160e01b031960e085901b1681526001600160a01b03909216600483015260248201526044016020604051808303816000875af1158015612633573d6000803e3d6000fd5b505050506040513d601f19601f820116820180604052508101906126579190615925565b506127ea565b8451604051636eb1769f60e11b81523060048201526001600160a01b03918216602482015260009184169063dd62ed3e90604401602060405180830381865afa1580156126ae573d6000803e3d6000fd5b505050506040513d601f19601f820116820180604052508101906126d29190614d68565b905083602001518110156127e857801561275e57855160405163095ea7b360e01b81526001600160a01b039182166004820152600060248201529084169063095ea7b3906044016020604051808303816000875af1158015612738573d6000803e3d6000fd5b505050506040513d601f19601f8201168201806040525081019061275c9190615925565b505b8551602085015160405163095ea7b360e01b81526001600160a01b0386169263095ea7b3926127a3926004016001600160a01b03929092168252602082015260400190565b6020604051808303816000875af11580156127c2573d6000803e3d6000fd5b505050506040513d601f19601f820116820180604052508101906127e69190615925565b505b505b50505b50806127f881614e8f565b915050612563565b5060005b81608001515181101561284e5761283c82600001518360800151838151811061282f5761282f614e46565b6020026020010151612fdf565b8061284681614e8f565b915050612804565b5060005b8381101561254157600085858381811061286e5761286e614e46565b6128849260206080909202019081019150613fc3565b6040516370a0823160e01b81523060048201529091506000906001600160a01b038316906370a0823190602401602060405180830381865afa1580156128ce573d6000803e3d6000fd5b505050506040513d601f19601f820116820180604052508101906128f29190614d68565b90508015612a4157600087878581811061290e5761290e614e46565b9050608002016040013590506000811115612a25578460400151156129805760008560200151612942578560600151612964565b7f00000000000000000000000000000000000000000000000000000000000000005b905061297a6001600160a01b0385168285612faf565b50612a3f565b84602001518061298f57508082145b156129cd576129c86001600160a01b0384167f000000000000000000000000000000000000000000000000000000000000000084612faf565b612a3f565b612a016001600160a01b0384167f000000000000000000000000000000000000000000000000000000000000000083612faf565b60608501516129c890612a148385615abd565b6001600160a01b0386169190612faf565b6060850151612a3f906001600160a01b0385169084612faf565b505b50508080612a4e90614e8f565b915050612852565b60408051808201909152606080825260208201528180421115612ab15760405162461bcd60e51b8152602060048201526013602482015272151c985b9cd858dd1a5bdb881d1bdbc81bdb19606a1b60448201526064016107fc565b83516001600160a01b031660009081526003602052604090205460ff16612aeb57604051632974f28d60e21b815260040160405180910390fd5b6000876001600160401b03811115612b0557612b05614aa9565b604051908082528060200260200182016040528015612b2e578160200160208202803683370190505b5090507f00000000000000000000000000000000000000000000000000000000000000006001600160a01b0316632a2a1a748a8a8a8a3030886040518060400160405280600280811115612b8457612b84614c4b565b81526020018f604051602001612b9a9190615c37565b60408051601f19818403018152918152915251612bba91906020016150dc565b6040516020818303038152906040526040518963ffffffff1660e01b8152600401612bec989796959493929190615113565b6000604051808303816000875af1158015612c0b573d6000803e3d6000fd5b505050506040513d6000823e601f3d908101601f19168201604052612c3391908101906152a7565b9998505050505050505050565b6060816001600160401b03811115612c5a57612c5a614aa9565b604051908082528060200260200182016040528015612c83578160200160208202803683370190505b50905060005b82811015612d1b57612cec85858584818110612ca757612ca7614e46565b612cbd9260206040909202019081019150613fc3565b868685818110612ccf57612ccf614e46565b9050604002016020016020810190612ce79190613fc3565b61305f565b828281518110612cfe57612cfe614e46565b602090810291909101015280612d1381614e8f565b915050612c89565b509392505050565b60606111968383604051806060016040528060278152602001615ec9602791396132aa565b606080612d9d84846000604051908082528060200260200182016040528015612d9757816020015b6040805180820190915260008082526020820152815260200190600190039081612d705790505b5061337e565b50909590945092505050565b6001600160a01b038116612dff5760405162461bcd60e51b815260206004820152601860248201527f476f7665726e61626c653a207a65726f2061646472657373000000000000000060448201526064016107fc565b600180546001600160a01b0319166001600160a01b0383169081179091556040519081527f56bddfa0cee9697cebddf9acd7f23dc6583663b05e007b877056d05017994def9060200160405180910390a150565b6040516001600160a01b0380851660248301528316604482015260648101829052612ebe9085906323b872dd60e01b906084015b60408051601f198184030181529190526020810180516001600160e01b03166001600160e01b031990931692909217909152613403565b50505050565b6001600160a01b03821660008181526002602052604090205463095ea7b3907f00000000000000000000000000000000000000000000000000000000000000009060ff16612f1c57612f17846001615965565b612f1e565b835b6040516001600160e01b031960e085901b1681526001600160a01b03909216600483015260248201526044016020604051808303816000875af1158015612f69573d6000803e3d6000fd5b505050506040513d601f19601f82011682018060405250810190610cbb9190615925565b6001600160a01b03811660009081526001830160205260408120541515611196565b6040516001600160a01b038316602482015260448101829052610cbb90849063a9059cbb60e01b90606401612e87565b6000826001600160a01b0316600083604051612ffb9190615ccd565b60006040518083038185875af1925050503d8060008114613038576040519150601f19603f3d011682016040523d82523d6000602084013e61303d565b606091505b5050905080610cbb5760405163254a88ad60e01b815260040160405180910390fd5b600080600061306e85856134d5565b60405163582cf84b60e01b81526001600160a01b038084166004830152808316602483015292945090925060009188169063582cf84b90604401602060405180830381865afa1580156130c5573d6000803e3d6000fd5b505050506040513d601f19601f820116820180604052508101906130e99190615cdf565b9050600160f81b60005b6001600160f81b03198083169084161080159061311957506001600160f81b0319821615155b1561329a57816001600160f81b0319168284166001600160f81b0319161415613284576040516304045d4760e51b81526001600160a01b03898116600483015288811660248301526001600160f81b031984166044830152600091908b169063808ba8e090606401608060405180830381865afa15801561319e573d6000803e3d6000fd5b505050506040513d601f19601f820116820180604052508101906131c29190615d11565b905060006131cf84613506565b90506000818284604001516131e49190615d74565b6131ef906001615da5565b6131f99190615dcd565b63ffffffff169050600083602001516001600160e01b0316118061322a5750600083606001516001600160e01b0316115b1561325f57428111613246578398505050505050505050611196565b6132504282615abd565b98505050505050505050611196565b42811115613280578315613273578361327d565b61327d4282615abd565b93505b5050505b6001826001600160f81b031916901b91506130f3565b5060001998975050505050505050565b6060833b6133095760405162461bcd60e51b815260206004820152602660248201527f416464726573733a2064656c65676174652063616c6c20746f206e6f6e2d636f6044820152651b9d1c9858dd60d21b60648201526084016107fc565b600080856001600160a01b0316856040516133249190615ccd565b600060405180830381855af49150503d806000811461335f576040519150601f19603f3d011682016040523d82523d6000602084013e613364565b606091505b509150915061337482828661361a565b9695505050505050565b60608060606133df8686808060200260200160405190810160405280939291908181526020016000905b828210156133d4576133c560408302860136819003810190615df9565b815260200190600101906133a8565b505050505085613653565b92506133ec868685613b36565b91506133f88484613dc7565b905093509350939050565b6000613458826040518060400160405280602081526020017f5361666545524332303a206c6f772d6c6576656c2063616c6c206661696c6564815250856001600160a01b0316613ecc9092919063ffffffff16565b805190915015610cbb57808060200190518101906134769190615925565b610cbb5760405162461bcd60e51b815260206004820152602a60248201527f5361666545524332303a204552433230206f7065726174696f6e20646964206e6044820152691bdd081cdd58d8d9595960b21b60648201526084016107fc565b600080826001600160a01b0316846001600160a01b0316106134f85782846134fb565b83835b909590945092505050565b6000600160f81b6001600160f81b0319831614156135265750603c919050565b600160f91b6001600160f81b031983161415613545575061012c919050565b600160fa1b6001600160f81b0319831614156135645750610384919050565b600160fb1b6001600160f81b0319831614156135835750610708919050565b600160fc1b6001600160f81b0319831614156135a25750610e10919050565b600160fd1b6001600160f81b0319831614156135c15750613840919050565b600160fe1b6001600160f81b0319831614156135e1575062015180919050565b600160ff1b6001600160f81b031983161415613601575062093a80919050565b60405163bf3cad0b60e01b815260040160405180910390fd5b60608315613629575081611196565b8251156136395782518084602001fd5b8160405162461bcd60e51b81526004016107fc9190615e3a565b60606000808351855160026136689190615e4d565b6136729190615965565b6001600160401b0381111561368957613689614aa9565b6040519080825280602002602001820160405280156136b2578160200160208202803683370190505b50905060005b855181101561388c5760008060005b85811080156136dd57508280156136db5750815b155b156137b2578215801561373757508884815181106136fd576136fd614e46565b6020026020010151600001516001600160a01b031685828151811061372457613724614e46565b60200260200101516001600160a01b0316145b1561374157600192505b81158015613796575088848151811061375c5761375c614e46565b6020026020010151602001516001600160a01b031685828151811061378357613783614e46565b60200260200101516001600160a01b0316145b156137a057600191505b806137aa81614e8f565b9150506136c7565b5081613815578783815181106137ca576137ca614e46565b6020026020010151600001518486806137e290614e8f565b9750815181106137f4576137f4614e46565b60200260200101906001600160a01b031690816001600160a01b0316815250505b806138775787838151811061382c5761382c614e46565b60200260200101516020015184868061384490614e8f565b97508151811061385657613856614e46565b60200260200101906001600160a01b031690816001600160a01b0316815250505b5050808061388490614e8f565b9150506136b8565b5060005b845181101561398c576000805b84811080156138aa575081155b15613916578683815181106138c1576138c1614e46565b6020026020010151600001516001600160a01b03168482815181106138e8576138e8614e46565b60200260200101516001600160a01b0316141561390457600191505b8061390e81614e8f565b91505061389d565b50806139795785828151811061392e5761392e614e46565b60200260200101516000015183858061394690614e8f565b96508151811061395857613958614e46565b60200260200101906001600160a01b031690816001600160a01b0316815250505b508061398481614e8f565b915050613890565b50816001600160401b038111156139a5576139a5614aa9565b6040519080825280602002602001820160405280156139ce578160200160208202803683370190505b50925060005b82811015613b2d5760008282815181106139f0576139f0614e46565b6020026020010151905060005b816001600160a01b0316868281518110613a1957613a19614e46565b60200260200101516001600160a01b0316108015613a63575060006001600160a01b0316868281518110613a4f57613a4f614e46565b60200260200101516001600160a01b031614155b15613a7a5780613a7281614e8f565b9150506139fd565b825b81811115613ae45786613a90600183615abd565b81518110613aa057613aa0614e46565b6020026020010151878281518110613aba57613aba614e46565b6001600160a01b039092166020928302919091019091015280613adc81615e6c565b915050613a7c565b5081868281518110613af857613af8614e46565b60200260200101906001600160a01b031690816001600160a01b03168152505050508080613b2590614e8f565b9150506139d4565b50505092915050565b6060826001600160401b03811115613b5057613b50614aa9565b604051908082528060200260200182016040528015613b9557816020015b6040805180820190915260008082526020820152815260200190600190039081613b6e5790505b5090506000805b83518160ff1610156117bd576000613bb5826001615e83565b90505b84518160ff161015613db45760005b86811015613da157878782818110613be157613be1614e46565b613bf79260206040909202019081019150613fc3565b6001600160a01b0316868460ff1681518110613c1557613c15614e46565b60200260200101516001600160a01b0316148015613c895750878782818110613c4057613c40614e46565b9050604002016020016020810190613c589190613fc3565b6001600160a01b0316868360ff1681518110613c7657613c76614e46565b60200260200101516001600160a01b0316145b80613d495750878782818110613ca157613ca1614e46565b9050604002016020016020810190613cb99190613fc3565b6001600160a01b0316868460ff1681518110613cd757613cd7614e46565b60200260200101516001600160a01b0316148015613d495750878782818110613d0257613d02614e46565b613d189260206040909202019081019150613fc3565b6001600160a01b0316868360ff1681518110613d3657613d36614e46565b60200260200101516001600160a01b0316145b15613d8f576040805180820190915260ff8085168252831660208201528585613d7181614e8f565b965081518110613d8357613d83614e46565b60200260200101819052505b80613d9981614e8f565b915050613bc7565b5080613dac81615ea8565b915050613bb8565b5080613dbf81615ea8565b915050613b9c565b606081516001600160401b03811115613de257613de2614aa9565b604051908082528060200260200182016040528015613e0b578160200160208202803683370190505b50905060005b83518110156115105760005b848281518110613e2f57613e2f614e46565b6020026020010151600001516001600160a01b0316848281518110613e5657613e56614e46565b60200260200101516001600160a01b031614613e7e5780613e7681614e8f565b915050613e1d565b848281518110613e9057613e90614e46565b602002602001015160200151838281518110613eae57613eae614e46565b60209081029190910101525080613ec481614e8f565b915050613e11565b6060611cdf848460008585843b613f255760405162461bcd60e51b815260206004820152601d60248201527f416464726573733a2063616c6c20746f206e6f6e2d636f6e747261637400000060448201526064016107fc565b600080866001600160a01b03168587604051613f419190615ccd565b60006040518083038185875af1925050503d8060008114613f7e576040519150601f19603f3d011682016040523d82523d6000602084013e613f83565b606091505b5091509150613f9382828661361a565b979650505050505050565b6001600160a01b0381168114611b8f57600080fd5b8035613fbe81613f9e565b919050565b600060208284031215613fd557600080fd5b813561119681613f9e565b600080600060608486031215613ff557600080fd5b83359250602084013561400781613f9e565b9150604084013561401781613f9e565b809150509250925092565b63ffffffff81168114611b8f57600080fd5b8035613fbe81614022565b8015158114611b8f57600080fd5b8035613fbe8161403f565b6000806000806080858703121561406e57600080fd5b8435935060208501359250604085013561408781614022565b915060608501356140978161403f565b939692955090935050565b60008083601f8401126140b457600080fd5b5081356001600160401b038111156140cb57600080fd5b6020830191508360208260051b85010111156140e657600080fd5b9250929050565b60008083601f8401126140ff57600080fd5b5081356001600160401b0381111561411657600080fd5b6020830191508360208285010111156140e657600080fd5b6000806000806000806000806000806101008b8d03121561414e57600080fd5b8a3561415981613f9e565b995060208b013561416981613f9e565b985060408b0135975060608b013561418081614022565b965060808b013561419081614022565b955060a08b01356141a081613f9e565b945060c08b01356001600160401b03808211156141bc57600080fd5b6141c88e838f016140a2565b909650945060e08d01359150808211156141e157600080fd5b506141ee8d828e016140ed565b915080935050809150509295989b9194979a5092959850565b6000806000806040858703121561421d57600080fd5b84356001600160401b038082111561423457600080fd5b614240888389016140a2565b9096509450602087013591508082111561425957600080fd5b50614266878288016140a2565b95989497509550505050565b60008060006060848603121561428757600080fd5b833561429281613f9e565b925060208401356142a281613f9e565b929592945050506040919091013590565b600080604083850312156142c657600080fd5b8235915060208301356142d881613f9e565b809150509250929050565b600080600080608085870312156142f957600080fd5b8435935060208501359250604085013561431281614022565b9150606085013561409781613f9e565b60008060008060008060006080888a03121561433d57600080fd5b873561434881613f9e565b965060208801356001600160401b038082111561436457600080fd5b818a0191508a601f83011261437857600080fd5b81358181111561438757600080fd5b8b60208260071b850101111561439c57600080fd5b6020830198508097505060408a01359150808211156143ba57600080fd5b6143c68b838c016140a2565b909650945060608a01359150808211156143df57600080fd5b506143ec8a828b016140ed565b989b979a50959850939692959293505050565b6000806040838503121561441257600080fd5b823561441d81613f9e565b915060208301356142d88161403f565b60008083601f84011261443f57600080fd5b5081356001600160401b0381111561445657600080fd5b6020830191508360208260061b85010111156140e657600080fd5b60008060008060008060008060008060e08b8d03121561449057600080fd5b8a3561449b81613f9e565b995060208b01356001600160401b03808211156144b757600080fd5b6144c38e838f016140a2565b909b50995060408d01359150808211156144dc57600080fd5b6144e88e838f0161442d565b909950975060608d013591508082111561450157600080fd5b5061450e8d828e016140a2565b90965094505060808b01356145228161403f565b925061453060a08c01613fb3565b915060c08b013590509295989b9194979a5092959850565b600081518084526020808501945080840160005b838110156145b857815180516001600160a01b03908116895284820151168489015260408082015190890152606080820151908901526080908101516001600160f81b0319169088015260a0909601959082019060010161455c565b509495945050505050565b600060208083526060808401855160408085880152828251808552608094508489019150868401935060005b8181101561462d57845180516001600160a01b03168452888101518985015284810151858501528701518784015293870193918501916001016145ef565b505094880151878603601f19018289015294612c338187614548565b6000806020838503121561465c57600080fd5b82356001600160401b0381111561467257600080fd5b61467e8582860161442d565b90969095509350505050565b600081518084526020808501945080840160005b838110156145b85781518752958201959082019060010161469e565b602081526000611196602083018461468a565b60008060008060008060008060008060c08b8d0312156146ec57600080fd5b8a356001600160401b038082111561470357600080fd5b61470f8e838f016140a2565b909c509a5060208d013591508082111561472857600080fd5b6147348e838f0161442d565b909a50985060408d013591508082111561474d57600080fd5b6147598e838f016140a2565b909850965060608d013591508082111561477257600080fd5b5061477f8d828e016140a2565b9095509350614792905060808c01613fb3565b915060a08b013590509295989b9194979a5092959850565b600080602083850312156147bd57600080fd5b82356001600160401b038111156147d357600080fd5b61467e858286016140a2565b60005b838110156147fa5781810151838201526020016147e2565b83811115612ebe5750506000910152565b600081518084526148238160208601602086016147df565b601f01601f19169290920160200192915050565b6000602080830181845280855180835260408601915060408160051b870101925083870160005b8281101561488c57603f1988860301845261487a85835161480b565b9450928501929085019060010161485e565b5092979650505050505050565b803560ff81168114613fbe57600080fd5b600080600080600080600060c0888a0312156148c557600080fd5b87356001600160401b038111156148db57600080fd5b6148e78a828b016140a2565b909850965050602088013594506040880135935061490760608901614899565b92506080880135915060a0880135905092959891949750929550565b60008060006040848603121561493857600080fd5b83356001600160401b0381111561494e57600080fd5b61495a868287016140a2565b909450925050602084013561401781613f9e565b60008060008060008060008060008060006101208c8e03121561499057600080fd5b61499a8c35613f9e565b8b359a506149ab60208d0135613f9e565b60208c0135995060408c013598506149c560608d01614034565b97506149d360808d01614034565b96506149e160a08d01613fb3565b95506001600160401b038060c08e013511156149fc57600080fd5b614a0c8e60c08f01358f016140a2565b909650945060e08d0135811015614a2257600080fd5b50614a338d60e08e01358e016140ed565b9093509150614a456101008d0161404d565b90509295989b509295989b9093969950565b600080600060608486031215614a6c57600080fd5b8335925060208401359150604084013561401781614022565b60008060408385031215614a9857600080fd5b505080516020909101519092909150565b634e487b7160e01b600052604160045260246000fd5b604080519081016001600160401b0381118282101715614ae157614ae1614aa9565b60405290565b60405160a081016001600160401b0381118282101715614ae157614ae1614aa9565b604051608081016001600160401b0381118282101715614ae157614ae1614aa9565b604051601f8201601f191681016001600160401b0381118282101715614b5357614b53614aa9565b604052919050565b8051613fbe81613f9e565b8051613fbe81614022565b80516effffffffffffffffffffffffffffff81168114613fbe57600080fd5b6000610100808385031215614ba457600080fd5b604051908101906001600160401b0382118183101715614bc657614bc6614aa9565b8160405283519150614bd782613f9e565b818152614be660208501614b5b565b6020820152614bf760408501614b66565b6040820152614c0860608501614b66565b606082015260808401516080820152614c2360a08501614b66565b60a082015260c084015160c0820152614c3e60e08501614b71565b60e0820152949350505050565b634e487b7160e01b600052602160045260246000fd5b60048110614c7157614c71614c4b565b9052565b600081518084526020808501808196508360051b810191508286016000805b86811015614d0b578385038a52825180516001600160a01b031686528601516040878701819052815190870181905290870190606087019084905b80821015614cf657614ce2838551614c61565b928901929189019160019190910190614ccf565b50509a87019a95505091850191600101614c94565b509298975050505050505050565b6001600160a01b03888116825287811660208301526040820187905263ffffffff868116606084015285166080830152831660a082015260e060c08201819052600090612c3390830184614c75565b600060208284031215614d7a57600080fd5b5051919050565b81835281816020850137506000828201602090810191909152601f909101601f19169091010190565b6001600160a01b038a8116825289811660208301526040820189905263ffffffff888116606084015287166080830152851660a082015261010060c08201819052600090614dfa83820187614c75565b905082810360e0840152610b51818587614d81565b60208082526019908201527f476f7665726e61626c653a206f6e6c7920676f7665726e6f7200000000000000604082015260600190565b634e487b7160e01b600052603260045260246000fd5b600060208284031215614e6e57600080fd5b81356111968161403f565b634e487b7160e01b600052601160045260246000fd5b6000600019821415614ea357614ea3614e79565b5060010190565b8183526000602080850194508260005b858110156145b8578135614ecd81613f9e565b6001600160a01b031687529582019590820190600101614eba565b604081526000614efc604083018688614eaa565b8281036020848101919091528482528591810160005b86811015614f39578335614f258161403f565b151582529282019290820190600101614f12565b5098975050505050505050565b60006001600160401b03821115614f5f57614f5f614aa9565b50601f01601f191660200190565b600082601f830112614f7e57600080fd5b8135614f91614f8c82614f46565b614b2b565b818152846020838601011115614fa657600080fd5b816020850160208301376000918101602001919091529392505050565b600060208284031215614fd557600080fd5b81356001600160401b0380821115614fec57600080fd5b908301906040828603121561500057600080fd5b615008614abf565b82356003811061501757600080fd5b815260208301358281111561502b57600080fd5b61503787828601614f6d565b60208301525095945050505050565b60006001600160401b0382111561505f5761505f614aa9565b5060051b60200190565b6000615077614f8c84615046565b80848252602080830192508560051b85013681111561509557600080fd5b855b818110156150d05780356001600160401b038111156150b65760008081fd5b6150c236828a01614f6d565b865250938201938201615097565b50919695505050505050565b6020815260008251600381106150f4576150f4614c4b565b806020840152506020830151604080840152611cdf606084018261480b565b60c08152600061512760c083018a8c614eaa565b8281036020848101919091528882528991810160005b8a8110156151785760ff8061515186614899565b16835280615160858701614899565b1683850152506040938401939091019060010161513d565b506001600160a01b03891660408601526001600160a01b038816606086015284810360808601526151a9818861468a565b9250505082810360a08401526151bf818561480b565b9b9a5050505050505050505050565b80516001600160f81b031981168114613fbe57600080fd5b600082601f8301126151f757600080fd5b81516020615207614f8c83615046565b82815260a0928302850182019282820191908785111561522657600080fd5b8387015b8581101561529a5781818a0312156152425760008081fd5b61524a614ae7565b815161525581613f9e565b81528186015161526481613f9e565b81870152604082810151908201526060808301519082015260806152898184016151ce565b90820152845292840192810161522a565b5090979650505050505050565b600060208083850312156152ba57600080fd5b82516001600160401b03808211156152d157600080fd5b818501915060408083880312156152e757600080fd5b6152ef614abf565b8351838111156152fe57600080fd5b8401601f8101891361530f57600080fd5b805161531d614f8c82615046565b81815260079190911b8201870190878101908b83111561533c57600080fd5b928801925b8284101561539a576080848d03121561535a5760008081fd5b615362614b09565b845161536d81613f9e565b8152848a01518a820152868501518782015260608086015190820152825260809093019290880190615341565b8452505050838501519150828211156153b257600080fd5b6153be888386016151e6565b85820152809550505050505092915050565b6000808335601e198436030181126153e757600080fd5b8301803591506001600160401b0382111561540157600080fd5b6020019150368190038213156140e657600080fd5b6000808335601e1984360301811261542d57600080fd5b83016020810192503590506001600160401b0381111561544c57600080fd5b8060051b36038313156140e657600080fd5b803560048110613fbe57600080fd5b60008235603e1983360301811261548357600080fd5b90910192915050565b81835260006020808501808196508560051b81019150846000805b88811015614d0b578385038a526154be838961546d565b604080870182356154ce81613f9e565b6001600160a01b031688526154e5838a0184615416565b898b0193909352908290529091506060870190845b83811015615524576155148361550f8461545e565b614c61565b91890191908901906001016154fa565b50509a87019a955050918501916001016154a7565b60c08152600061554d60c08301898b61548c565b602083019790975250604081019490945260ff929092166060840152608083015260a09091015292915050565b6000604080830181845280865180835260608601915060608160051b8701019250602080890160005b838110156155eb57888603605f19018552815180516001600160a01b031687528301518387018890526155d88888018261468a565b96505093820193908201906001016155a3565b50506001600160a01b0397909716959096019490945295945050505050565b6000602080838503121561561d57600080fd5b82516001600160401b0381111561563357600080fd5b8301601f8101851361564457600080fd5b8051615652614f8c82615046565b81815260059190911b8201830190838101908783111561567157600080fd5b928401925b82841015613f9357835182529284019290840190615676565b6001600160a01b03898116825288811660208301526040820188905263ffffffff878116606084015286166080830152841660a082015260e060c082018190526000906156df908301848661548c565b9a9950505050505050505050565b6001600160a01b038b811682528a81166020830152604082018a905263ffffffff898116606084015288166080830152861660a082015261010060c0820181905260009061573e838201878961548c565b905082810360e0840152615753818587614d81565b9d9c50505050505050505050505050565b60408082528351828201819052600091906020906060850190828801855b828110156157a75781516001600160a01b031684529284019290840190600101615782565b5050508481038286015285518082528683019183019060005b818110156157ec578351805160ff908116855290860151168584015292840192918501916001016157c0565b509098975050505050505050565b60008235603e1983360301811261581057600080fd5b9190910192915050565b6000808335601e1984360301811261583157600080fd5b8301803591506001600160401b0382111561584b57600080fd5b6020019150600581901b36038213156140e657600080fd5b60408082528181018490526000906060808401600587811b860183018986805b8b81101561590757898403605f1901865261589e838e61546d565b80356158a981613f9e565b6001600160a01b0316855260206158c282820183615416565b8783018c9052878c0181905292506001600160fb1b038311156158e3578485fd5b91871b918281888c0137509401870182815295840195939290920191600101615883565b5050506001600160a01b03881660208801529450611cdf9350505050565b60006020828403121561593757600080fd5b81516111968161403f565b8381526001600160a01b038316602082015260608101611cdf6040830184614c61565b6000821982111561597857615978614e79565b500190565b60006040823603121561598f57600080fd5b615997614abf565b82356159a281613f9e565b81526020838101356001600160401b038111156159be57600080fd5b840136601f8201126159cf57600080fd5b80356159dd614f8c82615046565b81815260059190911b820183019083810190368311156159fc57600080fd5b928401925b82841015615a2157615a128461545e565b82529284019290840190615a01565b938501939093525091949350505050565b600060408284031215615a4457600080fd5b615a4c614abf565b8251615a5781613f9e565b81526020928301519281019290925250919050565b600060808284031215615a7e57600080fd5b615a86614b09565b8235615a9181613f9e565b808252506020830135602082015260408301356040820152606083013560608201528091505092915050565b600082821015615acf57615acf614e79565b500390565b60006020808385031215615ae757600080fd5b82516001600160401b0380821115615afe57600080fd5b9084019060a08287031215615b1257600080fd5b615b1a614ae7565b8251615b2581613f9e565b815282840151615b348161403f565b81850152604083810151615b478161403f565b828201526060840151615b5981613f9e565b6060830152608084015183811115615b7057600080fd5b80850194505087601f850112615b8557600080fd5b8351615b93614f8c82615046565b81815260059190911b8501860190868101908a831115615bb257600080fd5b8787015b83811015615c2357805187811115615bce5760008081fd5b8801603f81018d13615be05760008081fd5b89810151615bf0614f8c82614f46565b8181528e88838501011115615c055760008081fd5b615c14828d83018a86016147df565b85525050918801918801615bb6565b506080850152509198975050505050505050565b6000602080835260c0830160018060a01b038086511683860152828601511515604086015260408601511515606086015280606087015116608086015250608085015160a08086015281815180845260e08701915060e08160051b8801019350848301925060005b8181101561488c5760df19888603018352615cbb85855161480b565b94509285019291850191600101615c9f565b600082516158108184602087016147df565b600060208284031215615cf157600080fd5b611196826151ce565b80516001600160e01b0381168114613fbe57600080fd5b600060808284031215615d2357600080fd5b615d2b614b09565b8251615d3681614022565b8152615d4460208401615cfa565b60208201526040830151615d5781614022565b6040820152615d6860608401615cfa565b60608201529392505050565b600063ffffffff80841680615d9957634e487b7160e01b600052601260045260246000fd5b92169190910492915050565b600063ffffffff808316818516808303821115615dc457615dc4614e79565b01949350505050565b600063ffffffff80831681851681830481118215151615615df057615df0614e79565b02949350505050565b600060408284031215615e0b57600080fd5b615e13614abf565b8235615e1e81613f9e565b81526020830135615e2e81613f9e565b60208201529392505050565b602081526000611196602083018461480b565b6000816000190483118215151615615e6757615e67614e79565b500290565b600081615e7b57615e7b614e79565b506000190190565b600060ff821660ff84168060ff03821115615ea057615ea0614e79565b019392505050565b600060ff821660ff811415615ebf57615ebf614e79565b6001019291505056fe416464726573733a206c6f772d6c6576656c2064656c65676174652063616c6c206661696c6564a2646970667358221220a559b040db5eb9bdcb56356d99efe03d9a02d1cb418600987156610af46103e364736f6c634300080a0033",
  "devdoc": {
    "kind": "dev",
    "methods": {
      "approveWTokenForHub()": {
        "details": "Anyone can call this method"
      },
      "defineDexSupport(address,bool)": {
        "details": "Will revert with `ZeroAddress` if the zero address if given",
        "params": {
          "_dex": "The address of the DEX",
          "_support": "Whether the Companion should support swaps with the given DEX"
        }
      },
      "depositProxy(address,address,uint256,uint32,uint32,address,(address,uint8[])[],bytes,bool)": {
        "details": "Meant to be used as part of a multicall",
        "params": {
          "_amount": "How many \"from\" tokens will be swapped in total",
          "_amountOfSwaps": "How many swaps to execute for this position",
          "_from": "The address of the \"from\" token",
          "_miscellaneous": "Bytes that will be emitted, and associated with the position. If empty, no event will be emitted",
          "_owner": "The address of the owner of the position being created",
          "_swapInterval": "How frequently the position's swaps should be executed",
          "_to": "The address of the \"to\" token",
          "_transferFromCaller": "Determines if the funds should be transfered from the caller"
        },
        "returns": {
          "_positionId": "The id of the created position"
        }
      },
      "depositUsingProtocolToken(address,address,uint256,uint32,uint32,address,(address,uint8[])[],bytes)": {
        "details": "This function will also give all permissions to this contract, so that it can then withdraw/terminate and convert back to protocol's token. Will revert with InvalidTokens unless only one of the tokens is the protocol token",
        "params": {
          "_amount": "How many \"from\" tokens will be swapped in total",
          "_amountOfSwaps": "How many swaps to execute for this position",
          "_from": "The address of the \"from\" token",
          "_miscellaneous": "Bytes that will be emitted, and associated with the position. If empty, no event will be emitted",
          "_owner": "The address of the owner of the position being created",
          "_permissions": "Extra permissions to add to the position. Can be empty",
          "_swapInterval": "How frequently the position's swaps should be executed",
          "_to": "The address of the \"to\" token"
        },
        "returns": {
          "_positionId": "The id of the created position"
        }
      },
      "getNextSwapInfo((address,address)[])": {
        "details": "Please note that this function is very expensive. Ideally, it would be used for off-chain purposes",
        "params": {
          "_pairs": "The pairs to be involved in the swap"
        },
        "returns": {
          "_0": "How executing a swap for all the given pairs would look like"
        }
      },
      "increasePositionProxy(uint256,uint256,uint32,bool)": {
        "details": "Meant to be used as part of a multicall",
        "params": {
          "_amount": "Amount of funds to add to the position",
          "_newSwaps": "The new amount of swaps",
          "_positionId": "The position's id",
          "_transferFromCaller": "Determines if the funds should be transfered from the caller"
        }
      },
      "increasePositionUsingProtocolToken(uint256,uint256,uint32)": {
        "params": {
          "_amount": "Amount of funds to add to the position",
          "_newSwaps": "The new amount of swaps",
          "_positionId": "The position's id"
        }
      },
      "multicall(bytes[])": {
        "details": "Receives and executes a batch of function calls on this contract."
      },
      "permissionPermitProxy((address,uint8[])[],uint256,uint256,uint8,bytes32,bytes32)": {
        "params": {
          "_deadline": "The deadline timestamp by which the call must be mined for the approve to work",
          "_permissions": "The permissions to set",
          "_r": "Must produce valid secp256k1 signature from the holder along with `v` and `s`",
          "_s": "Must produce valid secp256k1 signature from the holder along with `r` and `v`",
          "_tokenId": "The token's id",
          "_v": "Must produce valid secp256k1 signature from the holder along with `r` and `s`"
        }
      },
      "reducePositionProxy(uint256,uint256,uint32,address)": {
        "details": "Meant to be used as part of a multicall",
        "params": {
          "_amount": "Amount of funds to withdraw from the position",
          "_newSwaps": "The new amount of swaps",
          "_positionId": "The position's id",
          "_recipient": "The address to send tokens to"
        }
      },
      "reducePositionUsingProtocolToken(uint256,uint256,uint32,address)": {
        "params": {
          "_amount": "Amount of funds to withdraw from the position",
          "_newSwaps": "The new amount of swaps",
          "_positionId": "The position's id",
          "_recipient": "The address to send tokens to"
        }
      },
      "secondsUntilNextSwap((address,address)[])": {
        "details": "Tokens in pairs may be passed in either tokenA/tokenB or tokenB/tokenA order",
        "params": {
          "_pairs": "Pairs to check"
        },
        "returns": {
          "_0": "The amount of seconds until next swap for each of the pairs"
        }
      },
      "setTokensWithApprovalIssues(address[],bool[])": {
        "details": "Will revert with `InvalidTokenApprovalParams` if the length of the given arrays differ",
        "params": {
          "_addresses": "The addresses of the tokens",
          "_hasIssue": "Wether they have issues or not"
        }
      },
      "swapForCaller(address[],(uint8,uint8)[],uint256[],uint256[],address,uint256)": {
        "details": "Will revert: With RewardNotEnough if the minimum output is not met With ToProvideIsTooMuch if the hub swap requires more than the given maximum input",
        "params": {
          "_deadline": "Deadline when the swap becomes invalid",
          "_maximumInput": "The maximum amount of tokens to provide as part of the swap",
          "_minimumOutput": "The minimum amount of tokens to receive as part of the swap",
          "_pairsToSwap": "The pairs to swap",
          "_recipient": "Address that will receive all the tokens from the swap",
          "_tokens": "The tokens involved in the swap"
        },
        "returns": {
          "_swapInfo": "The information about the executed swap"
        }
      },
      "swapWithDex(address,address[],(uint8,uint8)[],bytes[],bool,address,uint256)": {
        "params": {
          "_callsToDex": "The bytes to send to the DEX to execute swaps",
          "_deadline": "Deadline when the swap becomes invalid",
          "_dex": "The DEX that will be used in the swap",
          "_doDexSwapsIncludeTransferToHub": "Some DEXes support swap & transfer, which would be cheaper in terms of gas If this feature is used, then the flag should be true",
          "_leftoverRecipient": "Address that will receive all unspent tokens",
          "_pairsToSwap": "The pairs to swap",
          "_tokens": "The tokens involved in the swap"
        },
        "returns": {
          "_0": "The information about the executed swap"
        }
      },
      "swapWithDexAndShareLeftoverWithHub(address,address[],(uint8,uint8)[],bytes[],bool,address,uint256)": {
        "params": {
          "_callsToDex": "The bytes to send to the DEX to execute swaps",
          "_deadline": "Deadline when the swap becomes invalid",
          "_dex": "The DEX that will be used in the swap",
          "_doDexSwapsIncludeTransferToHub": "Some DEXes support swap & transfer, which would be cheaper in terms of gas If this feature is used, then the flag should be true",
          "_leftoverRecipient": "Address that will receive `reward` unspent tokens",
          "_pairsToSwap": "The pairs to swap",
          "_tokens": "The tokens involved in the swap"
        },
        "returns": {
          "_0": "The information about the executed swap"
        }
      },
      "terminateProxy(uint256,address,address)": {
        "details": "Meant to be used as part of a multicall",
        "params": {
          "_positionId": "The position's id",
          "_recipientSwapped": "The address to withdraw swapped tokens to",
          "_recipientUnswapped": "The address to withdraw unswapped tokens to"
        },
        "returns": {
          "_swapped": "The swapped balance sent to `_recipientSwapped`",
          "_unswapped": "The unswapped balance sent to `_recipientUnswapped`"
        }
      },
      "terminateUsingProtocolTokenAsFrom(uint256,address,address)": {
        "params": {
          "_positionId": "The position's id",
          "_recipientSwapped": "The address to withdraw swapped tokens to",
          "_recipientUnswapped": "The address to withdraw unswapped tokens to"
        },
        "returns": {
          "_swapped": "The swapped balance sent to `_recipientSwapped`",
          "_unswapped": "The unswapped balance sent to `_recipientUnswapped`"
        }
      },
      "terminateUsingProtocolTokenAsTo(uint256,address,address)": {
        "params": {
          "_positionId": "The position's id",
          "_recipientSwapped": "The address to withdraw swapped tokens to",
          "_recipientUnswapped": "The address to withdraw unswapped tokens to"
        },
        "returns": {
          "_swapped": "The swapped balance sent to `_recipientSwapped`",
          "_unswapped": "The unswapped balance sent to `_recipientUnswapped`"
        }
      },
      "withdrawSwappedManyProxy((address,uint256[])[],address)": {
        "details": "Meant to be used as part of a multicall",
        "params": {
          "_positions": "A list positions, grouped by `to` token",
          "_recipient": "The address to withdraw swapped tokens to"
        },
        "returns": {
          "_withdrawn": "How much was withdrawn for each token"
        }
      },
      "withdrawSwappedManyUsingProtocolToken(uint256[],address)": {
        "params": {
          "_positionIds": "A list positions whose 'to' token is the wToken",
          "_recipient": "The address to withdraw swapped tokens to"
        },
        "returns": {
          "_swapped": "How much was withdrawn in total"
        }
      },
      "withdrawSwappedProxy(uint256,address)": {
        "details": "Meant to be used as part of a multicall",
        "params": {
          "_positionId": "The position's id",
          "_recipient": "The address to withdraw swapped tokens to"
        },
        "returns": {
          "_swapped": "How much was withdrawn"
        }
      },
      "withdrawSwappedUsingProtocolToken(uint256,address)": {
        "params": {
          "_positionId": "The position's id",
          "_recipient": "The address to withdraw swapped tokens to"
        },
        "returns": {
          "_swapped": "How much was withdrawn"
        }
      }
    },
    "version": 1
  },
  "userdoc": {
    "errors": {
      "CallToDexFailed()": [
        {
          "notice": "Thrown when a call to the given DEX fails"
        }
      ],
      "CallbackNotCalledByHub()": [
        {
          "notice": "Thrown when callback is not called by the hub"
        }
      ],
      "InvalidMask()": [
        {
          "notice": "Thrown when a user tries convert and invalid byte representation to an interval"
        }
      ],
      "InvalidTokenApprovalParams()": [
        {
          "notice": "Thrown when the given parameters are invalid"
        }
      ],
      "InvalidTokens()": [
        {
          "notice": "Thrown when the user tries to make a deposit where neither or both of the tokens are the protocol token"
        }
      ],
      "RewardNotEnough()": [
        {
          "notice": "Thrown when the reward is less that the specified minimum"
        }
      ],
      "SwapNotInitiatedByCompanion()": [
        {
          "notice": "Thrown when swap was not initiated by the companion"
        }
      ],
      "ToProvideIsTooMuch()": [
        {
          "notice": "Thrown when the amount to provide is more than the specified maximum"
        }
      ],
      "UnauthorizedCaller()": [
        {
          "notice": "Thrown when a user tries operate on a position that they don't have access to"
        }
      ],
      "UnexpectedSwapPlan()": [
        {
          "notice": "Thrown when the callback is executed with an unexpected swap plan"
        }
      ],
      "UnsupportedDex()": [
        {
          "notice": "Thrown when a swap is executed with a DEX that is not supported"
        }
      ],
      "ZeroAddress()": [
        {
          "notice": "Thrown when one of the parameters is a zero address"
        }
      ]
    },
    "events": {
      "TokenWithApprovalIssuesSet(address[],bool[])": {
        "notice": "Emitted when tokens with approval issues are set"
      }
    },
    "kind": "user",
    "methods": {
      "PROTOCOL_TOKEN()": {
        "notice": "Returns the address used to represent the protocol token (f.e. ETH/MATIC)"
      },
      "approveWTokenForHub()": {
        "notice": "Increases the allowance of wToken to the max, for the DCAHub"
      },
      "defineDexSupport(address,bool)": {
        "notice": "Defines whether a specific DEX will be supported for swaps"
      },
      "depositProxy(address,address,uint256,uint32,uint32,address,(address,uint8[])[],bytes,bool)": {
        "notice": "Creates a new position"
      },
      "depositUsingProtocolToken(address,address,uint256,uint32,uint32,address,(address,uint8[])[],bytes)": {
        "notice": "Creates a new position by converting the protocol's base token to its wrapped version"
      },
      "getNextSwapInfo((address,address)[])": {
        "notice": "Takes a list of pairs and returns how it would look like to execute a swap for all of them"
      },
      "hub()": {
        "notice": "Returns the DCA Hub's address"
      },
      "increasePositionProxy(uint256,uint256,uint32,bool)": {
        "notice": "Call the hub and takes the unswapped balance, adds the new deposited funds and modifies the position so that it is executed in _newSwaps swaps"
      },
      "increasePositionUsingProtocolToken(uint256,uint256,uint32)": {
        "notice": "Takes the unswapped balance, adds the new deposited funds and modifies the position so that it is executed in _newSwaps swaps"
      },
      "isDexSupported(address)": {
        "notice": "Returns whether the given DEX can be used for swaps for not"
      },
      "permissionManager()": {
        "notice": "Returns the permission manager contract"
      },
      "permissionPermitProxy((address,uint8[])[],uint256,uint256,uint8,bytes32,bytes32)": {
        "notice": "Calls the permission manager and sets permissions via signature"
      },
      "reducePositionProxy(uint256,uint256,uint32,address)": {
        "notice": "Call the hub and withdraws the specified amount from the unswapped balance and modifies the position so that it is executed in _newSwaps swaps"
      },
      "reducePositionUsingProtocolToken(uint256,uint256,uint32,address)": {
        "notice": "Withdraws the specified amount from the unswapped balance and modifies the position so that it is executed in _newSwaps swaps"
      },
      "secondsUntilNextSwap((address,address)[])": {
        "notice": "Returns how many seconds left until the next swap is available for a list of pairs"
      },
      "setTokensWithApprovalIssues(address[],bool[])": {
        "notice": "Sets whether specific addresses have issues with approvals, like USDT"
      },
      "swapForCaller(address[],(uint8,uint8)[],uint256[],uint256[],address,uint256)": {
        "notice": "Executes a swap for the caller, by sending them the reward, and taking from them the needed tokens"
      },
      "swapWithDex(address,address[],(uint8,uint8)[],bytes[],bool,address,uint256)": {
        "notice": "Executes a swap with the given DEX, and sends all unspent tokens to the given recipient"
      },
      "swapWithDexAndShareLeftoverWithHub(address,address[],(uint8,uint8)[],bytes[],bool,address,uint256)": {
        "notice": "Executes a swap with the given DEX and sends all `reward` unspent tokens to the given recipient. All positive slippage for tokens that need to be returned to the hub is also sent to the hub"
      },
      "terminateProxy(uint256,address,address)": {
        "notice": "Calls the hub and terminates the position and sends all unswapped and swapped balance to the specified recipients"
      },
      "terminateUsingProtocolTokenAsFrom(uint256,address,address)": {
        "notice": "Terminates the position and sends all unswapped and swapped balance to the specified recipients"
      },
      "terminateUsingProtocolTokenAsTo(uint256,address,address)": {
        "notice": "Terminates the position and sends all unswapped and swapped balance to the specified recipients"
      },
      "tokenHasApprovalIssue(address)": {
        "notice": "Returns whether the given address has issues with approvals, like USDT"
      },
      "wToken()": {
        "notice": "Returns the address of the wrapped token"
      },
      "withdrawSwappedManyProxy((address,uint256[])[],address)": {
        "notice": "Call the hub and withdraws all swapped tokens from multiple positions"
      },
      "withdrawSwappedManyUsingProtocolToken(uint256[],address)": {
        "notice": "Withdraws all swapped tokens from multiple positions"
      },
      "withdrawSwappedProxy(uint256,address)": {
        "notice": "Call the hub and withdraws all swapped tokens from a position to a recipient"
      },
      "withdrawSwappedUsingProtocolToken(uint256,address)": {
        "notice": "Withdraws all swapped tokens from a position to a recipient"
      }
    },
    "version": 1
  },
  "storageLayout": {
    "storage": [
      {
        "astId": 8925,
        "contract": "contracts/DCAHubCompanion/DCAHubCompanion.sol:DCAHubCompanion",
        "label": "_governor",
        "offset": 0,
        "slot": "0",
        "type": "t_address"
      },
      {
        "astId": 8927,
        "contract": "contracts/DCAHubCompanion/DCAHubCompanion.sol:DCAHubCompanion",
        "label": "_pendingGovernor",
        "offset": 0,
        "slot": "1",
        "type": "t_address"
      },
      {
        "astId": 4169,
        "contract": "contracts/DCAHubCompanion/DCAHubCompanion.sol:DCAHubCompanion",
        "label": "tokenHasApprovalIssue",
        "offset": 0,
        "slot": "2",
        "type": "t_mapping(t_address,t_bool)"
      },
      {
        "astId": 4378,
        "contract": "contracts/DCAHubCompanion/DCAHubCompanion.sol:DCAHubCompanion",
        "label": "isDexSupported",
        "offset": 0,
        "slot": "3",
        "type": "t_mapping(t_address,t_bool)"
      },
      {
        "astId": 8819,
        "contract": "contracts/DCAHubCompanion/DCAHubCompanion.sol:DCAHubCompanion",
        "label": "_protocolTokens",
        "offset": 0,
        "slot": "4",
        "type": "t_struct(AddressSet)3387_storage"
      }
    ],
    "types": {
      "t_address": {
        "encoding": "inplace",
        "label": "address",
        "numberOfBytes": "20"
      },
      "t_array(t_bytes32)dyn_storage": {
        "base": "t_bytes32",
        "encoding": "dynamic_array",
        "label": "bytes32[]",
        "numberOfBytes": "32"
      },
      "t_bool": {
        "encoding": "inplace",
        "label": "bool",
        "numberOfBytes": "1"
      },
      "t_bytes32": {
        "encoding": "inplace",
        "label": "bytes32",
        "numberOfBytes": "32"
      },
      "t_mapping(t_address,t_bool)": {
        "encoding": "mapping",
        "key": "t_address",
        "label": "mapping(address => bool)",
        "numberOfBytes": "32",
        "value": "t_bool"
      },
      "t_mapping(t_bytes32,t_uint256)": {
        "encoding": "mapping",
        "key": "t_bytes32",
        "label": "mapping(bytes32 => uint256)",
        "numberOfBytes": "32",
        "value": "t_uint256"
      },
      "t_struct(AddressSet)3387_storage": {
        "encoding": "inplace",
        "label": "struct EnumerableSet.AddressSet",
        "members": [
          {
            "astId": 3386,
            "contract": "contracts/DCAHubCompanion/DCAHubCompanion.sol:DCAHubCompanion",
            "label": "_inner",
            "offset": 0,
            "slot": "0",
            "type": "t_struct(Set)3086_storage"
          }
        ],
        "numberOfBytes": "64"
      },
      "t_struct(Set)3086_storage": {
        "encoding": "inplace",
        "label": "struct EnumerableSet.Set",
        "members": [
          {
            "astId": 3081,
            "contract": "contracts/DCAHubCompanion/DCAHubCompanion.sol:DCAHubCompanion",
            "label": "_values",
            "offset": 0,
            "slot": "0",
            "type": "t_array(t_bytes32)dyn_storage"
          },
          {
            "astId": 3085,
            "contract": "contracts/DCAHubCompanion/DCAHubCompanion.sol:DCAHubCompanion",
            "label": "_indexes",
            "offset": 0,
            "slot": "1",
            "type": "t_mapping(t_bytes32,t_uint256)"
          }
        ],
        "numberOfBytes": "64"
      },
      "t_uint256": {
        "encoding": "inplace",
        "label": "uint256",
        "numberOfBytes": "32"
      }
    }
  }
}