{
  "address": "0x9BA4B15f833c70a74e0fCc18f36d3C6157dcf687",
  "abi": [
    {
      "inputs": [
        {
          "internalType": "contract IDCAHub",
          "name": "_hub",
          "type": "address"
        },
        {
          "internalType": "contract IWrappedProtocolToken",
          "name": "_wToken",
          "type": "address"
        },
        {
          "internalType": "address",
          "name": "_governor",
          "type": "address"
        }
      ],
      "stateMutability": "nonpayable",
      "type": "constructor"
    },
    {
      "inputs": [],
      "name": "CallToDexFailed",
      "type": "error"
    },
    {
      "inputs": [],
      "name": "CallbackNotCalledByHub",
      "type": "error"
    },
    {
      "inputs": [],
      "name": "InvalidMask",
      "type": "error"
    },
    {
      "inputs": [],
      "name": "InvalidTokenApprovalParams",
      "type": "error"
    },
    {
      "inputs": [],
      "name": "InvalidTokens",
      "type": "error"
    },
    {
      "inputs": [],
      "name": "RewardNotEnough",
      "type": "error"
    },
    {
      "inputs": [],
      "name": "SwapNotInitiatedByCompanion",
      "type": "error"
    },
    {
      "inputs": [],
      "name": "ToProvideIsTooMuch",
      "type": "error"
    },
    {
      "inputs": [],
      "name": "UnauthorizedCaller",
      "type": "error"
    },
    {
      "inputs": [],
      "name": "UnexpectedSwapPlan",
      "type": "error"
    },
    {
      "inputs": [],
      "name": "UnsupportedDex",
      "type": "error"
    },
    {
      "inputs": [],
      "name": "ZeroAddress",
      "type": "error"
    },
    {
      "anonymous": false,
      "inputs": [
        {
          "indexed": false,
          "internalType": "address",
          "name": "_to",
          "type": "address"
        },
        {
          "indexed": false,
          "internalType": "address",
          "name": "token",
          "type": "address"
        },
        {
          "indexed": false,
          "internalType": "uint256",
          "name": "amount",
          "type": "uint256"
        }
      ],
      "name": "DustSent",
      "type": "event"
    },
    {
      "anonymous": false,
      "inputs": [],
      "name": "PendingGovernorAccepted",
      "type": "event"
    },
    {
      "anonymous": false,
      "inputs": [
        {
          "indexed": false,
          "internalType": "address",
          "name": "_pendingGovernor",
          "type": "address"
        }
      ],
      "name": "PendingGovernorSet",
      "type": "event"
    },
    {
      "anonymous": false,
      "inputs": [
        {
          "indexed": false,
          "internalType": "address[]",
          "name": "addresses",
          "type": "address[]"
        },
        {
          "indexed": false,
          "internalType": "bool[]",
          "name": "hasIssue",
          "type": "bool[]"
        }
      ],
      "name": "TokenWithApprovalIssuesSet",
      "type": "event"
    },
    {
      "inputs": [
        {
          "internalType": "address",
          "name": "_sender",
          "type": "address"
        },
        {
          "components": [
            {
              "internalType": "address",
              "name": "token",
              "type": "address"
            },
            {
              "internalType": "uint256",
              "name": "reward",
              "type": "uint256"
            },
            {
              "internalType": "uint256",
              "name": "toProvide",
              "type": "uint256"
            },
            {
              "internalType": "uint256",
              "name": "platformFee",
              "type": "uint256"
            }
          ],
          "internalType": "struct IDCAHubSwapHandler.TokenInSwap[]",
          "name": "_tokens",
          "type": "tuple[]"
        },
        {
          "internalType": "uint256[]",
          "name": "",
          "type": "uint256[]"
        },
        {
          "internalType": "bytes",
          "name": "_data",
          "type": "bytes"
        }
      ],
      "name": "DCAHubSwapCall",
      "outputs": [],
      "stateMutability": "nonpayable",
      "type": "function"
    },
    {
      "inputs": [],
      "name": "PROTOCOL_TOKEN",
      "outputs": [
        {
          "internalType": "address",
          "name": "",
          "type": "address"
        }
      ],
      "stateMutability": "view",
      "type": "function"
    },
    {
      "inputs": [],
      "name": "acceptPendingGovernor",
      "outputs": [],
      "stateMutability": "nonpayable",
      "type": "function"
    },
    {
      "inputs": [],
      "name": "approveWTokenForHub",
      "outputs": [],
      "stateMutability": "nonpayable",
      "type": "function"
    },
    {
      "inputs": [
        {
          "internalType": "address",
          "name": "_dex",
          "type": "address"
        },
        {
          "internalType": "bool",
          "name": "_support",
          "type": "bool"
        }
      ],
      "name": "defineDexSupport",
      "outputs": [],
      "stateMutability": "nonpayable",
      "type": "function"
    },
    {
      "inputs": [
        {
          "internalType": "address",
          "name": "_from",
          "type": "address"
        },
        {
          "internalType": "address",
          "name": "_to",
          "type": "address"
        },
        {
          "internalType": "uint256",
          "name": "_amount",
          "type": "uint256"
        },
        {
          "internalType": "uint32",
          "name": "_amountOfSwaps",
          "type": "uint32"
        },
        {
          "internalType": "uint32",
          "name": "_swapInterval",
          "type": "uint32"
        },
        {
          "internalType": "address",
          "name": "_owner",
          "type": "address"
        },
        {
          "components": [
            {
              "internalType": "address",
              "name": "operator",
              "type": "address"
            },
            {
              "internalType": "enum IDCAPermissionManager.Permission[]",
              "name": "permissions",
              "type": "uint8[]"
            }
          ],
          "internalType": "struct IDCAPermissionManager.PermissionSet[]",
          "name": "_permissions",
          "type": "tuple[]"
        },
        {
          "internalType": "bytes",
          "name": "_miscellaneous",
          "type": "bytes"
        },
        {
          "internalType": "bool",
          "name": "_transferFromCaller",
          "type": "bool"
        }
      ],
      "name": "depositProxy",
      "outputs": [
        {
          "internalType": "uint256",
          "name": "_positionId",
          "type": "uint256"
        }
      ],
      "stateMutability": "payable",
      "type": "function"
    },
    {
      "inputs": [
        {
          "internalType": "address",
          "name": "_from",
          "type": "address"
        },
        {
          "internalType": "address",
          "name": "_to",
          "type": "address"
        },
        {
          "internalType": "uint256",
          "name": "_amount",
          "type": "uint256"
        },
        {
          "internalType": "uint32",
          "name": "_amountOfSwaps",
          "type": "uint32"
        },
        {
          "internalType": "uint32",
          "name": "_swapInterval",
          "type": "uint32"
        },
        {
          "internalType": "address",
          "name": "_owner",
          "type": "address"
        },
        {
          "components": [
            {
              "internalType": "address",
              "name": "operator",
              "type": "address"
            },
            {
              "internalType": "enum IDCAPermissionManager.Permission[]",
              "name": "permissions",
              "type": "uint8[]"
            }
          ],
          "internalType": "struct IDCAPermissionManager.PermissionSet[]",
          "name": "_permissions",
          "type": "tuple[]"
        },
        {
          "internalType": "bytes",
          "name": "_miscellaneous",
          "type": "bytes"
        }
      ],
      "name": "depositUsingProtocolToken",
      "outputs": [
        {
          "internalType": "uint256",
          "name": "_positionId",
          "type": "uint256"
        }
      ],
      "stateMutability": "payable",
      "type": "function"
    },
    {
      "inputs": [
        {
          "components": [
            {
              "internalType": "address",
              "name": "tokenA",
              "type": "address"
            },
            {
              "internalType": "address",
              "name": "tokenB",
              "type": "address"
            }
          ],
          "internalType": "struct Pair[]",
          "name": "_pairs",
          "type": "tuple[]"
        }
      ],
      "name": "getNextSwapInfo",
      "outputs": [
        {
          "components": [
            {
              "components": [
                {
                  "internalType": "address",
                  "name": "token",
                  "type": "address"
                },
                {
                  "internalType": "uint256",
                  "name": "reward",
                  "type": "uint256"
                },
                {
                  "internalType": "uint256",
                  "name": "toProvide",
                  "type": "uint256"
                },
                {
                  "internalType": "uint256",
                  "name": "platformFee",
                  "type": "uint256"
                }
              ],
              "internalType": "struct IDCAHubSwapHandler.TokenInSwap[]",
              "name": "tokens",
              "type": "tuple[]"
            },
            {
              "components": [
                {
                  "internalType": "address",
                  "name": "tokenA",
                  "type": "address"
                },
                {
                  "internalType": "address",
                  "name": "tokenB",
                  "type": "address"
                },
                {
                  "internalType": "uint256",
                  "name": "ratioAToB",
                  "type": "uint256"
                },
                {
                  "internalType": "uint256",
                  "name": "ratioBToA",
                  "type": "uint256"
                },
                {
                  "internalType": "bytes1",
                  "name": "intervalsInSwap",
                  "type": "bytes1"
                }
              ],
              "internalType": "struct IDCAHubSwapHandler.PairInSwap[]",
              "name": "pairs",
              "type": "tuple[]"
            }
          ],
          "internalType": "struct IDCAHubSwapHandler.SwapInfo",
          "name": "",
          "type": "tuple"
        }
      ],
      "stateMutability": "view",
      "type": "function"
    },
    {
      "inputs": [],
      "name": "governor",
      "outputs": [
        {
          "internalType": "address",
          "name": "",
          "type": "address"
        }
      ],
      "stateMutability": "view",
      "type": "function"
    },
    {
      "inputs": [],
      "name": "hub",
      "outputs": [
        {
          "internalType": "contract IDCAHub",
          "name": "",
          "type": "address"
        }
      ],
      "stateMutability": "view",
      "type": "function"
    },
    {
      "inputs": [
        {
          "internalType": "uint256",
          "name": "_positionId",
          "type": "uint256"
        },
        {
          "internalType": "uint256",
          "name": "_amount",
          "type": "uint256"
        },
        {
          "internalType": "uint32",
          "name": "_newSwaps",
          "type": "uint32"
        },
        {
          "internalType": "bool",
          "name": "_transferFromCaller",
          "type": "bool"
        }
      ],
      "name": "increasePositionProxy",
      "outputs": [],
      "stateMutability": "payable",
      "type": "function"
    },
    {
      "inputs": [
        {
          "internalType": "uint256",
          "name": "_positionId",
          "type": "uint256"
        },
        {
          "internalType": "uint256",
          "name": "_amount",
          "type": "uint256"
        },
        {
          "internalType": "uint32",
          "name": "_newSwaps",
          "type": "uint32"
        }
      ],
      "name": "increasePositionUsingProtocolToken",
      "outputs": [],
      "stateMutability": "payable",
      "type": "function"
    },
    {
      "inputs": [
        {
          "internalType": "address",
          "name": "",
          "type": "address"
        }
      ],
      "name": "isDexSupported",
      "outputs": [
        {
          "internalType": "bool",
          "name": "",
          "type": "bool"
        }
      ],
      "stateMutability": "view",
      "type": "function"
    },
    {
      "inputs": [
        {
          "internalType": "address",
          "name": "_account",
          "type": "address"
        }
      ],
      "name": "isGovernor",
      "outputs": [
        {
          "internalType": "bool",
          "name": "_isGovernor",
          "type": "bool"
        }
      ],
      "stateMutability": "view",
      "type": "function"
    },
    {
      "inputs": [
        {
          "internalType": "address",
          "name": "_account",
          "type": "address"
        }
      ],
      "name": "isPendingGovernor",
      "outputs": [
        {
          "internalType": "bool",
          "name": "_isPendingGovernor",
          "type": "bool"
        }
      ],
      "stateMutability": "view",
      "type": "function"
    },
    {
      "inputs": [
        {
          "internalType": "bytes[]",
          "name": "data",
          "type": "bytes[]"
        }
      ],
      "name": "multicall",
      "outputs": [
        {
          "internalType": "bytes[]",
          "name": "results",
          "type": "bytes[]"
        }
      ],
      "stateMutability": "payable",
      "type": "function"
    },
    {
      "inputs": [],
      "name": "pendingGovernor",
      "outputs": [
        {
          "internalType": "address",
          "name": "",
          "type": "address"
        }
      ],
      "stateMutability": "view",
      "type": "function"
    },
    {
      "inputs": [],
      "name": "permissionManager",
      "outputs": [
        {
          "internalType": "contract IDCAPermissionManager",
          "name": "",
          "type": "address"
        }
      ],
      "stateMutability": "view",
      "type": "function"
    },
    {
      "inputs": [
        {
          "components": [
            {
              "internalType": "address",
              "name": "operator",
              "type": "address"
            },
            {
              "internalType": "enum IDCAPermissionManager.Permission[]",
              "name": "permissions",
              "type": "uint8[]"
            }
          ],
          "internalType": "struct IDCAPermissionManager.PermissionSet[]",
          "name": "_permissions",
          "type": "tuple[]"
        },
        {
          "internalType": "uint256",
          "name": "_tokenId",
          "type": "uint256"
        },
        {
          "internalType": "uint256",
          "name": "_deadline",
          "type": "uint256"
        },
        {
          "internalType": "uint8",
          "name": "_v",
          "type": "uint8"
        },
        {
          "internalType": "bytes32",
          "name": "_r",
          "type": "bytes32"
        },
        {
          "internalType": "bytes32",
          "name": "_s",
          "type": "bytes32"
        }
      ],
      "name": "permissionPermitProxy",
      "outputs": [],
      "stateMutability": "payable",
      "type": "function"
    },
    {
      "inputs": [
        {
          "internalType": "uint256",
          "name": "_positionId",
          "type": "uint256"
        },
        {
          "internalType": "uint256",
          "name": "_amount",
          "type": "uint256"
        },
        {
          "internalType": "uint32",
          "name": "_newSwaps",
          "type": "uint32"
        },
        {
          "internalType": "address",
          "name": "_recipient",
          "type": "address"
        }
      ],
      "name": "reducePositionProxy",
      "outputs": [],
      "stateMutability": "payable",
      "type": "function"
    },
    {
      "inputs": [
        {
          "internalType": "uint256",
          "name": "_positionId",
          "type": "uint256"
        },
        {
          "internalType": "uint256",
          "name": "_amount",
          "type": "uint256"
        },
        {
          "internalType": "uint32",
          "name": "_newSwaps",
          "type": "uint32"
        },
        {
          "internalType": "address payable",
          "name": "_recipient",
          "type": "address"
        }
      ],
      "name": "reducePositionUsingProtocolToken",
      "outputs": [],
      "stateMutability": "payable",
      "type": "function"
    },
    {
      "inputs": [
        {
          "components": [
            {
              "internalType": "address",
              "name": "tokenA",
              "type": "address"
            },
            {
              "internalType": "address",
              "name": "tokenB",
              "type": "address"
            }
          ],
          "internalType": "struct Pair[]",
          "name": "_pairs",
          "type": "tuple[]"
        }
      ],
      "name": "secondsUntilNextSwap",
      "outputs": [
        {
          "internalType": "uint256[]",
          "name": "",
          "type": "uint256[]"
        }
      ],
      "stateMutability": "view",
      "type": "function"
    },
    {
      "inputs": [
        {
          "internalType": "address",
          "name": "_to",
          "type": "address"
        },
        {
          "internalType": "address",
          "name": "_token",
          "type": "address"
        },
        {
          "internalType": "uint256",
          "name": "_amount",
          "type": "uint256"
        }
      ],
      "name": "sendDust",
      "outputs": [],
      "stateMutability": "nonpayable",
      "type": "function"
    },
    {
      "inputs": [
        {
          "internalType": "address",
          "name": "__pendingGovernor",
          "type": "address"
        }
      ],
      "name": "setPendingGovernor",
      "outputs": [],
      "stateMutability": "nonpayable",
      "type": "function"
    },
    {
      "inputs": [
        {
          "internalType": "address[]",
          "name": "_addresses",
          "type": "address[]"
        },
        {
          "internalType": "bool[]",
          "name": "_hasIssue",
          "type": "bool[]"
        }
      ],
      "name": "setTokensWithApprovalIssues",
      "outputs": [],
      "stateMutability": "nonpayable",
      "type": "function"
    },
    {
      "inputs": [
        {
          "internalType": "address[]",
          "name": "_tokens",
          "type": "address[]"
        },
        {
          "components": [
            {
              "internalType": "uint8",
              "name": "indexTokenA",
              "type": "uint8"
            },
            {
              "internalType": "uint8",
              "name": "indexTokenB",
              "type": "uint8"
            }
          ],
          "internalType": "struct IDCAHubSwapHandler.PairIndexes[]",
          "name": "_pairsToSwap",
          "type": "tuple[]"
        },
        {
          "internalType": "uint256[]",
          "name": "_minimumOutput",
          "type": "uint256[]"
        },
        {
          "internalType": "uint256[]",
          "name": "_maximumInput",
          "type": "uint256[]"
        },
        {
          "internalType": "address",
          "name": "_recipient",
          "type": "address"
        },
        {
          "internalType": "uint256",
          "name": "_deadline",
          "type": "uint256"
        }
      ],
      "name": "swapForCaller",
      "outputs": [
        {
          "components": [
            {
              "components": [
                {
                  "internalType": "address",
                  "name": "token",
                  "type": "address"
                },
                {
                  "internalType": "uint256",
                  "name": "reward",
                  "type": "uint256"
                },
                {
                  "internalType": "uint256",
                  "name": "toProvide",
                  "type": "uint256"
                },
                {
                  "internalType": "uint256",
                  "name": "platformFee",
                  "type": "uint256"
                }
              ],
              "internalType": "struct IDCAHubSwapHandler.TokenInSwap[]",
              "name": "tokens",
              "type": "tuple[]"
            },
            {
              "components": [
                {
                  "internalType": "address",
                  "name": "tokenA",
                  "type": "address"
                },
                {
                  "internalType": "address",
                  "name": "tokenB",
                  "type": "address"
                },
                {
                  "internalType": "uint256",
                  "name": "ratioAToB",
                  "type": "uint256"
                },
                {
                  "internalType": "uint256",
                  "name": "ratioBToA",
                  "type": "uint256"
                },
                {
                  "internalType": "bytes1",
                  "name": "intervalsInSwap",
                  "type": "bytes1"
                }
              ],
              "internalType": "struct IDCAHubSwapHandler.PairInSwap[]",
              "name": "pairs",
              "type": "tuple[]"
            }
          ],
          "internalType": "struct IDCAHubSwapHandler.SwapInfo",
          "name": "_swapInfo",
          "type": "tuple"
        }
      ],
      "stateMutability": "payable",
      "type": "function"
    },
    {
      "inputs": [
        {
          "internalType": "address",
          "name": "_dex",
          "type": "address"
        },
        {
          "internalType": "address[]",
          "name": "_tokens",
          "type": "address[]"
        },
        {
          "components": [
            {
              "internalType": "uint8",
              "name": "indexTokenA",
              "type": "uint8"
            },
            {
              "internalType": "uint8",
              "name": "indexTokenB",
              "type": "uint8"
            }
          ],
          "internalType": "struct IDCAHubSwapHandler.PairIndexes[]",
          "name": "_pairsToSwap",
          "type": "tuple[]"
        },
        {
          "internalType": "bytes[]",
          "name": "_callsToDex",
          "type": "bytes[]"
        },
        {
          "internalType": "bool",
          "name": "_doDexSwapsIncludeTransferToHub",
          "type": "bool"
        },
        {
          "internalType": "address",
          "name": "_leftoverRecipient",
          "type": "address"
        },
        {
          "internalType": "uint256",
          "name": "_deadline",
          "type": "uint256"
        }
      ],
      "name": "swapWithDex",
      "outputs": [
        {
          "components": [
            {
              "components": [
                {
                  "internalType": "address",
                  "name": "token",
                  "type": "address"
                },
                {
                  "internalType": "uint256",
                  "name": "reward",
                  "type": "uint256"
                },
                {
                  "internalType": "uint256",
                  "name": "toProvide",
                  "type": "uint256"
                },
                {
                  "internalType": "uint256",
                  "name": "platformFee",
                  "type": "uint256"
                }
              ],
              "internalType": "struct IDCAHubSwapHandler.TokenInSwap[]",
              "name": "tokens",
              "type": "tuple[]"
            },
            {
              "components": [
                {
                  "internalType": "address",
                  "name": "tokenA",
                  "type": "address"
                },
                {
                  "internalType": "address",
                  "name": "tokenB",
                  "type": "address"
                },
                {
                  "internalType": "uint256",
                  "name": "ratioAToB",
                  "type": "uint256"
                },
                {
                  "internalType": "uint256",
                  "name": "ratioBToA",
                  "type": "uint256"
                },
                {
                  "internalType": "bytes1",
                  "name": "intervalsInSwap",
                  "type": "bytes1"
                }
              ],
              "internalType": "struct IDCAHubSwapHandler.PairInSwap[]",
              "name": "pairs",
              "type": "tuple[]"
            }
          ],
          "internalType": "struct IDCAHubSwapHandler.SwapInfo",
          "name": "",
          "type": "tuple"
        }
      ],
      "stateMutability": "nonpayable",
      "type": "function"
    },
    {
      "inputs": [
        {
          "internalType": "address",
          "name": "_dex",
          "type": "address"
        },
        {
          "internalType": "address[]",
          "name": "_tokens",
          "type": "address[]"
        },
        {
          "components": [
            {
              "internalType": "uint8",
              "name": "indexTokenA",
              "type": "uint8"
            },
            {
              "internalType": "uint8",
              "name": "indexTokenB",
              "type": "uint8"
            }
          ],
          "internalType": "struct IDCAHubSwapHandler.PairIndexes[]",
          "name": "_pairsToSwap",
          "type": "tuple[]"
        },
        {
          "internalType": "bytes[]",
          "name": "_callsToDex",
          "type": "bytes[]"
        },
        {
          "internalType": "bool",
          "name": "_doDexSwapsIncludeTransferToHub",
          "type": "bool"
        },
        {
          "internalType": "address",
          "name": "_leftoverRecipient",
          "type": "address"
        },
        {
          "internalType": "uint256",
          "name": "_deadline",
          "type": "uint256"
        }
      ],
      "name": "swapWithDexAndShareLeftoverWithHub",
      "outputs": [
        {
          "components": [
            {
              "components": [
                {
                  "internalType": "address",
                  "name": "token",
                  "type": "address"
                },
                {
                  "internalType": "uint256",
                  "name": "reward",
                  "type": "uint256"
                },
                {
                  "internalType": "uint256",
                  "name": "toProvide",
                  "type": "uint256"
                },
                {
                  "internalType": "uint256",
                  "name": "platformFee",
                  "type": "uint256"
                }
              ],
              "internalType": "struct IDCAHubSwapHandler.TokenInSwap[]",
              "name": "tokens",
              "type": "tuple[]"
            },
            {
              "components": [
                {
                  "internalType": "address",
                  "name": "tokenA",
                  "type": "address"
                },
                {
                  "internalType": "address",
                  "name": "tokenB",
                  "type": "address"
                },
                {
                  "internalType": "uint256",
                  "name": "ratioAToB",
                  "type": "uint256"
                },
                {
                  "internalType": "uint256",
                  "name": "ratioBToA",
                  "type": "uint256"
                },
                {
                  "internalType": "bytes1",
                  "name": "intervalsInSwap",
                  "type": "bytes1"
                }
              ],
              "internalType": "struct IDCAHubSwapHandler.PairInSwap[]",
              "name": "pairs",
              "type": "tuple[]"
            }
          ],
          "internalType": "struct IDCAHubSwapHandler.SwapInfo",
          "name": "",
          "type": "tuple"
        }
      ],
      "stateMutability": "nonpayable",
      "type": "function"
    },
    {
      "inputs": [
        {
          "internalType": "uint256",
          "name": "_positionId",
          "type": "uint256"
        },
        {
          "internalType": "address",
          "name": "_recipientUnswapped",
          "type": "address"
        },
        {
          "internalType": "address",
          "name": "_recipientSwapped",
          "type": "address"
        }
      ],
      "name": "terminateProxy",
      "outputs": [
        {
          "internalType": "uint256",
          "name": "_unswapped",
          "type": "uint256"
        },
        {
          "internalType": "uint256",
          "name": "_swapped",
          "type": "uint256"
        }
      ],
      "stateMutability": "payable",
      "type": "function"
    },
    {
      "inputs": [
        {
          "internalType": "uint256",
          "name": "_positionId",
          "type": "uint256"
        },
        {
          "internalType": "address payable",
          "name": "_recipientUnswapped",
          "type": "address"
        },
        {
          "internalType": "address",
          "name": "_recipientSwapped",
          "type": "address"
        }
      ],
      "name": "terminateUsingProtocolTokenAsFrom",
      "outputs": [
        {
          "internalType": "uint256",
          "name": "_unswapped",
          "type": "uint256"
        },
        {
          "internalType": "uint256",
          "name": "_swapped",
          "type": "uint256"
        }
      ],
      "stateMutability": "payable",
      "type": "function"
    },
    {
      "inputs": [
        {
          "internalType": "uint256",
          "name": "_positionId",
          "type": "uint256"
        },
        {
          "internalType": "address",
          "name": "_recipientUnswapped",
          "type": "address"
        },
        {
          "internalType": "address payable",
          "name": "_recipientSwapped",
          "type": "address"
        }
      ],
      "name": "terminateUsingProtocolTokenAsTo",
      "outputs": [
        {
          "internalType": "uint256",
          "name": "_unswapped",
          "type": "uint256"
        },
        {
          "internalType": "uint256",
          "name": "_swapped",
          "type": "uint256"
        }
      ],
      "stateMutability": "payable",
      "type": "function"
    },
    {
      "inputs": [
        {
          "internalType": "address",
          "name": "",
          "type": "address"
        }
      ],
      "name": "tokenHasApprovalIssue",
      "outputs": [
        {
          "internalType": "bool",
          "name": "",
          "type": "bool"
        }
      ],
      "stateMutability": "view",
      "type": "function"
    },
    {
      "inputs": [],
      "name": "wToken",
      "outputs": [
        {
          "internalType": "contract IWrappedProtocolToken",
          "name": "",
          "type": "address"
        }
      ],
      "stateMutability": "view",
      "type": "function"
    },
    {
      "inputs": [
        {
          "components": [
            {
              "internalType": "address",
              "name": "token",
              "type": "address"
            },
            {
              "internalType": "uint256[]",
              "name": "positionIds",
              "type": "uint256[]"
            }
          ],
          "internalType": "struct IDCAHubPositionHandler.PositionSet[]",
          "name": "_positions",
          "type": "tuple[]"
        },
        {
          "internalType": "address",
          "name": "_recipient",
          "type": "address"
        }
      ],
      "name": "withdrawSwappedManyProxy",
      "outputs": [
        {
          "internalType": "uint256[]",
          "name": "_withdrawn",
          "type": "uint256[]"
        }
      ],
      "stateMutability": "payable",
      "type": "function"
    },
    {
      "inputs": [
        {
          "internalType": "uint256[]",
          "name": "_positionIds",
          "type": "uint256[]"
        },
        {
          "internalType": "address payable",
          "name": "_recipient",
          "type": "address"
        }
      ],
      "name": "withdrawSwappedManyUsingProtocolToken",
      "outputs": [
        {
          "internalType": "uint256",
          "name": "_swapped",
          "type": "uint256"
        }
      ],
      "stateMutability": "payable",
      "type": "function"
    },
    {
      "inputs": [
        {
          "internalType": "uint256",
          "name": "_positionId",
          "type": "uint256"
        },
        {
          "internalType": "address",
          "name": "_recipient",
          "type": "address"
        }
      ],
      "name": "withdrawSwappedProxy",
      "outputs": [
        {
          "internalType": "uint256",
          "name": "_swapped",
          "type": "uint256"
        }
      ],
      "stateMutability": "payable",
      "type": "function"
    },
    {
      "inputs": [
        {
          "internalType": "uint256",
          "name": "_positionId",
          "type": "uint256"
        },
        {
          "internalType": "address payable",
          "name": "_recipient",
          "type": "address"
        }
      ],
      "name": "withdrawSwappedUsingProtocolToken",
      "outputs": [
        {
          "internalType": "uint256",
          "name": "_swapped",
          "type": "uint256"
        }
      ],
      "stateMutability": "payable",
      "type": "function"
    },
    {
      "stateMutability": "payable",
      "type": "receive"
    }
  ],
  "transactionHash": "0x7548be614012b48c81e69bdfd5867a59d7c150f5eac5c1ed671462daa32487a9",
  "args": [
    "0xE0F0eeA2bdaFCB913A2b2b7938C0Fce1A39f5754",
    "0xc02aaa39b223fe8d0a0e5c4f27ead9083c756cc2",
    "0x1a00e1E311009E56e3b0B9Ed6F86f5Ce128a1C01"
  ],
  "solcInputHash": "491341aeaf580ba1128c83f1ff3e3974",
  "bytecode": "0x60e06040523480156200001157600080fd5b5060405162005fd638038062005fd683398101604081905262000034916200021d565b82836001600160a01b031663cc7a20496040518163ffffffff1660e01b8152600401602060405180830381865afa15801562000074573d6000803e3d6000fd5b505050506040513d601f19601f820116820180604052508101906200009a919062000271565b8383806001600160a01b038116620000f85760405162461bcd60e51b815260206004820152601860248201527f476f7665726e61626c653a207a65726f20616464726573730000000000000000604482015260640160405180910390fd5b600080546001600160a01b0319166001600160a01b03928316179055841615806200012a57506001600160a01b038316155b806200013d57506001600160a01b038216155b156200015c5760405163d92e233d60e01b815260040160405180910390fd5b506001600160a01b03928316608052821660c0521660a0526200017e62000187565b505050620002bc565b60c05160805160405163095ea7b360e01b81526001600160a01b039182166004820152600019602482015291169063095ea7b3906044016020604051808303816000875af1158015620001de573d6000803e3d6000fd5b505050506040513d601f19601f8201168201806040525081019062000204919062000298565b50565b6001600160a01b03811681146200020457600080fd5b6000806000606084860312156200023357600080fd5b8351620002408162000207565b6020850151909350620002538162000207565b6040850151909250620002668162000207565b809150509250925092565b6000602082840312156200028457600080fd5b8151620002918162000207565b9392505050565b600060208284031215620002ab57600080fd5b815180151581146200029157600080fd5b60805160a05160c051615be7620003ef600039600081816102a901528181610a0801528181610aca0152818161165601528181611dbe01528181611ef901528181612068015281816122b70152612304015260008181610589015281816115330152611e4201526000818161039e0152818161071701528181610835015281816108e0015281816109db01528181610a9d01528181610cea01528181610d8b01528181610e5a01528181610efc01528181610f81015281816111750152818161124501528181611706015281816117f4015281816118960152818161195c01528181611a1101528181611ab901528181611b7101528181611cef01528181611d8e015281816123f40152818161282f0152818161288e015281816128c701528181612a1e0152612dd00152615be76000f3fe60806040526004361061021e5760003560e01c8063a2c346ec11610123578063d6d2d0b7116100ab578063e581a3be1161006f578063e581a3be14610660578063f0261ac414610680578063f235757f14610693578063f50b098e146106b3578063fe62b620146106c657600080fd5b8063d6d2d0b7146105be578063d7752a0c146105d1578063df08aed5146105e4578063e3056a3414610613578063e43581b81461063157600080fd5b8063b715b93d116100f2578063b715b93d14610531578063baa791a514610544578063c95cb38714610564578063cc7a204914610577578063cc944c2e146105ab57600080fd5b8063a2c346ec146104a1578063a8bf39fd146104ce578063ac9650d8146104e1578063b452cdc41461050157600080fd5b8063365a86fc116101a6578063535af43011610175578063535af430146103f95780635817c99e1461040c578063585cc6a51461042c57806382643589146104545780638d2033451461047457600080fd5b8063365a86fc1461038c57806337be507e146103c05780633e9820f1146103d3578063479e8fac146103e657600080fd5b806313f6986d116101ed57806313f6986d1461030157806318b5769c146103185780631cd701f11461032b57806328c756b01461034c5780632db8c1291461036c57600080fd5b8063065f957d1461022a5780630a12aa481461026f5780630babd864146102975780630c340a24146102e357600080fd5b3661022557005b600080fd5b34801561023657600080fd5b5061025a610245366004613eae565b60026020526000908152604090205460ff1681565b60405190151581526020015b60405180910390f35b61028261027d366004613ecb565b6106db565b60408051928352602083019190915201610266565b3480156102a357600080fd5b506102cb7f000000000000000000000000000000000000000000000000000000000000000081565b6040516001600160a01b039091168152602001610266565b3480156102ef57600080fd5b506000546001600160a01b03166102cb565b34801561030d57600080fd5b5061031661079c565b005b610316610326366004613f43565b61080f565b61033e610339366004614019565b61094e565b604051908152602001610266565b34801561035857600080fd5b506103166103673660046140f2565b610b56565b34801561037857600080fd5b5061031661038736600461415d565b610c7b565b34801561039857600080fd5b506102cb7f000000000000000000000000000000000000000000000000000000000000000081565b61033e6103ce36600461419e565b610cb5565b61033e6103e136600461419e565b610d60565b6103166103f43660046141ce565b610e14565b610282610407366004613ecb565b610ebe565b34801561041857600080fd5b5061031661042736600461420d565b610f76565b34801561043857600080fd5b506102cb73eeeeeeeeeeeeeeeeeeeeeeeeeeeeeeeeeeeeeeee81565b34801561046057600080fd5b5061031661046f3660046142ea565b611073565b34801561048057600080fd5b5061049461048f36600461435c565b6110ef565b60405161026691906144ae565b3480156104ad57600080fd5b506104c16104bc366004614534565b61116e565b60405161026691906145a5565b6104946104dc3660046145b8565b6111a2565b6104f46104ef366004614695565b611428565b6040516102669190614722565b34801561050d57600080fd5b5061025a61051c366004613eae565b60036020526000908152604090205460ff1681565b61031661053f366004614795565b61151c565b34801561055057600080fd5b5061049461055f36600461435c565b611574565b61033e61057236600461480e565b6115d1565b34801561058357600080fd5b506102cb7f000000000000000000000000000000000000000000000000000000000000000081565b61033e6105b9366004614859565b6117cb565b6103166105cc3660046141ce565b611920565b6103166105df366004614942565b6119d2565b3480156105f057600080fd5b5061025a6105ff366004613eae565b6001546001600160a01b0391821691161490565b34801561061f57600080fd5b506001546001600160a01b03166102cb565b34801561063d57600080fd5b5061025a61064c366004613eae565b6000546001600160a01b0391821691161490565b34801561066c57600080fd5b5061049461067b366004614534565b611a7c565b61028261068e366004613ecb565b611b35565b34801561069f57600080fd5b506103166106ae366004613eae565b611bec565b6104c16106c136600461480e565b611c22565b3480156106d257600080fd5b50610316611d77565b6000808460036106eb8282611e2b565b6040516372ada4c560e01b8152600481018890526001600160a01b0387811660248301523060448301527f000000000000000000000000000000000000000000000000000000000000000016906372ada4c59060640160408051808303816000875af115801561075f573d6000803e3d6000fd5b505050506040513d601f19601f820116820180604052508101906107839190614970565b90945092506107928386611edd565b5050935093915050565b6001546001600160a01b031633146108055760405162461bcd60e51b815260206004820152602160248201527f476f7665726e61626c653a206f6e6c792070656e64696e6720676f7665726e6f6044820152603960f91b60648201526084015b60405180910390fd5b61080d611f93565b565b83600061081c8282611e2b565b604051635b6fd01d60e01b8152600481018790526000907f00000000000000000000000000000000000000000000000000000000000000006001600160a01b031690635b6fd01d9060240161010060405180830381865afa158015610885573d6000803e3d6000fd5b505050506040513d601f19601f820116820180604052508101906108a99190614a7b565b5190506108b781878661203b565b604051636f6b805360e11b8152600481018890526024810187905263ffffffff861660448201527f00000000000000000000000000000000000000000000000000000000000000006001600160a01b03169063ded700a6906064015b600060405180830381600087803b15801561092d57600080fd5b505af1158015610941573d6000803e3d6000fd5b5050505050505050505050565b60006001600160a01b038b1673eeeeeeeeeeeeeeeeeeeeeeeeeeeeeeeeeeeeeeee14158061099857506001600160a01b038a1673eeeeeeeeeeeeeeeeeeeeeeeeeeeeeeeeeeeeeeee145b156109b6576040516333910aef60e11b815260040160405180910390fd5b6109bf89612060565b81610a8657604051636b29e1bd60e01b81526001600160a01b037f00000000000000000000000000000000000000000000000000000000000000001690636b29e1bd90610a3e907f0000000000000000000000000000000000000000000000000000000000000000908e908e908e908e908e908e908e90600401614c89565b6020604051808303816000875af1158015610a5d573d6000803e3d6000fd5b505050506040513d601f19601f82011682018060405250810190610a819190614ce7565b610b47565b60405163b2b513c160e01b81526001600160a01b037f0000000000000000000000000000000000000000000000000000000000000000169063b2b513c190610b04907f0000000000000000000000000000000000000000000000000000000000000000908e908e908e908e908e908e908e908e908e90600401614d00565b6020604051808303816000875af1158015610b23573d6000803e3d6000fd5b505050506040513d601f19601f82011682018060405250810190610b479190614ce7565b9b9a5050505050505050505050565b6000546001600160a01b03163314610b805760405162461bcd60e51b81526004016107fc90614d8d565b828114610ba0576040516305d5c8c960e51b815260040160405180910390fd5b60005b83811015610c3757828282818110610bbd57610bbd614dc4565b9050602002016020810190610bd29190614dda565b60026000878785818110610be857610be8614dc4565b9050602002016020810190610bfd9190613eae565b6001600160a01b031681526020810191909152604001600020805460ff191691151591909117905580610c2f81614e0d565b915050610ba3565b507f03f0491d4ac1dcd8629e84f9f0d6af60220d6d3e6ce76dc9750959b580cf75e884848484604051610c6d9493929190614e66565b60405180910390a150505050565b6000546001600160a01b03163314610ca55760405162461bcd60e51b81526004016107fc90614d8d565b610cb08383836120d5565b505050565b6000826002610cc48282611e2b565b604051630176218960e41b8152600481018690526001600160a01b0385811660248301527f000000000000000000000000000000000000000000000000000000000000000016906317621890906044016020604051808303816000875af1158015610d33573d6000803e3d6000fd5b505050506040513d601f19601f82011682018060405250810190610d579190614ce7565b95945050505050565b6000826002610d6f8282611e2b565b604051630176218960e41b8152600481018690523060248201527f00000000000000000000000000000000000000000000000000000000000000006001600160a01b0316906317621890906044016020604051808303816000875af1158015610ddc573d6000803e3d6000fd5b505050506040513d601f19601f82011682018060405250810190610e009190614ce7565b9250610e0c8385611edd565b505092915050565b836001610e218282611e2b565b60405163f1accf3960e01b8152600481018790526024810186905263ffffffff851660448201526001600160a01b0384811660648301527f0000000000000000000000000000000000000000000000000000000000000000169063f1accf3990608401600060405180830381600087803b158015610e9e57600080fd5b505af1158015610eb2573d6000803e3d6000fd5b50505050505050505050565b600080846003610ece8282611e2b565b6040516372ada4c560e01b8152600481018890526001600160a01b03878116602483015286811660448301527f000000000000000000000000000000000000000000000000000000000000000016906372ada4c59060640160408051808303816000875af1158015610f44573d6000803e3d6000fd5b505050506040513d601f19601f82011682018060405250810190610f689190614970565b909890975095505050505050565b336001600160a01b037f00000000000000000000000000000000000000000000000000000000000000001614610fbf576040516301bb2f1560e21b815260040160405180910390fd5b6001600160a01b0387163014610fe85760405163d219c5db60e01b815260040160405180910390fd5b6000610ff682840184614f41565b905060018151600281111561100d5761100d614b7e565b1415611027576110228787836020015161225b565b611069565b60028151600281111561103c5761103c614b7e565b14156110515761102287878360200151612433565b6040516225941760e31b815260040160405180910390fd5b5050505050505050565b6000546001600160a01b0316331461109d5760405162461bcd60e51b81526004016107fc90614d8d565b6001600160a01b0382166110c45760405163d92e233d60e01b815260040160405180910390fd5b6001600160a01b03919091166000908152600360205260409020805460ff1916911515919091179055565b604080518082019091526060808252602082015260006040518060a001604052808d6001600160a01b031681526020016000151581526020018615158152602001856001600160a01b0316815260200188889061114c9190614fe7565b9052905061115e8b8b8b8b8588612941565b9c9b505050505050505050505050565b606061119b7f00000000000000000000000000000000000000000000000000000000000000008484612b2b565b9392505050565b604080518082019091526060808252602082015281804211156111fd5760405162461bcd60e51b8152602060048201526013602482015272151c985b9cd858dd1a5bdb881d1bdbc81bdb19606a1b60448201526064016107fc565b60008b6001600160401b0381111561121757611217614994565b604051908082528060200260200182016040528015611240578160200160208202803683370190505b5090507f00000000000000000000000000000000000000000000000000000000000000006001600160a01b0316632a2a1a748e8e8e8e8a308860405180604001604052806001600281111561129757611297614b7e565b81526040805180820182523380825234602092830190815283518084019290925251818401528251808203840181526060909101835292810192909252516112e092910161505a565b6040516020818303038152906040526040518963ffffffff1660e01b8152600401611312989796959493929190615091565b6000604051808303816000875af1158015611331573d6000803e3d6000fd5b505050506040513d6000823e601f3d908101601f191682016040526113599190810190615216565b925060005b8351518110156114175760008460000151828151811061138057611380614dc4565b602002602001015190508a8a8381811061139c5761139c614dc4565b90506020020135816020015110156113c75760405163861aeb1f60e01b815260040160405180910390fd5b8888838181106113d9576113d9614dc4565b90506020020135816040015111156114045760405163edddba2760e01b815260040160405180910390fd5b508061140f81614e0d565b91505061135e565b5050509a9950505050505050505050565b6060816001600160401b0381111561144257611442614994565b60405190808252806020026020018201604052801561147557816020015b60608152602001906001900390816114605790505b50905060005b82811015611515576114e53085858481811061149957611499614dc4565b90506020028101906114ab919061533f565b8080601f016020809104026020016040519081016040528093929190818152602001838380828437600092019190915250612c0e92505050565b8282815181106114f7576114f7614dc4565b6020026020010181905250808061150d90614e0d565b91505061147b565b5092915050565b604051634faa388360e01b81526001600160a01b037f00000000000000000000000000000000000000000000000000000000000000001690634faa388390610913908a908a908a908a908a908a908a90600401615385565b604080518082019091526060808252602082015260006040518060a001604052808d6001600160a01b031681526020016001151581526020018615158152602001856001600160a01b0316815260200188889061114c9190614fe7565b6000805b83811015611612576116008585838181106115f2576115f2614dc4565b905060200201356002611e2b565b8061160a81614e0d565b9150506115d5565b50604080516001808252818301909252600091816020015b60408051808201909152600081526060602082015281526020019060019003908161162a5790505090507f00000000000000000000000000000000000000000000000000000000000000008160008151811061168857611688614dc4565b6020026020010151600001906001600160a01b031690816001600160a01b03168152505084848080602002602001604051908101604052809392919081815260200183836020028082843760009201829052508551869450909250151590506116f3576116f3614dc4565b60200260200101516020018190525060007f00000000000000000000000000000000000000000000000000000000000000006001600160a01b031663480b379683306040518363ffffffff1660e01b81526004016117529291906153c6565b6000604051808303816000875af1158015611771573d6000803e3d6000fd5b505050506040513d6000823e601f3d908101601f191682016040526117999190810190615456565b9050806000815181106117ae576117ae614dc4565b602002602001015192506117c28385611edd565b50509392505050565b60006117d88c8b8461203b565b8261187f57604051636b29e1bd60e01b81526001600160a01b037f00000000000000000000000000000000000000000000000000000000000000001690636b29e1bd90611837908f908f908f908f908f908f908f908f90600401614c89565b6020604051808303816000875af1158015611856573d6000803e3d6000fd5b505050506040513d601f19601f8201168201806040525081019061187a9190614ce7565b61115e565b60405163b2b513c160e01b81526001600160a01b037f0000000000000000000000000000000000000000000000000000000000000000169063b2b513c1906118dd908f908f908f908f908f908f908f908f908f908f90600401614d00565b6020604051808303816000875af11580156118fc573d6000803e3d6000fd5b505050506040513d601f19601f8201168201806040525081019061115e9190614ce7565b83600161192d8282611e2b565b60405163f1accf3960e01b8152600481018790526024810186905263ffffffff851660448201523060648201527f00000000000000000000000000000000000000000000000000000000000000006001600160a01b03169063f1accf3990608401600060405180830381600087803b1580156119a857600080fd5b505af11580156119bc573d6000803e3d6000fd5b505050506119ca8584611edd565b505050505050565b8260006119df8282611e2b565b6119e884612060565b604051636f6b805360e11b8152600481018690526024810185905263ffffffff841660448201527f00000000000000000000000000000000000000000000000000000000000000006001600160a01b03169063ded700a690606401600060405180830381600087803b158015611a5d57600080fd5b505af1158015611a71573d6000803e3d6000fd5b505050505050505050565b6040805180820190915260608082526020820152600080611a9d8585612c33565b60405163d2d95b2d60e01b815291935091506001600160a01b037f0000000000000000000000000000000000000000000000000000000000000000169063d2d95b2d90611af090859085906004016154db565b600060405180830381865afa158015611b0d573d6000803e3d6000fd5b505050506040513d6000823e601f3d908101601f19168201604052610d579190810190615216565b600080846003611b458282611e2b565b6040516372ada4c560e01b8152600481018890523060248201526001600160a01b0386811660448301527f000000000000000000000000000000000000000000000000000000000000000016906372ada4c59060640160408051808303816000875af1158015611bb9573d6000803e3d6000fd5b505050506040513d601f19601f82011682018060405250810190611bdd9190614970565b90945092506107928487611edd565b6000546001600160a01b03163314611c165760405162461bcd60e51b81526004016107fc90614d8d565b611c1f81612c94565b50565b606060005b83811015611cd75760005b858583818110611c4457611c44614dc4565b9050602002810190611c569190615571565b611c64906020810190615591565b9050811015611cc457611cb2868684818110611c8257611c82614dc4565b9050602002810190611c949190615571565b611ca2906020810190615591565b838181106115f2576115f2614dc4565b80611cbc81614e0d565b915050611c32565b5080611ccf81614e0d565b915050611c27565b506040516324059bcb60e11b81526001600160a01b037f0000000000000000000000000000000000000000000000000000000000000000169063480b379690611d28908790879087906004016155da565b6000604051808303816000875af1158015611d47573d6000803e3d6000fd5b505050506040513d6000823e601f3d908101601f19168201604052611d6f9190810190615456565b949350505050565b60405163095ea7b360e01b81526001600160a01b037f00000000000000000000000000000000000000000000000000000000000000008116600483015260001960248301527f0000000000000000000000000000000000000000000000000000000000000000169063095ea7b3906044016020604051808303816000875af1158015611e07573d6000803e3d6000fd5b505050506040513d601f19601f82011682018060405250810190611c1f919061569c565b60405163823abfd960e01b81526001600160a01b037f0000000000000000000000000000000000000000000000000000000000000000169063823abfd990611e7b908590339086906004016156b9565b602060405180830381865afa158015611e98573d6000803e3d6000fd5b505050506040513d601f19601f82011682018060405250810190611ebc919061569c565b611ed957604051635c427cd960e01b815260040160405180910390fd5b5050565b8115611ed957604051632e1a7d4d60e01b8152600481018390527f00000000000000000000000000000000000000000000000000000000000000006001600160a01b031690632e1a7d4d90602401600060405180830381600087803b158015611f4557600080fd5b505af1158015611f59573d6000803e3d6000fd5b50506040516001600160a01b038416925084156108fc02915084906000818181858888f19350505050158015610cb0573d6000803e3d6000fd5b6001546001600160a01b0316611feb5760405162461bcd60e51b815260206004820152601f60248201527f476f7665726e61626c653a206e6f2070656e64696e6720676f7665726e6f720060448201526064016107fc565b60018054600080546001600160a01b03199081166001600160a01b0384161782559091169091556040517fdc57ca23c46d823853915ed5a090ca0ee9db5eb6a46f5c58e1c9158de861fd769190a1565b8015612056576120566001600160a01b038416333085612d3e565b610cb08383612daf565b8015611c1f577f00000000000000000000000000000000000000000000000000000000000000006001600160a01b031663d0e30db0826040518263ffffffff1660e01b81526004016000604051808303818588803b1580156120c157600080fd5b505af11580156119ca573d6000803e3d6000fd5b6001600160a01b03831661212b5760405162461bcd60e51b815260206004820152601d60248201527f436f6c6c65637461626c65447573743a207a65726f206164647265737300000060448201526064016107fc565b612136600483612e78565b156121965760405162461bcd60e51b815260206004820152602a60248201527f436f6c6c65637461626c65447573743a20746f6b656e2069732070617274206f60448201526919881c1c9bdd1bd8dbdb60b21b60648201526084016107fc565b6001600160a01b03821673eeeeeeeeeeeeeeeeeeeeeeeeeeeeeeeeeeeeeeee14156121f7576040516001600160a01b0384169082156108fc029083906000818181858888f193505050501580156121f1573d6000803e3d6000fd5b5061220b565b61220b6001600160a01b0383168483612e9a565b604080516001600160a01b038086168252841660208201529081018290527f1e34c1aee8e83c2dcc14c21bb4bfeea7f46c0c998cb797ac7cc4d7a18f5c656b9060600160405180910390a1505050565b60008180602001905181019061227191906156dc565b905060005b8381101561242c57600085858381811061229257612292614dc4565b9050608002018036038101906122a89190615716565b604081015190915015612419577f00000000000000000000000000000000000000000000000000000000000000006001600160a01b031681600001516001600160a01b03161480156122fd5750602083015115155b156123d9577f00000000000000000000000000000000000000000000000000000000000000006001600160a01b031663d0e30db082604001516040518263ffffffff1660e01b81526004016000604051808303818588803b15801561236157600080fd5b505af1158015612375573d6000803e3d6000fd5b50505050508060400151836020015111156123d95782600001516001600160a01b03166108fc826040015185602001516123af9190615767565b6040518115909202916000818181858888f193505050501580156123d7573d6000803e3d6000fd5b505b825160408201518251612419926001600160a01b03909116917f000000000000000000000000000000000000000000000000000000000000000090612d3e565b508061242481614e0d565b915050612276565b5050505050565b600081806020019051810190612449919061577e565b905060005b838110156126eb57600085858381811061246a5761246a614dc4565b9050608002018036038101906124809190615716565b6020810151909150156126d85780516001600160a01b03811660009081526002602052604090205460ff168061254857845160208401516001600160a01b0384169163095ea7b3916124d39060016158e1565b6040516001600160e01b031960e085901b1681526001600160a01b03909216600483015260248201526044016020604051808303816000875af115801561251e573d6000803e3d6000fd5b505050506040513d601f19601f82011682018060405250810190612542919061569c565b506126d5565b8451604051636eb1769f60e11b81523060048201526001600160a01b03918216602482015260009184169063dd62ed3e90604401602060405180830381865afa158015612599573d6000803e3d6000fd5b505050506040513d601f19601f820116820180604052508101906125bd9190614ce7565b905083602001518110156126d357801561264957855160405163095ea7b360e01b81526001600160a01b039182166004820152600060248201529084169063095ea7b3906044016020604051808303816000875af1158015612623573d6000803e3d6000fd5b505050506040513d601f19601f82011682018060405250810190612647919061569c565b505b8551602085015160405163095ea7b360e01b81526001600160a01b0386169263095ea7b39261268e926004016001600160a01b03929092168252602082015260400190565b6020604051808303816000875af11580156126ad573d6000803e3d6000fd5b505050506040513d601f19601f820116820180604052508101906126d1919061569c565b505b505b50505b50806126e381614e0d565b91505061244e565b5060005b8160800151518110156127395761272782600001518360800151838151811061271a5761271a614dc4565b6020026020010151612eca565b8061273181614e0d565b9150506126ef565b5060005b8381101561242c57600085858381811061275957612759614dc4565b61276f9260206080909202019081019150613eae565b6040516370a0823160e01b81523060048201529091506000906001600160a01b038316906370a0823190602401602060405180830381865afa1580156127b9573d6000803e3d6000fd5b505050506040513d601f19601f820116820180604052508101906127dd9190614ce7565b9050801561292c5760008787858181106127f9576127f9614dc4565b90506080020160400135905060008111156129105784604001511561286b576000856020015161282d57856060015161284f565b7f00000000000000000000000000000000000000000000000000000000000000005b90506128656001600160a01b0385168285612e9a565b5061292a565b84602001518061287a57508082145b156128b8576128b36001600160a01b0384167f000000000000000000000000000000000000000000000000000000000000000084612e9a565b61292a565b6128ec6001600160a01b0384167f000000000000000000000000000000000000000000000000000000000000000083612e9a565b60608501516128b3906128ff8385615767565b6001600160a01b0386169190612e9a565b606085015161292a906001600160a01b0385169084612e9a565b505b5050808061293990614e0d565b91505061273d565b6040805180820190915260608082526020820152818042111561299c5760405162461bcd60e51b8152602060048201526013602482015272151c985b9cd858dd1a5bdb881d1bdbc81bdb19606a1b60448201526064016107fc565b83516001600160a01b031660009081526003602052604090205460ff166129d657604051632974f28d60e21b815260040160405180910390fd5b6000876001600160401b038111156129f0576129f0614994565b604051908082528060200260200182016040528015612a19578160200160208202803683370190505b5090507f00000000000000000000000000000000000000000000000000000000000000006001600160a01b0316632a2a1a748a8a8a8a3030886040518060400160405280600280811115612a6f57612a6f614b7e565b81526020018f604051602001612a8591906158f9565b60408051601f19818403018152918152915251612aa5919060200161505a565b6040516020818303038152906040526040518963ffffffff1660e01b8152600401612ad7989796959493929190615091565b6000604051808303816000875af1158015612af6573d6000803e3d6000fd5b505050506040513d6000823e601f3d908101601f19168201604052612b1e9190810190615216565b9998505050505050505050565b6060816001600160401b03811115612b4557612b45614994565b604051908082528060200260200182016040528015612b6e578160200160208202803683370190505b50905060005b82811015612c0657612bd785858584818110612b9257612b92614dc4565b612ba89260206040909202019081019150613eae565b868685818110612bba57612bba614dc4565b9050604002016020016020810190612bd29190613eae565b612f4a565b828281518110612be957612be9614dc4565b602090810291909101015280612bfe81614e0d565b915050612b74565b509392505050565b606061119b8383604051806060016040528060278152602001615b8b60279139613195565b606080612c8884846000604051908082528060200260200182016040528015612c8257816020015b6040805180820190915260008082526020820152815260200190600190039081612c5b5790505b50613269565b50909590945092505050565b6001600160a01b038116612cea5760405162461bcd60e51b815260206004820152601860248201527f476f7665726e61626c653a207a65726f2061646472657373000000000000000060448201526064016107fc565b600180546001600160a01b0319166001600160a01b0383169081179091556040519081527f56bddfa0cee9697cebddf9acd7f23dc6583663b05e007b877056d05017994def9060200160405180910390a150565b6040516001600160a01b0380851660248301528316604482015260648101829052612da99085906323b872dd60e01b906084015b60408051601f198184030181529190526020810180516001600160e01b03166001600160e01b0319909316929092179091526132ee565b50505050565b6001600160a01b03821660008181526002602052604090205463095ea7b3907f00000000000000000000000000000000000000000000000000000000000000009060ff16612e0757612e028460016158e1565b612e09565b835b6040516001600160e01b031960e085901b1681526001600160a01b03909216600483015260248201526044016020604051808303816000875af1158015612e54573d6000803e3d6000fd5b505050506040513d601f19601f82011682018060405250810190610cb0919061569c565b6001600160a01b0381166000908152600183016020526040812054151561119b565b6040516001600160a01b038316602482015260448101829052610cb090849063a9059cbb60e01b90606401612d72565b6000826001600160a01b0316600083604051612ee6919061598f565b60006040518083038185875af1925050503d8060008114612f23576040519150601f19603f3d011682016040523d82523d6000602084013e612f28565b606091505b5050905080610cb05760405163254a88ad60e01b815260040160405180910390fd5b6000806000612f5985856133c0565b60405163582cf84b60e01b81526001600160a01b038084166004830152808316602483015292945090925060009188169063582cf84b90604401602060405180830381865afa158015612fb0573d6000803e3d6000fd5b505050506040513d601f19601f82011682018060405250810190612fd491906159a1565b9050600160f81b60005b6001600160f81b03198083169084161080159061300457506001600160f81b0319821615155b1561318557816001600160f81b0319168284166001600160f81b031916141561316f576040516304045d4760e51b81526001600160a01b03898116600483015288811660248301526001600160f81b031984166044830152600091908b169063808ba8e090606401608060405180830381865afa158015613089573d6000803e3d6000fd5b505050506040513d601f19601f820116820180604052508101906130ad91906159d3565b905060006130ba846133f1565b90506000818284604001516130cf9190615a36565b6130da906001615a67565b6130e49190615a8f565b63ffffffff169050600083602001516001600160e01b031611806131155750600083606001516001600160e01b0316115b1561314a5742811161313157839850505050505050505061119b565b61313b4282615767565b9850505050505050505061119b565b4281111561316b57831561315e5783613168565b6131684282615767565b93505b5050505b6001826001600160f81b031916901b9150612fde565b5060001998975050505050505050565b6060833b6131f45760405162461bcd60e51b815260206004820152602660248201527f416464726573733a2064656c65676174652063616c6c20746f206e6f6e2d636f6044820152651b9d1c9858dd60d21b60648201526084016107fc565b600080856001600160a01b03168560405161320f919061598f565b600060405180830381855af49150503d806000811461324a576040519150601f19603f3d011682016040523d82523d6000602084013e61324f565b606091505b509150915061325f828286613505565b9695505050505050565b60608060606132ca8686808060200260200160405190810160405280939291908181526020016000905b828210156132bf576132b060408302860136819003810190615abb565b81526020019060010190613293565b50505050508561353e565b92506132d7868685613a21565b91506132e38484613cb2565b905093509350939050565b6000613343826040518060400160405280602081526020017f5361666545524332303a206c6f772d6c6576656c2063616c6c206661696c6564815250856001600160a01b0316613db79092919063ffffffff16565b805190915015610cb05780806020019051810190613361919061569c565b610cb05760405162461bcd60e51b815260206004820152602a60248201527f5361666545524332303a204552433230206f7065726174696f6e20646964206e6044820152691bdd081cdd58d8d9595960b21b60648201526084016107fc565b600080826001600160a01b0316846001600160a01b0316106133e35782846133e6565b83835b909590945092505050565b6000600160f81b6001600160f81b0319831614156134115750603c919050565b600160f91b6001600160f81b031983161415613430575061012c919050565b600160fa1b6001600160f81b03198316141561344f5750610384919050565b600160fb1b6001600160f81b03198316141561346e5750610708919050565b600160fc1b6001600160f81b03198316141561348d5750610e10919050565b600160fd1b6001600160f81b0319831614156134ac5750613840919050565b600160fe1b6001600160f81b0319831614156134cc575062015180919050565b600160ff1b6001600160f81b0319831614156134ec575062093a80919050565b60405163bf3cad0b60e01b815260040160405180910390fd5b6060831561351457508161119b565b8251156135245782518084602001fd5b8160405162461bcd60e51b81526004016107fc9190615afc565b60606000808351855160026135539190615b0f565b61355d91906158e1565b6001600160401b0381111561357457613574614994565b60405190808252806020026020018201604052801561359d578160200160208202803683370190505b50905060005b85518110156137775760008060005b85811080156135c857508280156135c65750815b155b1561369d578215801561362257508884815181106135e8576135e8614dc4565b6020026020010151600001516001600160a01b031685828151811061360f5761360f614dc4565b60200260200101516001600160a01b0316145b1561362c57600192505b81158015613681575088848151811061364757613647614dc4565b6020026020010151602001516001600160a01b031685828151811061366e5761366e614dc4565b60200260200101516001600160a01b0316145b1561368b57600191505b8061369581614e0d565b9150506135b2565b5081613700578783815181106136b5576136b5614dc4565b6020026020010151600001518486806136cd90614e0d565b9750815181106136df576136df614dc4565b60200260200101906001600160a01b031690816001600160a01b0316815250505b806137625787838151811061371757613717614dc4565b60200260200101516020015184868061372f90614e0d565b97508151811061374157613741614dc4565b60200260200101906001600160a01b031690816001600160a01b0316815250505b5050808061376f90614e0d565b9150506135a3565b5060005b8451811015613877576000805b8481108015613795575081155b15613801578683815181106137ac576137ac614dc4565b6020026020010151600001516001600160a01b03168482815181106137d3576137d3614dc4565b60200260200101516001600160a01b031614156137ef57600191505b806137f981614e0d565b915050613788565b50806138645785828151811061381957613819614dc4565b60200260200101516000015183858061383190614e0d565b96508151811061384357613843614dc4565b60200260200101906001600160a01b031690816001600160a01b0316815250505b508061386f81614e0d565b91505061377b565b50816001600160401b0381111561389057613890614994565b6040519080825280602002602001820160405280156138b9578160200160208202803683370190505b50925060005b82811015613a185760008282815181106138db576138db614dc4565b6020026020010151905060005b816001600160a01b031686828151811061390457613904614dc4565b60200260200101516001600160a01b031610801561394e575060006001600160a01b031686828151811061393a5761393a614dc4565b60200260200101516001600160a01b031614155b15613965578061395d81614e0d565b9150506138e8565b825b818111156139cf578661397b600183615767565b8151811061398b5761398b614dc4565b60200260200101518782815181106139a5576139a5614dc4565b6001600160a01b0390921660209283029190910190910152806139c781615b2e565b915050613967565b50818682815181106139e3576139e3614dc4565b60200260200101906001600160a01b031690816001600160a01b03168152505050508080613a1090614e0d565b9150506138bf565b50505092915050565b6060826001600160401b03811115613a3b57613a3b614994565b604051908082528060200260200182016040528015613a8057816020015b6040805180820190915260008082526020820152815260200190600190039081613a595790505b5090506000805b83518160ff1610156117c2576000613aa0826001615b45565b90505b84518160ff161015613c9f5760005b86811015613c8c57878782818110613acc57613acc614dc4565b613ae29260206040909202019081019150613eae565b6001600160a01b0316868460ff1681518110613b0057613b00614dc4565b60200260200101516001600160a01b0316148015613b745750878782818110613b2b57613b2b614dc4565b9050604002016020016020810190613b439190613eae565b6001600160a01b0316868360ff1681518110613b6157613b61614dc4565b60200260200101516001600160a01b0316145b80613c345750878782818110613b8c57613b8c614dc4565b9050604002016020016020810190613ba49190613eae565b6001600160a01b0316868460ff1681518110613bc257613bc2614dc4565b60200260200101516001600160a01b0316148015613c345750878782818110613bed57613bed614dc4565b613c039260206040909202019081019150613eae565b6001600160a01b0316868360ff1681518110613c2157613c21614dc4565b60200260200101516001600160a01b0316145b15613c7a576040805180820190915260ff8085168252831660208201528585613c5c81614e0d565b965081518110613c6e57613c6e614dc4565b60200260200101819052505b80613c8481614e0d565b915050613ab2565b5080613c9781615b6a565b915050613aa3565b5080613caa81615b6a565b915050613a87565b606081516001600160401b03811115613ccd57613ccd614994565b604051908082528060200260200182016040528015613cf6578160200160208202803683370190505b50905060005b83518110156115155760005b848281518110613d1a57613d1a614dc4565b6020026020010151600001516001600160a01b0316848281518110613d4157613d41614dc4565b60200260200101516001600160a01b031614613d695780613d6181614e0d565b915050613d08565b848281518110613d7b57613d7b614dc4565b602002602001015160200151838281518110613d9957613d99614dc4565b60209081029190910101525080613daf81614e0d565b915050613cfc565b6060611d6f848460008585843b613e105760405162461bcd60e51b815260206004820152601d60248201527f416464726573733a2063616c6c20746f206e6f6e2d636f6e747261637400000060448201526064016107fc565b600080866001600160a01b03168587604051613e2c919061598f565b60006040518083038185875af1925050503d8060008114613e69576040519150601f19603f3d011682016040523d82523d6000602084013e613e6e565b606091505b5091509150613e7e828286613505565b979650505050505050565b6001600160a01b0381168114611c1f57600080fd5b8035613ea981613e89565b919050565b600060208284031215613ec057600080fd5b813561119b81613e89565b600080600060608486031215613ee057600080fd5b833592506020840135613ef281613e89565b91506040840135613f0281613e89565b809150509250925092565b63ffffffff81168114611c1f57600080fd5b8035613ea981613f0d565b8015158114611c1f57600080fd5b8035613ea981613f2a565b60008060008060808587031215613f5957600080fd5b84359350602085013592506040850135613f7281613f0d565b91506060850135613f8281613f2a565b939692955090935050565b60008083601f840112613f9f57600080fd5b5081356001600160401b03811115613fb657600080fd5b6020830191508360208260051b8501011115613fd157600080fd5b9250929050565b60008083601f840112613fea57600080fd5b5081356001600160401b0381111561400157600080fd5b602083019150836020828501011115613fd157600080fd5b6000806000806000806000806000806101008b8d03121561403957600080fd5b8a3561404481613e89565b995060208b013561405481613e89565b985060408b0135975060608b013561406b81613f0d565b965060808b013561407b81613f0d565b955060a08b013561408b81613e89565b945060c08b01356001600160401b03808211156140a757600080fd5b6140b38e838f01613f8d565b909650945060e08d01359150808211156140cc57600080fd5b506140d98d828e01613fd8565b915080935050809150509295989b9194979a5092959850565b6000806000806040858703121561410857600080fd5b84356001600160401b038082111561411f57600080fd5b61412b88838901613f8d565b9096509450602087013591508082111561414457600080fd5b5061415187828801613f8d565b95989497509550505050565b60008060006060848603121561417257600080fd5b833561417d81613e89565b9250602084013561418d81613e89565b929592945050506040919091013590565b600080604083850312156141b157600080fd5b8235915060208301356141c381613e89565b809150509250929050565b600080600080608085870312156141e457600080fd5b843593506020850135925060408501356141fd81613f0d565b91506060850135613f8281613e89565b60008060008060008060006080888a03121561422857600080fd5b873561423381613e89565b965060208801356001600160401b038082111561424f57600080fd5b818a0191508a601f83011261426357600080fd5b81358181111561427257600080fd5b8b60208260071b850101111561428757600080fd5b6020830198508097505060408a01359150808211156142a557600080fd5b6142b18b838c01613f8d565b909650945060608a01359150808211156142ca57600080fd5b506142d78a828b01613fd8565b989b979a50959850939692959293505050565b600080604083850312156142fd57600080fd5b823561430881613e89565b915060208301356141c381613f2a565b60008083601f84011261432a57600080fd5b5081356001600160401b0381111561434157600080fd5b6020830191508360208260061b8501011115613fd157600080fd5b60008060008060008060008060008060e08b8d03121561437b57600080fd5b8a3561438681613e89565b995060208b01356001600160401b03808211156143a257600080fd5b6143ae8e838f01613f8d565b909b50995060408d01359150808211156143c757600080fd5b6143d38e838f01614318565b909950975060608d01359150808211156143ec57600080fd5b506143f98d828e01613f8d565b90965094505060808b013561440d81613f2a565b925061441b60a08c01613e9e565b915060c08b013590509295989b9194979a5092959850565b600081518084526020808501945080840160005b838110156144a357815180516001600160a01b03908116895284820151168489015260408082015190890152606080820151908901526080908101516001600160f81b0319169088015260a09096019590820190600101614447565b509495945050505050565b600060208083526060808401855160408085880152828251808552608094508489019150868401935060005b8181101561451857845180516001600160a01b03168452888101518985015284810151858501528701518784015293870193918501916001016144da565b505094880151878603601f19018289015294612b1e8187614433565b6000806020838503121561454757600080fd5b82356001600160401b0381111561455d57600080fd5b61456985828601614318565b90969095509350505050565b600081518084526020808501945080840160005b838110156144a357815187529582019590820190600101614589565b60208152600061119b6020830184614575565b60008060008060008060008060008060c08b8d0312156145d757600080fd5b8a356001600160401b03808211156145ee57600080fd5b6145fa8e838f01613f8d565b909c509a5060208d013591508082111561461357600080fd5b61461f8e838f01614318565b909a50985060408d013591508082111561463857600080fd5b6146448e838f01613f8d565b909850965060608d013591508082111561465d57600080fd5b5061466a8d828e01613f8d565b909550935061467d905060808c01613e9e565b915060a08b013590509295989b9194979a5092959850565b600080602083850312156146a857600080fd5b82356001600160401b038111156146be57600080fd5b61456985828601613f8d565b60005b838110156146e55781810151838201526020016146cd565b83811115612da95750506000910152565b6000815180845261470e8160208601602086016146ca565b601f01601f19169290920160200192915050565b6000602080830181845280855180835260408601915060408160051b870101925083870160005b8281101561477757603f198886030184526147658583516146f6565b94509285019290850190600101614749565b5092979650505050505050565b803560ff81168114613ea957600080fd5b600080600080600080600060c0888a0312156147b057600080fd5b87356001600160401b038111156147c657600080fd5b6147d28a828b01613f8d565b90985096505060208801359450604088013593506147f260608901614784565b92506080880135915060a0880135905092959891949750929550565b60008060006040848603121561482357600080fd5b83356001600160401b0381111561483957600080fd5b61484586828701613f8d565b9094509250506020840135613f0281613e89565b60008060008060008060008060008060006101208c8e03121561487b57600080fd5b6148858c35613e89565b8b359a5061489660208d0135613e89565b60208c0135995060408c013598506148b060608d01613f1f565b97506148be60808d01613f1f565b96506148cc60a08d01613e9e565b95506001600160401b038060c08e013511156148e757600080fd5b6148f78e60c08f01358f01613f8d565b909650945060e08d013581101561490d57600080fd5b5061491e8d60e08e01358e01613fd8565b90935091506149306101008d01613f38565b90509295989b509295989b9093969950565b60008060006060848603121561495757600080fd5b83359250602084013591506040840135613f0281613f0d565b6000806040838503121561498357600080fd5b505080516020909101519092909150565b634e487b7160e01b600052604160045260246000fd5b604080519081016001600160401b03811182821017156149cc576149cc614994565b60405290565b60405160a081016001600160401b03811182821017156149cc576149cc614994565b604051608081016001600160401b03811182821017156149cc576149cc614994565b604051601f8201601f191681016001600160401b0381118282101715614a3e57614a3e614994565b604052919050565b8051613ea981613e89565b8051613ea981613f0d565b80516effffffffffffffffffffffffffffff81168114613ea957600080fd5b6000610100808385031215614a8f57600080fd5b604051908101906001600160401b0382118183101715614ab157614ab1614994565b8160405283519150614ac282613e89565b818152614ad160208501614a46565b6020820152614ae260408501614a51565b6040820152614af360608501614a51565b606082015260808401516080820152614b0e60a08501614a51565b60a082015260c084015160c0820152614b2960e08501614a5c565b60e0820152949350505050565b6000808335601e19843603018112614b4d57600080fd5b83016020810192503590506001600160401b03811115614b6c57600080fd5b8060051b3603831315613fd157600080fd5b634e487b7160e01b600052602160045260246000fd5b60048110614ba457614ba4614b7e565b9052565b60008235603e19833603018112614bbe57600080fd5b90910192915050565b81835260006020808501808196508560051b810191508460005b87811015614c7c578284038952614bf88288614ba8565b60408086018235614c0881613e89565b6001600160a01b03168752614c1f83890184614b36565b888a019390935290829052909150606086019060005b83811015614c6757813560048110614c4c57600080fd5b614c568482614b94565b509188019190880190600101614c35565b50509986019994505090840190600101614be1565b5091979650505050505050565b6001600160a01b03898116825288811660208301526040820188905263ffffffff878116606084015286166080830152841660a082015260e060c08201819052600090614cd99083018486614bc7565b9a9950505050505050505050565b600060208284031215614cf957600080fd5b5051919050565b6001600160a01b038b811682528a81166020830152604082018a905263ffffffff898116606084015288166080830152861660a082015261010060c08201819052600090614d518382018789614bc7565b905082810360e0840152838152838560208301376000602085830101526020601f19601f8601168201019150509b9a5050505050505050505050565b60208082526019908201527f476f7665726e61626c653a206f6e6c7920676f7665726e6f7200000000000000604082015260600190565b634e487b7160e01b600052603260045260246000fd5b600060208284031215614dec57600080fd5b813561119b81613f2a565b634e487b7160e01b600052601160045260246000fd5b6000600019821415614e2157614e21614df7565b5060010190565b8183526000602080850194508260005b858110156144a3578135614e4b81613e89565b6001600160a01b031687529582019590820190600101614e38565b604081526000614e7a604083018688614e28565b8281036020848101919091528482528591810160005b86811015614eb7578335614ea381613f2a565b151582529282019290820190600101614e90565b5098975050505050505050565b60006001600160401b03821115614edd57614edd614994565b50601f01601f191660200190565b600082601f830112614efc57600080fd5b8135614f0f614f0a82614ec4565b614a16565b818152846020838601011115614f2457600080fd5b816020850160208301376000918101602001919091529392505050565b600060208284031215614f5357600080fd5b81356001600160401b0380821115614f6a57600080fd5b9083019060408286031215614f7e57600080fd5b614f866149aa565b823560038110614f9557600080fd5b8152602083013582811115614fa957600080fd5b614fb587828601614eeb565b60208301525095945050505050565b60006001600160401b03821115614fdd57614fdd614994565b5060051b60200190565b6000614ff5614f0a84614fc4565b80848252602080830192508560051b85013681111561501357600080fd5b855b8181101561504e5780356001600160401b038111156150345760008081fd5b61504036828a01614eeb565b865250938201938201615015565b50919695505050505050565b60208152600082516003811061507257615072614b7e565b806020840152506020830151604080840152611d6f60608401826146f6565b60c0815260006150a560c083018a8c614e28565b8281036020848101919091528882528991810160005b8a8110156150f65760ff806150cf86614784565b168352806150de858701614784565b168385015250604093840193909101906001016150bb565b506001600160a01b03891660408601526001600160a01b038816606086015284810360808601526151278188614575565b9250505082810360a0840152610b4781856146f6565b80516001600160f81b031981168114613ea957600080fd5b600082601f83011261516657600080fd5b81516020615176614f0a83614fc4565b82815260a0928302850182019282820191908785111561519557600080fd5b8387015b858110156152095781818a0312156151b15760008081fd5b6151b96149d2565b81516151c481613e89565b8152818601516151d381613e89565b81870152604082810151908201526060808301519082015260806151f881840161513d565b908201528452928401928101615199565b5090979650505050505050565b6000602080838503121561522957600080fd5b82516001600160401b038082111561524057600080fd5b8185019150604080838803121561525657600080fd5b61525e6149aa565b83518381111561526d57600080fd5b8401601f8101891361527e57600080fd5b805161528c614f0a82614fc4565b81815260079190911b8201870190878101908b8311156152ab57600080fd5b928801925b82841015615309576080848d0312156152c95760008081fd5b6152d16149f4565b84516152dc81613e89565b8152848a01518a8201528685015187820152606080860151908201528252608090930192908801906152b0565b84525050508385015191508282111561532157600080fd5b61532d88838601615155565b85820152809550505050505092915050565b6000808335601e1984360301811261535657600080fd5b8301803591506001600160401b0382111561537057600080fd5b602001915036819003821315613fd157600080fd5b60c08152600061539960c08301898b614bc7565b602083019790975250604081019490945260ff929092166060840152608083015260a09091015292915050565b6000604080830181845280865180835260608601915060608160051b8701019250602080890160005b8381101561543757888603605f19018552815180516001600160a01b0316875283015183870188905261542488880182614575565b96505093820193908201906001016153ef565b50506001600160a01b0397909716959096019490945295945050505050565b6000602080838503121561546957600080fd5b82516001600160401b0381111561547f57600080fd5b8301601f8101851361549057600080fd5b805161549e614f0a82614fc4565b81815260059190911b820183019083810190878311156154bd57600080fd5b928401925b82841015613e7e578351825292840192908401906154c2565b60408082528351828201819052600091906020906060850190828801855b8281101561551e5781516001600160a01b0316845292840192908401906001016154f9565b5050508481038286015285518082528683019183019060005b81811015615563578351805160ff90811685529086015116858401529284019291850191600101615537565b509098975050505050505050565b60008235603e1983360301811261558757600080fd5b9190910192915050565b6000808335601e198436030181126155a857600080fd5b8301803591506001600160401b038211156155c257600080fd5b6020019150600581901b3603821315613fd157600080fd5b60408082528181018490526000906060808401600587811b860183018986805b8b81101561567e57898403605f19018652615615838e614ba8565b803561562081613e89565b6001600160a01b03168552602061563982820183614b36565b8783018c9052878c0181905292506001600160fb1b0383111561565a578485fd5b91871b918281888c01375094018701828152958401959392909201916001016155fa565b5050506001600160a01b03881660208801529450611d6f9350505050565b6000602082840312156156ae57600080fd5b815161119b81613f2a565b8381526001600160a01b038316602082015260608101611d6f6040830184614b94565b6000604082840312156156ee57600080fd5b6156f66149aa565b825161570181613e89565b81526020928301519281019290925250919050565b60006080828403121561572857600080fd5b6157306149f4565b823561573b81613e89565b808252506020830135602082015260408301356040820152606083013560608201528091505092915050565b60008282101561577957615779614df7565b500390565b6000602080838503121561579157600080fd5b82516001600160401b03808211156157a857600080fd5b9084019060a082870312156157bc57600080fd5b6157c46149d2565b82516157cf81613e89565b8152828401516157de81613f2a565b818501526040838101516157f181613f2a565b82820152606084015161580381613e89565b606083015260808401518381111561581a57600080fd5b80850194505087601f85011261582f57600080fd5b835161583d614f0a82614fc4565b81815260059190911b8501860190868101908a83111561585c57600080fd5b8787015b838110156158cd578051878111156158785760008081fd5b8801603f81018d1361588a5760008081fd5b8981015161589a614f0a82614ec4565b8181528e888385010111156158af5760008081fd5b6158be828d83018a86016146ca565b85525050918801918801615860565b506080850152509198975050505050505050565b600082198211156158f4576158f4614df7565b500190565b6000602080835260c0830160018060a01b038086511683860152828601511515604086015260408601511515606086015280606087015116608086015250608085015160a08086015281815180845260e08701915060e08160051b8801019350848301925060005b818110156147775760df1988860301835261597d8585516146f6565b94509285019291850191600101615961565b600082516155878184602087016146ca565b6000602082840312156159b357600080fd5b61119b8261513d565b80516001600160e01b0381168114613ea957600080fd5b6000608082840312156159e557600080fd5b6159ed6149f4565b82516159f881613f0d565b8152615a06602084016159bc565b60208201526040830151615a1981613f0d565b6040820152615a2a606084016159bc565b60608201529392505050565b600063ffffffff80841680615a5b57634e487b7160e01b600052601260045260246000fd5b92169190910492915050565b600063ffffffff808316818516808303821115615a8657615a86614df7565b01949350505050565b600063ffffffff80831681851681830481118215151615615ab257615ab2614df7565b02949350505050565b600060408284031215615acd57600080fd5b615ad56149aa565b8235615ae081613e89565b81526020830135615af081613e89565b60208201529392505050565b60208152600061119b60208301846146f6565b6000816000190483118215151615615b2957615b29614df7565b500290565b600081615b3d57615b3d614df7565b506000190190565b600060ff821660ff84168060ff03821115615b6257615b62614df7565b019392505050565b600060ff821660ff811415615b8157615b81614df7565b6001019291505056fe416464726573733a206c6f772d6c6576656c2064656c65676174652063616c6c206661696c6564a26469706673582212207c999abf0f070ff86161c2afb83505300ca78737304361f5e5b5325b86b8c7d164736f6c634300080a0033",
  "devdoc": {
    "kind": "dev",
    "methods": {
      "approveWTokenForHub()": {
        "details": "Anyone can call this method"
      },
      "defineDexSupport(address,bool)": {
        "details": "Will revert with `ZeroAddress` if the zero address if given",
        "params": {
          "_dex": "The address of the DEX",
          "_support": "Whether the Companion should support swaps with the given DEX"
        }
      },
      "depositProxy(address,address,uint256,uint32,uint32,address,(address,uint8[])[],bytes,bool)": {
        "details": "Meant to be used as part of a multicall",
        "params": {
          "_amount": "How many \"from\" tokens will be swapped in total",
          "_amountOfSwaps": "How many swaps to execute for this position",
          "_from": "The address of the \"from\" token",
          "_miscellaneous": "Bytes that will be emitted, and associated with the position. If empty, no event will be emitted",
          "_owner": "The address of the owner of the position being created",
          "_swapInterval": "How frequently the position's swaps should be executed",
          "_to": "The address of the \"to\" token",
          "_transferFromCaller": "Determines if the funds should be transfered from the caller"
        },
        "returns": {
          "_positionId": "The id of the created position"
        }
      },
      "depositUsingProtocolToken(address,address,uint256,uint32,uint32,address,(address,uint8[])[],bytes)": {
        "details": "This function will also give all permissions to this contract, so that it can then withdraw/terminate and convert back to protocol's token. Will revert with InvalidTokens unless only one of the tokens is the protocol token",
        "params": {
          "_amount": "How many \"from\" tokens will be swapped in total",
          "_amountOfSwaps": "How many swaps to execute for this position",
          "_from": "The address of the \"from\" token",
          "_miscellaneous": "Bytes that will be emitted, and associated with the position. If empty, no event will be emitted",
          "_owner": "The address of the owner of the position being created",
          "_permissions": "Extra permissions to add to the position. Can be empty",
          "_swapInterval": "How frequently the position's swaps should be executed",
          "_to": "The address of the \"to\" token"
        },
        "returns": {
          "_positionId": "The id of the created position"
        }
      },
      "getNextSwapInfo((address,address)[])": {
        "details": "Please note that this function is very expensive. Ideally, it would be used for off-chain purposes",
        "params": {
          "_pairs": "The pairs to be involved in the swap"
        },
        "returns": {
          "_0": "How executing a swap for all the given pairs would look like"
        }
      },
      "increasePositionProxy(uint256,uint256,uint32,bool)": {
        "details": "Meant to be used as part of a multicall",
        "params": {
          "_amount": "Amount of funds to add to the position",
          "_newSwaps": "The new amount of swaps",
          "_positionId": "The position's id",
          "_transferFromCaller": "Determines if the funds should be transfered from the caller"
        }
      },
      "increasePositionUsingProtocolToken(uint256,uint256,uint32)": {
        "params": {
          "_amount": "Amount of funds to add to the position",
          "_newSwaps": "The new amount of swaps",
          "_positionId": "The position's id"
        }
      },
      "multicall(bytes[])": {
        "details": "Receives and executes a batch of function calls on this contract."
      },
      "permissionPermitProxy((address,uint8[])[],uint256,uint256,uint8,bytes32,bytes32)": {
        "params": {
          "_deadline": "The deadline timestamp by which the call must be mined for the approve to work",
          "_permissions": "The permissions to set",
          "_r": "Must produce valid secp256k1 signature from the holder along with `v` and `s`",
          "_s": "Must produce valid secp256k1 signature from the holder along with `r` and `v`",
          "_tokenId": "The token's id",
          "_v": "Must produce valid secp256k1 signature from the holder along with `r` and `s`"
        }
      },
      "reducePositionProxy(uint256,uint256,uint32,address)": {
        "details": "Meant to be used as part of a multicall",
        "params": {
          "_amount": "Amount of funds to withdraw from the position",
          "_newSwaps": "The new amount of swaps",
          "_positionId": "The position's id",
          "_recipient": "The address to send tokens to"
        }
      },
      "reducePositionUsingProtocolToken(uint256,uint256,uint32,address)": {
        "params": {
          "_amount": "Amount of funds to withdraw from the position",
          "_newSwaps": "The new amount of swaps",
          "_positionId": "The position's id",
          "_recipient": "The address to send tokens to"
        }
      },
      "secondsUntilNextSwap((address,address)[])": {
        "details": "Tokens in pairs may be passed in either tokenA/tokenB or tokenB/tokenA order",
        "params": {
          "_pairs": "Pairs to check"
        },
        "returns": {
          "_0": "The amount of seconds until next swap for each of the pairs"
        }
      },
      "setTokensWithApprovalIssues(address[],bool[])": {
        "details": "Will revert with `InvalidTokenApprovalParams` if the length of the given arrays differ",
        "params": {
          "_addresses": "The addresses of the tokens",
          "_hasIssue": "Wether they have issues or not"
        }
      },
      "swapForCaller(address[],(uint8,uint8)[],uint256[],uint256[],address,uint256)": {
        "details": "Will revert: With RewardNotEnough if the minimum output is not met With ToProvideIsTooMuch if the hub swap requires more than the given maximum input",
        "params": {
          "_deadline": "Deadline when the swap becomes invalid",
          "_maximumInput": "The maximum amount of tokens to provide as part of the swap",
          "_minimumOutput": "The minimum amount of tokens to receive as part of the swap",
          "_pairsToSwap": "The pairs to swap",
          "_recipient": "Address that will receive all the tokens from the swap",
          "_tokens": "The tokens involved in the swap"
        },
        "returns": {
          "_swapInfo": "The information about the executed swap"
        }
      },
      "swapWithDex(address,address[],(uint8,uint8)[],bytes[],bool,address,uint256)": {
        "params": {
          "_callsToDex": "The bytes to send to the DEX to execute swaps",
          "_deadline": "Deadline when the swap becomes invalid",
          "_dex": "The DEX that will be used in the swap",
          "_doDexSwapsIncludeTransferToHub": "Some DEXes support swap & transfer, which would be cheaper in terms of gas If this feature is used, then the flag should be true",
          "_leftoverRecipient": "Address that will receive all unspent tokens",
          "_pairsToSwap": "The pairs to swap",
          "_tokens": "The tokens involved in the swap"
        },
        "returns": {
          "_0": "The information about the executed swap"
        }
      },
      "swapWithDexAndShareLeftoverWithHub(address,address[],(uint8,uint8)[],bytes[],bool,address,uint256)": {
        "params": {
          "_callsToDex": "The bytes to send to the DEX to execute swaps",
          "_deadline": "Deadline when the swap becomes invalid",
          "_dex": "The DEX that will be used in the swap",
          "_doDexSwapsIncludeTransferToHub": "Some DEXes support swap & transfer, which would be cheaper in terms of gas If this feature is used, then the flag should be true",
          "_leftoverRecipient": "Address that will receive `reward` unspent tokens",
          "_pairsToSwap": "The pairs to swap",
          "_tokens": "The tokens involved in the swap"
        },
        "returns": {
          "_0": "The information about the executed swap"
        }
      },
      "terminateProxy(uint256,address,address)": {
        "details": "Meant to be used as part of a multicall",
        "params": {
          "_positionId": "The position's id",
          "_recipientSwapped": "The address to withdraw swapped tokens to",
          "_recipientUnswapped": "The address to withdraw unswapped tokens to"
        },
        "returns": {
          "_swapped": "The swapped balance sent to `_recipientSwapped`",
          "_unswapped": "The unswapped balance sent to `_recipientUnswapped`"
        }
      },
      "terminateUsingProtocolTokenAsFrom(uint256,address,address)": {
        "params": {
          "_positionId": "The position's id",
          "_recipientSwapped": "The address to withdraw swapped tokens to",
          "_recipientUnswapped": "The address to withdraw unswapped tokens to"
        },
        "returns": {
          "_swapped": "The swapped balance sent to `_recipientSwapped`",
          "_unswapped": "The unswapped balance sent to `_recipientUnswapped`"
        }
      },
      "terminateUsingProtocolTokenAsTo(uint256,address,address)": {
        "params": {
          "_positionId": "The position's id",
          "_recipientSwapped": "The address to withdraw swapped tokens to",
          "_recipientUnswapped": "The address to withdraw unswapped tokens to"
        },
        "returns": {
          "_swapped": "The swapped balance sent to `_recipientSwapped`",
          "_unswapped": "The unswapped balance sent to `_recipientUnswapped`"
        }
      },
      "withdrawSwappedManyProxy((address,uint256[])[],address)": {
        "details": "Meant to be used as part of a multicall",
        "params": {
          "_positions": "A list positions, grouped by `to` token",
          "_recipient": "The address to withdraw swapped tokens to"
        },
        "returns": {
          "_withdrawn": "How much was withdrawn for each token"
        }
      },
      "withdrawSwappedManyUsingProtocolToken(uint256[],address)": {
        "params": {
          "_positionIds": "A list positions whose 'to' token is the wToken",
          "_recipient": "The address to withdraw swapped tokens to"
        },
        "returns": {
          "_swapped": "How much was withdrawn in total"
        }
      },
      "withdrawSwappedProxy(uint256,address)": {
        "details": "Meant to be used as part of a multicall",
        "params": {
          "_positionId": "The position's id",
          "_recipient": "The address to withdraw swapped tokens to"
        },
        "returns": {
          "_swapped": "How much was withdrawn"
        }
      },
      "withdrawSwappedUsingProtocolToken(uint256,address)": {
        "params": {
          "_positionId": "The position's id",
          "_recipient": "The address to withdraw swapped tokens to"
        },
        "returns": {
          "_swapped": "How much was withdrawn"
        }
      }
    },
    "version": 1
  },
  "userdoc": {
    "errors": {
      "CallToDexFailed()": [
        {
          "notice": "Thrown when a call to the given DEX fails"
        }
      ],
      "CallbackNotCalledByHub()": [
        {
          "notice": "Thrown when callback is not called by the hub"
        }
      ],
      "InvalidMask()": [
        {
          "notice": "Thrown when a user tries convert and invalid byte representation to an interval"
        }
      ],
      "InvalidTokenApprovalParams()": [
        {
          "notice": "Thrown when the given parameters are invalid"
        }
      ],
      "InvalidTokens()": [
        {
          "notice": "Thrown when the user tries to make a deposit where neither or both of the tokens are the protocol token"
        }
      ],
      "RewardNotEnough()": [
        {
          "notice": "Thrown when the reward is less that the specified minimum"
        }
      ],
      "SwapNotInitiatedByCompanion()": [
        {
          "notice": "Thrown when swap was not initiated by the companion"
        }
      ],
      "ToProvideIsTooMuch()": [
        {
          "notice": "Thrown when the amount to provide is more than the specified maximum"
        }
      ],
      "UnauthorizedCaller()": [
        {
          "notice": "Thrown when a user tries operate on a position that they don't have access to"
        }
      ],
      "UnexpectedSwapPlan()": [
        {
          "notice": "Thrown when the callback is executed with an unexpected swap plan"
        }
      ],
      "UnsupportedDex()": [
        {
          "notice": "Thrown when a swap is executed with a DEX that is not supported"
        }
      ],
      "ZeroAddress()": [
        {
          "notice": "Thrown when one of the parameters is a zero address"
        }
      ]
    },
    "events": {
      "TokenWithApprovalIssuesSet(address[],bool[])": {
        "notice": "Emitted when tokens with approval issues are set"
      }
    },
    "kind": "user",
    "methods": {
      "PROTOCOL_TOKEN()": {
        "notice": "Returns the address used to represent the protocol token (f.e. ETH/MATIC)"
      },
      "approveWTokenForHub()": {
        "notice": "Increases the allowance of wToken to the max, for the DCAHub"
      },
      "defineDexSupport(address,bool)": {
        "notice": "Defines whether a specific DEX will be supported for swaps"
      },
      "depositProxy(address,address,uint256,uint32,uint32,address,(address,uint8[])[],bytes,bool)": {
        "notice": "Creates a new position"
      },
      "depositUsingProtocolToken(address,address,uint256,uint32,uint32,address,(address,uint8[])[],bytes)": {
        "notice": "Creates a new position by converting the protocol's base token to its wrapped version"
      },
      "getNextSwapInfo((address,address)[])": {
        "notice": "Takes a list of pairs and returns how it would look like to execute a swap for all of them"
      },
      "hub()": {
        "notice": "Returns the DCA Hub's address"
      },
      "increasePositionProxy(uint256,uint256,uint32,bool)": {
        "notice": "Call the hub and takes the unswapped balance, adds the new deposited funds and modifies the position so that it is executed in _newSwaps swaps"
      },
      "increasePositionUsingProtocolToken(uint256,uint256,uint32)": {
        "notice": "Takes the unswapped balance, adds the new deposited funds and modifies the position so that it is executed in _newSwaps swaps"
      },
      "isDexSupported(address)": {
        "notice": "Returns whether the given DEX can be used for swaps for not"
      },
      "permissionManager()": {
        "notice": "Returns the permission manager contract"
      },
      "permissionPermitProxy((address,uint8[])[],uint256,uint256,uint8,bytes32,bytes32)": {
        "notice": "Calls the permission manager and sets permissions via signature"
      },
      "reducePositionProxy(uint256,uint256,uint32,address)": {
        "notice": "Call the hub and withdraws the specified amount from the unswapped balance and modifies the position so that it is executed in _newSwaps swaps"
      },
      "reducePositionUsingProtocolToken(uint256,uint256,uint32,address)": {
        "notice": "Withdraws the specified amount from the unswapped balance and modifies the position so that it is executed in _newSwaps swaps"
      },
      "secondsUntilNextSwap((address,address)[])": {
        "notice": "Returns how many seconds left until the next swap is available for a list of pairs"
      },
      "setTokensWithApprovalIssues(address[],bool[])": {
        "notice": "Sets whether specific addresses have issues with approvals, like USDT"
      },
      "swapForCaller(address[],(uint8,uint8)[],uint256[],uint256[],address,uint256)": {
        "notice": "Executes a swap for the caller, by sending them the reward, and taking from them the needed tokens"
      },
      "swapWithDex(address,address[],(uint8,uint8)[],bytes[],bool,address,uint256)": {
        "notice": "Executes a swap with the given DEX, and sends all unspent tokens to the given recipient"
      },
      "swapWithDexAndShareLeftoverWithHub(address,address[],(uint8,uint8)[],bytes[],bool,address,uint256)": {
        "notice": "Executes a swap with the given DEX and sends all `reward` unspent tokens to the given recipient. All positive slippage for tokens that need to be returned to the hub is also sent to the hub"
      },
      "terminateProxy(uint256,address,address)": {
        "notice": "Calls the hub and terminates the position and sends all unswapped and swapped balance to the specified recipients"
      },
      "terminateUsingProtocolTokenAsFrom(uint256,address,address)": {
        "notice": "Terminates the position and sends all unswapped and swapped balance to the specified recipients"
      },
      "terminateUsingProtocolTokenAsTo(uint256,address,address)": {
        "notice": "Terminates the position and sends all unswapped and swapped balance to the specified recipients"
      },
      "tokenHasApprovalIssue(address)": {
        "notice": "Returns whether the given address has issues with approvals, like USDT"
      },
      "wToken()": {
        "notice": "Returns the address of the wrapped token"
      },
      "withdrawSwappedManyProxy((address,uint256[])[],address)": {
        "notice": "Call the hub and withdraws all swapped tokens from multiple positions"
      },
      "withdrawSwappedManyUsingProtocolToken(uint256[],address)": {
        "notice": "Withdraws all swapped tokens from multiple positions"
      },
      "withdrawSwappedProxy(uint256,address)": {
        "notice": "Call the hub and withdraws all swapped tokens from a position to a recipient"
      },
      "withdrawSwappedUsingProtocolToken(uint256,address)": {
        "notice": "Withdraws all swapped tokens from a position to a recipient"
      }
    },
    "version": 1
  },
  "storageLayout": {
    "storage": [
      {
        "astId": 8865,
        "contract": "contracts/DCAHubCompanion/DCAHubCompanion.sol:DCAHubCompanion",
        "label": "_governor",
        "offset": 0,
        "slot": "0",
        "type": "t_address"
      },
      {
        "astId": 8867,
        "contract": "contracts/DCAHubCompanion/DCAHubCompanion.sol:DCAHubCompanion",
        "label": "_pendingGovernor",
        "offset": 0,
        "slot": "1",
        "type": "t_address"
      },
      {
        "astId": 4169,
        "contract": "contracts/DCAHubCompanion/DCAHubCompanion.sol:DCAHubCompanion",
        "label": "tokenHasApprovalIssue",
        "offset": 0,
        "slot": "2",
        "type": "t_mapping(t_address,t_bool)"
      },
      {
        "astId": 4378,
        "contract": "contracts/DCAHubCompanion/DCAHubCompanion.sol:DCAHubCompanion",
        "label": "isDexSupported",
        "offset": 0,
        "slot": "3",
        "type": "t_mapping(t_address,t_bool)"
      },
      {
        "astId": 8759,
        "contract": "contracts/DCAHubCompanion/DCAHubCompanion.sol:DCAHubCompanion",
        "label": "_protocolTokens",
        "offset": 0,
        "slot": "4",
        "type": "t_struct(AddressSet)3387_storage"
      }
    ],
    "types": {
      "t_address": {
        "encoding": "inplace",
        "label": "address",
        "numberOfBytes": "20"
      },
      "t_array(t_bytes32)dyn_storage": {
        "base": "t_bytes32",
        "encoding": "dynamic_array",
        "label": "bytes32[]",
        "numberOfBytes": "32"
      },
      "t_bool": {
        "encoding": "inplace",
        "label": "bool",
        "numberOfBytes": "1"
      },
      "t_bytes32": {
        "encoding": "inplace",
        "label": "bytes32",
        "numberOfBytes": "32"
      },
      "t_mapping(t_address,t_bool)": {
        "encoding": "mapping",
        "key": "t_address",
        "label": "mapping(address => bool)",
        "numberOfBytes": "32",
        "value": "t_bool"
      },
      "t_mapping(t_bytes32,t_uint256)": {
        "encoding": "mapping",
        "key": "t_bytes32",
        "label": "mapping(bytes32 => uint256)",
        "numberOfBytes": "32",
        "value": "t_uint256"
      },
      "t_struct(AddressSet)3387_storage": {
        "encoding": "inplace",
        "label": "struct EnumerableSet.AddressSet",
        "members": [
          {
            "astId": 3386,
            "contract": "contracts/DCAHubCompanion/DCAHubCompanion.sol:DCAHubCompanion",
            "label": "_inner",
            "offset": 0,
            "slot": "0",
            "type": "t_struct(Set)3086_storage"
          }
        ],
        "numberOfBytes": "64"
      },
      "t_struct(Set)3086_storage": {
        "encoding": "inplace",
        "label": "struct EnumerableSet.Set",
        "members": [
          {
            "astId": 3081,
            "contract": "contracts/DCAHubCompanion/DCAHubCompanion.sol:DCAHubCompanion",
            "label": "_values",
            "offset": 0,
            "slot": "0",
            "type": "t_array(t_bytes32)dyn_storage"
          },
          {
            "astId": 3085,
            "contract": "contracts/DCAHubCompanion/DCAHubCompanion.sol:DCAHubCompanion",
            "label": "_indexes",
            "offset": 0,
            "slot": "1",
            "type": "t_mapping(t_bytes32,t_uint256)"
          }
        ],
        "numberOfBytes": "64"
      },
      "t_uint256": {
        "encoding": "inplace",
        "label": "uint256",
        "numberOfBytes": "32"
      }
    }
  }
}