{
  "address": "0x749Fc5a81B2Fe1470e54E1bF452b71a4fb0e1BBf",
  "abi": [
    {
      "inputs": [
        {
          "internalType": "address",
          "name": "_swapper",
          "type": "address"
        },
        {
          "internalType": "contract IKeep3rJobs",
          "name": "_keep3r",
          "type": "address"
        },
        {
          "internalType": "address",
          "name": "_governor",
          "type": "address"
        }
      ],
      "stateMutability": "nonpayable",
      "type": "constructor"
    },
    {
      "inputs": [],
      "name": "DeadlineExpired",
      "type": "error"
    },
    {
      "inputs": [],
      "name": "InvalidChainId",
      "type": "error"
    },
    {
      "inputs": [],
      "name": "InvalidNonce",
      "type": "error"
    },
    {
      "inputs": [],
      "name": "NotAKeeper",
      "type": "error"
    },
    {
      "inputs": [],
      "name": "SignerCannotSignWork",
      "type": "error"
    },
    {
      "inputs": [],
      "name": "SwapperCallFailed",
      "type": "error"
    },
    {
      "inputs": [],
      "name": "ZeroAddress",
      "type": "error"
    },
    {
      "anonymous": false,
      "inputs": [
        {
          "indexed": false,
          "internalType": "address",
          "name": "affected",
          "type": "address"
        },
        {
          "indexed": false,
          "internalType": "bool",
          "name": "canSign",
          "type": "bool"
        }
      ],
      "name": "ModifiedAddressPermission",
      "type": "event"
    },
    {
      "anonymous": false,
      "inputs": [
        {
          "indexed": false,
          "internalType": "contract IKeep3rJobs",
          "name": "newKeep3r",
          "type": "address"
        }
      ],
      "name": "NewKeep3rSet",
      "type": "event"
    },
    {
      "anonymous": false,
      "inputs": [
        {
          "indexed": false,
          "internalType": "address",
          "name": "newSwapper",
          "type": "address"
        }
      ],
      "name": "NewSwapperSet",
      "type": "event"
    },
    {
      "anonymous": false,
      "inputs": [],
      "name": "PendingGovernorAccepted",
      "type": "event"
    },
    {
      "anonymous": false,
      "inputs": [
        {
          "indexed": false,
          "internalType": "address",
          "name": "_pendingGovernor",
          "type": "address"
        }
      ],
      "name": "PendingGovernorSet",
      "type": "event"
    },
    {
      "inputs": [],
      "name": "acceptPendingGovernor",
      "outputs": [],
      "stateMutability": "nonpayable",
      "type": "function"
    },
    {
      "inputs": [
        {
          "internalType": "address",
          "name": "",
          "type": "address"
        }
      ],
      "name": "canAddressSignWork",
      "outputs": [
        {
          "internalType": "bool",
          "name": "",
          "type": "bool"
        }
      ],
      "stateMutability": "view",
      "type": "function"
    },
    {
      "inputs": [],
      "name": "governor",
      "outputs": [
        {
          "internalType": "address",
          "name": "",
          "type": "address"
        }
      ],
      "stateMutability": "view",
      "type": "function"
    },
    {
      "inputs": [
        {
          "internalType": "address",
          "name": "_account",
          "type": "address"
        }
      ],
      "name": "isGovernor",
      "outputs": [
        {
          "internalType": "bool",
          "name": "_isGovernor",
          "type": "bool"
        }
      ],
      "stateMutability": "view",
      "type": "function"
    },
    {
      "inputs": [
        {
          "internalType": "address",
          "name": "_account",
          "type": "address"
        }
      ],
      "name": "isPendingGovernor",
      "outputs": [
        {
          "internalType": "bool",
          "name": "_isPendingGovernor",
          "type": "bool"
        }
      ],
      "stateMutability": "view",
      "type": "function"
    },
    {
      "inputs": [],
      "name": "keep3r",
      "outputs": [
        {
          "internalType": "contract IKeep3rJobs",
          "name": "",
          "type": "address"
        }
      ],
      "stateMutability": "view",
      "type": "function"
    },
    {
      "inputs": [],
      "name": "nonce",
      "outputs": [
        {
          "internalType": "uint256",
          "name": "",
          "type": "uint256"
        }
      ],
      "stateMutability": "view",
      "type": "function"
    },
    {
      "inputs": [],
      "name": "pendingGovernor",
      "outputs": [
        {
          "internalType": "address",
          "name": "",
          "type": "address"
        }
      ],
      "stateMutability": "view",
      "type": "function"
    },
    {
      "inputs": [
        {
          "internalType": "address",
          "name": "_address",
          "type": "address"
        },
        {
          "internalType": "bool",
          "name": "_canSign",
          "type": "bool"
        }
      ],
      "name": "setIfAddressCanSign",
      "outputs": [],
      "stateMutability": "nonpayable",
      "type": "function"
    },
    {
      "inputs": [
        {
          "internalType": "contract IKeep3rJobs",
          "name": "_keep3r",
          "type": "address"
        }
      ],
      "name": "setKeep3r",
      "outputs": [],
      "stateMutability": "nonpayable",
      "type": "function"
    },
    {
      "inputs": [
        {
          "internalType": "address",
          "name": "__pendingGovernor",
          "type": "address"
        }
      ],
      "name": "setPendingGovernor",
      "outputs": [],
      "stateMutability": "nonpayable",
      "type": "function"
    },
    {
      "inputs": [
        {
          "internalType": "address",
          "name": "_swapper",
          "type": "address"
        }
      ],
      "name": "setSwapper",
      "outputs": [],
      "stateMutability": "nonpayable",
      "type": "function"
    },
    {
      "inputs": [],
      "name": "swapper",
      "outputs": [
        {
          "internalType": "address",
          "name": "",
          "type": "address"
        }
      ],
      "stateMutability": "view",
      "type": "function"
    },
    {
      "inputs": [
        {
          "internalType": "bytes",
          "name": "_bytes",
          "type": "bytes"
        },
        {
          "internalType": "bytes",
          "name": "_signature",
          "type": "bytes"
        }
      ],
      "name": "work",
      "outputs": [],
      "stateMutability": "nonpayable",
      "type": "function"
    }
  ],
  "transactionHash": "0xc69284ce6b7e7f25f4c73250412d94f9dc530eec589c0874171d1e22ae79eeb2",
  "args": [
    "0x9BA4B15f833c70a74e0fCc18f36d3C6157dcf687",
    "0x4a6cff9e1456eaa3b6f37572395c6fa0c959edab",
    "0x1a00e1E311009E56e3b0B9Ed6F86f5Ce128a1C01"
  ],
  "solcInputHash": "491341aeaf580ba1128c83f1ff3e3974",
  "bytecode": "0x608060405234801561001057600080fd5b50604051620011b7380380620011b783398101604081905261003191610131565b806001600160a01b03811661008c5760405162461bcd60e51b815260206004820152601860248201527f476f7665726e61626c653a207a65726f20616464726573730000000000000000604482015260640160405180910390fd5b600080546001600160a01b0319166001600160a01b0392831617905582166100c75760405163d92e233d60e01b815260040160405180910390fd5b6001600160a01b038316156100f257600480546001600160a01b0319166001600160a01b0385161790555b50600280546001600160a01b0319166001600160a01b03929092169190911790555061017e565b6001600160a01b038116811461012e57600080fd5b50565b60008060006060848603121561014657600080fd5b835161015181610119565b602085015190935061016281610119565b604085015190925061017381610119565b809150509250925092565b611029806200018e6000396000f3fe608060405234801561001057600080fd5b50600436106100ea5760003560e01c80639af8d6081161008c578063df08aed511610066578063df08aed5146101df578063e3056a3414610201578063e43581b814610212578063f235757f1461023457600080fd5b80639af8d608146101a25780639c82f2a4146101b5578063affed0e0146101c857600080fd5b80632b3297f9116100c85780632b3297f9146101365780634cc18e57146101495780635ec970c61461015c578063634c7bb51461018f57600080fd5b80630c340a24146100ef57806313f6986d146101195780631ab0c67f14610123575b600080fd5b6000546001600160a01b03165b6040516001600160a01b0390911681526020015b60405180910390f35b610121610247565b005b610121610131366004610cbf565b6102ba565b6004546100fc906001600160a01b031681565b610121610157366004610cf8565b61036e565b61017f61016a366004610cf8565b60056020526000908152604090205460ff1681565b6040519015158152602001610110565b6002546100fc906001600160a01b031681565b6101216101b0366004610d5e565b610414565b6101216101c3366004610cf8565b61068a565b6101d160035481565b604051908152602001610110565b61017f6101ed366004610cf8565b6001546001600160a01b0391821691161490565b6001546001600160a01b03166100fc565b61017f610220366004610cf8565b6000546001600160a01b0391821691161490565b610121610242366004610cf8565b610729565b6001546001600160a01b031633146102b05760405162461bcd60e51b815260206004820152602160248201527f476f7665726e61626c653a206f6e6c792070656e64696e6720676f7665726e6f6044820152603960f91b60648201526084015b60405180910390fd5b6102b861075f565b565b6000546001600160a01b031633146102e45760405162461bcd60e51b81526004016102a790610dca565b6001600160a01b03821661030b5760405163d92e233d60e01b815260040160405180910390fd5b6001600160a01b038216600081815260056020908152604091829020805460ff19168515159081179091558251938452908301527f1cbb1fe9a5d3e69bb97b0de0708e54f2f9793229b8bfb0334eb3e18b0a294fee910160405180910390a15050565b6000546001600160a01b031633146103985760405162461bcd60e51b81526004016102a790610dca565b6001600160a01b0381166103bf5760405163d92e233d60e01b815260040160405180910390fd5b600280546001600160a01b0319166001600160a01b0383169081179091556040519081527f9c1877a22c07fa1acfc25264e6c31fc128c8ad1e97e5313c9bbb58cb9d3f7806906020015b60405180910390a150565b6002546040516335d2155560e11b81523360048201526001600160a01b03909116908190636ba42aaa906024016020604051808303816000875af1158015610460573d6000803e3d6000fd5b505050506040513d601f19601f820116820180604052508101906104849190610e01565b6104a1576040516318f8148560e11b815260040160405180910390fd5b600061055184848080601f0160208091040260200160405190810160405280939291908181526020018383808284376000920191909152505060405161054b92506104f091508a908a90610e1e565b60405180910390206040517f19457468657265756d205369676e6564204d6573736167653a0a3332000000006020820152603c8101829052600090605c01604051602081830303815290604052805190602001209050919050565b90610807565b6001600160a01b03811660009081526005602052604090205490915060ff1661058d57604051630324a78560e21b815260040160405180910390fd5b600061059b86880188610e9e565b6003805491925060006105ad83610f79565b919050558160200151146105d457604051633ab3447f60e11b815260040160405180910390fd5b42816060015110156105f957604051631ab7da6b60e01b815260040160405180910390fd5b4681604001511461061d57604051633d23e4d160e11b815260040160405180910390fd5b80516106289061082b565b6040516317fbade560e21b81523360048201526001600160a01b03841690635feeb79490602401600060405180830381600087803b15801561066957600080fd5b505af115801561067d573d6000803e3d6000fd5b5050505050505050505050565b6000546001600160a01b031633146106b45760405162461bcd60e51b81526004016102a790610dca565b6001600160a01b0381166106db5760405163d92e233d60e01b815260040160405180910390fd5b600480546001600160a01b0319166001600160a01b0383169081179091556040519081527f6b84ebb813c00306cef63ac87a457b9bde734f93d5a0e0c6fe72f87bae07e59a90602001610409565b6000546001600160a01b031633146107535760405162461bcd60e51b81526004016102a790610dca565b61075c816108b1565b50565b6001546001600160a01b03166107b75760405162461bcd60e51b815260206004820152601f60248201527f476f7665726e61626c653a206e6f2070656e64696e6720676f7665726e6f720060448201526064016102a7565b60018054600080546001600160a01b03199081166001600160a01b0384161782559091169091556040517fdc57ca23c46d823853915ed5a090ca0ee9db5eb6a46f5c58e1c9158de861fd769190a1565b60008060006108168585610955565b91509150610823816109c5565b509392505050565b6004546040516000916001600160a01b031690610849908490610fa2565b6000604051808303816000865af19150503d8060008114610886576040519150601f19603f3d011682016040523d82523d6000602084013e61088b565b606091505b50509050806108ad57604051636693e8df60e01b815260040160405180910390fd5b5050565b6001600160a01b0381166109075760405162461bcd60e51b815260206004820152601860248201527f476f7665726e61626c653a207a65726f2061646472657373000000000000000060448201526064016102a7565b600180546001600160a01b0319166001600160a01b0383169081179091556040519081527f56bddfa0cee9697cebddf9acd7f23dc6583663b05e007b877056d05017994def90602001610409565b60008082516041141561098c5760208301516040840151606085015160001a61098087828585610b80565b945094505050506109be565b8251604014156109b657602083015160408401516109ab868383610c6d565b9350935050506109be565b506000905060025b9250929050565b60008160048111156109d9576109d9610fdd565b14156109e25750565b60018160048111156109f6576109f6610fdd565b1415610a445760405162461bcd60e51b815260206004820152601860248201527f45434453413a20696e76616c6964207369676e6174757265000000000000000060448201526064016102a7565b6002816004811115610a5857610a58610fdd565b1415610aa65760405162461bcd60e51b815260206004820152601f60248201527f45434453413a20696e76616c6964207369676e6174757265206c656e6774680060448201526064016102a7565b6003816004811115610aba57610aba610fdd565b1415610b135760405162461bcd60e51b815260206004820152602260248201527f45434453413a20696e76616c6964207369676e6174757265202773272076616c604482015261756560f01b60648201526084016102a7565b6004816004811115610b2757610b27610fdd565b141561075c5760405162461bcd60e51b815260206004820152602260248201527f45434453413a20696e76616c6964207369676e6174757265202776272076616c604482015261756560f01b60648201526084016102a7565b6000807f7fffffffffffffffffffffffffffffff5d576e7357a4501ddfe92f46681b20a0831115610bb75750600090506003610c64565b8460ff16601b14158015610bcf57508460ff16601c14155b15610be05750600090506004610c64565b6040805160008082526020820180845289905260ff881692820192909252606081018690526080810185905260019060a0016020604051602081039080840390855afa158015610c34573d6000803e3d6000fd5b5050604051601f1901519150506001600160a01b038116610c5d57600060019250925050610c64565b9150600090505b94509492505050565b6000806001600160ff1b03831660ff84901c601b01610c8e87828885610b80565b935093505050935093915050565b6001600160a01b038116811461075c57600080fd5b801515811461075c57600080fd5b60008060408385031215610cd257600080fd5b8235610cdd81610c9c565b91506020830135610ced81610cb1565b809150509250929050565b600060208284031215610d0a57600080fd5b8135610d1581610c9c565b9392505050565b60008083601f840112610d2e57600080fd5b50813567ffffffffffffffff811115610d4657600080fd5b6020830191508360208285010111156109be57600080fd5b60008060008060408587031215610d7457600080fd5b843567ffffffffffffffff80821115610d8c57600080fd5b610d9888838901610d1c565b90965094506020870135915080821115610db157600080fd5b50610dbe87828801610d1c565b95989497509550505050565b60208082526019908201527f476f7665726e61626c653a206f6e6c7920676f7665726e6f7200000000000000604082015260600190565b600060208284031215610e1357600080fd5b8151610d1581610cb1565b8183823760009101908152919050565b634e487b7160e01b600052604160045260246000fd5b6040516080810167ffffffffffffffff81118282101715610e6757610e67610e2e565b60405290565b604051601f8201601f1916810167ffffffffffffffff81118282101715610e9657610e96610e2e565b604052919050565b60006020808385031215610eb157600080fd5b823567ffffffffffffffff80821115610ec957600080fd5b9084019060808287031215610edd57600080fd5b610ee5610e44565b823582811115610ef457600080fd5b8301601f81018813610f0557600080fd5b803583811115610f1757610f17610e2e565b610f29601f8201601f19168701610e6d565b93508084528886828401011115610f3f57600080fd5b8086830187860137600090840186015250908152818301359281019290925260408082013590830152606090810135908201529392505050565b6000600019821415610f9b57634e487b7160e01b600052601160045260246000fd5b5060010190565b6000825160005b81811015610fc35760208186018101518583015201610fa9565b81811115610fd2576000828501525b509190910192915050565b634e487b7160e01b600052602160045260246000fdfea2646970667358221220667e8155624514c7484e7f52f6f986859ca0b2b74e1e7d8da044269a6a8e5ce264736f6c634300080a0033",
  "devdoc": {
    "kind": "dev",
    "methods": {
      "setIfAddressCanSign(address,bool)": {
        "details": "Will revert with ZeroAddress if the zero address is passed",
        "params": {
          "_address": "The address to modify permissions",
          "_canSign": "Whether the given address will be able to sign work or not"
        }
      },
      "setSwapper(address)": {
        "details": "Will revert with ZeroAddress if the zero address is passed",
        "params": {
          "_swapper": "The new swapper address"
        }
      },
      "work(bytes,bytes)": {
        "details": "Will revert with: NotAKeeper if the caller is not a keep3r SignerCannotSignWork if the address who signed the message cannot sign work InvalidNonce if the nonce is invalid DeadlineExpired if the deadline has expired InvalidChainId if the chain id is invalid SwapperCallFailed if the call to the swapper failed",
        "params": {
          "_bytes": "An encoded `WorkCall`",
          "_signature": "A signature of `_bytes`"
        }
      }
    },
    "stateVariables": {
      "canAddressSignWork": {
        "return": "If it can sign work or not",
        "returns": {
          "_0": "If it can sign work or not"
        }
      },
      "keep3r": {
        "return": "The Keep3r address address",
        "returns": {
          "_0": "The Keep3r address address"
        }
      },
      "nonce": {
        "return": "The nonce to use",
        "returns": {
          "_0": "The nonce to use"
        }
      },
      "swapper": {
        "return": "The swapper's address",
        "returns": {
          "_0": "The swapper's address"
        }
      }
    },
    "version": 1
  },
  "userdoc": {
    "errors": {
      "DeadlineExpired()": [
        {
          "notice": "Thrown when a user tries to execute work with an expired deadline"
        }
      ],
      "InvalidChainId()": [
        {
          "notice": "Thrown when a user tries to execute work with an invalid chain id"
        }
      ],
      "InvalidNonce()": [
        {
          "notice": "Thrown when a user tries to execute work with an invalid nonce"
        }
      ],
      "NotAKeeper()": [
        {
          "notice": "Thrown when a non keep3r address tries to execute work"
        }
      ],
      "SignerCannotSignWork()": [
        {
          "notice": "Thrown when a user tries to execute work but the signature is invalid"
        }
      ],
      "SwapperCallFailed()": [
        {
          "notice": "Thrown when a user tries to execute work but the call to the swapper fails"
        }
      ],
      "ZeroAddress()": [
        {
          "notice": "Thrown when one of the parameters is a zero address"
        }
      ]
    },
    "events": {
      "ModifiedAddressPermission(address,bool)": {
        "notice": "Emitted when signing permission is modified for an address"
      },
      "NewKeep3rSet(address)": {
        "notice": "Emitted when a new keep3r is set"
      },
      "NewSwapperSet(address)": {
        "notice": "Emitted when a new swapper is set"
      }
    },
    "kind": "user",
    "methods": {
      "canAddressSignWork(address)": {
        "notice": "Returns whether the given address can sign work or not"
      },
      "keep3r()": {
        "notice": "Returns the Keep3r address"
      },
      "nonce()": {
        "notice": "Returns the nonce to use when calling `work`"
      },
      "setIfAddressCanSign(address,bool)": {
        "notice": "Sets whether the given address can sign work or not"
      },
      "setSwapper(address)": {
        "notice": "Sets a new swapper address"
      },
      "swapper()": {
        "notice": "Returns the swapper address"
      },
      "work(bytes,bytes)": {
        "notice": "Takes an encoded call to execute against the swapper contract, and executes it"
      }
    },
    "version": 1
  },
  "storageLayout": {
    "storage": [
      {
        "astId": 8865,
        "contract": "contracts/DCAKeep3rJob/DCAKeep3rJob.sol:DCAKeep3rJob",
        "label": "_governor",
        "offset": 0,
        "slot": "0",
        "type": "t_address"
      },
      {
        "astId": 8867,
        "contract": "contracts/DCAKeep3rJob/DCAKeep3rJob.sol:DCAKeep3rJob",
        "label": "_pendingGovernor",
        "offset": 0,
        "slot": "1",
        "type": "t_address"
      },
      {
        "astId": 5688,
        "contract": "contracts/DCAKeep3rJob/DCAKeep3rJob.sol:DCAKeep3rJob",
        "label": "keep3r",
        "offset": 0,
        "slot": "2",
        "type": "t_contract(IKeep3rJobs)7201"
      },
      {
        "astId": 5690,
        "contract": "contracts/DCAKeep3rJob/DCAKeep3rJob.sol:DCAKeep3rJob",
        "label": "nonce",
        "offset": 0,
        "slot": "3",
        "type": "t_uint256"
      },
      {
        "astId": 5692,
        "contract": "contracts/DCAKeep3rJob/DCAKeep3rJob.sol:DCAKeep3rJob",
        "label": "swapper",
        "offset": 0,
        "slot": "4",
        "type": "t_address"
      },
      {
        "astId": 5696,
        "contract": "contracts/DCAKeep3rJob/DCAKeep3rJob.sol:DCAKeep3rJob",
        "label": "canAddressSignWork",
        "offset": 0,
        "slot": "5",
        "type": "t_mapping(t_address,t_bool)"
      }
    ],
    "types": {
      "t_address": {
        "encoding": "inplace",
        "label": "address",
        "numberOfBytes": "20"
      },
      "t_bool": {
        "encoding": "inplace",
        "label": "bool",
        "numberOfBytes": "1"
      },
      "t_contract(IKeep3rJobs)7201": {
        "encoding": "inplace",
        "label": "contract IKeep3rJobs",
        "numberOfBytes": "20"
      },
      "t_mapping(t_address,t_bool)": {
        "encoding": "mapping",
        "key": "t_address",
        "label": "mapping(address => bool)",
        "numberOfBytes": "32",
        "value": "t_bool"
      },
      "t_uint256": {
        "encoding": "inplace",
        "label": "uint256",
        "numberOfBytes": "32"
      }
    }
  }
}