{
  "address": "0x2DFb2C5C013826a0728440D8036305b254Ad9cCE",
  "abi": [
    {
      "inputs": [
        {
          "internalType": "address",
          "name": "_swapper",
          "type": "address"
        },
        {
          "internalType": "contract IKeep3rJobs",
          "name": "_keep3r",
          "type": "address"
        },
        {
          "internalType": "address",
          "name": "_governor",
          "type": "address"
        }
      ],
      "stateMutability": "nonpayable",
      "type": "constructor"
    },
    {
      "inputs": [],
      "name": "DeadlineExpired",
      "type": "error"
    },
    {
      "inputs": [],
      "name": "InvalidChainId",
      "type": "error"
    },
    {
      "inputs": [],
      "name": "InvalidNonce",
      "type": "error"
    },
    {
      "inputs": [],
      "name": "NotAKeeper",
      "type": "error"
    },
    {
      "inputs": [],
      "name": "SignerCannotSignWork",
      "type": "error"
    },
    {
      "inputs": [],
      "name": "SwapperCallFailed",
      "type": "error"
    },
    {
      "inputs": [],
      "name": "ZeroAddress",
      "type": "error"
    },
    {
      "anonymous": false,
      "inputs": [
        {
          "indexed": false,
          "internalType": "address",
          "name": "affected",
          "type": "address"
        },
        {
          "indexed": false,
          "internalType": "bool",
          "name": "canSign",
          "type": "bool"
        }
      ],
      "name": "ModifiedAddressPermission",
      "type": "event"
    },
    {
      "anonymous": false,
      "inputs": [
        {
          "indexed": false,
          "internalType": "address",
          "name": "newSwapper",
          "type": "address"
        }
      ],
      "name": "NewSwapperSet",
      "type": "event"
    },
    {
      "anonymous": false,
      "inputs": [],
      "name": "PendingGovernorAccepted",
      "type": "event"
    },
    {
      "anonymous": false,
      "inputs": [
        {
          "indexed": false,
          "internalType": "address",
          "name": "_pendingGovernor",
          "type": "address"
        }
      ],
      "name": "PendingGovernorSet",
      "type": "event"
    },
    {
      "inputs": [],
      "name": "acceptPendingGovernor",
      "outputs": [],
      "stateMutability": "nonpayable",
      "type": "function"
    },
    {
      "inputs": [
        {
          "internalType": "address",
          "name": "",
          "type": "address"
        }
      ],
      "name": "canAddressSignWork",
      "outputs": [
        {
          "internalType": "bool",
          "name": "",
          "type": "bool"
        }
      ],
      "stateMutability": "view",
      "type": "function"
    },
    {
      "inputs": [],
      "name": "governor",
      "outputs": [
        {
          "internalType": "address",
          "name": "",
          "type": "address"
        }
      ],
      "stateMutability": "view",
      "type": "function"
    },
    {
      "inputs": [
        {
          "internalType": "address",
          "name": "_account",
          "type": "address"
        }
      ],
      "name": "isGovernor",
      "outputs": [
        {
          "internalType": "bool",
          "name": "_isGovernor",
          "type": "bool"
        }
      ],
      "stateMutability": "view",
      "type": "function"
    },
    {
      "inputs": [
        {
          "internalType": "address",
          "name": "_account",
          "type": "address"
        }
      ],
      "name": "isPendingGovernor",
      "outputs": [
        {
          "internalType": "bool",
          "name": "_isPendingGovernor",
          "type": "bool"
        }
      ],
      "stateMutability": "view",
      "type": "function"
    },
    {
      "inputs": [],
      "name": "keep3r",
      "outputs": [
        {
          "internalType": "contract IKeep3rJobs",
          "name": "",
          "type": "address"
        }
      ],
      "stateMutability": "view",
      "type": "function"
    },
    {
      "inputs": [],
      "name": "nonce",
      "outputs": [
        {
          "internalType": "uint256",
          "name": "",
          "type": "uint256"
        }
      ],
      "stateMutability": "view",
      "type": "function"
    },
    {
      "inputs": [],
      "name": "pendingGovernor",
      "outputs": [
        {
          "internalType": "address",
          "name": "",
          "type": "address"
        }
      ],
      "stateMutability": "view",
      "type": "function"
    },
    {
      "inputs": [
        {
          "internalType": "address",
          "name": "_address",
          "type": "address"
        },
        {
          "internalType": "bool",
          "name": "_canSign",
          "type": "bool"
        }
      ],
      "name": "setIfAddressCanSign",
      "outputs": [],
      "stateMutability": "nonpayable",
      "type": "function"
    },
    {
      "inputs": [
        {
          "internalType": "address",
          "name": "__pendingGovernor",
          "type": "address"
        }
      ],
      "name": "setPendingGovernor",
      "outputs": [],
      "stateMutability": "nonpayable",
      "type": "function"
    },
    {
      "inputs": [
        {
          "internalType": "address",
          "name": "_swapper",
          "type": "address"
        }
      ],
      "name": "setSwapper",
      "outputs": [],
      "stateMutability": "nonpayable",
      "type": "function"
    },
    {
      "inputs": [],
      "name": "swapper",
      "outputs": [
        {
          "internalType": "address",
          "name": "",
          "type": "address"
        }
      ],
      "stateMutability": "view",
      "type": "function"
    },
    {
      "inputs": [
        {
          "internalType": "bytes",
          "name": "_bytes",
          "type": "bytes"
        },
        {
          "internalType": "bytes",
          "name": "_signature",
          "type": "bytes"
        }
      ],
      "name": "work",
      "outputs": [],
      "stateMutability": "nonpayable",
      "type": "function"
    }
  ],
  "transactionHash": "0x1fc295457d07620ce4097326a3f25c59a50ce7ac11ab4085ecc5598a68ea2187",
  "args": [
    "0x0000000000000000000000000000000000000000",
    "0xdc02981c9C062d48a9bD54adBf51b816623dcc6E",
    "0x1a00e1E311009E56e3b0B9Ed6F86f5Ce128a1C01"
  ],
  "solcInputHash": "17b27b3c6bd217f5f648d950060387e8",
  "bytecode": "0x60a060405234801561001057600080fd5b5060405162001140380380620011408339810160408190526100319161011d565b806001600160a01b03811661008c5760405162461bcd60e51b815260206004820152601860248201527f476f7665726e61626c653a207a65726f20616464726573730000000000000000604482015260640160405180910390fd5b600080546001600160a01b0319166001600160a01b0392831617905582166100c75760405163d92e233d60e01b815260040160405180910390fd5b6001600160a01b038316156100f257600380546001600160a01b0319166001600160a01b0385161790555b506001600160a01b03166080525061016a565b6001600160a01b038116811461011a57600080fd5b50565b60008060006060848603121561013257600080fd5b835161013d81610105565b602085015190935061014e81610105565b604085015190925061015f81610105565b809150509250925092565b608051610fac62000194600039600081816101660152818161036901526105970152610fac6000f3fe608060405234801561001057600080fd5b50600436106100cf5760003560e01c80639af8d6081161008c578063df08aed511610066578063df08aed5146101c5578063e3056a34146101e7578063e43581b8146101f8578063f235757f1461021a57600080fd5b80639af8d608146101885780639c82f2a41461019b578063affed0e0146101ae57600080fd5b80630c340a24146100d457806313f6986d146100fe5780631ab0c67f146101085780632b3297f91461011b5780635ec970c61461012e578063634c7bb514610161575b600080fd5b6000546001600160a01b03165b6040516001600160a01b0390911681526020015b60405180910390f35b61010661022d565b005b610106610116366004610c46565b6102a0565b6003546100e1906001600160a01b031681565b61015161013c366004610c7d565b60046020526000908152604090205460ff1681565b60405190151581526020016100f5565b6100e17f000000000000000000000000000000000000000000000000000000000000000081565b610106610196366004610ce1565b610354565b6101066101a9366004610c7d565b610603565b6101b760025481565b6040519081526020016100f5565b6101516101d3366004610c7d565b6001546001600160a01b0391821691161490565b6001546001600160a01b03166100e1565b610151610206366004610c7d565b6000546001600160a01b0391821691161490565b610106610228366004610c7d565b6106a9565b6001546001600160a01b031633146102965760405162461bcd60e51b815260206004820152602160248201527f476f7665726e61626c653a206f6e6c792070656e64696e6720676f7665726e6f6044820152603960f91b60648201526084015b60405180910390fd5b61029e6106df565b565b6000546001600160a01b031633146102ca5760405162461bcd60e51b815260040161028d90610d4d565b6001600160a01b0382166102f15760405163d92e233d60e01b815260040160405180910390fd5b6001600160a01b038216600081815260046020908152604091829020805460ff19168515159081179091558251938452908301527f1cbb1fe9a5d3e69bb97b0de0708e54f2f9793229b8bfb0334eb3e18b0a294fee910160405180910390a15050565b6040516335d2155560e11b81523360048201527f00000000000000000000000000000000000000000000000000000000000000006001600160a01b031690636ba42aaa906024016020604051808303816000875af11580156103ba573d6000803e3d6000fd5b505050506040513d601f19601f820116820180604052508101906103de9190610d84565b6103fb576040516318f8148560e11b815260040160405180910390fd5b60006104ab83838080601f016020809104026020016040519081016040528093929190818152602001838380828437600092019190915250506040516104a5925061044a915089908990610da1565b60405180910390206040517f19457468657265756d205369676e6564204d6573736167653a0a3332000000006020820152603c8101829052600090605c01604051602081830303815290604052805190602001209050919050565b90610787565b6001600160a01b03811660009081526004602052604090205490915060ff166104e757604051630324a78560e21b815260040160405180910390fd5b60006104f585870187610e21565b60028054919250600061050783610efc565b9190505581602001511461052e57604051633ab3447f60e11b815260040160405180910390fd5b428160600151101561055357604051631ab7da6b60e01b815260040160405180910390fd5b4681604001511461057757604051633d23e4d160e11b815260040160405180910390fd5b8051610582906107ab565b6040516317fbade560e21b81523360048201527f00000000000000000000000000000000000000000000000000000000000000006001600160a01b031690635feeb79490602401600060405180830381600087803b1580156105e357600080fd5b505af11580156105f7573d6000803e3d6000fd5b50505050505050505050565b6000546001600160a01b0316331461062d5760405162461bcd60e51b815260040161028d90610d4d565b6001600160a01b0381166106545760405163d92e233d60e01b815260040160405180910390fd5b600380546001600160a01b0319166001600160a01b0383169081179091556040519081527f6b84ebb813c00306cef63ac87a457b9bde734f93d5a0e0c6fe72f87bae07e59a906020015b60405180910390a150565b6000546001600160a01b031633146106d35760405162461bcd60e51b815260040161028d90610d4d565b6106dc81610831565b50565b6001546001600160a01b03166107375760405162461bcd60e51b815260206004820152601f60248201527f476f7665726e61626c653a206e6f2070656e64696e6720676f7665726e6f7200604482015260640161028d565b60018054600080546001600160a01b03199081166001600160a01b0384161782559091169091556040517fdc57ca23c46d823853915ed5a090ca0ee9db5eb6a46f5c58e1c9158de861fd769190a1565b600080600061079685856108d5565b915091506107a381610945565b509392505050565b6003546040516000916001600160a01b0316906107c9908490610f25565b6000604051808303816000865af19150503d8060008114610806576040519150601f19603f3d011682016040523d82523d6000602084013e61080b565b606091505b505090508061082d57604051636693e8df60e01b815260040160405180910390fd5b5050565b6001600160a01b0381166108875760405162461bcd60e51b815260206004820152601860248201527f476f7665726e61626c653a207a65726f20616464726573730000000000000000604482015260640161028d565b600180546001600160a01b0319166001600160a01b0383169081179091556040519081527f56bddfa0cee9697cebddf9acd7f23dc6583663b05e007b877056d05017994def9060200161069e565b60008082516041141561090c5760208301516040840151606085015160001a61090087828585610b00565b9450945050505061093e565b825160401415610936576020830151604084015161092b868383610bed565b93509350505061093e565b506000905060025b9250929050565b600081600481111561095957610959610f60565b14156109625750565b600181600481111561097657610976610f60565b14156109c45760405162461bcd60e51b815260206004820152601860248201527f45434453413a20696e76616c6964207369676e61747572650000000000000000604482015260640161028d565b60028160048111156109d8576109d8610f60565b1415610a265760405162461bcd60e51b815260206004820152601f60248201527f45434453413a20696e76616c6964207369676e6174757265206c656e67746800604482015260640161028d565b6003816004811115610a3a57610a3a610f60565b1415610a935760405162461bcd60e51b815260206004820152602260248201527f45434453413a20696e76616c6964207369676e6174757265202773272076616c604482015261756560f01b606482015260840161028d565b6004816004811115610aa757610aa7610f60565b14156106dc5760405162461bcd60e51b815260206004820152602260248201527f45434453413a20696e76616c6964207369676e6174757265202776272076616c604482015261756560f01b606482015260840161028d565b6000807f7fffffffffffffffffffffffffffffff5d576e7357a4501ddfe92f46681b20a0831115610b375750600090506003610be4565b8460ff16601b14158015610b4f57508460ff16601c14155b15610b605750600090506004610be4565b6040805160008082526020820180845289905260ff881692820192909252606081018690526080810185905260019060a0016020604051602081039080840390855afa158015610bb4573d6000803e3d6000fd5b5050604051601f1901519150506001600160a01b038116610bdd57600060019250925050610be4565b9150600090505b94509492505050565b6000806001600160ff1b03831660ff84901c601b01610c0e87828885610b00565b935093505050935093915050565b80356001600160a01b0381168114610c3357600080fd5b919050565b80151581146106dc57600080fd5b60008060408385031215610c5957600080fd5b610c6283610c1c565b91506020830135610c7281610c38565b809150509250929050565b600060208284031215610c8f57600080fd5b610c9882610c1c565b9392505050565b60008083601f840112610cb157600080fd5b50813567ffffffffffffffff811115610cc957600080fd5b60208301915083602082850101111561093e57600080fd5b60008060008060408587031215610cf757600080fd5b843567ffffffffffffffff80821115610d0f57600080fd5b610d1b88838901610c9f565b90965094506020870135915080821115610d3457600080fd5b50610d4187828801610c9f565b95989497509550505050565b60208082526019908201527f476f7665726e61626c653a206f6e6c7920676f7665726e6f7200000000000000604082015260600190565b600060208284031215610d9657600080fd5b8151610c9881610c38565b8183823760009101908152919050565b634e487b7160e01b600052604160045260246000fd5b6040516080810167ffffffffffffffff81118282101715610dea57610dea610db1565b60405290565b604051601f8201601f1916810167ffffffffffffffff81118282101715610e1957610e19610db1565b604052919050565b60006020808385031215610e3457600080fd5b823567ffffffffffffffff80821115610e4c57600080fd5b9084019060808287031215610e6057600080fd5b610e68610dc7565b823582811115610e7757600080fd5b8301601f81018813610e8857600080fd5b803583811115610e9a57610e9a610db1565b610eac601f8201601f19168701610df0565b93508084528886828401011115610ec257600080fd5b8086830187860137600090840186015250908152818301359281019290925260408082013590830152606090810135908201529392505050565b6000600019821415610f1e57634e487b7160e01b600052601160045260246000fd5b5060010190565b6000825160005b81811015610f465760208186018101518583015201610f2c565b81811115610f55576000828501525b509190910192915050565b634e487b7160e01b600052602160045260246000fdfea26469706673582212206d4e739e4b438606433cb62445602e4f429283bbb45cba766b6596686b1c945d64736f6c634300080a0033",
  "devdoc": {
    "kind": "dev",
    "methods": {
      "setIfAddressCanSign(address,bool)": {
        "details": "Will revert with ZeroAddress if the zero address is passed",
        "params": {
          "_address": "The address to modify permissions",
          "_canSign": "Whether the given address will be able to sign work or not"
        }
      },
      "setSwapper(address)": {
        "details": "Will revert with ZeroAddress if the zero address is passed",
        "params": {
          "_swapper": "The new swapper address"
        }
      },
      "work(bytes,bytes)": {
        "details": "Will revert with: NotAKeeper if the caller is not a keep3r SignerCannotSignWork if the address who signed the message cannot sign work InvalidNonce if the nonce is invalid DeadlineExpired if the deadline has expired InvalidChainId if the chain id is invalid SwapperCallFailed if the call to the swapper failed",
        "params": {
          "_bytes": "An encoded `WorkCall`",
          "_signature": "A signature of `_bytes`"
        }
      }
    },
    "stateVariables": {
      "canAddressSignWork": {
        "return": "If it can sign work or not",
        "returns": {
          "_0": "If it can sign work or not"
        }
      },
      "keep3r": {
        "return": "The Keep3r address address",
        "returns": {
          "_0": "The Keep3r address address"
        }
      },
      "nonce": {
        "return": "The nonce to use",
        "returns": {
          "_0": "The nonce to use"
        }
      },
      "swapper": {
        "return": "The swapper's address",
        "returns": {
          "_0": "The swapper's address"
        }
      }
    },
    "version": 1
  },
  "userdoc": {
    "errors": {
      "DeadlineExpired()": [
        {
          "notice": "Thrown when a user tries to execute work with an expired deadline"
        }
      ],
      "InvalidChainId()": [
        {
          "notice": "Thrown when a user tries to execute work with an invalid chain id"
        }
      ],
      "InvalidNonce()": [
        {
          "notice": "Thrown when a user tries to execute work with an invalid nonce"
        }
      ],
      "NotAKeeper()": [
        {
          "notice": "Thrown when a non keep3r address tries to execute work"
        }
      ],
      "SignerCannotSignWork()": [
        {
          "notice": "Thrown when a user tries to execute work but the signature is invalid"
        }
      ],
      "SwapperCallFailed()": [
        {
          "notice": "Thrown when a user tries to execute work but the call to the swapper fails"
        }
      ],
      "ZeroAddress()": [
        {
          "notice": "Thrown when one of the parameters is a zero address"
        }
      ]
    },
    "events": {
      "ModifiedAddressPermission(address,bool)": {
        "notice": "Emitted when signing permission is modified for an address"
      },
      "NewSwapperSet(address)": {
        "notice": "Emitted when a new swapper is set"
      }
    },
    "kind": "user",
    "methods": {
      "canAddressSignWork(address)": {
        "notice": "Returns whether the given address can sign work or not"
      },
      "keep3r()": {
        "notice": "Returns the Keep3r address"
      },
      "nonce()": {
        "notice": "Returns the nonce to use when calling `work`"
      },
      "setIfAddressCanSign(address,bool)": {
        "notice": "Sets whether the given address can sign work or not"
      },
      "setSwapper(address)": {
        "notice": "Sets a new swapper address"
      },
      "swapper()": {
        "notice": "Returns the swapper address"
      },
      "work(bytes,bytes)": {
        "notice": "Takes an encoded call to execute against the swapper contract, and executes it"
      }
    },
    "version": 1
  },
  "storageLayout": {
    "storage": [
      {
        "astId": 8629,
        "contract": "contracts/DCAKeep3rJob/DCAKeep3rJob.sol:DCAKeep3rJob",
        "label": "_governor",
        "offset": 0,
        "slot": "0",
        "type": "t_address"
      },
      {
        "astId": 8631,
        "contract": "contracts/DCAKeep3rJob/DCAKeep3rJob.sol:DCAKeep3rJob",
        "label": "_pendingGovernor",
        "offset": 0,
        "slot": "1",
        "type": "t_address"
      },
      {
        "astId": 5499,
        "contract": "contracts/DCAKeep3rJob/DCAKeep3rJob.sol:DCAKeep3rJob",
        "label": "nonce",
        "offset": 0,
        "slot": "2",
        "type": "t_uint256"
      },
      {
        "astId": 5501,
        "contract": "contracts/DCAKeep3rJob/DCAKeep3rJob.sol:DCAKeep3rJob",
        "label": "swapper",
        "offset": 0,
        "slot": "3",
        "type": "t_address"
      },
      {
        "astId": 5505,
        "contract": "contracts/DCAKeep3rJob/DCAKeep3rJob.sol:DCAKeep3rJob",
        "label": "canAddressSignWork",
        "offset": 0,
        "slot": "4",
        "type": "t_mapping(t_address,t_bool)"
      }
    ],
    "types": {
      "t_address": {
        "encoding": "inplace",
        "label": "address",
        "numberOfBytes": "20"
      },
      "t_bool": {
        "encoding": "inplace",
        "label": "bool",
        "numberOfBytes": "1"
      },
      "t_mapping(t_address,t_bool)": {
        "encoding": "mapping",
        "key": "t_address",
        "label": "mapping(address => bool)",
        "numberOfBytes": "32",
        "value": "t_bool"
      },
      "t_uint256": {
        "encoding": "inplace",
        "label": "uint256",
        "numberOfBytes": "32"
      }
    }
  }
}