{
  "address": "0x2A96312bbc4a2aD6Db07d523d74d0634c66F4258",
  "abi": [
    {
      "inputs": [
        {
          "internalType": "contract IDCAHub",
          "name": "_hub",
          "type": "address"
        },
        {
          "internalType": "contract IWrappedProtocolToken",
          "name": "_wToken",
          "type": "address"
        },
        {
          "internalType": "address",
          "name": "_governor",
          "type": "address"
        }
      ],
      "stateMutability": "nonpayable",
      "type": "constructor"
    },
    {
      "inputs": [],
      "name": "CallerMustBeOwnerOrHaveAccess",
      "type": "error"
    },
    {
      "anonymous": false,
      "inputs": [
        {
          "components": [
            {
              "internalType": "address",
              "name": "user",
              "type": "address"
            },
            {
              "internalType": "bool",
              "name": "access",
              "type": "bool"
            }
          ],
          "indexed": false,
          "internalType": "struct IDCAFeeManager.UserAccess[]",
          "name": "access",
          "type": "tuple[]"
        }
      ],
      "name": "NewAccess",
      "type": "event"
    },
    {
      "anonymous": false,
      "inputs": [],
      "name": "PendingGovernorAccepted",
      "type": "event"
    },
    {
      "anonymous": false,
      "inputs": [
        {
          "indexed": false,
          "internalType": "address",
          "name": "_pendingGovernor",
          "type": "address"
        }
      ],
      "name": "PendingGovernorSet",
      "type": "event"
    },
    {
      "inputs": [],
      "name": "MAX_TOKEN_TOTAL_SHARE",
      "outputs": [
        {
          "internalType": "uint16",
          "name": "",
          "type": "uint16"
        }
      ],
      "stateMutability": "view",
      "type": "function"
    },
    {
      "inputs": [],
      "name": "SWAP_INTERVAL",
      "outputs": [
        {
          "internalType": "uint32",
          "name": "",
          "type": "uint32"
        }
      ],
      "stateMutability": "view",
      "type": "function"
    },
    {
      "inputs": [],
      "name": "acceptPendingGovernor",
      "outputs": [],
      "stateMutability": "nonpayable",
      "type": "function"
    },
    {
      "inputs": [
        {
          "internalType": "address[]",
          "name": "_tokens",
          "type": "address[]"
        }
      ],
      "name": "availableBalances",
      "outputs": [
        {
          "components": [
            {
              "internalType": "address",
              "name": "token",
              "type": "address"
            },
            {
              "internalType": "uint256",
              "name": "platformBalance",
              "type": "uint256"
            },
            {
              "internalType": "uint256",
              "name": "feeManagerBalance",
              "type": "uint256"
            },
            {
              "components": [
                {
                  "internalType": "uint256",
                  "name": "positionId",
                  "type": "uint256"
                },
                {
                  "internalType": "contract IERC20Metadata",
                  "name": "from",
                  "type": "address"
                },
                {
                  "internalType": "contract IERC20Metadata",
                  "name": "to",
                  "type": "address"
                },
                {
                  "internalType": "uint256",
                  "name": "swapped",
                  "type": "uint256"
                },
                {
                  "internalType": "uint256",
                  "name": "remaining",
                  "type": "uint256"
                }
              ],
              "internalType": "struct IDCAFeeManager.PositionBalance[]",
              "name": "positions",
              "type": "tuple[]"
            }
          ],
          "internalType": "struct IDCAFeeManager.AvailableBalance[]",
          "name": "_balances",
          "type": "tuple[]"
        }
      ],
      "stateMutability": "view",
      "type": "function"
    },
    {
      "inputs": [
        {
          "components": [
            {
              "internalType": "address",
              "name": "token",
              "type": "address"
            },
            {
              "internalType": "uint32",
              "name": "amountOfSwaps",
              "type": "uint32"
            },
            {
              "internalType": "uint256",
              "name": "amount",
              "type": "uint256"
            }
          ],
          "internalType": "struct IDCAFeeManager.AmountToFill[]",
          "name": "_amounts",
          "type": "tuple[]"
        },
        {
          "components": [
            {
              "internalType": "address",
              "name": "token",
              "type": "address"
            },
            {
              "internalType": "uint16",
              "name": "shares",
              "type": "uint16"
            }
          ],
          "internalType": "struct IDCAFeeManager.TargetTokenShare[]",
          "name": "_distribution",
          "type": "tuple[]"
        }
      ],
      "name": "fillPositions",
      "outputs": [],
      "stateMutability": "nonpayable",
      "type": "function"
    },
    {
      "inputs": [
        {
          "internalType": "address",
          "name": "_from",
          "type": "address"
        },
        {
          "internalType": "address",
          "name": "_to",
          "type": "address"
        }
      ],
      "name": "getPositionKey",
      "outputs": [
        {
          "internalType": "bytes32",
          "name": "",
          "type": "bytes32"
        }
      ],
      "stateMutability": "pure",
      "type": "function"
    },
    {
      "inputs": [],
      "name": "governor",
      "outputs": [
        {
          "internalType": "address",
          "name": "",
          "type": "address"
        }
      ],
      "stateMutability": "view",
      "type": "function"
    },
    {
      "inputs": [
        {
          "internalType": "address",
          "name": "",
          "type": "address"
        }
      ],
      "name": "hasAccess",
      "outputs": [
        {
          "internalType": "bool",
          "name": "",
          "type": "bool"
        }
      ],
      "stateMutability": "view",
      "type": "function"
    },
    {
      "inputs": [],
      "name": "hub",
      "outputs": [
        {
          "internalType": "contract IDCAHub",
          "name": "",
          "type": "address"
        }
      ],
      "stateMutability": "view",
      "type": "function"
    },
    {
      "inputs": [
        {
          "internalType": "address",
          "name": "_account",
          "type": "address"
        }
      ],
      "name": "isGovernor",
      "outputs": [
        {
          "internalType": "bool",
          "name": "_isGovernor",
          "type": "bool"
        }
      ],
      "stateMutability": "view",
      "type": "function"
    },
    {
      "inputs": [
        {
          "internalType": "address",
          "name": "_account",
          "type": "address"
        }
      ],
      "name": "isPendingGovernor",
      "outputs": [
        {
          "internalType": "bool",
          "name": "_isPendingGovernor",
          "type": "bool"
        }
      ],
      "stateMutability": "view",
      "type": "function"
    },
    {
      "inputs": [
        {
          "internalType": "bytes[]",
          "name": "data",
          "type": "bytes[]"
        }
      ],
      "name": "multicall",
      "outputs": [
        {
          "internalType": "bytes[]",
          "name": "results",
          "type": "bytes[]"
        }
      ],
      "stateMutability": "nonpayable",
      "type": "function"
    },
    {
      "inputs": [],
      "name": "pendingGovernor",
      "outputs": [
        {
          "internalType": "address",
          "name": "",
          "type": "address"
        }
      ],
      "stateMutability": "view",
      "type": "function"
    },
    {
      "inputs": [
        {
          "internalType": "bytes32",
          "name": "",
          "type": "bytes32"
        }
      ],
      "name": "positions",
      "outputs": [
        {
          "internalType": "uint256",
          "name": "",
          "type": "uint256"
        }
      ],
      "stateMutability": "view",
      "type": "function"
    },
    {
      "inputs": [
        {
          "internalType": "contract IERC20",
          "name": "_token",
          "type": "address"
        }
      ],
      "name": "resetAllowance",
      "outputs": [],
      "stateMutability": "nonpayable",
      "type": "function"
    },
    {
      "inputs": [
        {
          "components": [
            {
              "internalType": "address",
              "name": "user",
              "type": "address"
            },
            {
              "internalType": "bool",
              "name": "access",
              "type": "bool"
            }
          ],
          "internalType": "struct IDCAFeeManager.UserAccess[]",
          "name": "_access",
          "type": "tuple[]"
        }
      ],
      "name": "setAccess",
      "outputs": [],
      "stateMutability": "nonpayable",
      "type": "function"
    },
    {
      "inputs": [
        {
          "internalType": "address",
          "name": "__pendingGovernor",
          "type": "address"
        }
      ],
      "name": "setPendingGovernor",
      "outputs": [],
      "stateMutability": "nonpayable",
      "type": "function"
    },
    {
      "inputs": [
        {
          "internalType": "uint256[]",
          "name": "_positionIds",
          "type": "uint256[]"
        },
        {
          "internalType": "address",
          "name": "_recipient",
          "type": "address"
        }
      ],
      "name": "terminatePositions",
      "outputs": [],
      "stateMutability": "nonpayable",
      "type": "function"
    },
    {
      "inputs": [],
      "name": "wToken",
      "outputs": [
        {
          "internalType": "contract IWrappedProtocolToken",
          "name": "",
          "type": "address"
        }
      ],
      "stateMutability": "view",
      "type": "function"
    },
    {
      "inputs": [
        {
          "components": [
            {
              "internalType": "address",
              "name": "token",
              "type": "address"
            },
            {
              "internalType": "uint256",
              "name": "amount",
              "type": "uint256"
            }
          ],
          "internalType": "struct IDCAHub.AmountOfToken[]",
          "name": "_amountToWithdraw",
          "type": "tuple[]"
        },
        {
          "internalType": "address",
          "name": "_recipient",
          "type": "address"
        }
      ],
      "name": "withdrawFromBalance",
      "outputs": [],
      "stateMutability": "nonpayable",
      "type": "function"
    },
    {
      "inputs": [
        {
          "components": [
            {
              "internalType": "address",
              "name": "token",
              "type": "address"
            },
            {
              "internalType": "uint256",
              "name": "amount",
              "type": "uint256"
            }
          ],
          "internalType": "struct IDCAHub.AmountOfToken[]",
          "name": "_amountToWithdraw",
          "type": "tuple[]"
        },
        {
          "internalType": "address",
          "name": "_recipient",
          "type": "address"
        }
      ],
      "name": "withdrawFromPlatformBalance",
      "outputs": [],
      "stateMutability": "nonpayable",
      "type": "function"
    },
    {
      "inputs": [
        {
          "components": [
            {
              "internalType": "address",
              "name": "token",
              "type": "address"
            },
            {
              "internalType": "uint256[]",
              "name": "positionIds",
              "type": "uint256[]"
            }
          ],
          "internalType": "struct IDCAHubPositionHandler.PositionSet[]",
          "name": "_positionSets",
          "type": "tuple[]"
        },
        {
          "internalType": "address",
          "name": "_recipient",
          "type": "address"
        }
      ],
      "name": "withdrawFromPositions",
      "outputs": [],
      "stateMutability": "nonpayable",
      "type": "function"
    },
    {
      "inputs": [
        {
          "internalType": "bool",
          "name": "_withdrawFromPlatform",
          "type": "bool"
        },
        {
          "internalType": "uint256[]",
          "name": "_positionIds",
          "type": "uint256[]"
        },
        {
          "internalType": "address payable",
          "name": "_recipient",
          "type": "address"
        }
      ],
      "name": "withdrawProtocolToken",
      "outputs": [],
      "stateMutability": "nonpayable",
      "type": "function"
    },
    {
      "stateMutability": "payable",
      "type": "receive"
    }
  ],
  "transactionHash": "0x33cf0779b53254913a92b966cac3f4d3eed22ee9441f52b419a805a4aa164723",
  "args": [
    "0x059d306A25c4cE8D7437D25743a8B94520536BD5",
    "0x82af49447d8a07e3bd95bd0d56f35241523fbab1",
    "0x84F4836e8022765Af9FBCE3Bb2887fD826c668f1"
  ],
  "numDeployments": 1,
  "bytecode": "0x60c06040523480156200001157600080fd5b5060405162003672380380620036728339810160408190526200003491620000d6565b806001600160a01b038116620000905760405162461bcd60e51b815260206004820152601860248201527f476f7665726e61626c653a207a65726f20616464726573730000000000000000604482015260640160405180910390fd5b600080546001600160a01b0319166001600160a01b03928316179055928316608052501660a0526200012a565b6001600160a01b0381168114620000d357600080fd5b50565b600080600060608486031215620000ec57600080fd5b8351620000f981620000bd565b60208501519093506200010c81620000bd565b60408501519092506200011f81620000bd565b809150509250925092565b60805160a051613496620001dc600039600081816101a2015281816113570152818161144401528181611584015281816116e4015261178e0152600081816102ae015281816107a0015281816109d501528181610b6001528181610f7e01528181611055015281816111730152818161122001528181611382015281816114c3015281816116320152818161194301528181611a9201528181611b4101528181611fca015261212701526134966000f3fe6080604052600436106101845760003560e01c8063976481ca116100d6578063e81b36081161007f578063f235757f11610059578063f235757f14610528578063f4c8226914610548578063faea15871461056857600080fd5b8063e81b3608146104c8578063e91e2f6d146104e8578063ef6ab8ba1461050857600080fd5b8063df08aed5116100b0578063df08aed51461044c578063e3056a341461047b578063e43581b81461049957600080fd5b8063976481ca146103d3578063a06f59e6146103f3578063ac9650d81461041f57600080fd5b8063514ea4bf11610138578063770906c411610112578063770906c41461033d57806381c5e7361461036657806395a078e81461039357600080fd5b8063514ea4bf146102d057806351f63ebc146102fd578063560c64991461031d57600080fd5b806313f6986d1161016957806313f6986d146101ff5780633635136514610216578063365a86fc1461029c57600080fd5b80630babd864146101905780630c340a24146101e157600080fd5b3661018b57005b600080fd5b34801561019c57600080fd5b506101c47f000000000000000000000000000000000000000000000000000000000000000081565b6040516001600160a01b0390911681526020015b60405180910390f35b3480156101ed57600080fd5b506000546001600160a01b03166101c4565b34801561020b57600080fd5b50610214610588565b005b34801561022257600080fd5b5061028e61023136600461258d565b6040517fffffffffffffffffffffffffffffffffffffffff000000000000000000000000606084811b8216602084015283901b16603482015260009060480160405160208183030381529060405280519060200120905092915050565b6040519081526020016101d8565b3480156102a857600080fd5b506101c47f000000000000000000000000000000000000000000000000000000000000000081565b3480156102dc57600080fd5b5061028e6102eb3660046125c6565b60036020526000908152604090205481565b34801561030957600080fd5b5061021461031836600461262b565b610631565b34801561032957600080fd5b5061021461033836600461262b565b61070e565b34801561034957600080fd5b5061035361271081565b60405161ffff90911681526020016101d8565b34801561037257600080fd5b506103866103813660046126c7565b610810565b6040516101d89190612709565b34801561039f57600080fd5b506103c36103ae366004612814565b60026020526000908152604090205460ff1681565b60405190151581526020016101d8565b3480156103df57600080fd5b506102146103ee366004612831565b610c97565b3480156103ff57600080fd5b5061040a6201518081565b60405163ffffffff90911681526020016101d8565b34801561042b57600080fd5b5061043f61043a3660046126c7565b610e02565b6040516101d891906128bf565b34801561045857600080fd5b506103c3610467366004612814565b6001546001600160a01b0391821691161490565b34801561048757600080fd5b506001546001600160a01b03166101c4565b3480156104a557600080fd5b506103c36104b4366004612814565b6000546001600160a01b0391821691161490565b3480156104d457600080fd5b506102146104e336600461293f565b610ef0565b3480156104f457600080fd5b50610214610503366004612814565b611143565b34801561051457600080fd5b50610214610523366004612985565b6112bf565b34801561053457600080fd5b50610214610543366004612814565b611831565b34801561055457600080fd5b5061021461056336600461293f565b6118b1565b34801561057457600080fd5b506102146105833660046129ed565b6119c3565b6001546001600160a01b03163314610627576040517f08c379a000000000000000000000000000000000000000000000000000000000815260206004820152602160248201527f476f7665726e61626c653a206f6e6c792070656e64696e6720676f7665726e6f60448201527f720000000000000000000000000000000000000000000000000000000000000060648201526084015b60405180910390fd5b61062f611cdb565b565b3360009081526002602052604090205460ff1615801561065c57506000546001600160a01b03163314155b15610693576040517f18f26e8e00000000000000000000000000000000000000000000000000000000815260040160405180910390fd5b60005b82811015610708576106f6828585848181106106b4576106b4612a87565b905060400201602001358686858181106106d0576106d0612a87565b6106e69260206040909202019081019150612814565b6001600160a01b03169190611db5565b8061070081612ae5565b915050610696565b50505050565b3360009081526002602052604090205460ff1615801561073957506000546001600160a01b03163314155b15610770576040517f18f26e8e00000000000000000000000000000000000000000000000000000000815260040160405180910390fd5b6040517f560c64990000000000000000000000000000000000000000000000000000000081526001600160a01b037f0000000000000000000000000000000000000000000000000000000000000000169063560c6499906107d990869086908690600401612b1d565b600060405180830381600087803b1580156107f357600080fd5b505af1158015610807573d6000803e3d6000fd5b50505050505050565b60608167ffffffffffffffff81111561082b5761082b612b88565b60405190808252806020026020018201604052801561089057816020015b61087d604051806080016040528060006001600160a01b031681526020016000815260200160008152602001606081525090565b8152602001906001900390816108495790505b50905060005b82811015610c905760008484838181106108b2576108b2612a87565b90506020020160208101906108c79190612814565b6001600160a01b03811660009081526004602090815260408083208054825181850281018501909352808352949550929390929183018282801561092a57602002820191906000526020600020905b815481526020019060010190808311610916575b505050505090506000815167ffffffffffffffff81111561094d5761094d612b88565b6040519080825280602002602001820160405280156109c257816020015b6109af6040518060a001604052806000815260200160006001600160a01b0316815260200160006001600160a01b0316815260200160008152602001600081525090565b81526020019060019003908161096b5790505b50905060005b8251811015610b115760007f00000000000000000000000000000000000000000000000000000000000000006001600160a01b0316635b6fd01d858481518110610a1457610a14612a87565b60200260200101516040518263ffffffff1660e01b8152600401610a3a91815260200190565b61010060405180830381865afa158015610a58573d6000803e3d6000fd5b505050506040513d601f19601f82011682018060405250810190610a7c9190612c34565b90506040518060a00160405280858481518110610a9b57610a9b612a87565b6020026020010151815260200182600001516001600160a01b0316815260200182602001516001600160a01b03168152602001826080015181526020018260c00151815250838381518110610af257610af2612a87565b6020026020010181905250508080610b0990612ae5565b9150506109c8565b50604080516080810182526001600160a01b0380861680835292517fc67e32e90000000000000000000000000000000000000000000000000000000081526004810193909352909160208301917f0000000000000000000000000000000000000000000000000000000000000000169063c67e32e990602401602060405180830381865afa158015610ba7573d6000803e3d6000fd5b505050506040513d601f19601f82011682018060405250810190610bcb9190612cf0565b81526040517f70a082310000000000000000000000000000000000000000000000000000000081523060048201526020909101906001600160a01b038616906370a0823190602401602060405180830381865afa158015610c30573d6000803e3d6000fd5b505050506040513d601f19601f82011682018060405250810190610c549190612cf0565b815260200182815250858581518110610c6f57610c6f612a87565b60200260200101819052505050508080610c8890612ae5565b915050610896565b5092915050565b6000546001600160a01b03163314610d0b576040517f08c379a000000000000000000000000000000000000000000000000000000000815260206004820152601960248201527f476f7665726e61626c653a206f6e6c7920676f7665726e6f7200000000000000604482015260640161061e565b60005b81811015610dc457828282818110610d2857610d28612a87565b9050604002016020016020810190610d409190612d09565b60026000858585818110610d5657610d56612a87565b610d6c9260206040909202019081019150612814565b6001600160a01b03168152602081019190915260400160002080547fffffffffffffffffffffffffffffffffffffffffffffffffffffffffffffff001691151591909117905580610dbc81612ae5565b915050610d0e565b507fcc7d6131c0d1f2c95a175c98430acad8058867bf97670ce08f6a085e4fd063028282604051610df6929190612d26565b60405180910390a15050565b60608167ffffffffffffffff811115610e1d57610e1d612b88565b604051908082528060200260200182016040528015610e5057816020015b6060815260200190600190039081610e3b5790505b50905060005b82811015610c9057610ec030858584818110610e7457610e74612a87565b9050602002810190610e869190612d8a565b8080601f016020809104026020016040519081016040528093929190818152602001838380828437600092019190915250611e3a92505050565b828281518110610ed257610ed2612a87565b60200260200101819052508080610ee890612ae5565b915050610e56565b3360009081526002602052604090205460ff16158015610f1b57506000546001600160a01b03163314155b15610f52576040517f18f26e8e00000000000000000000000000000000000000000000000000000000815260040160405180910390fd5b60005b82811015610708576000848483818110610f7157610f71612a87565b90506020020135905060007f00000000000000000000000000000000000000000000000000000000000000006001600160a01b0316635b6fd01d836040518263ffffffff1660e01b8152600401610fca91815260200190565b61010060405180830381865afa158015610fe8573d6000803e3d6000fd5b505050506040513d601f19601f8201168201806040525081019061100c9190612c34565b6040517f72ada4c5000000000000000000000000000000000000000000000000000000008152600481018490526001600160a01b038681166024830181905260448301529192507f0000000000000000000000000000000000000000000000000000000000000000909116906372ada4c59060640160408051808303816000875af115801561109f573d6000803e3d6000fd5b505050506040513d601f19601f820116820180604052508101906110c39190612def565b50508051602091820151604080517fffffffffffffffffffffffffffffffffffffffff000000000000000000000000606094851b8116828701529290931b9091166034830152805180830360280181526048909201815281519183019190912060009081526003909252812055508061113b81612ae5565b915050610f55565b6040517f095ea7b30000000000000000000000000000000000000000000000000000000081526001600160a01b037f0000000000000000000000000000000000000000000000000000000000000000811660048301526000602483015282169063095ea7b3906044016020604051808303816000875af11580156111cb573d6000803e3d6000fd5b505050506040513d601f19601f820116820180604052508101906111ef9190612e13565b506040517f095ea7b30000000000000000000000000000000000000000000000000000000081526001600160a01b037f0000000000000000000000000000000000000000000000000000000000000000811660048301527fffffffffffffffffffffffffffffffffffffffffffffffffffffffffffffffff602483015282169063095ea7b3906044016020604051808303816000875af1158015611297573d6000803e3d6000fd5b505050506040513d601f19601f820116820180604052508101906112bb9190612e13565b5050565b3360009081526002602052604090205460ff161580156112ea57506000546001600160a01b03163314155b15611321576040517f18f26e8e00000000000000000000000000000000000000000000000000000000815260040160405180910390fd5b8315611530576040517fc67e32e90000000000000000000000000000000000000000000000000000000081526001600160a01b037f0000000000000000000000000000000000000000000000000000000000000000811660048301526000917f00000000000000000000000000000000000000000000000000000000000000009091169063c67e32e990602401602060405180830381865afa1580156113cb573d6000803e3d6000fd5b505050506040513d601f19601f820116820180604052508101906113ef9190612cf0565b9050801561152e57604080516001808252818301909252600091816020015b604080518082019091526000808252602082015281526020019060019003908161140e57905050905060405180604001604052807f00000000000000000000000000000000000000000000000000000000000000006001600160a01b03168152602001838152508160008151811061148857611488612a87565b60209081029190910101526040517f560c64990000000000000000000000000000000000000000000000000000000081526001600160a01b037f0000000000000000000000000000000000000000000000000000000000000000169063560c6499906114fa9084903090600401612e30565b600060405180830381600087803b15801561151457600080fd5b505af1158015611528573d6000803e3d6000fd5b50505050505b505b81156116b357604080516001808252818301909252600091816020015b60408051808201909152600081526060602082015281526020019060019003908161154d57905050905060405180604001604052807f00000000000000000000000000000000000000000000000000000000000000006001600160a01b03168152602001858580806020026020016040519081016040528093929190818152602001838360200280828437600092018290525093909452505083518492506115f7576115f7612a87565b60209081029190910101526040517f480b37960000000000000000000000000000000000000000000000000000000081526001600160a01b037f0000000000000000000000000000000000000000000000000000000000000000169063480b3796906116699084903090600401612e99565b6000604051808303816000875af1158015611688573d6000803e3d6000fd5b505050506040513d6000823e601f3d908101601f191682016040526116b09190810190612f79565b50505b6040517f70a082310000000000000000000000000000000000000000000000000000000081523060048201526000907f00000000000000000000000000000000000000000000000000000000000000006001600160a01b0316906370a0823190602401602060405180830381865afa158015611733573d6000803e3d6000fd5b505050506040513d601f19601f820116820180604052508101906117579190612cf0565b9050801561182a576040517f2e1a7d4d000000000000000000000000000000000000000000000000000000008152600481018290527f00000000000000000000000000000000000000000000000000000000000000006001600160a01b031690632e1a7d4d90602401600060405180830381600087803b1580156117da57600080fd5b505af11580156117ee573d6000803e3d6000fd5b50506040516001600160a01b038516925083156108fc02915083906000818181858888f19350505050158015611828573d6000803e3d6000fd5b505b5050505050565b6000546001600160a01b031633146118a5576040517f08c379a000000000000000000000000000000000000000000000000000000000815260206004820152601960248201527f476f7665726e61626c653a206f6e6c7920676f7665726e6f7200000000000000604482015260640161061e565b6118ae81611e66565b50565b3360009081526002602052604090205460ff161580156118dc57506000546001600160a01b03163314155b15611913576040517f18f26e8e00000000000000000000000000000000000000000000000000000000815260040160405180910390fd5b6040517f480b37960000000000000000000000000000000000000000000000000000000081526001600160a01b037f0000000000000000000000000000000000000000000000000000000000000000169063480b37969061197c9086908690869060040161301f565b6000604051808303816000875af115801561199b573d6000803e3d6000fd5b505050506040513d6000823e601f3d908101601f191682016040526107089190810190612f79565b3360009081526002602052604090205460ff161580156119ee57506000546001600160a01b03163314155b15611a25576040517f18f26e8e00000000000000000000000000000000000000000000000000000000815260040160405180910390fd5b60005b8381101561182a576000858583818110611a4457611a44612a87565b905060600201803603810190611a5a9190613192565b80516040517fdd62ed3e0000000000000000000000000000000000000000000000000000000081523060048201526001600160a01b037f00000000000000000000000000000000000000000000000000000000000000008116602483015292935091169063dd62ed3e90604401602060405180830381865afa158015611ae4573d6000803e3d6000fd5b505050506040513d601f19601f82011682018060405250810190611b089190612cf0565b600003611bdf5780516040517f095ea7b30000000000000000000000000000000000000000000000000000000081526001600160a01b037f0000000000000000000000000000000000000000000000000000000000000000811660048301527fffffffffffffffffffffffffffffffffffffffffffffffffffffffffffffffff60248301529091169063095ea7b3906044016020604051808303816000875af1158015611bb9573d6000803e3d6000fd5b505050506040513d601f19601f82011682018060405250810190611bdd9190612e13565b505b6000805b84811015611cc5576000611bf86001876131fd565b8210611c1357828460400151611c0e91906131fd565b611c5d565b612710878784818110611c2857611c28612a87565b9050604002016020016020810190611c409190613214565b61ffff168560400151611c539190613238565b611c5d9190613275565b90506000611c9c8560000151898986818110611c7b57611c7b612a87565b611c919260206040909202019081019150612814565b848860200151611f42565b905080611cb057611cad82856132b0565b93505b50508080611cbd90612ae5565b915050611be3565b5050508080611cd390612ae5565b915050611a28565b6001546001600160a01b0316611d4d576040517f08c379a000000000000000000000000000000000000000000000000000000000815260206004820152601f60248201527f476f7665726e61626c653a206e6f2070656e64696e6720676f7665726e6f7200604482015260640161061e565b60018054600080547fffffffffffffffffffffffff00000000000000000000000000000000000000009081166001600160a01b0384161782559091169091556040517fdc57ca23c46d823853915ed5a090ca0ee9db5eb6a46f5c58e1c9158de861fd769190a1565b604080516001600160a01b038416602482015260448082018490528251808303909101815260649091019091526020810180517bffffffffffffffffffffffffffffffffffffffffffffffffffffffff167fa9059cbb00000000000000000000000000000000000000000000000000000000179052611e35908490612197565b505050565b6060611e5f838360405180606001604052806027815260200161343a60279139612296565b9392505050565b6001600160a01b038116611ed6576040517f08c379a000000000000000000000000000000000000000000000000000000000815260206004820152601860248201527f476f7665726e61626c653a207a65726f20616464726573730000000000000000604482015260640161061e565b600180547fffffffffffffffffffffffff0000000000000000000000000000000000000000166001600160a01b0383169081179091556040519081527f56bddfa0cee9697cebddf9acd7f23dc6583663b05e007b877056d05017994def9060200160405180910390a150565b600080611fa786866040517fffffffffffffffffffffffffffffffffffffffff000000000000000000000000606084811b8216602084015283901b16603482015260009060480160405160208183030381529060405280519060200120905092915050565b6000818152600360205260408120549192508190036120e5576001600160a01b037f000000000000000000000000000000000000000000000000000000000000000016636b29e1bd888888886201518030600060405190808252806020026020018201604052801561204057816020015b6040805180820190915260008152606060208201528152602001906001900390816120185790505b506040518863ffffffff1660e01b815260040161206397969594939291906132c8565b6020604051808303816000875af192505050801561209e575060408051601f3d908101601f1916820190925261209b91810190612cf0565b60015b6120ab576001925061218d565b60008381526003602090815260408083208490556001600160a01b038a16835260048252822080546001810182559083529120015561218d565b6040517fded700a6000000000000000000000000000000000000000000000000000000008152600481018290526024810186905263ffffffff851660448201527f00000000000000000000000000000000000000000000000000000000000000006001600160a01b03169063ded700a690606401600060405180830381600087803b15801561217357600080fd5b505af1925050508015612184575060015b61218d57600192505b5050949350505050565b60006121ec826040518060400160405280602081526020017f5361666545524332303a206c6f772d6c6576656c2063616c6c206661696c6564815250856001600160a01b031661239b9092919063ffffffff16565b805190915015611e35578080602001905181019061220a9190612e13565b611e35576040517f08c379a000000000000000000000000000000000000000000000000000000000815260206004820152602a60248201527f5361666545524332303a204552433230206f7065726174696f6e20646964206e60448201527f6f74207375636365656400000000000000000000000000000000000000000000606482015260840161061e565b6060833b612326576040517f08c379a000000000000000000000000000000000000000000000000000000000815260206004820152602660248201527f416464726573733a2064656c65676174652063616c6c20746f206e6f6e2d636f60448201527f6e74726163740000000000000000000000000000000000000000000000000000606482015260840161061e565b600080856001600160a01b031685604051612341919061340a565b600060405180830381855af49150503d806000811461237c576040519150601f19603f3d011682016040523d82523d6000602084013e612381565b606091505b50915091506123918282866123b2565b9695505050505050565b60606123aa8484600085612405565b949350505050565b606083156123c1575081611e5f565b8251156123d15782518084602001fd5b816040517f08c379a000000000000000000000000000000000000000000000000000000000815260040161061e9190613426565b606082471015612497576040517f08c379a000000000000000000000000000000000000000000000000000000000815260206004820152602660248201527f416464726573733a20696e73756666696369656e742062616c616e636520666f60448201527f722063616c6c0000000000000000000000000000000000000000000000000000606482015260840161061e565b843b6124ff576040517f08c379a000000000000000000000000000000000000000000000000000000000815260206004820152601d60248201527f416464726573733a2063616c6c20746f206e6f6e2d636f6e7472616374000000604482015260640161061e565b600080866001600160a01b0316858760405161251b919061340a565b60006040518083038185875af1925050503d8060008114612558576040519150601f19603f3d011682016040523d82523d6000602084013e61255d565b606091505b509150915061256d8282866123b2565b979650505050505050565b6001600160a01b03811681146118ae57600080fd5b600080604083850312156125a057600080fd5b82356125ab81612578565b915060208301356125bb81612578565b809150509250929050565b6000602082840312156125d857600080fd5b5035919050565b60008083601f8401126125f157600080fd5b50813567ffffffffffffffff81111561260957600080fd5b6020830191508360208260061b850101111561262457600080fd5b9250929050565b60008060006040848603121561264057600080fd5b833567ffffffffffffffff81111561265757600080fd5b612663868287016125df565b909450925050602084013561267781612578565b809150509250925092565b60008083601f84011261269457600080fd5b50813567ffffffffffffffff8111156126ac57600080fd5b6020830191508360208260051b850101111561262457600080fd5b600080602083850312156126da57600080fd5b823567ffffffffffffffff8111156126f157600080fd5b6126fd85828601612682565b90969095509350505050565b60006020808301818452808551808352604092508286019150828160051b87010184880160005b83811015612806577fffffffffffffffffffffffffffffffffffffffffffffffffffffffffffffffc0898403018552815160808085016001600160a01b038084511687528a8401518b880152898401518a8801526060808501519450838189015282855180855260a08a0191508d87019650600094505b808510156127ee578651805183528e81015185168f8401528d81015185168e840152838101518484015286015186830152958d01956001949094019360a0909101906127a7565b50998c01999750505093890193505050600101612730565b509098975050505050505050565b60006020828403121561282657600080fd5b8135611e5f81612578565b6000806020838503121561284457600080fd5b823567ffffffffffffffff81111561285b57600080fd5b6126fd858286016125df565b60005b8381101561288257818101518382015260200161286a565b838111156107085750506000910152565b600081518084526128ab816020860160208601612867565b601f01601f19169290920160200192915050565b6000602080830181845280855180835260408601915060408160051b870101925083870160005b82811015612932577fffffffffffffffffffffffffffffffffffffffffffffffffffffffffffffffc0888603018452612920858351612893565b945092850192908501906001016128e6565b5092979650505050505050565b60008060006040848603121561295457600080fd5b833567ffffffffffffffff81111561296b57600080fd5b61266386828701612682565b80151581146118ae57600080fd5b6000806000806060858703121561299b57600080fd5b84356129a681612977565b9350602085013567ffffffffffffffff8111156129c257600080fd5b6129ce87828801612682565b90945092505060408501356129e281612578565b939692955090935050565b60008060008060408587031215612a0357600080fd5b843567ffffffffffffffff80821115612a1b57600080fd5b818701915087601f830112612a2f57600080fd5b813581811115612a3e57600080fd5b886020606083028501011115612a5357600080fd5b602092830196509450908601359080821115612a6e57600080fd5b50612a7b878288016125df565b95989497509550505050565b7f4e487b7100000000000000000000000000000000000000000000000000000000600052603260045260246000fd5b7f4e487b7100000000000000000000000000000000000000000000000000000000600052601160045260246000fd5b60007fffffffffffffffffffffffffffffffffffffffffffffffffffffffffffffffff8203612b1657612b16612ab6565b5060010190565b60408082528181018490526000908560608401835b87811015612b6a578235612b4581612578565b6001600160a01b03168252602083810135908301529183019190830190600101612b32565b508093505050506001600160a01b0383166020830152949350505050565b7f4e487b7100000000000000000000000000000000000000000000000000000000600052604160045260246000fd5b604051601f8201601f1916810167ffffffffffffffff81118282101715612be057612be0612b88565b604052919050565b8051612bf381612578565b919050565b63ffffffff811681146118ae57600080fd5b8051612bf381612bf8565b80516effffffffffffffffffffffffffffff81168114612bf357600080fd5b6000610100808385031215612c4857600080fd5b6040519081019067ffffffffffffffff82118183101715612c6b57612c6b612b88565b8160405283519150612c7c82612578565b818152612c8b60208501612be8565b6020820152612c9c60408501612c0a565b6040820152612cad60608501612c0a565b606082015260808401516080820152612cc860a08501612c0a565b60a082015260c084015160c0820152612ce360e08501612c15565b60e0820152949350505050565b600060208284031215612d0257600080fd5b5051919050565b600060208284031215612d1b57600080fd5b8135611e5f81612977565b6020808252818101839052600090604080840186845b87811015612d7d578135612d4f81612578565b6001600160a01b0316835281850135612d6781612977565b1515838601529183019190830190600101612d3c565b5090979650505050505050565b60008083357fffffffffffffffffffffffffffffffffffffffffffffffffffffffffffffffe1843603018112612dbf57600080fd5b83018035915067ffffffffffffffff821115612dda57600080fd5b60200191503681900382131561262457600080fd5b60008060408385031215612e0257600080fd5b505080516020909101519092909150565b600060208284031215612e2557600080fd5b8151611e5f81612977565b60408082528351828201819052600091906020906060850190828801855b82811015612e7c57815180516001600160a01b03168552850151858501529285019290840190600101612e4e565b5050506001600160a01b0395909516930192909252509092915050565b60006040808301818452808651808352606092508286019150828160051b8701016020808a016000805b85811015612f52578a85037fffffffffffffffffffffffffffffffffffffffffffffffffffffffffffffffa0018752825180516001600160a01b031686528401518486018a905280518a87018190529085019083908a8801905b80831015612f3d5783518252928701926001929092019190870190612f1d565b50988601989650505091830191600101612ec3565b505050819650612f6c8189018a6001600160a01b03169052565b5050505050509392505050565b60006020808385031215612f8c57600080fd5b825167ffffffffffffffff80821115612fa457600080fd5b818501915085601f830112612fb857600080fd5b815181811115612fca57612fca612b88565b8060051b9150612fdb848301612bb7565b8181529183018401918481019088841115612ff557600080fd5b938501935b8385101561301357845182529385019390850190612ffa565b98975050505050505050565b60408082528181018490526000906060808401600587811b8601830189865b8a811015613175577fffffffffffffffffffffffffffffffffffffffffffffffffffffffffffffffa089840301855281357fffffffffffffffffffffffffffffffffffffffffffffffffffffffffffffffc18d360301811261309f57600080fd5b8c0180356130ac81612578565b6001600160a01b03168452602081810135368390037fffffffffffffffffffffffffffffffffffffffffffffffffffffffffffffffe10181126130ee57600080fd5b8201803567ffffffffffffffff81111561310757600080fd5b80881b80360385131561311957600080fd5b8b84890152818c8901527f07ffffffffffffffffffffffffffffffffffffffffffffffffffffffffffffff82111561315057600080fd5b808484018c8a0137600097018a0196875250509586019592909201915060010161303e565b50506001600160a01b038816602088015294506123aa9350505050565b6000606082840312156131a457600080fd5b6040516060810181811067ffffffffffffffff821117156131c7576131c7612b88565b60405282356131d581612578565b815260208301356131e581612bf8565b60208201526040928301359281019290925250919050565b60008282101561320f5761320f612ab6565b500390565b60006020828403121561322657600080fd5b813561ffff81168114611e5f57600080fd5b6000817fffffffffffffffffffffffffffffffffffffffffffffffffffffffffffffffff048311821515161561327057613270612ab6565b500290565b6000826132ab577f4e487b7100000000000000000000000000000000000000000000000000000000600052601260045260246000fd5b500490565b600082198211156132c3576132c3612ab6565b500190565b600060e082016001600160a01b03808b1684526020818b168186015260408a81870152606063ffffffff808c1682890152808b1660808901525083891660a088015260e060c088015284885180875261010096508689019150868160051b8a01019650848a0160005b828110156133f2578a89037fffffffffffffffffffffffffffffffffffffffffffffffffffffffffffffff000184528151805189168a52870151878a018790528051878b0181905290880190600090878c01905b808310156133dd57835160048082106133c6577f4e487b71000000000000000000000000000000000000000000000000000000006000526021815260246000fd5b508252928a019260019290920191908a0190613385565b509a5050509286019290860190600101613331565b50505050505050508091505098975050505050505050565b6000825161341c818460208701612867565b9190910192915050565b602081526000611e5f602083018461289356fe416464726573733a206c6f772d6c6576656c2064656c65676174652063616c6c206661696c6564a2646970667358221220204e1542c4d4e843b853b0c16e54cd8ab624f4081c962fc60455205446afb26e64736f6c634300080d0033"
}