{
  "address": "0x3efC941d66993Acf60f247b6500E5546115B3916",
  "abi": [
    {
      "inputs": [
        {
          "internalType": "contract IDCAHub",
          "name": "_hub",
          "type": "address"
        },
        {
          "internalType": "contract IWrappedProtocolToken",
          "name": "_wToken",
          "type": "address"
        },
        {
          "internalType": "address",
          "name": "_governor",
          "type": "address"
        }
      ],
      "stateMutability": "nonpayable",
      "type": "constructor"
    },
    {
      "inputs": [],
      "name": "CallToDexFailed",
      "type": "error"
    },
    {
      "inputs": [],
      "name": "CallbackNotCalledByHub",
      "type": "error"
    },
    {
      "inputs": [],
      "name": "InvalidTokenApprovalParams",
      "type": "error"
    },
    {
      "inputs": [],
      "name": "RewardNotEnough",
      "type": "error"
    },
    {
      "inputs": [],
      "name": "SwapNotInitiatedByCompanion",
      "type": "error"
    },
    {
      "inputs": [],
      "name": "ToProvideIsTooMuch",
      "type": "error"
    },
    {
      "inputs": [],
      "name": "UnauthorizedCaller",
      "type": "error"
    },
    {
      "inputs": [],
      "name": "UnexpectedSwapPlan",
      "type": "error"
    },
    {
      "inputs": [],
      "name": "UnsupportedDex",
      "type": "error"
    },
    {
      "inputs": [],
      "name": "ZeroAddress",
      "type": "error"
    },
    {
      "anonymous": false,
      "inputs": [
        {
          "indexed": false,
          "internalType": "address",
          "name": "_to",
          "type": "address"
        },
        {
          "indexed": false,
          "internalType": "address",
          "name": "token",
          "type": "address"
        },
        {
          "indexed": false,
          "internalType": "uint256",
          "name": "amount",
          "type": "uint256"
        }
      ],
      "name": "DustSent",
      "type": "event"
    },
    {
      "anonymous": false,
      "inputs": [],
      "name": "PendingGovernorAccepted",
      "type": "event"
    },
    {
      "anonymous": false,
      "inputs": [
        {
          "indexed": false,
          "internalType": "address",
          "name": "_pendingGovernor",
          "type": "address"
        }
      ],
      "name": "PendingGovernorSet",
      "type": "event"
    },
    {
      "anonymous": false,
      "inputs": [
        {
          "indexed": false,
          "internalType": "address[]",
          "name": "addresses",
          "type": "address[]"
        },
        {
          "indexed": false,
          "internalType": "bool[]",
          "name": "hasIssue",
          "type": "bool[]"
        }
      ],
      "name": "TokenWithApprovalIssuesSet",
      "type": "event"
    },
    {
      "inputs": [
        {
          "internalType": "address",
          "name": "_sender",
          "type": "address"
        },
        {
          "components": [
            {
              "internalType": "address",
              "name": "token",
              "type": "address"
            },
            {
              "internalType": "uint256",
              "name": "reward",
              "type": "uint256"
            },
            {
              "internalType": "uint256",
              "name": "toProvide",
              "type": "uint256"
            },
            {
              "internalType": "uint256",
              "name": "platformFee",
              "type": "uint256"
            }
          ],
          "internalType": "struct IDCAHubSwapHandler.TokenInSwap[]",
          "name": "_tokens",
          "type": "tuple[]"
        },
        {
          "internalType": "uint256[]",
          "name": "",
          "type": "uint256[]"
        },
        {
          "internalType": "bytes",
          "name": "_data",
          "type": "bytes"
        }
      ],
      "name": "DCAHubSwapCall",
      "outputs": [],
      "stateMutability": "nonpayable",
      "type": "function"
    },
    {
      "inputs": [],
      "name": "acceptPendingGovernor",
      "outputs": [],
      "stateMutability": "nonpayable",
      "type": "function"
    },
    {
      "inputs": [
        {
          "internalType": "address",
          "name": "_dex",
          "type": "address"
        },
        {
          "internalType": "bool",
          "name": "_support",
          "type": "bool"
        }
      ],
      "name": "defineDexSupport",
      "outputs": [],
      "stateMutability": "nonpayable",
      "type": "function"
    },
    {
      "inputs": [],
      "name": "governor",
      "outputs": [
        {
          "internalType": "address",
          "name": "",
          "type": "address"
        }
      ],
      "stateMutability": "view",
      "type": "function"
    },
    {
      "inputs": [],
      "name": "hub",
      "outputs": [
        {
          "internalType": "contract IDCAHub",
          "name": "",
          "type": "address"
        }
      ],
      "stateMutability": "view",
      "type": "function"
    },
    {
      "inputs": [
        {
          "internalType": "address",
          "name": "",
          "type": "address"
        }
      ],
      "name": "isDexSupported",
      "outputs": [
        {
          "internalType": "bool",
          "name": "",
          "type": "bool"
        }
      ],
      "stateMutability": "view",
      "type": "function"
    },
    {
      "inputs": [
        {
          "internalType": "address",
          "name": "_account",
          "type": "address"
        }
      ],
      "name": "isGovernor",
      "outputs": [
        {
          "internalType": "bool",
          "name": "_isGovernor",
          "type": "bool"
        }
      ],
      "stateMutability": "view",
      "type": "function"
    },
    {
      "inputs": [
        {
          "internalType": "address",
          "name": "_account",
          "type": "address"
        }
      ],
      "name": "isPendingGovernor",
      "outputs": [
        {
          "internalType": "bool",
          "name": "_isPendingGovernor",
          "type": "bool"
        }
      ],
      "stateMutability": "view",
      "type": "function"
    },
    {
      "inputs": [],
      "name": "pendingGovernor",
      "outputs": [
        {
          "internalType": "address",
          "name": "",
          "type": "address"
        }
      ],
      "stateMutability": "view",
      "type": "function"
    },
    {
      "inputs": [
        {
          "internalType": "address",
          "name": "_to",
          "type": "address"
        },
        {
          "internalType": "address",
          "name": "_token",
          "type": "address"
        },
        {
          "internalType": "uint256",
          "name": "_amount",
          "type": "uint256"
        }
      ],
      "name": "sendDust",
      "outputs": [],
      "stateMutability": "nonpayable",
      "type": "function"
    },
    {
      "inputs": [
        {
          "internalType": "address",
          "name": "__pendingGovernor",
          "type": "address"
        }
      ],
      "name": "setPendingGovernor",
      "outputs": [],
      "stateMutability": "nonpayable",
      "type": "function"
    },
    {
      "inputs": [
        {
          "internalType": "address[]",
          "name": "_addresses",
          "type": "address[]"
        },
        {
          "internalType": "bool[]",
          "name": "_hasIssue",
          "type": "bool[]"
        }
      ],
      "name": "setTokensWithApprovalIssues",
      "outputs": [],
      "stateMutability": "nonpayable",
      "type": "function"
    },
    {
      "inputs": [
        {
          "internalType": "address[]",
          "name": "_tokens",
          "type": "address[]"
        },
        {
          "components": [
            {
              "internalType": "uint8",
              "name": "indexTokenA",
              "type": "uint8"
            },
            {
              "internalType": "uint8",
              "name": "indexTokenB",
              "type": "uint8"
            }
          ],
          "internalType": "struct IDCAHubSwapHandler.PairIndexes[]",
          "name": "_pairsToSwap",
          "type": "tuple[]"
        },
        {
          "internalType": "uint256[]",
          "name": "_minimumOutput",
          "type": "uint256[]"
        },
        {
          "internalType": "uint256[]",
          "name": "_maximumInput",
          "type": "uint256[]"
        },
        {
          "internalType": "address",
          "name": "_recipient",
          "type": "address"
        },
        {
          "internalType": "uint256",
          "name": "_deadline",
          "type": "uint256"
        }
      ],
      "name": "swapForCaller",
      "outputs": [
        {
          "components": [
            {
              "components": [
                {
                  "internalType": "address",
                  "name": "token",
                  "type": "address"
                },
                {
                  "internalType": "uint256",
                  "name": "reward",
                  "type": "uint256"
                },
                {
                  "internalType": "uint256",
                  "name": "toProvide",
                  "type": "uint256"
                },
                {
                  "internalType": "uint256",
                  "name": "platformFee",
                  "type": "uint256"
                }
              ],
              "internalType": "struct IDCAHubSwapHandler.TokenInSwap[]",
              "name": "tokens",
              "type": "tuple[]"
            },
            {
              "components": [
                {
                  "internalType": "address",
                  "name": "tokenA",
                  "type": "address"
                },
                {
                  "internalType": "address",
                  "name": "tokenB",
                  "type": "address"
                },
                {
                  "internalType": "uint256",
                  "name": "ratioAToB",
                  "type": "uint256"
                },
                {
                  "internalType": "uint256",
                  "name": "ratioBToA",
                  "type": "uint256"
                },
                {
                  "internalType": "bytes1",
                  "name": "intervalsInSwap",
                  "type": "bytes1"
                }
              ],
              "internalType": "struct IDCAHubSwapHandler.PairInSwap[]",
              "name": "pairs",
              "type": "tuple[]"
            }
          ],
          "internalType": "struct IDCAHubSwapHandler.SwapInfo",
          "name": "_swapInfo",
          "type": "tuple"
        }
      ],
      "stateMutability": "payable",
      "type": "function"
    },
    {
      "inputs": [
        {
          "internalType": "address",
          "name": "_dex",
          "type": "address"
        },
        {
          "internalType": "address",
          "name": "_tokensProxy",
          "type": "address"
        },
        {
          "internalType": "address[]",
          "name": "_tokens",
          "type": "address[]"
        },
        {
          "components": [
            {
              "internalType": "uint8",
              "name": "indexTokenA",
              "type": "uint8"
            },
            {
              "internalType": "uint8",
              "name": "indexTokenB",
              "type": "uint8"
            }
          ],
          "internalType": "struct IDCAHubSwapHandler.PairIndexes[]",
          "name": "_pairsToSwap",
          "type": "tuple[]"
        },
        {
          "internalType": "bytes[]",
          "name": "_callsToDex",
          "type": "bytes[]"
        },
        {
          "internalType": "bool",
          "name": "_doDexSwapsIncludeTransferToHub",
          "type": "bool"
        },
        {
          "internalType": "address",
          "name": "_leftoverRecipient",
          "type": "address"
        },
        {
          "internalType": "uint256",
          "name": "_deadline",
          "type": "uint256"
        }
      ],
      "name": "swapWithDex",
      "outputs": [
        {
          "components": [
            {
              "components": [
                {
                  "internalType": "address",
                  "name": "token",
                  "type": "address"
                },
                {
                  "internalType": "uint256",
                  "name": "reward",
                  "type": "uint256"
                },
                {
                  "internalType": "uint256",
                  "name": "toProvide",
                  "type": "uint256"
                },
                {
                  "internalType": "uint256",
                  "name": "platformFee",
                  "type": "uint256"
                }
              ],
              "internalType": "struct IDCAHubSwapHandler.TokenInSwap[]",
              "name": "tokens",
              "type": "tuple[]"
            },
            {
              "components": [
                {
                  "internalType": "address",
                  "name": "tokenA",
                  "type": "address"
                },
                {
                  "internalType": "address",
                  "name": "tokenB",
                  "type": "address"
                },
                {
                  "internalType": "uint256",
                  "name": "ratioAToB",
                  "type": "uint256"
                },
                {
                  "internalType": "uint256",
                  "name": "ratioBToA",
                  "type": "uint256"
                },
                {
                  "internalType": "bytes1",
                  "name": "intervalsInSwap",
                  "type": "bytes1"
                }
              ],
              "internalType": "struct IDCAHubSwapHandler.PairInSwap[]",
              "name": "pairs",
              "type": "tuple[]"
            }
          ],
          "internalType": "struct IDCAHubSwapHandler.SwapInfo",
          "name": "",
          "type": "tuple"
        }
      ],
      "stateMutability": "nonpayable",
      "type": "function"
    },
    {
      "inputs": [
        {
          "internalType": "address",
          "name": "_dex",
          "type": "address"
        },
        {
          "internalType": "address",
          "name": "_tokensProxy",
          "type": "address"
        },
        {
          "internalType": "address[]",
          "name": "_tokens",
          "type": "address[]"
        },
        {
          "components": [
            {
              "internalType": "uint8",
              "name": "indexTokenA",
              "type": "uint8"
            },
            {
              "internalType": "uint8",
              "name": "indexTokenB",
              "type": "uint8"
            }
          ],
          "internalType": "struct IDCAHubSwapHandler.PairIndexes[]",
          "name": "_pairsToSwap",
          "type": "tuple[]"
        },
        {
          "internalType": "bytes[]",
          "name": "_callsToDex",
          "type": "bytes[]"
        },
        {
          "internalType": "bool",
          "name": "_doDexSwapsIncludeTransferToHub",
          "type": "bool"
        },
        {
          "internalType": "address",
          "name": "_leftoverRecipient",
          "type": "address"
        },
        {
          "internalType": "uint256",
          "name": "_deadline",
          "type": "uint256"
        }
      ],
      "name": "swapWithDexAndShareLeftoverWithHub",
      "outputs": [
        {
          "components": [
            {
              "components": [
                {
                  "internalType": "address",
                  "name": "token",
                  "type": "address"
                },
                {
                  "internalType": "uint256",
                  "name": "reward",
                  "type": "uint256"
                },
                {
                  "internalType": "uint256",
                  "name": "toProvide",
                  "type": "uint256"
                },
                {
                  "internalType": "uint256",
                  "name": "platformFee",
                  "type": "uint256"
                }
              ],
              "internalType": "struct IDCAHubSwapHandler.TokenInSwap[]",
              "name": "tokens",
              "type": "tuple[]"
            },
            {
              "components": [
                {
                  "internalType": "address",
                  "name": "tokenA",
                  "type": "address"
                },
                {
                  "internalType": "address",
                  "name": "tokenB",
                  "type": "address"
                },
                {
                  "internalType": "uint256",
                  "name": "ratioAToB",
                  "type": "uint256"
                },
                {
                  "internalType": "uint256",
                  "name": "ratioBToA",
                  "type": "uint256"
                },
                {
                  "internalType": "bytes1",
                  "name": "intervalsInSwap",
                  "type": "bytes1"
                }
              ],
              "internalType": "struct IDCAHubSwapHandler.PairInSwap[]",
              "name": "pairs",
              "type": "tuple[]"
            }
          ],
          "internalType": "struct IDCAHubSwapHandler.SwapInfo",
          "name": "",
          "type": "tuple"
        }
      ],
      "stateMutability": "nonpayable",
      "type": "function"
    },
    {
      "inputs": [
        {
          "internalType": "address",
          "name": "",
          "type": "address"
        }
      ],
      "name": "tokenHasApprovalIssue",
      "outputs": [
        {
          "internalType": "bool",
          "name": "",
          "type": "bool"
        }
      ],
      "stateMutability": "view",
      "type": "function"
    },
    {
      "inputs": [],
      "name": "wToken",
      "outputs": [
        {
          "internalType": "contract IWrappedProtocolToken",
          "name": "",
          "type": "address"
        }
      ],
      "stateMutability": "view",
      "type": "function"
    }
  ],
  "transactionHash": "0x803d315fde27b6ad52124fd7555b20b4a2dbaddd19ba376bee61e4fc2c451f1f",
  "args": [
    "0x00A882bD48377309d1DfA59bf49E60729f04c9DF",
    "0xd0a1e359811322d97991e03f863a0c30c2cf029c",
    "0x1a00e1E311009E56e3b0B9Ed6F86f5Ce128a1C01"
  ],
  "numDeployments": 1,
  "solcInputHash": "42881d05e80e69f3f8a5ee0a2913ac1d",
  "bytecode": "0x60c06040523480156200001157600080fd5b50604051620030c7380380620030c783398101604081905262000034916200011a565b828282806001600160a01b038116620000935760405162461bcd60e51b815260206004820152601860248201527f476f7665726e61626c653a207a65726f20616464726573730000000000000000604482015260640160405180910390fd5b600080546001600160a01b0319166001600160a01b0392831617905583161580620000c557506001600160a01b038216155b15620000e45760405163d92e233d60e01b815260040160405180910390fd5b506001600160a01b039182166080521660a052506200016e915050565b6001600160a01b03811681146200011757600080fd5b50565b6000806000606084860312156200013057600080fd5b83516200013d8162000101565b6020850151909350620001508162000101565b6040850151909250620001638162000101565b809150509250925092565b60805160a051612ef4620001d36000396000818161016a01528181611146015261119301526000818161025801528181610730015281816109fd01528181610e390152818161128301528181611745015281816117a401526117dd0152612ef46000f3fe60806040526004361061010e5760003560e01c806350f1fe7e116100a5578063b452cdc411610074578063e3056a3411610059578063e3056a341461034c578063e43581b81461036a578063f235757f1461039957600080fd5b8063b452cdc4146102ed578063df08aed51461031d57600080fd5b806350f1fe7e1461027a5780635817c99e1461029a57806382643589146102ba578063a8bf39fd146102da57600080fd5b806322c7df40116100e157806322c7df40146101d957806328c756b0146102065780632db8c12914610226578063365a86fc1461024657600080fd5b8063065f957d146101135780630babd864146101585780630c340a24146101a457806313f6986d146101c2575b600080fd5b34801561011f57600080fd5b5061014361012e366004611d70565b60026020526000908152604090205460ff1681565b60405190151581526020015b60405180910390f35b34801561016457600080fd5b5061018c7f000000000000000000000000000000000000000000000000000000000000000081565b6040516001600160a01b03909116815260200161014f565b3480156101b057600080fd5b506000546001600160a01b031661018c565b3480156101ce57600080fd5b506101d76103b9565b005b3480156101e557600080fd5b506101f96101f4366004611e37565b610448565b60405161014f9190611fb4565b34801561021257600080fd5b506101d761022136600461203a565b6104c3565b34801561023257600080fd5b506101d76102413660046120a6565b61064f565b34801561025257600080fd5b5061018c7f000000000000000000000000000000000000000000000000000000000000000081565b34801561028657600080fd5b506101f9610295366004611e37565b6106b9565b3480156102a657600080fd5b506101d76102b5366004612129565b610725565b3480156102c657600080fd5b506101d76102d5366004612207565b61086c565b6101f96102e8366004612240565b61094f565b3480156102f957600080fd5b50610143610308366004611d70565b60036020526000908152604090205460ff1681565b34801561032957600080fd5b50610143610338366004611d70565b6001546001600160a01b0391821691161490565b34801561035857600080fd5b506001546001600160a01b031661018c565b34801561037657600080fd5b50610143610385366004611d70565b6000546001600160a01b0391821691161490565b3480156103a557600080fd5b506101d76103b4366004611d70565b610c12565b6001546001600160a01b0316331461043e5760405162461bcd60e51b815260206004820152602160248201527f476f7665726e61626c653a206f6e6c792070656e64696e6720676f7665726e6f60448201527f720000000000000000000000000000000000000000000000000000000000000060648201526084015b60405180910390fd5b610446610c78565b565b60408051808201909152606080825260208201526040805160c0810182526001600160a01b03808f1682528d81166020830152600092820183905286151560608301528516608082015260a081016104a0888a6124b2565b905290506104b28b8b8b8b8588610d38565b9d9c50505050505050505050505050565b6000546001600160a01b0316331461051d5760405162461bcd60e51b815260206004820152601960248201527f476f7665726e61626c653a206f6e6c7920676f7665726e6f72000000000000006044820152606401610435565b828114610556576040517fbab9192000000000000000000000000000000000000000000000000000000000815260040160405180910390fd5b60005b8381101561060b5782828281811061057357610573612526565b90506020020160208101906105889190612555565b6002600087878581811061059e5761059e612526565b90506020020160208101906105b39190611d70565b6001600160a01b03168152602081019190915260400160002080547fffffffffffffffffffffffffffffffffffffffffffffffffffffffffffffff001691151591909117905580610603816125a1565b915050610559565b507f03f0491d4ac1dcd8629e84f9f0d6af60220d6d3e6ce76dc9750959b580cf75e8848484846040516106419493929190612617565b60405180910390a150505050565b6000546001600160a01b031633146106a95760405162461bcd60e51b815260206004820152601960248201527f476f7665726e61626c653a206f6e6c7920676f7665726e6f72000000000000006044820152606401610435565b6106b4838383610f46565b505050565b604080518082019091526060808252602082015260006040518060c001604052808e6001600160a01b031681526020018d6001600160a01b031681526020016001151581526020018615158152602001856001600160a01b031681526020018888906104a091906124b2565b336001600160a01b037f00000000000000000000000000000000000000000000000000000000000000001614610787576040517f06ecbc5400000000000000000000000000000000000000000000000000000000815260040160405180910390fd5b6001600160a01b03871630146107c9576040517fd219c5db00000000000000000000000000000000000000000000000000000000815260040160405180910390fd5b60006107d782840184612675565b90506001815160028111156107ee576107ee6126f9565b0361080757610802878783602001516110ea565b610862565b60028151600281111561081c5761081c6126f9565b0361083057610802878783602001516112c2565b6040517f012ca0b800000000000000000000000000000000000000000000000000000000815260040160405180910390fd5b5050505050505050565b6000546001600160a01b031633146108c65760405162461bcd60e51b815260206004820152601960248201527f476f7665726e61626c653a206f6e6c7920676f7665726e6f72000000000000006044820152606401610435565b6001600160a01b038216610906576040517fd92e233d00000000000000000000000000000000000000000000000000000000815260040160405180910390fd5b6001600160a01b0391909116600090815260036020526040902080547fffffffffffffffffffffffffffffffffffffffffffffffffffffffffffffff0016911515919091179055565b604080518082019091526060808252602082015281804211156109b45760405162461bcd60e51b815260206004820152601360248201527f5472616e73616374696f6e20746f6f206f6c64000000000000000000000000006044820152606401610435565b60008b67ffffffffffffffff8111156109cf576109cf61231e565b6040519080825280602002602001820160405280156109f8578160200160208202803683370190505b5090507f00000000000000000000000000000000000000000000000000000000000000006001600160a01b0316632a2a1a748e8e8e8e8a3088604051806040016040528060016002811115610a4f57610a4f6126f9565b8152604080518082018252338082523460209283019081528351808401929092525181840152825180820384018152606090910183529281019290925251610a98929101612780565b6040516020818303038152906040526040518963ffffffff1660e01b8152600401610aca98979695949392919061281f565b6000604051808303816000875af1158015610ae9573d6000803e3d6000fd5b505050506040513d6000823e601f3d908101601f19168201604052610b1191908101906129ce565b925060005b835151811015610c0157600084600001518281518110610b3857610b38612526565b602002602001015190508a8a83818110610b5457610b54612526565b9050602002013581602001511015610b98576040517f861aeb1f00000000000000000000000000000000000000000000000000000000815260040160405180910390fd5b888883818110610baa57610baa612526565b9050602002013581604001511115610bee576040517fedddba2700000000000000000000000000000000000000000000000000000000815260040160405180910390fd5b5080610bf9816125a1565b915050610b16565b5050509a9950505050505050505050565b6000546001600160a01b03163314610c6c5760405162461bcd60e51b815260206004820152601960248201527f476f7665726e61626c653a206f6e6c7920676f7665726e6f72000000000000006044820152606401610435565b610c7581611857565b50565b6001546001600160a01b0316610cd05760405162461bcd60e51b815260206004820152601f60248201527f476f7665726e61626c653a206e6f2070656e64696e6720676f7665726e6f72006044820152606401610435565b60018054600080547fffffffffffffffffffffffff00000000000000000000000000000000000000009081166001600160a01b0384161782559091169091556040517fdc57ca23c46d823853915ed5a090ca0ee9db5eb6a46f5c58e1c9158de861fd769190a1565b60408051808201909152606080825260208201528180421115610d9d5760405162461bcd60e51b815260206004820152601360248201527f5472616e73616374696f6e20746f6f206f6c64000000000000000000000000006044820152606401610435565b83516001600160a01b031660009081526003602052604090205460ff16610df0576040517fa5d3ca3400000000000000000000000000000000000000000000000000000000815260040160405180910390fd5b60008767ffffffffffffffff811115610e0b57610e0b61231e565b604051908082528060200260200182016040528015610e34578160200160208202803683370190505b5090507f00000000000000000000000000000000000000000000000000000000000000006001600160a01b0316632a2a1a748a8a8a8a3030886040518060400160405280600280811115610e8a57610e8a6126f9565b81526020018f604051602001610ea09190612af8565b60408051601f19818403018152918152915251610ec09190602001612780565b6040516020818303038152906040526040518963ffffffff1660e01b8152600401610ef298979695949392919061281f565b6000604051808303816000875af1158015610f11573d6000803e3d6000fd5b505050506040513d6000823e601f3d908101601f19168201604052610f3991908101906129ce565b9998505050505050505050565b6001600160a01b038316610f9c5760405162461bcd60e51b815260206004820152601d60248201527f436f6c6c65637461626c65447573743a207a65726f20616464726573730000006044820152606401610435565b610fa7600483611919565b1561101a5760405162461bcd60e51b815260206004820152602a60248201527f436f6c6c65637461626c65447573743a20746f6b656e2069732070617274206f60448201527f662070726f746f636f6c000000000000000000000000000000000000000000006064820152608401610435565b7fffffffffffffffffffffffff11111111111111111111111111111111111111126001600160a01b03831601611086576040516001600160a01b0384169082156108fc029083906000818181858888f19350505050158015611080573d6000803e3d6000fd5b5061109a565b61109a6001600160a01b038316848361193e565b604080516001600160a01b038086168252841660208201529081018290527f1e34c1aee8e83c2dcc14c21bb4bfeea7f46c0c998cb797ac7cc4d7a18f5c656b9060600160405180910390a1505050565b6000818060200190518101906111009190612bc9565b905060005b838110156112bb57600085858381811061112157611121612526565b9050608002018036038101906111379190612c21565b6040810151909150156112a8577f00000000000000000000000000000000000000000000000000000000000000006001600160a01b031681600001516001600160a01b031614801561118c5750602083015115155b15611268577f00000000000000000000000000000000000000000000000000000000000000006001600160a01b031663d0e30db082604001516040518263ffffffff1660e01b81526004016000604051808303818588803b1580156111f057600080fd5b505af1158015611204573d6000803e3d6000fd5b50505050508060400151836020015111156112685782600001516001600160a01b03166108fc8260400151856020015161123e9190612c90565b6040518115909202916000818181858888f19350505050158015611266573d6000803e3d6000fd5b505b8251604082015182516112a8926001600160a01b03909116917f0000000000000000000000000000000000000000000000000000000000000000906119e7565b50806112b3816125a1565b915050611105565b5050505050565b6000818060200190518101906112d89190612d79565b905060005b838110156115e85760008585838181106112f9576112f9612526565b90506080020180360381019061130f9190612c21565b6020810151909150156115d55780516001600160a01b03811660009081526002602052604090205460ff16806113f157816001600160a01b031663095ea7b38660200151856020015160016113649190612e41565b6040517fffffffff0000000000000000000000000000000000000000000000000000000060e085901b1681526001600160a01b03909216600483015260248201526044016020604051808303816000875af11580156113c7573d6000803e3d6000fd5b505050506040513d601f19601f820116820180604052508101906113eb9190612e59565b506115d2565b60208501516040517fdd62ed3e0000000000000000000000000000000000000000000000000000000081523060048201526001600160a01b03918216602482015260009184169063dd62ed3e90604401602060405180830381865afa15801561145e573d6000803e3d6000fd5b505050506040513d601f19601f820116820180604052508101906114829190612e76565b905083602001518110156115d057801561152a5760208601516040517f095ea7b30000000000000000000000000000000000000000000000000000000081526001600160a01b039182166004820152600060248201529084169063095ea7b3906044016020604051808303816000875af1158015611504573d6000803e3d6000fd5b505050506040513d601f19601f820116820180604052508101906115289190612e59565b505b602080870151908501516040517f095ea7b30000000000000000000000000000000000000000000000000000000081526001600160a01b0386169263095ea7b39261158b926004016001600160a01b03929092168252602082015260400190565b6020604051808303816000875af11580156115aa573d6000803e3d6000fd5b505050506040513d601f19601f820116820180604052508101906115ce9190612e59565b505b505b50505b50806115e0816125a1565b9150506112dd565b5060005b8160a00151518110156116365761162482600001518360a00151838151811061161757611617612526565b6020026020010151611a3e565b8061162e816125a1565b9150506115ec565b5060005b838110156112bb57600085858381811061165657611656612526565b61166c9260206080909202019081019150611d70565b6040517f70a082310000000000000000000000000000000000000000000000000000000081523060048201529091506000906001600160a01b038316906370a0823190602401602060405180830381865afa1580156116cf573d6000803e3d6000fd5b505050506040513d601f19601f820116820180604052508101906116f39190612e76565b9050801561184257600087878581811061170f5761170f612526565b9050608002016040013590506000811115611826578460600151156117815760008560400151611743578560800151611765565b7f00000000000000000000000000000000000000000000000000000000000000005b905061177b6001600160a01b038516828561193e565b50611840565b84604001518061179057508082145b156117ce576117c96001600160a01b0384167f00000000000000000000000000000000000000000000000000000000000000008461193e565b611840565b6118026001600160a01b0384167f00000000000000000000000000000000000000000000000000000000000000008361193e565b60808501516117c9906118158385612c90565b6001600160a01b038616919061193e565b6080850151611840906001600160a01b038516908461193e565b505b5050808061184f906125a1565b91505061163a565b6001600160a01b0381166118ad5760405162461bcd60e51b815260206004820152601860248201527f476f7665726e61626c653a207a65726f206164647265737300000000000000006044820152606401610435565b600180547fffffffffffffffffffffffff0000000000000000000000000000000000000000166001600160a01b0383169081179091556040519081527f56bddfa0cee9697cebddf9acd7f23dc6583663b05e007b877056d05017994def9060200160405180910390a150565b6001600160a01b038116600090815260018301602052604081205415155b9392505050565b6040516001600160a01b0383166024820152604481018290526106b49084907fa9059cbb00000000000000000000000000000000000000000000000000000000906064015b60408051601f198184030181529190526020810180517bffffffffffffffffffffffffffffffffffffffffffffffffffffffff167fffffffff0000000000000000000000000000000000000000000000000000000090931692909217909152611ad7565b6040516001600160a01b0380851660248301528316604482015260648101829052611a389085907f23b872dd0000000000000000000000000000000000000000000000000000000090608401611983565b50505050565b6000826001600160a01b0316600083604051611a5a9190612e8f565b60006040518083038185875af1925050503d8060008114611a97576040519150601f19603f3d011682016040523d82523d6000602084013e611a9c565b606091505b50509050806106b4576040517f254a88ad00000000000000000000000000000000000000000000000000000000815260040160405180910390fd5b6000611b2c826040518060400160405280602081526020017f5361666545524332303a206c6f772d6c6576656c2063616c6c206661696c6564815250856001600160a01b0316611bbc9092919063ffffffff16565b8051909150156106b45780806020019051810190611b4a9190612e59565b6106b45760405162461bcd60e51b815260206004820152602a60248201527f5361666545524332303a204552433230206f7065726174696f6e20646964206e60448201527f6f742073756363656564000000000000000000000000000000000000000000006064820152608401610435565b6060611bcb8484600085611bd3565b949350505050565b606082471015611c4b5760405162461bcd60e51b815260206004820152602660248201527f416464726573733a20696e73756666696369656e742062616c616e636520666f60448201527f722063616c6c00000000000000000000000000000000000000000000000000006064820152608401610435565b843b611c995760405162461bcd60e51b815260206004820152601d60248201527f416464726573733a2063616c6c20746f206e6f6e2d636f6e74726163740000006044820152606401610435565b600080866001600160a01b03168587604051611cb59190612e8f565b60006040518083038185875af1925050503d8060008114611cf2576040519150601f19603f3d011682016040523d82523d6000602084013e611cf7565b606091505b5091509150611d07828286611d12565b979650505050505050565b60608315611d21575081611937565b825115611d315782518084602001fd5b8160405162461bcd60e51b81526004016104359190612eab565b6001600160a01b0381168114610c7557600080fd5b8035611d6b81611d4b565b919050565b600060208284031215611d8257600080fd5b813561193781611d4b565b60008083601f840112611d9f57600080fd5b50813567ffffffffffffffff811115611db757600080fd5b6020830191508360208260051b8501011115611dd257600080fd5b9250929050565b60008083601f840112611deb57600080fd5b50813567ffffffffffffffff811115611e0357600080fd5b6020830191508360208260061b8501011115611dd257600080fd5b8015158114610c7557600080fd5b8035611d6b81611e1e565b60008060008060008060008060008060006101008c8e031215611e5957600080fd5b611e628c611d60565b9a50611e7060208d01611d60565b995067ffffffffffffffff8060408e01351115611e8c57600080fd5b611e9c8e60408f01358f01611d8d565b909a50985060608d0135811015611eb257600080fd5b611ec28e60608f01358f01611dd9565b909850965060808d0135811015611ed857600080fd5b50611ee98d60808e01358e01611d8d565b9095509350611efa60a08d01611e2c565b9250611f0860c08d01611d60565b915060e08c013590509295989b509295989b9093969950565b600081518084526020808501945080840160005b83811015611fa957815180516001600160a01b03908116895284820151168489015260408082015190890152606080820151908901526080908101517fff00000000000000000000000000000000000000000000000000000000000000169088015260a09096019590820190600101611f35565b509495945050505050565b600060208083526060808401855160408085880152828251808552608094508489019150868401935060005b8181101561201e57845180516001600160a01b0316845288810151898501528481015185850152870151878401529387019391850191600101611fe0565b505094880151878603601f19018289015294610f398187611f21565b6000806000806040858703121561205057600080fd5b843567ffffffffffffffff8082111561206857600080fd5b61207488838901611d8d565b9096509450602087013591508082111561208d57600080fd5b5061209a87828801611d8d565b95989497509550505050565b6000806000606084860312156120bb57600080fd5b83356120c681611d4b565b925060208401356120d681611d4b565b929592945050506040919091013590565b60008083601f8401126120f957600080fd5b50813567ffffffffffffffff81111561211157600080fd5b602083019150836020828501011115611dd257600080fd5b60008060008060008060006080888a03121561214457600080fd5b873561214f81611d4b565b9650602088013567ffffffffffffffff8082111561216c57600080fd5b818a0191508a601f83011261218057600080fd5b81358181111561218f57600080fd5b8b60208260071b85010111156121a457600080fd5b6020830198508097505060408a01359150808211156121c257600080fd5b6121ce8b838c01611d8d565b909650945060608a01359150808211156121e757600080fd5b506121f48a828b016120e7565b989b979a50959850939692959293505050565b6000806040838503121561221a57600080fd5b823561222581611d4b565b9150602083013561223581611e1e565b809150509250929050565b60008060008060008060008060008060c08b8d03121561225f57600080fd5b8a3567ffffffffffffffff8082111561227757600080fd5b6122838e838f01611d8d565b909c509a5060208d013591508082111561229c57600080fd5b6122a88e838f01611dd9565b909a50985060408d01359150808211156122c157600080fd5b6122cd8e838f01611d8d565b909850965060608d01359150808211156122e657600080fd5b506122f38d828e01611d8d565b9095509350612306905060808c01611d60565b915060a08b013590509295989b9194979a5092959850565b7f4e487b7100000000000000000000000000000000000000000000000000000000600052604160045260246000fd5b6040805190810167ffffffffffffffff811182821017156123705761237061231e565b60405290565b60405160a0810167ffffffffffffffff811182821017156123705761237061231e565b6040516080810167ffffffffffffffff811182821017156123705761237061231e565b60405160c0810167ffffffffffffffff811182821017156123705761237061231e565b604051601f8201601f1916810167ffffffffffffffff811182821017156124085761240861231e565b604052919050565b600067ffffffffffffffff82111561242a5761242a61231e565b5060051b60200190565b600067ffffffffffffffff82111561244e5761244e61231e565b50601f01601f191660200190565b600082601f83011261246d57600080fd5b813561248061247b82612434565b6123df565b81815284602083860101111561249557600080fd5b816020850160208301376000918101602001919091529392505050565b60006124c061247b84612410565b80848252602080830192508560051b8501368111156124de57600080fd5b855b8181101561251a57803567ffffffffffffffff8111156125005760008081fd5b61250c36828a0161245c565b8652509382019382016124e0565b50919695505050505050565b7f4e487b7100000000000000000000000000000000000000000000000000000000600052603260045260246000fd5b60006020828403121561256757600080fd5b813561193781611e1e565b7f4e487b7100000000000000000000000000000000000000000000000000000000600052601160045260246000fd5b60007fffffffffffffffffffffffffffffffffffffffffffffffffffffffffffffffff82036125d2576125d2612572565b5060010190565b8183526000602080850194508260005b85811015611fa95781356125fc81611d4b565b6001600160a01b0316875295820195908201906001016125e9565b60408152600061262b6040830186886125d9565b8281036020848101919091528482528591810160005b8681101561266857833561265481611e1e565b151582529282019290820190600101612641565b5098975050505050505050565b60006020828403121561268757600080fd5b813567ffffffffffffffff8082111561269f57600080fd5b90830190604082860312156126b357600080fd5b6126bb61234d565b8235600381106126ca57600080fd5b81526020830135828111156126de57600080fd5b6126ea8782860161245c565b60208301525095945050505050565b7f4e487b7100000000000000000000000000000000000000000000000000000000600052602160045260246000fd5b60005b8381101561274357818101518382015260200161272b565b83811115611a385750506000910152565b6000815180845261276c816020860160208601612728565b601f01601f19169290920160200192915050565b6020815260008251600381106127bf577f4e487b7100000000000000000000000000000000000000000000000000000000600052602160045260246000fd5b806020840152506020830151604080840152611bcb6060840182612754565b803560ff81168114611d6b57600080fd5b600081518084526020808501945080840160005b83811015611fa957815187529582019590820190600101612803565b60c08152600061283360c083018a8c6125d9565b8281036020848101919091528882528991810160005b8a8110156128845760ff8061285d866127de565b1683528061286c8587016127de565b16838501525060409384019390910190600101612849565b506001600160a01b03891660408601526001600160a01b038816606086015284810360808601526128b581886127ef565b9250505082810360a08401526128cb8185612754565b9b9a5050505050505050505050565b8051611d6b81611d4b565b600082601f8301126128f657600080fd5b8151602061290661247b83612410565b82815260a0928302850182019282820191908785111561292557600080fd5b8387015b858110156129c15781818a0312156129415760008081fd5b612949612376565b815161295481611d4b565b81528186015161296381611d4b565b8187015260408281015190820152606080830151908201526080808301517fff00000000000000000000000000000000000000000000000000000000000000811681146129b05760008081fd5b908201528452928401928101612929565b5090979650505050505050565b600060208083850312156129e157600080fd5b825167ffffffffffffffff808211156129f957600080fd5b81850191506040808388031215612a0f57600080fd5b612a1761234d565b835183811115612a2657600080fd5b8401601f81018913612a3757600080fd5b8051612a4561247b82612410565b81815260079190911b8201870190878101908b831115612a6457600080fd5b928801925b82841015612ac2576080848d031215612a825760008081fd5b612a8a612399565b8451612a9581611d4b565b8152848a01518a820152868501518782015260608086015190820152825260809093019290880190612a69565b845250505083850151915082821115612ada57600080fd5b612ae6888386016128e5565b85820152809550505050505092915050565b6000602080835260e083016001600160a01b03808651168386015280838701511660408601526040860151151560608601526060860151151560808601528060808701511660a08601525060a085015160c08086015281815180845261010093508387019150838160051b8801019350848301925060005b81811015612bbc577fffffffffffffffffffffffffffffffffffffffffffffffffffffffffffffff00888603018352612baa858551612754565b94509285019291850191600101612b70565b5092979650505050505050565b600060408284031215612bdb57600080fd5b6040516040810181811067ffffffffffffffff82111715612bfe57612bfe61231e565b6040528251612c0c81611d4b565b81526020928301519281019290925250919050565b600060808284031215612c3357600080fd5b6040516080810181811067ffffffffffffffff82111715612c5657612c5661231e565b6040528235612c6481611d4b565b808252506020830135602082015260408301356040820152606083013560608201528091505092915050565b600082821015612ca257612ca2612572565b500390565b8051611d6b81611e1e565b600082601f830112612cc357600080fd5b81516020612cd361247b83612410565b82815260059290921b84018101918181019086841115612cf257600080fd5b8286015b84811015612d6e57805167ffffffffffffffff811115612d165760008081fd5b8701603f81018913612d285760008081fd5b848101516040612d3a61247b83612434565b8281528b82848601011115612d4f5760008081fd5b612d5e83898301848701612728565b8652505050918301918301612cf6565b509695505050505050565b600060208284031215612d8b57600080fd5b815167ffffffffffffffff80821115612da357600080fd5b9083019060c08286031215612db757600080fd5b612dbf6123bc565b8251612dca81611d4b565b81526020830151612dda81611d4b565b60208201526040830151612ded81611e1e565b6040820152612dfe60608401612ca7565b6060820152612e0f608084016128da565b608082015260a083015182811115612e2657600080fd5b612e3287828601612cb2565b60a08301525095945050505050565b60008219821115612e5457612e54612572565b500190565b600060208284031215612e6b57600080fd5b815161193781611e1e565b600060208284031215612e8857600080fd5b5051919050565b60008251612ea1818460208701612728565b9190910192915050565b602081526000611937602083018461275456fea2646970667358221220bb91d0ad1c24aec889da6f524eea90bfb99cef5c4fa1d941db890b5b32a7ac8f64736f6c634300080d0033",
  "devdoc": {
    "kind": "dev",
    "methods": {
      "defineDexSupport(address,bool)": {
        "details": "Will revert with `ZeroAddress` if the zero address if given",
        "params": {
          "_dex": "The address of the DEX",
          "_support": "Whether the Companion should support swaps with the given DEX"
        }
      },
      "setTokensWithApprovalIssues(address[],bool[])": {
        "details": "Will revert with `InvalidTokenApprovalParams` if the length of the given arrays differ",
        "params": {
          "_addresses": "The addresses of the tokens",
          "_hasIssue": "Wether they have issues or not"
        }
      },
      "swapForCaller(address[],(uint8,uint8)[],uint256[],uint256[],address,uint256)": {
        "details": "Will revert: With RewardNotEnough if the minimum output is not met With ToProvideIsTooMuch if the hub swap requires more than the given maximum input",
        "params": {
          "_deadline": "Deadline when the swap becomes invalid",
          "_maximumInput": "The maximum amount of tokens to provide as part of the swap",
          "_minimumOutput": "The minimum amount of tokens to receive as part of the swap",
          "_pairsToSwap": "The pairs to swap",
          "_recipient": "Address that will receive all the tokens from the swap",
          "_tokens": "The tokens involved in the swap"
        },
        "returns": {
          "_swapInfo": "The information about the executed swap"
        }
      },
      "swapWithDex(address,address,address[],(uint8,uint8)[],bytes[],bool,address,uint256)": {
        "params": {
          "_callsToDex": "The bytes to send to the DEX to execute swaps",
          "_deadline": "Deadline when the swap becomes invalid",
          "_dex": "The DEX that will be used in the swap",
          "_doDexSwapsIncludeTransferToHub": "Some DEXes support swap & transfer, which would be cheaper in terms of gas If this feature is used, then the flag should be true",
          "_leftoverRecipient": "Address that will receive all unspent tokens",
          "_pairsToSwap": "The pairs to swap",
          "_tokens": "The tokens involved in the swap",
          "_tokensProxy": "The spender of the tokens (could be different from the dex)"
        },
        "returns": {
          "_0": "The information about the executed swap"
        }
      },
      "swapWithDexAndShareLeftoverWithHub(address,address,address[],(uint8,uint8)[],bytes[],bool,address,uint256)": {
        "params": {
          "_callsToDex": "The bytes to send to the DEX to execute swaps",
          "_deadline": "Deadline when the swap becomes invalid",
          "_dex": "The DEX that will be used in the swap",
          "_doDexSwapsIncludeTransferToHub": "Some DEXes support swap & transfer, which would be cheaper in terms of gas If this feature is used, then the flag should be true",
          "_leftoverRecipient": "Address that will receive `reward` unspent tokens",
          "_pairsToSwap": "The pairs to swap",
          "_tokens": "The tokens involved in the swap",
          "_tokensProxy": "The spender of the tokens (could be different from the dex)"
        },
        "returns": {
          "_0": "The information about the executed swap"
        }
      }
    },
    "version": 1
  },
  "userdoc": {
    "errors": {
      "CallToDexFailed()": [
        {
          "notice": "Thrown when a call to the given DEX fails"
        }
      ],
      "CallbackNotCalledByHub()": [
        {
          "notice": "Thrown when callback is not called by the hub"
        }
      ],
      "InvalidTokenApprovalParams()": [
        {
          "notice": "Thrown when the given parameters are invalid"
        }
      ],
      "RewardNotEnough()": [
        {
          "notice": "Thrown when the reward is less that the specified minimum"
        }
      ],
      "SwapNotInitiatedByCompanion()": [
        {
          "notice": "Thrown when swap was not initiated by the companion"
        }
      ],
      "ToProvideIsTooMuch()": [
        {
          "notice": "Thrown when the amount to provide is more than the specified maximum"
        }
      ],
      "UnauthorizedCaller()": [
        {
          "notice": "Thrown when a user tries operate on a position that they don't have access to"
        }
      ],
      "UnexpectedSwapPlan()": [
        {
          "notice": "Thrown when the callback is executed with an unexpected swap plan"
        }
      ],
      "UnsupportedDex()": [
        {
          "notice": "Thrown when a swap is executed with a DEX that is not supported"
        }
      ],
      "ZeroAddress()": [
        {
          "notice": "Thrown when one of the parameters is a zero address"
        }
      ]
    },
    "events": {
      "TokenWithApprovalIssuesSet(address[],bool[])": {
        "notice": "Emitted when tokens with approval issues are set"
      }
    },
    "kind": "user",
    "methods": {
      "defineDexSupport(address,bool)": {
        "notice": "Defines whether a specific DEX will be supported for swaps"
      },
      "hub()": {
        "notice": "Returns the DCA Hub's address"
      },
      "isDexSupported(address)": {
        "notice": "Returns whether the given DEX can be used for swaps for not"
      },
      "setTokensWithApprovalIssues(address[],bool[])": {
        "notice": "Sets whether specific addresses have issues with approvals, like USDT"
      },
      "swapForCaller(address[],(uint8,uint8)[],uint256[],uint256[],address,uint256)": {
        "notice": "Executes a swap for the caller, by sending them the reward, and taking from them the needed tokens"
      },
      "swapWithDex(address,address,address[],(uint8,uint8)[],bytes[],bool,address,uint256)": {
        "notice": "Executes a swap with the given DEX, and sends all unspent tokens to the given recipient"
      },
      "swapWithDexAndShareLeftoverWithHub(address,address,address[],(uint8,uint8)[],bytes[],bool,address,uint256)": {
        "notice": "Executes a swap with the given DEX and sends all `reward` unspent tokens to the given recipient. All positive slippage for tokens that need to be returned to the hub is also sent to the hub"
      },
      "tokenHasApprovalIssue(address)": {
        "notice": "Returns whether the given address has issues with approvals, like USDT"
      },
      "wToken()": {
        "notice": "Returns the address of the wrapped token"
      }
    },
    "version": 1
  },
  "storageLayout": {
    "storage": [
      {
        "astId": 9222,
        "contract": "contracts/DCAHubSwapper/DCAHubSwapper.sol:DCAHubSwapper",
        "label": "_governor",
        "offset": 0,
        "slot": "0",
        "type": "t_address"
      },
      {
        "astId": 9224,
        "contract": "contracts/DCAHubSwapper/DCAHubSwapper.sol:DCAHubSwapper",
        "label": "_pendingGovernor",
        "offset": 0,
        "slot": "1",
        "type": "t_address"
      },
      {
        "astId": 4877,
        "contract": "contracts/DCAHubSwapper/DCAHubSwapper.sol:DCAHubSwapper",
        "label": "tokenHasApprovalIssue",
        "offset": 0,
        "slot": "2",
        "type": "t_mapping(t_address,t_bool)"
      },
      {
        "astId": 5006,
        "contract": "contracts/DCAHubSwapper/DCAHubSwapper.sol:DCAHubSwapper",
        "label": "isDexSupported",
        "offset": 0,
        "slot": "3",
        "type": "t_mapping(t_address,t_bool)"
      },
      {
        "astId": 9116,
        "contract": "contracts/DCAHubSwapper/DCAHubSwapper.sol:DCAHubSwapper",
        "label": "_protocolTokens",
        "offset": 0,
        "slot": "4",
        "type": "t_struct(AddressSet)3356_storage"
      }
    ],
    "types": {
      "t_address": {
        "encoding": "inplace",
        "label": "address",
        "numberOfBytes": "20"
      },
      "t_array(t_bytes32)dyn_storage": {
        "base": "t_bytes32",
        "encoding": "dynamic_array",
        "label": "bytes32[]",
        "numberOfBytes": "32"
      },
      "t_bool": {
        "encoding": "inplace",
        "label": "bool",
        "numberOfBytes": "1"
      },
      "t_bytes32": {
        "encoding": "inplace",
        "label": "bytes32",
        "numberOfBytes": "32"
      },
      "t_mapping(t_address,t_bool)": {
        "encoding": "mapping",
        "key": "t_address",
        "label": "mapping(address => bool)",
        "numberOfBytes": "32",
        "value": "t_bool"
      },
      "t_mapping(t_bytes32,t_uint256)": {
        "encoding": "mapping",
        "key": "t_bytes32",
        "label": "mapping(bytes32 => uint256)",
        "numberOfBytes": "32",
        "value": "t_uint256"
      },
      "t_struct(AddressSet)3356_storage": {
        "encoding": "inplace",
        "label": "struct EnumerableSet.AddressSet",
        "members": [
          {
            "astId": 3355,
            "contract": "contracts/DCAHubSwapper/DCAHubSwapper.sol:DCAHubSwapper",
            "label": "_inner",
            "offset": 0,
            "slot": "0",
            "type": "t_struct(Set)3055_storage"
          }
        ],
        "numberOfBytes": "64"
      },
      "t_struct(Set)3055_storage": {
        "encoding": "inplace",
        "label": "struct EnumerableSet.Set",
        "members": [
          {
            "astId": 3050,
            "contract": "contracts/DCAHubSwapper/DCAHubSwapper.sol:DCAHubSwapper",
            "label": "_values",
            "offset": 0,
            "slot": "0",
            "type": "t_array(t_bytes32)dyn_storage"
          },
          {
            "astId": 3054,
            "contract": "contracts/DCAHubSwapper/DCAHubSwapper.sol:DCAHubSwapper",
            "label": "_indexes",
            "offset": 0,
            "slot": "1",
            "type": "t_mapping(t_bytes32,t_uint256)"
          }
        ],
        "numberOfBytes": "64"
      },
      "t_uint256": {
        "encoding": "inplace",
        "label": "uint256",
        "numberOfBytes": "32"
      }
    }
  }
}